S31508002400E8360020B92600087F5200086F26000823
S315080024107B5200089D2B0008C77D000800000000BD
S31508002420000000000000000000000000236500080E
S31508002430C53B000800000000F7250008D56700081E
S31508002440CF260008CF260008CF260008CF2600088A
S31508002450CF260008CF260008CF260008CF2600087A
S31508002460CF260008CF260008CF260008CF2600086A
S31508002470CF260008CF260008CF260008CF2600085A
S31508002480CF260008CF260008CF260008CF2600084A
S31508002490CF260008CF260008CF260008CF2600083A
S315080024A0CF260008CF260008CF260008CF2600082A
S315080024B0CF260008CF260008CF260008CF2600081A
S315080024C0CF260008CF260008CF260008CF2600080A
S315080024D0CF260008A97A0008CF2600080D7B000839
S315080024E0CF260008CF260008CF26000800F002F8FD
S315080024F000F05AF80AA090E8000C82448344AAF136
S315080025000107DA4501D100F04FF8AFF2090EBAE833
S315080025100F0013F0010F18BFFB1A43F00103184709
S31508002520103F0100303F01000A444FF0000C10F83C
S31508002530013B13F0070408BF10F8014B1D1108BF33
S3150800254010F8015B641E05D010F8016B641E01F8D3
S31508002550016BF9D113F0080F1EBF10F8014BAD1C23
S315080025600C1B09D16D1E58BF01F801CBFAD505E041
S3150800257014F8016B01F8016B6D1EF9D59142D6D39B
S31508002580704700000023002400250026103A28BFC3
S3150800259078C1FBD8520728BF30C148BF0B607047C7
S315080025A01FB51FBD10B510BD00F043F91146FFF762
S315080025B0F7FF06F07BFD00F061F903B4FFF7F2FFC1
S315080025C003BC00F065F90000EFF3108072B670479F
S315080025D080F310887047324A1368012B04D04FF0F5
S315080025E0010313602F4A10602F4A11602F484FF0DD
S315080025F0805101607047EFF3108272B6284801686F
S3150800260091B14FF0000101602648016829B1EFF346
S31508002610098121E9F00F0068016023490968096802
S31508002620B1E8F00F81F3098882F310884EF0040EA2
S3150800263070471D4908601B494FF00000086018499B
S315080026404FF0010008601A484FF47F01D0F80020C7
S3150800265041EA0201016015484FF0805101601548B2
S315080026600068006880F3088862B6704700BF1EF0ED
S31508002670040F14BFEFF30880EFF3098020E9F00F89
S3150800268040F804ED14BF80F3088880F3098800B584
S3150800269007F0E2FB5DF804EB4EF0040E704700000D
S315080026A0140000200C0000201000002004ED00E0BB
S315080026B020ED00E008ED00E008480047FEE7FEE7E9
S315080026C0FEE7FEE7FEE7FEE7FEE7FEE7FEE7FEE7D4
S315080026D003480449044A054B70470000ED240008E6
S315080026E0E8300020E8360020E8320020E8320020F2
S315080026F0032A40F2308010F0030C00F0158011F820
S31508002700013BBCF1020F624498BF11F801CB00F8F7
S31508002710013B38BF11F8013BA2F1040298BF00F84B
S3150800272001CB38BF00F8013B11F0030300F0258008
S31508002730083AC0F0088051F8043B083A51F804CB2F
S31508002740A0E80810F5E7121D5CBF51F8043B40F8F5
S31508002750043BAFF30080D20724BF11F8013B11F800
S3150800276001CB48BF11F8012B24BF00F8013B00F844
S3150800277001CB48BF00F8012B704710B5203AC0F0CE
S315080027800B80B1E81850203AA0E81850B1E8185064
S31508002790A0E81850BFF4F5AF5FEA027C24BFB1E8A1
S315080027A01850A0E8185044BF18C918C0BDE8104012
S315080027B05FEA827C24BF51F8043B40F8043B08BF1B
S315080027C07047D20728BF31F8023B48BF11F8012BE2
S315080027D028BF20F8023B48BF00F8012B70474FF08E
S315080027E0000200B5134694469646203922BFA0E853
S315080027F00C50A0E80C50B1F12001BFF4F7AF09075F
S3150800280028BFA0E80C5048BF0CC05DF804EB89004F
S3150800281028BF40F8042B08BF704748BF20F8022B92
S3150800282011F0804F18BF00F8012B704770477047AA
S315080028307047754600F028F8AE46050069465346C7
S3150800284020F00700854618B020B5FFF741FFBDE820
S3150800285020404FF000064FF000074FF000084FF0F9
S31508002860000B21F00701AC46ACE8C009ACE8C0098A
S31508002870ACE8C009ACE8C0098D4670470446AFF31A
S3150800288000802046FFF799FE0048704784300020F4
S3150800289001491820ABBEFEE7260002007047CA436E
S315080028A00260704721B1826842F00102826003E04B
S315080028B0826822F0010282607047000010B5044663
S315080028C01248844208D10121401502F091FD0021E9
S315080028D0601502F08DFD17E00D48844208D10121EC
S315080028E0001502F085FD0021201502F081FD0BE0A0
S315080028F00848844208D10121C80302F079FD002165
S315080029004FF4004002F074FD10BD000000240140A1
S3150800291000280140003C0140014600208A6802F078
S3150800292004020AB1012000E0002070470146C86C85
S3150800293080B270470246002013680B400BB1012095
S3150800294000E000207047014600208A6802F008026D
S315080029500AB1012000E000207047000030B50246A9
S315080029600020002350680F4C20400D790C6844EA7B
S3150800297005242043506090680B4C2040D1E902544E
S315080029802C434D7944EA450420439060D06A20F4EC
S3150800299070000C7C641EE4B2234340EA0350D06204
S315080029A030BD0000FFFEF0FFFDF7F1FFF0B504466D
S315080029B00D4600200021092D11DDE068A5F10A0663
S315080029C006EB4607072606FA07F18843A5F10A0625
S315080029D006EB460603FA06F10843E0600CE02069B8
S315080029E005EB4507072606FA07F1884305EB450672
S315080029F003FA06F108432061072A0FDA606B561EB0
S31508002A0006EB86071F2606FA07F18843561E06EBCD
S31508002A10860605FA06F10843606322E00D2A0FDAF6
S31508002A20206BD61F06EB86071F2606FA07F1884392
S31508002A30D61F06EB860605FA06F10843206310E062
S31508002A40E06AA2F10D0606EB86071F2606FA07F1CD
S31508002A508843A2F10D0606EB860605FA06F1084339
S31508002A60E062F0BD816841F008018160704721B1DC
S31508002A70826842F4A002826003E0826822F4A0021F
S31508002A8082607047816841F00401816070470000E8
S31508002A9010B50446082C6DD2DFE804F004111E2B8D
S31508002AA03845525F1021354801F0C4FD20213348CE
S31508002AB001F0C0FD4021314801F0BEFD5BE0102168
S31508002AC02E4801F0B9FD20212C4801F0B5FD402122
S31508002AD02A4801F0AFFD4EE01021284801F0ACFD70
S31508002AE02021264801F0A8FD4021244801F0A4FD34
S31508002AF041E01021214801F09DFD20211F4801F0E9
S31508002B009BFD40211D4801F097FD34E010211B482C
S31508002B1001F090FD2021194801F08EFD402117484B
S31508002B2001F088FD27E01021144801F083FD2021DB
S31508002B30124801F07FFD4021104801F07BFD1AE0A4
S31508002B4010210E4801F078FD20210C4801F072FD95
S31508002B5040210A4801F06EFD0DE01021074801F0FA
S31508002B606BFD2021054801F065FD4021034801F071
S31508002B7063FD00E000BF00BF10BD00000008014073
S31508002B8010B502F045FC02F07BFB03F0EDFD01F009
S31508002B9079FB03F023FE01F087FD10BD00BFFEE7B9
S31508002BA000B587B01F4800F05BF804A800F084FA67
S31508002BB000208DF8160001208DF817008DF81800F2
S31508002BC000208DF819008DF81A008DF81B008DF875
S31508002BD012008DF8130002208DF8140004208DF8D9
S31508002BE015001020ADF8100004A90E4800F014F9DD
S31508002BF000208DF80A008DF80B008DF80C00ADF852
S31508002C000000ADF80200ADF80400ADF80600ADF816
S31508002C10080001208DF80D00684600F03DF807B061
S31508002C2000BD00000064004000220C4B994202D10E
S31508002C300023836111E0C1F3130201F000730BB1A5
S31508002C40C2600AE001F080630BB1026105E001F0A1
S31508002C5000630BB1826000E0426070477000F0309C
S31508002C6010B504460B48844209D10121480602F0F2
S31508002C709FFB00214FF0007002F09AFB08E001214B
S31508002C80880602F095FB00214FF0806002F090FB69
S31508002C9010BD00000064004010B50021837A0122AF
S31508002CA002FA03F13D4A126842F001023B4B1A60F0
S31508002CB03A4A1C3212688A43384B1C331A60027B24
S31508002CC0CAB9364A0C3212688A43344B0C331A6036
S31508002CD04288C38842EA0343304A4032847A42F83B
S31508002CE034300288838842EA03432C4A4032847A85
S31508002CF002EBC4025360027B012A19D1274A0C321F
S31508002D0012680A43254B0C331A604288038842EA44
S31508002D100343224A4032847A42F83430C288838890
S31508002D2042EA03431D4A4032847A02EBC4025360E6
S31508002D30C27A3AB9194A121D12688A43174B1B1DE3
S31508002D401A6006E0154A121D12680A43134B1B1D2A
S31508002D501A60028932B9114A143212688A430F4B33
S31508002D6014331A600289012A06D10C4A14321268F1
S31508002D700A430A4B14331A60427B012A06D1074AD2
S31508002D801C3212680A43054B1C331A60034A126840
S31508002D9022F00102014B1A6010BD000000660040D7
S31508002DA010B50246002001F4700343B19369C1F3DC
S31508002DB0130423400BB101202DE000202BE001F085
S31508002DC0807343B15368C1F3130423400BB1012048
S31508002DD021E000201FE001F0006343B19368C1F3CE
S31508002DE0130423400BB1012015E0002013E001F085
S31508002DF0007343B1D368C1F3130423400BB1012018
S31508002E0009E0002007E01369C1F3130423400BB15E
S31508002E10012000E0002010BD30B502460020002346
S31508002E20146824F002041460146844F00104146061
S31508002E3000E05B1C546804F001041CB94FF6FF74EB
S31508002E40A342F6D1546804F001040CB900206CE0E2
S31508002E508C79012C04D1146844F08004146003E0D2
S31508002E60146824F080041460CC79012C04D1146809
S31508002E7044F04004146003E0146824F0400414602D
S31508002E800C7A012C04D1146844F02004146003E081
S31508002E90146824F0200414604C7A012C04D11468B8
S31508002EA044F01004146003E0146824F0100414605D
S31508002EB08C7A012C04D1146844F00804146003E0E9
S31508002EC0146824F008041460CC7A012C04D1146820
S31508002ED044F00404146003E0146824F00404146045
S31508002EE08C78A407CD7844EA05640D7944EA05444C
S31508002EF04D7944EA05540D886D1E2C43D461146837
S31508002F0024F001041460002300E05B1C546804F0FC
S31508002F1001041CB14FF6FF74A342F6D1546804F0BD
S31508002F2001040CB1002000E0012030BD024600205B
S31508002F3019B9D36803F0030006E0012903D1136920
S31508002F4003F0030000E00020704700002DE9F0437D
S31508002F5085B00546884691461E463746BF014F440A
S31508002F6017491848FFF71CFF38B915491548FFF7E0
S31508002F705BFE202005B0BDE8F0836A4600211148B3
S31508002F8000F022F89DF80A00A84201D00420F1E7D3
S31508002F900098B8420BD1002406E00DF10B00005D45
S31508002FA008F80400601CC4B2AC42F6DB01E001205C
S31508002FB0E0E79DF8080008B10220DBE70820D9E71A
S31508002FC0080000320064004010B500F5D87303EB22
S31508002FD001131B6803F004031372137A53B900F53F
S31508002FE0D87303EB01131B6840F2FF7404EA5353CA
S31508002FF0136009E000F5D87303EB01131B686FF043
S31508003000604404EAD303536000F5D87303EB011355
S315080030101B6803F00203537200F5D87303EB011320
S315080030205B6803F00F03937200F5D87303EB011383
S315080030305B681B0AD37400F5D87303EB01139B680E
S31508003040D37200F5D87303EB01139B681C0A14733B
S3150800305000F5D87303EB01139B681C0C547300F539
S31508003060D87303EB01139B681B0E937300F5D87393
S3150800307003EB0113DB68D37300F5D87303EB011375
S31508003080DB681C0A147400F5D87303EB0113DB68BC
S315080030901C0C547400F5D87303EB0113DB681B0E84
S315080030A0937421B9C36843F02003C36003E003693E
S315080030B043F02003036110BD00218171C1710172C3
S315080030C041728172C1728170C1700321017102213E
S315080030D0417101210180704710B5024600209368AE
S315080030E003F08063B3F1806F00D110E0936803F0BA
S315080030F00063B3F1006F01D1012008E0936803F083
S315080031008053B3F1805F01D1022000E00420042837
S3150800311074D002F5C07303EB00131B6803F00104B7
S3150800312002F5C07303EB00131C600B7A7BB94B7A6C
S315080031300C8843EA445302F5C07404EB001424686F
S31508003140234302F5C07404EB0014236010E00B7AE5
S315080031504C6843EAC4034C7A234302F5C07404EB73
S3150800316000142468234302F5C07404EB001423609A
S315080031708B7A03F00F038B7202F5C07303EB00130F
S315080031805B6823F00F0402F5C07303EB00135C6061
S3150800319002F5C07303EB00135B688C7A234302F5D0
S315080031A0C07404EB001463608B7B1C064B7B44EAFB
S315080031B003440B7B44EA0323CC7A234302F5C07409
S315080031C004EB0014A3608B7C1C064B7C44EA034486
S315080031D00B7C44EA0323CC7B234302F5C07404EB3F
S315080031E00014E36002F5C07303EB00131B6843F099
S315080031F0010402F5C07303EB00131C6010BD000048
S315080032002DE9F04786B006460F46904699464FF098
S31508003210000A002548EA8910019000208DF80C0064
S315080032208DF80D008DF80E6000BF05E0795D0DF193
S315080032300F004155681CC5B2B542F7DB01A90E4817
S31508003240FFF74AFF8246002400E0641C51460A48FC
S3150800325000F014F8012801D0802CF6D1002400E0F3
S31508003260641C00210448FFF761FE012801DA802C5E
S31508003270F6D106B0BDE8F0870064004010B50246F6
S31508003280002321B1012907D002290FD109E090684E
S315080032901D4C00EA04030BE090681C4C00EA04038A
S315080032A006E090681A4C00EA040301E0002300BF18
S315080032B000BF184C181BA34216D007DC83B16FF069
S315080032C08060184470B1022818D111E0B0F5007F6B
S315080032D010D0114C204448B1B0F5003F0ED10BE098
S315080032E002230DE000230BE0002309E0002307E09A
S315080032F0012305E0012303E0012301E0002300BFC9
S3150800330000BFD8B210BD0000030000040003000887
S3150800331000000310000100080001FFF70146002223
S31508003320804B1A7000200EE000EB40027E4B03EB48
S315080033308202D27A012A04D17A4A1278521C794B2F
S315080033401A70421CD0B21C28EEDB01297ED100225D
S31508003350764B1A7001200FE0421E02EB4202724BB6
S3150800336003EB8202D27A012A04D1704A1278521CDF
S315080033706E4B1A70421CD0B20328EDDB00226C4B50
S315080033801A7004200FE0421E02EB4202664B03EB62
S315080033908202D27A012A04D1654A1278521C644BF9
S315080033A01A70421CD0B20628EDDB0022614B1A7057
S315080033B007200FE0421E02EB42025B4B03EB820240
S315080033C0D27A012A04D15B4A1278521C594B1A70D8
S315080033D0421CD0B20928EDDB0022574B1A700A208E
S315080033E00FE0421E02EB42024F4B03EB8202D27AF7
S315080033F0012A04D1504A1278521C4F4B1A70421CAB
S31508003400D0B20B28EDDB00224C4B1A700C200FE0D3
S31508003410421E02EB4202444B03EB8202D27A012A95
S3150800342004D1464A1278521C444B1A70421CD0B238
S315080034300F28EDDB0022424B1A703B4A92F8BF2058
S31508003440012A05D11A461278521C00E068E01A7063
S3150800345000223C4B1A7011200FE0421E02EB42027A
S31508003460314B03EB8202D27A012A04D1354A12780B
S31508003470521C344B1A70421CD0B21228EDDB0022C3
S31508003480314B1A70284A92F8E320012A03D11A46CA
S315080034901278521C1A7000222C4B1A7014200FE056
S315080034A0421E02EB4202204B03EB8202D27A012A29
S315080034B004D1264A1278521C244B1A70421CD0B2E8
S315080034C01628EDDB0022224B1A7017200FE0421E49
S315080034D002EB4202144B03EB8202D27A012A04D190
S315080034E01B4A1278521C1A4B1A70421CD0B2182862
S315080034F0EDDB0022174B1A7019200FE0421E02EB73
S315080035004202094B03EB8202D27A012A04D1114AFC
S315080035101278521C0F4B1A70421CD0B21C28EDDDD3
S31508003520704700003F020020EE00002049000020FE
S31508003530530000204F0000205000002051000020BA
S315080035404D0000204E0000204C0000204A000020BC
S31508003550520000205400002001464D4AD27802F05D
S315080035600102002A68D04B4A1278042A03DA20227C
S31508003570494B1A608BE0474A1278082A04DA4FF456
S315080035800052454B1A6082E0424A12780C2A04DA45
S315080035904FF40012404B1A6079E03E4A1278102A1E
S315080035A004DA42F220023C4B1A6070E0394A12787B
S315080035B0142A03DA394A384B1A6068E0354A127811
S315080035C0182A03DA0022344B1A6060E0314A12786E
S315080035D01C2A03DA4022304B1A6058E02D4A12782A
S315080035E0202A04DA4FF480422B4B1A604FE0294A0E
S315080035F01278242A04DA4FF48002274B1A6046E030
S31508003600244A1278282A03DA254A234B1A603EE010
S31508003610204A12782C2A03DA224A1F4B1A6036E00F
S315080036201C4A1278342A03DA1F4A1B4B1A602EE00A
S315080036300022194B1A602AE019B90022164B1A60A3
S3150800364025E0012903D1194A134B1A601FE0184ACD
S3150800365092781204164B5B7802EB0322144B1B7804
S31508003660D018B0F5801F0CD0B0F5803F09D0B0F562
S31508003670805F06D0B0F5807F03D0102801D00128DE
S3150800368002D1054A106002E00A4A034B1A607047E5
S3150800369030000020DA000020E8000020202020006A
S315080036A0404040006060600010101000303030006C
S315080036B0AF0000200303030038B5FE48007805284C
S315080036C002DA4FF4FC6400E01F2418202346032284
S315080036D01E210090252002F025FF182023460A22E5
S315080036E01E210090352002F01DFF182023460322D4
S315080036F01E210090452002F015FF182023460B22B4
S315080037001E210090552002F00DFF182023460E2298
S315080037101E210090652002F005FF182023460F227F
S315080037201E2100907D2002F0FDFE1820234610225F
S315080037301E210090952002F0F5FE18202346192236
S315080037401E210090AD2002F0EDFE182023461A2215
S315080037501E210090C52002F0E5FE2346D5480278D2
S315080037601E21E32003F038FFD3480078082802DA40
S315080037704FF4FC6400E01F24182023460522372155
S315080037800090252002F0CEFE182023460B22372172
S315080037900090352002F0C6FE182023460E22372157
S315080037A00090452002F0BEFE182023460F2237213E
S315080037B000905D2002F0B6FE18202346102237211D
S315080037C00090752002F0AEFE1820234619223721F4
S315080037D000908D2002F0A6FE182023461A223721D3
S315080037E00090A52002F09EFE2346B34802783721B2
S315080037F0E32003F0F1FEB1480078142802DA4FF40A
S31508003800FC6400E01F24182023460522502100905E
S31508003810252002F087FE182023460C22502100900E
S31508003820352002F07FFE182023460B2250210090F7
S31508003830452002F077FE182023460E2250210090DC
S31508003840552002F06FFE182023460F2250210090C3
S315080038506D2002F067FE18202346102250210090A2
S31508003860852002F05FFE1820234619225021009079
S315080038709D2002F057FE182023461A225021009058
S31508003880B52002F04FFE23468C4802785021E320EB
S3150800389003F0A2FE8A4800780A2802DA4FF4FC648C
S315080038A000E01F24182023460922692100902520BC
S315080038B002F038FE182023460B2269210090352095
S315080038C002F030FE182023460E226921009045207A
S315080038D002F028FE182023460F22692100905D2059
S315080038E002F020FE18202346102269210090752038
S315080038F002F018FE182023461922692100908D200F
S3150800390002F010FE182023461A2269210090A520ED
S3150800391002F008FE23466A4802786921E32003F08C
S315080039205BFE684800780A2802DA4FF4FC6400E077
S315080039301F2418202346012282210090252002F008
S31508003940F1FD18202346022282210090352002F03C
S31508003950E9FD182023460B2282210090452002F01B
S31508003960E1FD182023460E2282210090552002F000
S31508003970D9FD182023460F22822100906D2002F0DF
S31508003980D1FD18202346102282210090852002F0BE
S31508003990C9FD182023461922822100909D2002F095
S315080039A0C1FD182023461A2282210090B52002F074
S315080039B0B9FD2346434802788221E32003F00CFE32
S315080039C0414800780A2802DA4FF4FC6400E01F2414
S315080039D0182023460E229B210090252002F0A2FDE6
S315080039E0182023461B229B2100903D2002F09AFDB9
S315080039F01820234601229B210090552002F092FDB3
S31508003A00182023460E229B210090652002F08AFD8D
S31508003A10182023460F229B2100907D2002F082FD6C
S31508003A201820234610229B210090952002F07AFD4B
S31508003A301820234619229B210090AD2002F072FD22
S31508003A40182023461A229B210090C52002F06AFD01
S31508003A5023461D4802789B21E32003F0BDFD1B4841
S31508003A6000780A2802DA4FF4FC6400E01F241820C4
S31508003A7023460E22B4210090252002F053FD18207B
S31508003A8023461B22B42100903D2002F04BFD18204E
S31508003A9023460222B4210090552002F043FD182047
S31508003AA023460E22B4210090652002F03BFD182023
S31508003AB023460DE0CB000020CC000020CD000020DE
S31508003AC0CE000020CF000020D0000020D10000202A
S31508003AD00F22B42100907D2002F024FD18202346F1
S31508003AE01022B4210090952002F01CFD18202346D0
S31508003AF01922B4210090AD2002F014FD18202346A7
S31508003B001A22B4210090C52002F00CFD23462B484A
S31508003B100278B421E32003F05FFD294800780A28DB
S31508003B2002DA4FF4FC6400E01F2418202346022220
S31508003B30CD210090252002F0F5FC1820234604220A
S31508003B40CD210090352002F0EDFC182023460B22EB
S31508003B50CD210090452002F0E5FC182023460E22D0
S31508003B60CD210090552002F0DDFC182023460F22B7
S31508003B70CD2100906D2002F0D5FC18202346102296
S31508003B80CD210090852002F0CDFC1820234619226D
S31508003B90CD2100909D2002F0C5FC182023461A224C
S31508003BA0CD210090B52002F0BDFC234604480278DA
S31508003BB0CD21E32003F010FD38BD0000D100002020
S31508003BC0D20000207047002001E0411CC8B20E2830
S31508003BD0FBDB704710B5F748C07800F001000028F5
S31508003BE074D0F5480078062804DA40F6FF70F349E1
S31508003BF0088081E2F0480078082803DA0020EF49B7
S31508003C00088079E2EC4800780A2803DA2020EB4994
S31508003C10088071E2E84800780C2803DA1020E749A2
S31508003C20088069E2E44800780E2803DA0820E349A8
S31508003C30088061E2E0480078102803DA0420DF49AA
S31508003C40088059E2DC480078122803DA0220DB49AA
S31508003C50088051E2D8480078142803DA0120D749A9
S31508003C60088049E2D4480078162804DA4FF4006040
S31508003C70D249088040E2D0480078182804DA4FF480
S31508003C808060CE49088037E2CB4800781A2804DAE3
S31508003C904FF40070C94908802EE2C74800781C28EE
S31508003CA004DA4FF48070C549088025E2C2480078D6
S31508003CB01E2803DA8020C14908801DE2BE48007824
S31508003CC0202804DA4020BD49088015E20BE0BA48EE
S31508003CD00078222803DA0020B84908800CE2002080
S31508003CE0B549087008E2B648007800F0030058B9EC
S31508003CF0B248008820F01000B049088008460088BD
S31508003D0020F0200008802EE0AD48007800F003007F
S31508003D1001280BD1A948008840F01000A74908805F
S31508003D200846008820F0200008801CE0A448007897
S31508003D3000F0030002280BD1A048008820F01000EC
S31508003D409E4908800846008840F0200008800AE05E
S31508003D509A48008820F0100098490880084600888C
S31508003D6080F0200008809648007800F00C0058B9CA
S31508003D709248008820F00400904908800846008888
S31508003D8020F0080008802EE08D48007800F00C002E
S31508003D9004280BD18948008840F004008749088028
S31508003DA00846008820F0080008801CE0844800784F
S31508003DB000F00C0008280BD18048008820F0040089
S31508003DC07E4908800846008840F0080008800AE016
S31508003DD07A48008820F00400784908800846008858
S31508003DE080F0080008807648007800F0300088BB2C
S31508003DF074484078C0F3001058B17048008880F0C5
S31508003E0002006E4908800846008820F001000880F4
S31508003E1062E068484078C00958B16848008820F0D0
S31508003E200100664908800846008840F002000880BC
S31508003E3052E06048807800F0010060B15F48008871
S31508003E4080F001005D4908800846008820F00200DD
S31508003E50088041E00BE05948008840F001005749C6
S31508003E6008800846008820F00200088034E054489C
S31508003E70007800F0300010280BD15048008840F038
S31508003E8001004E4908800846008820F00200088094
S31508003E9022E04B48007800F0300020280BD1474834
S31508003EA0008820F00100454908800846008840F04F
S31508003EB00200088010E04248007800F03000302800
S31508003EC00AD13E48008820F001003C49088008468F
S31508003ED0008820F0020008803948007800F0C00009
S31508003EE0E0B934484078C0F3800058B133480088B8
S31508003EF040F48060314908800846008820F4006054
S31508003F00088040E02D48008820F480602B4908800E
S31508003F100846008840F40060088034E028480078A5
S31508003F2000F0C00040280BD12448008840F4806087
S31508003F30224908800846008820F40060088022E0AC
S31508003F401F48007800F0C00080280BD11B48008865
S31508003F5020F48060194908800846008840F400600B
S31508003F60088010E01648007800F0C000C0280AD182
S31508003F701248008820F480601049088008460088A6
S31508003F8020F4006008800E48407800F0030038BB33
S31508003F9008484078C0F3C000B0B10848008840F42B
S31508003FA08070064908800846008820F4007008805A
S31508003FB04BE0000030000020DA000020D800002086
S31508003FC0B3000020380000204F48008820F4807095
S31508003FD04D4908800846008840F40070088034E09F
S31508003FE04A48407800F0030001280BD1464800886B
S31508003FF040F48070444908800846008820F4007020
S31508004000088022E04148407800F0030002280BD1DE
S315080040103D48008820F480703B490880084600889F
S3150800402040F40070088010E03848407800F003003B
S3150800403003280AD13448008820F480703249088061
S315080040400846008820F4007008803048407800F060
S315080040500C00E0B92E484078C0F3001058B12A4841
S31508004060008840F04000284908800846008820F06B
S315080040708000088040E02448008820F0400022495B
S3150800408008800846008840F08000088034E01F4811
S31508004090407800F00C0004280BD11B48008840F03B
S315080040A04000194908800846008820F080000880EA
S315080040B022E01648407800F00C0008280BD1124878
S315080040C0008820F04000104908800846008840F023
S315080040D08000088010E00D48407800F00C000C289D
S315080040E00AD10948008820F0400007490880084698
S315080040F0008820F08000088003490988C1F30B0076
S3150800410000F014FF10BD0000D8000020B300002006
S315080041103000002030B5002326E0174C2168002225
S315080041201EE001F001046CB14024144D2C600020FF
S3150800413001E0441CE0B20428FBDB40240F4D2D1D92
S315080041402C600AE040240D4D2C602D1D2C600020AB
S3150800415001E0441CE0B20428FBDB4908541CE2B227
S31508004160182ADEDB5C1CE3B20C2BD6DB4024034D9D
S315080041702D1D2C6030BD0000E8000020100C014009
S3150800418010B5FEF721FA0149086010BD5403002056
S3150800419010B502480068FEF71BFA10BD540300204C
S315080041A00549096821F01001034A1160114609689A
S315080041B001431160704700000020024001460020BC
S315080041C0034A106800F03800084310607047000082
S315080041D000200240024600210BE0084830F8210082
S315080041E0904204D1054800EB810040887047481C7E
S315080041F0C1B20529F1DB01484088F7E77460010878
S315080042002DE9F04186B0074688461546142101A8CF
S31508004210FEF7E5FA00268DF8047010208DF80500E3
S3150800422000208DF80600E81CC6B2002406E018F83F
S31508004230041001AAE01C1154601CC4B2AC42F6DB9F
S31508004240314601A804F013F801A9885504210C4841
S3150800425000F0F2F9002405E001A9085D04F084F8ED
S31508004260601CC4B2701C8442F6DB052006F089FE89
S315080042700421034800F0DEF9012006B0BDE8F0810C
S31508004280000C014008B5684600F0D8F90120ADF8E1
S31508004290000000208DF8030069466F4800F0E4F836
S315080042A0684600F0CBF910208DF8030001208DF840
S315080042B0020048F2F010ADF800006946664800F0C2
S315080042C0D3F8684600F0BAF94FF40060ADF800007C
S315080042D003208DF8020048208DF8030069465E48E1
S315080042E000F0C2F8684600F0A9F94FF48050ADF81E
S315080042F0000003208DF8020018208DF80300694697
S31508004300554800F0B1F8684600F098F910208DF885
S31508004310030001208DF8020041F2BF30ADF800001D
S3150800432069464E4800F0A0F801214D4800F028F9EA
S3150800433008214A4800F080F92021484800F07CF915
S315080043408021464800F078F94FF48071434800F020
S3150800435073F94FF40071414800F06EF902213F48A5
S3150800436000F068F910208DF8030003208DF802008C
S315080043704020ADF800006946384800F075F86846F0
S3150800438000F05CF94FF46040ADF8000018208DF895
S31508004390030003208DF802006946304800F064F8EF
S315080043A0684600F04BF914208DF8030001208DF8BB
S315080043B002004FF4C040ADF800006946294800F0F5
S315080043C053F84FF40051274800F036F94FF480416E
S315080043D0244800F031F9684600F030F910208DF8CD
S315080043E0030001208DF80200C003ADF800006946FD
S315080043F01C4800F039F84FF400411A4800F01CF93F
S3150800440004208DF803000002ADF800006946124842
S3150800441000F02AF818208DF803004FF40070ADF864
S31508004420000069460C4800F01FF804208DF80300C8
S315080044304002ADF800006946084800F015F8182053
S315080044408DF803004FF48060ADF800006946034814
S3150800445000F00AF808BD000000080140000C014001
S3150800446000023000001001402DE9F0410246002507
S315080044700026002000230024002791F803C00CF032
S315080044800F0591F803C00CF0100CBCF1000F03D017
S3150800449091F802C04CEA050591F800C0BCF1000F7E
S315080044A031D0146800202BE04FF0010C0CFA00F311
S315080044B0B1F800C00CEA03069E4220D183004FF0F3
S315080044C00F0C0CFA03F7BC4305FA03FC4CEA040488
S315080044D091F803C0BCF1280F06D14FF0010C0CFA75
S315080044E000FCC2F814C00AE091F803C0BCF1480FFA
S315080044F005D14FF0010C0CFA00FCC2F810C0401CA4
S315080045000828D1D31460B1F800C0BCF1FF0F34DD20
S31508004510546800202EE000F1080C4FF0010808FA54
S315080045200CF3B1F800C00CEA03069E4221D18300C1
S315080045304FF00F0C0CFA03F7BC4305FA03FC4CEAE0
S31508004540040491F803C0BCF1280F05D100F1080C4A
S3150800455008FA0CF8C2F8148091F803C0BCF1480FA9
S3150800456007D100F1080C4FF0010808FA0CF8C2F858
S315080045701080401C0828CED35460BDE8F0810000A6
S31508004580F0B50A46002300240021002500F0004665
S31508004590B6F1004F02D11D4EF16901E01B4E71685C
S315080045A0C0F3034583B200F44016B6F5401F08D1A0
S315080045B021F07061154E766826F07066134F7E609E
S315080045C012E000F48016B6F5801F06D1032606FA17
S315080045D005F4A14341F0706106E0460D360103FA81
S315080045E006F6B14341F0706122B1460D360103FA71
S315080045F006F6314300F00046B6F1004F02D1034EED
S31508004600F16101E0014E7160F0BD0000000001405B
S315080046100246002093680B400BB1012000E0002001
S31508004620704702460020D3680B400BB1012000E01A
S315080046300020704741617047016170474FF6FF716E
S315080046400180022181700421C17070472DE9F04173
S31508004650054600240423012229461248FEF7A6F936
S31508004660002619E001210F48FEF701FA00BF0221D2
S315080046700C48FEF75FF90028F9D00A48FEF756F904
S31508004680074602210748FEF70AF900210548FEF702
S31508004690EEF93C44701CC6B2082EE3DBE408A0B26F
S315080046A0BDE8F0810024014010B545F2555000F0F0
S315080046B02DF8042000F01EF840F2145000F020F8FF
S315080046C000F010F800F002F810BD00004CF6CC40DF
S315080046D001490860704700000030004010B500F03E
S315080046E001F810BD4AF6AA20014908607047000083
S315080046F00030004001494860704700000030004023
S315080047000149886070470000003000400149086090
S31508004710704700000030004010B50020504908607E
S3150800472050490860002408E000204F4908554F49C1
S3150800473008554F490855601CC4B2022CF4DB002406
S3150800474004E000204B490855601CC4B2042CF8DB71
S3150800475000240AE0002048490855484908554849B0
S31508004760085548490855601CC4B2082CF2DB0024D9
S3150800477008E0002044490855444908554449085565
S31508004780601CC4B20A2CF4DB002042490870424976
S3150800479008704249087042490870424908704249FF
S315080047A0087042490880424908701F20414908801C
S315080047B041490880414908804149088041490880A3
S315080047C0414908804149088000204149087041490B
S315080047D008704149087041490870414908704149C3
S315080047E008704149087041490870414908704149B3
S315080047F00870414908804149088041490870414983
S3150800480008704149087041490870414908702449AF
S315080048100870404908804049087040490870404976
S3150800482008804049087040490860404908800C489B
S31508004830C07820F0800080300949C87000203C49C3
S3150800484008700120FEF76AFD01203A490870002029
S3150800485039490880394908803949087010BD00006F
S3150800486030000020340000208B000020B300002018
S31508004870B5000020AF0000208D0000209500002024
S31508004880A50000209D000020BE1400207A150020F7
S3150800489084150020B7000020BD000020B9000020C4
S315080048A0BA000020BC000020C0000020C60000207E
S315080048B0C800002056000020580000205A0000209A
S315080048C05C0000205E0000206200002064000020DA
S315080048D082000020C1000020CB000020CC00002070
S315080048E0CD000020CE000020CF000020D000002000
S315080048F0D1000020D2000020D4000020D6000020DD
S31508004900B8000020E7000020BB000020BE00002001
S31508004910C2000020D8000020BF000020DA000020D6
S31508004920DC000020DE000020E8000020C400002093
S315080049303E0200204B0000207E0000208000002060
S31508004940EC00002070B50646002409480588408812
S3150800495045430021084600F083F900F0DFFA00BF5E
S3150800496003E0304600F082FA641CAC42F9D370BD0D
S31508004970781400202DE9F05F05460E46174698463E
S31508004980DDF828A04FF0000B781B401C1FFA80FBAF
S31508004990344613E02146284600F062F900F0BEFAD4
S315080049A04FF0000906E0504600F060FA09F10100F0
S315080049B01FFA80F9D945F6DB601C84B24445E9DD67
S315080049C0BDE8F09F70B504460D462946204600F01E
S315080049D047F900F0A3FA0248008800F047FA70BDCC
S315080049E02C00002010B54FF400419B48FFF722FE2B
S315080049F0C82003F0C9FC4FF400419748FFF71CFE96
S31508004A00C82003F0C1FC4FF4A07094490880F02038
S31508004A1048802C2088712A20C8712B200872CF2044
S31508004A2000F060FA002000F041FAD92000F03EFAC2
S31508004A30302000F03BFAED2000F054FA642000F034
S31508004A4035FA032000F032FA122000F02FFA8120FE
S31508004A5000F02CFAE82000F045FA852000F026FA46
S31508004A60102000F023FA782000F020FACB2000F07E
S31508004A7039FA392000F01AFA2C2000F017FA00202B
S31508004A8000F014FA342000F011FA022000F00EFAB1
S31508004A90F72000F027FA202000F008FAEA2000F0B4
S31508004AA021FA002000F002FA002000F0FFF9C020E9
S31508004AB000F018FA212000F0F9F9C12000F012FAE6
S31508004AC0122000F0F3F9C52000F00CFA322000F0AD
S31508004AD0EDF93C2000F0EAF9C72000F003FAC120FE
S31508004AE000F0E4F9362000F0FDF9A82000F0DEF920
S31508004AF03A2000F0F7F9552000F0D8F9B12000F077
S31508004B00F1F9002000F0D2F9182000F0CFF9B6200C
S31508004B1000F0E8F90A2000F0C9F9A22000F0C6F969
S31508004B20F22000F0DFF9002000F0C0F9262000F09E
S31508004B30D9F9012000F0BAF92B2000F0D3F90020AA
S31508004B4000F0B4F9002000F0B1F9002000F0AEF949
S31508004B50EF2000F0ABF92A2000F0C4F9002000F09D
S31508004B60A5F9002000F0A2F9012000F09FF93F20E6
S31508004B7000F09CF9E02000F0B5F90F2000F096F956
S31508004B803A2000F093F9362000F090F90B2000F057
S31508004B908DF90D2000F08AF9062000F087F94C20DF
S31508004BA000F084F9912000F081F9312000F07EF9B7
S31508004BB0082000F07BF9102000F078F9042000F0B6
S31508004BC075F9112000F072F90C2000F06FF9002039
S31508004BD000F06CF9E12000F085F9002000F066F994
S31508004BE0062000F063F90A2000F060F9052000F0BD
S31508004BF05DF9122000F05AF9092000F057F92C2027
S31508004C0000F054F9922000F051F93F2000F04EF9D7
S31508004C10082000F04BF90E2000F048F90B2000F0B0
S31508004C2045F92E2000F042F9332000F03FF90F2015
S31508004C3000F03CF9112000F055F9782003F0A4FBA8
S31508004C40292000F04FF9782003F09EFB4FF6FF71FC
S31508004C50002001F009FD10BD00080140781400206D
S31508004C6070B504460D460A49C87900F03BF920128A
S31508004C7000F01CF9E0B200F019F90549087A00F0CD
S31508004C8031F9281200F012F9E8B200F00FF970BDF8
S31508004C90781400202DE9F84F81460D4617461E4622
S31508004CA000955348B0F80080A7F12000C7B20A98CB
S31508004CB0002850D100244BE00C2E07D107EB470003
S31508004CC04C4901EB800010F804A004E04A4800EBC8
S31508004CD0071010F804A04FF0000B33E00AF080002C
S31508004CE018B14348A0F8008003E0444800884049CA
S31508004CF0088029464846FFF765FE4FEA4A604FEAAC
S31508004D00106A681C85B23E484088A84204DC3848C8
S31508004D10A0F80080BDE8F88F0098281AB0420DD197
S31508004D20009D09F101001FFA80F9354800884845B9
S31508004D3003DC2F48A0F80080ECE706E00BF1010041
S31508004D4000F0FF0BBBF1080FC8DB00BF601CC4B244
S31508004D50B442B1DB46E0002442E00C2E07D107EB53
S31508004D604700244901EB800010F804A004E022481B
S31508004D7000EB071010F804A04FF0000B2AE00AF029
S31508004D80800018B129464846FFF71CFE4FEA4A60DC
S31508004D904FEA106A681C85B219484088A84203DCA5
S31508004DA01348A0F80080B5E70098281AB0420DD13C
S31508004DB0009D09F101001FFA80F91148008848454D
S31508004DC003DC0B48A0F80080A4E706E00BF101001D
S31508004DD000F0FF0BBBF1080FD1DB00BF601CC4B2AB
S31508004DE0B442BADB0248A0F8008000BF92E7000090
S31508004DF02C0000200C160108801A01082E0000203D
S31508004E00781400202DE9F84F04460D469046994639
S31508004E10DDE90A6704F0FF0A08EB04001FFA80F8C8
S31508004E2009EB05001FFA80F916E0444502DB5446F3
S31508004E30A81985B24D4500DB14E0012000903A78A8
S31508004E40334629462046FFF725FF304606EBD07144
S31508004E5004EB61018CB27F1C38787E2802DC387836
S31508004E602028E2DA00BFBDE8F88F000010B5044636
S31508004E704FF480510A48FFF7DDFB4FF4807109486B
S31508004E80FFF7DAFB2112084801F03AFBE1B20648BF
S31508004E9001F036FB4FF480510148FFF7CDFB10BDFA
S31508004EA0000C0140000801400038004010B50446D7
S31508004EB04FF480510848FFF7BDFB4FF4807107484F
S31508004EC0FFF7BAFB2146064801F01AFB4FF480515A
S31508004ED00148FFF7B1FB10BD000C01400008014076
S31508004EE00038004010B504464FF480510848FFF7D3
S31508004EF0A1FB4FF480710748FFF79CFBE1B2064817
S31508004F0001F0FEFA4FF480510148FFF795FB10BDFA
S31508004F10000C0140000801400038004010B5024965
S31508004F208879FFF7DFFF10BD7814002070B50446B6
S31508004F3080211948FFF780FB10211748FFF77AFBF5
S31508004F40FEF741FE254600261AE080211348FFF7A2
S31508004F5073FBFEF738FE05F0010020B101210E486B
S31508004F60FFF768FB03E001210B48FFF765FB80218B
S31508004F700A48FFF75FFBFEF726FE6D10701CC6B2E7
S31508004F800C2EE2DB80210448FFF754FB102102486F
S31508004F90FFF752FB70BD0000000C014000080140FD
S31508004FA000B500F045F90020044908700448007867
S31508004FB020F002000249087000BD000047000020EA
S31508004FC03000002000B500F033F903480078401C93
S31508004FD00149087000BD00004700002002460B4644
S31508004FE083B900210BE0114810F81100904204D152
S31508004FF00E4800EB410040787047481CC1B21129A1
S31508005000F1DB11E0012B0FD100210BE0084810F865
S315080050101100904204D1064800EB41004078EBE7C6
S31508005020481CC1B20929F1DB0020E5E752600108F6
S315080050304060010800B576480078AA2805D1002006
S31508005040744948700220744908707348007801282A
S315080050500FD07148007802280CD1AA206D49087033
S3150800506001206E49087004206B49087000206C49BD
S315080050700870CBE06848007804281AD1644800789C
S315080050806449487066480078614909780844644963
S31508005090087062480078401C604908705C480078CF
S315080050A0802802DBFFF78EFFB0E008205A49087017
S315080050B0ACE05948007808281AD15548007855496F
S315080050C08870574800785249097808445449087046
S315080050D052480078401C514908704D48007880288D
S315080050E002DBFFF76FFF91E020204B4908708DE047
S315080050F049480078202820D1454800784549474A3C
S315080051001278885446480078414909780844444941
S31508005110087042480078401C404908703C480078AE
S31508005120802802DBFFF74EFF70E0394800783D49DA
S31508005130087010203849087068E037480078102849
S3150800514023D1334800783349344A1278885433488F
S315080051500078401C31490870314800782C49097894
S3150800516008442F4908702A480078802802DBFFF790
S3150800517029FF4BE0294801782A480078C01C81425B
S3150800518044DD40202449087040E023480078402840
S315080051901CD11F4801781F48204A127881541F489D
S315080051A00078401C1D4908701D48007800F07F00F3
S315080051B01B490870164800780978884203D1802070
S315080051C01549087022E0FFF7FDFE1FE01248007837
S315080051D0802819D10E480078BB2812D1FFF7E0FEC7
S315080051E01148407820F004000F49487000200F4904
S315080051F008700D48007820F00100401C0A49087024
S3150800520004E0FFF7DFFE01E0FFF7DCFE00BD00006B
S3150800521043000020AA140020450000204400002076
S31508005220480000204200002030000020B90000207D
S315080052300020064908700120054908700020054924
S31508005240087005490870054908707047460000202F
S3150800525045000020440000204200002048000020AD
S3150800526003E0531EDAB28B5C8354002AF9DC7047DC
S3150800527010B5044603F096FF10BD00BFFEE7704761
S3150800528010B54FF410514FF0006000F039F810BD1A
S3150800529070B5002100230F22C47804B3154C246886
S315080052A004F4E064C4F5E064210AC1F10403CA40C9
S315080052B0447804FA03F184781440214309010E4C1A
S315080052C00678A155047804F01F050124AC4005783A
S315080052D06D11AD0005F1E025C5F8004109E0047837
S315080052E004F01F050124AC40044D0678761145F8F4
S315080052F0264070BD0CED00E000E400E080E100E02F
S31508005300024A0A400243024B1A60704780FFFF1F99
S3150800531008ED00E010B500F097F84FF4803000F083
S3150800532055F900F0B1F90446012C24D1002000F00B
S3150800533041F9002000F07CF9A00200F06DF9022086
S31508005340FEF73CFF1020FEF72BFF4FF4E011200478
S3150800535000F080F9012000F077F900BF392000F04D
S3150800536003F90028FAD0022000F082F900BF00F005
S3150800537019F90828FBD110BD01460020034A5068D8
S3150800538020F4404008435060704700000010024077
S3150800539029B1064AD2690243044BDA6104E0034A9A
S315080053A0D2698243014BDA6170470000001002405F
S315080053B029B1064A12690243044B1A6104E0034AFA
S315080053C012698243014B1A617047000000100240BF
S315080053D029B1064A92690243044B9A6104E0034ADA
S315080053E092698243014B9A6170470000001002409F
S315080053F029B1064AD2680243044BDA6004E0034A3C
S31508005400D2688243014BDA60704700000010024000
S3150800541010B5012140F27D20FFF7DAFF0121480689
S31508005420FFF7B6FF01218803FFF7B2FF4FF40040EC
S31508005430FFF7A2FF01218803FFF7CAFF01218804AD
S31508005440FFF7A6FF10BD00000F48006840F00100F6
S315080054500D490860084640680C4908400A494860F2
S31508005460084600680A49084007490860084600686F
S3150800547020F4802008600846406820F4FE00486052
S315080054804FF41F0088607047001002400000FFF8C4
S31508005490FFFFF6FE30B500210022002400232D4D23
S315080054A06D6805F00C0121B1042905D0082923D11E
S315080054B005E0294D056022E0274D05601FE0254DD2
S315080054C06D6805F47012234D6D6805F48034022565
S315080054D005EB92421CB9214D554305600BE01D4D65
S315080054E06D6805F400351DB11C4D5543056002E095
S315080054F0194D5543056002E0174D056000BF00BF12
S31508005500144D6D6805F0F0010909154D6B5C0568C9
S31508005510DD4045600F4D6D6805F4E061090A104DE0
S315080055206B5C4568DD4085600A4D6D6805F4605121
S31508005530C90A0B4D6B5C4568DD40C560054D6D6855
S3150800554005F44041890B074D6B5CC568B5FBF3F55F
S31508005550056130BD0010024000127A0000093D00C6
S31508005560540200206402002010B5014600220023E0
S3150800557000204A11012A02D1094C236806E0022AB2
S3150800558002D1074C236A01E0054C636A01F01F0249
S31508005590012494401C400CB1012000E0002010BDFD
S315080055A0001002400248406800F00C0070470000F6
S315080055B00010024001460020034A506820F0F0001F
S315080055C008435060704700000010024011490968FE
S315080055D021F480310F4A11601146096821F48021AF
S315080055E01160B0F5803F03D0B0F5802F0ED106E0EC
S315080055F00849096841F48031064A116007E00549FF
S31508005600096841F4A021034A116000E000BF00BF09
S31508005610704700000010024001460020034A506807
S3150800562020F4E06008435060704700000010024014
S3150800563001460020034A506820F4605040EAC10041
S315080056405060704700100240014908667047000024
S315080056500000424202460020044B586820F47C10A1
S3150800566042EA01031843014B586070470010024094
S3150800567001460020034A506820F0030008435060A2
S31508005680704700000010024038B500200090002442
S31508005690002500BF3120FFF767FF05460098401C2C
S315080056A000900098B0F5A06F01D0002DF2D03120FF
S315080056B0FFF75AFF08B1012400E00024204638BD50
S315080056C000B53E48007850280BD13D48007840B9CF
S315080056D050203C4908700120394908703A49087039
S315080056E06AE039480078012829D135480078012828
S315080056F00DD132480078102809D110213048027897
S315080057000078401C2E4B18702E48815454E02C48C3
S31508005710007802280FD12948007860B90021284866
S3150800572002780078401C264B1870264881540220BF
S315080057302549087040E00020214908703CE02248CD
S315080057400078022811D11D4801781D480278007892
S31508005750401C1B4B18701B488154184600780B28B0
S315080057602AD104201849087026E01748007804282A
S3150800577022D113480178134802F079FD0F490978B8
S31508005780884213D10D4801780E480D4A1278815483
S3150800579010200D4908700D48407820F00100401C83
S315080057A00A49487000200649087005E02020064985
S315080057B0087000200249087000BD00003C00002067
S315080057C03D00002082140020400000203800002000
S315080057D02DE9F04188B04FF000080026142103A8EF
S315080057E0FCF7FDFFCC4A07CA8DE80700CB4890F8BE
S315080057F00380014648780121FFF7F0FB064600249E
S3150800580006E0201DC549085C03A90855601CC4B2FA
S315080058104445F6DB072096FBF0F0C7B2072098FB55
S31508005820F0F100FB118008B1781CC7B2002419E01A
S31508005830002513E0072000FB045003A9085C311972
S3150800584003AA515C6A1C914001F0800108430721B4
S3150800585001FB045103AA5054681CC5B2072DE9DBA5
S31508005860601CC4B2BC42E3DB00244EE1AB4840787E
S315080058701DF8041088426ED1002C4CD1022203A9CF
S31508005880A748FFF7EDFCA5488078012808DBA34860
S315080058908078032804DCA1488078401EA149087056
S315080058A09DF80D00FEF796FC9F4908809DF80D00AF
S315080058B0FEF790FC9D4908809DF80D00FEF78AFCCE
S315080058C09B4908809DF80D00FEF784FC99490880DD
S315080058D09DF80D00FEF77EFC974908809DF80D009F
S315080058E0FEF778FC954908809DF80D00FEF772FCD6
S315080058F09349088093480078C0F3801018B10821AE
S315080059009148FEF797FE8F48007820F04000403017
S315080059108C490870F6E0012C3BD180488078012834
S3150800592005D1092203A98948FFF79AFC08E07B48B4
S315080059308078022804D1092203A98548FFF790FC3C
S3150800594084484078C0F30010D8B17448807801289C
S315080059500AD1002505E0D6E000207C494855681C98
S31508005960C5B2092DF8DB0CE06C488078022808D10E
S31508005970002504E0002076494855681CC5B2092D63
S31508005980F8DB7048007820F0200020306D49087058
S31508005990B8E0022C15D1082203A96F48FFF760FC6E
S315080059A000206E4908706748007820F01000103013
S315080059B0644908700846807820F080008030887036
S315080059C0A0E0032C0CD1042203A96548FFF748FC84
S315080059D05C48007820F0800080305A49087091E0D1
S315080059E0042C0CD1022203A95E48FFF739FC55485E
S315080059F0407820F00100401C5249487082E0052C8E
S31508005A000CD1022203A95848FFF72AFC4D48807892
S31508005A1020F0200020304B49887073E0062C59D1BD
S31508005A209DF80C00542821D19DF80D0053281DD14E
S31508005A3000204E4908704348C078C0F3801068B902
S31508005A4000204B4908704B4908804B4908703D486F
S31508005A50C07820F0400040303A49C8703948C078CC
S31508005A6020F00100401C3749C8704BE09DF80C0037
S31508005A704C280FD19DF80D0056280BD13148C07817
S31508005A8020F001002F49C8700846C07820F0400071
S31508005A90C87037E09DF80C0056280BD19DF80D000C
S31508005AA0452807D12748C07820F00200801C2549E0
S31508005AB0C87027E09DF80C00492823D19DF80D00F1
S31508005AC044281FD11F48C07820F00400001D1D4936
S31508005AD0C87017E0072C15D1002505E003A8405D1E
S31508005AE026494855681CC5B2B542F7DB0B4880788D
S31508005AF0A030234908702348007820F04000403041
S31508005B002049087004E0601CC4B2092CFFF6AEAE4A
S31508005B1000BF08B0BDE8F08188600108AA1400201B
S31508005B208B0000208200002056000020580000202C
S31508005B305A0000205C0000205E0000206200002061
S31508005B406400002030000020000C01407A15002077
S31508005B50841500203400002083000020C1000020A6
S31508005B60AF000020B3000020B5000020BE000020D2
S31508005B70DA000020DC000020DE0000209614002059
S31508005B803E000020380000202DE9F04F85B08246FF
S31508005B908B4615460027B946B846002404E000207F
S31508005BA00DF80400601CC4B2142CF8DBAA208DF88A
S31508005BB00000E81CC2B259460DF10100FFF750FB80
S31508005BC09DF801000021FFF709FA07469DF8030032
S31508005BD0072190FBF1F000F0FF089DF8030090FB09
S31508005BE0F1F201FB120018B108F1010000F0FF08FC
S31508005BF000241BE0002615E06019001D1DF8002092
S31508005C00C4EBC400001D30441DF8000000F08000FD
S31508005C10711C08411044C1B26019001D0DF800102E
S31508005C20701CC6B2072EE7DB601CC4B24445E1DB34
S31508005C309DF803004044C0B28DF8030000240EE02E
S31508005C40601C1DF8000000F07F01601C0DF80010B4
S31508005C501DF80000484400F0FF09601CC4B2F81E95
S31508005C60A042EDDC09F07F01B81E0DF80010BB213B
S31508005C70781E0DF800103B466A460021504603F090
S31508005C80C3FE05B0BDE8F08F2DE9F043C1B08146EB
S31508005C90002754212CA8FCF7A2FD7822FA490EA861
S31508005CA0FCF76BFDF9A207CA0BAB07C3FAA103C938
S31508005CB0CDE909011422FAA104A8FCF75EFDFDA2AC
S31508005CC007CA01AB07C3FE48407800F0010010B3CD
S31508005CD0FB48407820F00100F9494870F9480078F7
S31508005CE000F00F018DF8A510B84609E0F64908F14D
S31508005CF003000A5C29A808F10301425408F10108C7
S31508005D009DF8A6004045F1DC9DF8A62029A948463D
S31508005D10FFF73AFF00BF002422E0601CC0B28DF8EE
S31508005D20390004EB4400E94901EB8000C088000A09
S31508005D308DF83B0004EB440001EB800080798DF878
S31508005D403C0004EB440001EB8000807A8DF83D00AE
S31508005D509DF83A200EA94846FFF716FF601CC4B204
S31508005D60DB4800788442D8DB002429E0601CC1B2F5
S31508005D700EA8417304F1130000EB4000D34901EB70
S31508005D808000C088010A0EA8C17304F1130000EB55
S31508005D904000CE4901EB800081790EA8017404F118
S31508005DA0130000EB4000C94901EB8000817A0EA878
S31508005DB04174827B11A94846FFF7E6FE601CC4B20F
S31508005DC0C44800788442D1DB02210EA8417600251A
S31508005DD006E0C148425DE91C14A84254681CC5B2D5
S31508005DE0082DF6DBBD4801788DF85B100EA8827E7B
S31508005DF014A94846FFF7C8FE03210EA841760025D8
S31508005E0006E0B748425DE81C14A90A54681CC5B2E6
S31508005E10082DF6DBB34801788DF85B100EA8827E54
S31508005E2014A94846FFF7B0FE04210EA841760025BE
S31508005E3006E0AD48425DE81C14A90A54681CC5B2C0
S31508005E40082DF6DBA94801788DF85B100EA8827E2E
S31508005E5014A94846FFF798FE05210EA841760025A5
S31508005E6006E0A348425DE81C14A90A54681CC5B29A
S31508005E70082DF6DB9F4801788DF85B100EA8827E08
S31508005E8014A94846FFF780FE002429E0601CC1B229
S31508005E908DF85D10113000EB40008C4901EB800055
S31508005EA0C088010A8DF85F1004F1120000EB40006B
S31508005EB0864901EB800081798DF8601004F11200A3
S31508005EC000EB4000814901EB8000817A8DF8611072
S31508005ED09DF85E2017A94846FFF756FE601CC4B217
S31508005EE0854800788442D1DB002429E0601CC1B2D1
S31508005EF08DF869100E3000EB4000744901EB800004
S31508005F00C088010A8DF86B1004F10F0000EB400001
S31508005F106E4901EB800081798DF86C1004F10F0051
S31508005F2000EB4000694901EB8000817A8DF86D101D
S31508005F309DF86A201AA94846FFF726FE601CC4B2D7
S31508005F406E4800788442D1DB002429E0601CC1B287
S31508005F508DF875100F3000EB40005C4901EB8000AE
S31508005F60C088010A8DF8771004F1100000EB400094
S31508005F70564901EB800081798DF8781004F11000FC
S31508005F8000EB4000514901EB8000817A8DF87910C9
S31508005F909DF876201DA94846FFF7F6FD601CC4B299
S31508005FA0574800788442D1DB00243AE0601CC1B22D
S31508005FB08DF88110A01D00EB4000444901EB8000DC
S31508005FC0C088010A8DF88310A01D00EB40003F49E8
S31508005FD001EB800081798DF88410A01D00EB40004C
S31508005FE03A4901EB80000089010A8DF88510A01D49
S31508005FF000EB4000354901EB8000017A8DF88610E8
S31508006000A01D00EB4000314901EB8000817A8DF834
S3150800601087109DF8822020A94846FFF7B5FD601C29
S31508006020C4B2384800788442C0DB002429E0601CEA
S31508006030C1B28DF88D10083000EB4000234901EB02
S315080060408000C088010A8DF88F1004F1090000EB62
S3150800605040001E4901EB800081798DF8901004F10B
S31508006060090000EB4000194901EB8000817A8DF8A0
S3150800607091109DF88E2023A94846FFF785FD601CE0
S31508006080C4B22148007841E0946001082001080262
S3150800609000010000000000002101020300000000CA
S315080060A022010C030055000000000000000000005B
S315080060B00000000070010800000000000000000059
S315080060C0380000203E00002082140020EE00002048
S315080060D0490000204A00002095000020C900002041
S315080060E08D000020CA0000209D000020AD00002081
S315080060F0A5000020AE0000204C0000204D00002026
S315080061004E0000204F0000205000002084428EDB05
S31508006110002486E000257FE024B9681CC1B28DF80A
S31508006120991015E0012C04D1681DC1B28DF899109B
S315080061300EE0022C05D105F10900C1B28DF89910BF
S3150800614006E0032C04D105F10D00C1B28DF89910B3
S3150800615000263CE0B6484078C0F34010D0B104EBC6
S315080061608400B44901EBC00005EB850100EB410052
S3150800617030F8160032280BDC781CC7B2052F24DB52
S315080061800027AB48407820F02000A94948701CE059
S3150800619000271AE004EB8400A64901EBC00005EBD2
S315080061A0850100EB410030F8160032280CDB781C1C
S315080061B0C7B2052F09DB00279D48407820F020004C
S315080061C020309B49487000E00027701CC6B2052E97
S315080061D0C0DB97484078C0F3401030B100218DF8F5
S315080061E09B1001218DF89C1004E000218DF89B106E
S315080061F08DF89C1004F1180000EB40008E4901EB65
S315080062008000817A8DF89D109DF89A2026A9484627
S31508006210FFF7BAFC681CC5B2042DFFF67DAF601CFB
S31508006220C4B2864800788442FFF674AF8448007882
S31508006230C0F30010F0B3834800788349097800EB6F
S315080062400110C0B28DF82F0080480078804909787F
S3150800625000EB0110C0B28DF830007E4800787E4908
S31508006260097800EB0110C0B28DF831007B48007840
S315080062707B49097800EB0110C0B28DF832007948E5
S3150800628000787949097800EB0110C0B28DF833001F
S31508006290764800780007000E8DF834006448407888
S315080062A0C0F3800038B19DF83400401CC0B28DF8A8
S315080062B0340006E022E09DF8340000F0F0008DF886
S315080062C0340000208DF835008DF836009DF82E2014
S315080062D00BA94846FFF758FC65480078401C6449F6
S315080062E0087008460078052808DB5548007820F02D
S315080062F010005349087000205D4908705048C0785E
S31508006300C0F3400058B14E48C07820F002004C490E
S31508006310C8705848827801464846FFF735FC484811
S31508006320C078C0F3800058B14548C07820F0040012
S315080063304349C8705048827801464846FFF724FC0E
S3150800634003208DF827004FF400714C48FEF769F9D1
S31508006350012800D100E000BF4FF480714748FEF7DE
S3150800636060F9012800D100E000BF9DF8262009A9A0
S315080063704846FFF709FC424800788DF81300414863
S3150800638000788DF81400404800788DF815003F48CD
S3150800639000788DF816003E4800788DF817003D48BD
S315080063A000788DF818003C4800788DF819003B48AD
S315080063B000788DF81A003A48008800128DF81B00FC
S315080063C0374800788DF81C003648008800128DF88A
S315080063D01D00344800788DF81E009DF8122004A987
S315080063E04846FFF7D1FB1648C078C0F30010E0B165
S315080063F02D480078401C2C49087008460078022869
S3150800640007DB002008700E48C07820F010000C4901
S31508006410C8704F208DF8070056208DF808009DF8A3
S31508006420062001A94846FFF7AFFB41B0BDE8F08357
S3150800643038000020DA140020EE0000205400002066
S31508006440300000204A000020490000204C000020AF
S315080064504B0000204E0000204D0000205000002078
S315080064604F00002052000020510000205300002059
S31508006470C10000204002002049020020000C014013
S31508006480CB000020CC000020CD000020CE0000204C
S31508006490CF000020D0000020D1000020D20000202C
S315080064A0D4000020D6000020C200002021B10288B6
S315080064B042F04002028004E002884FF6BF731A4099
S315080064C00280704710B50022028802F441520B88F8
S315080064D04C8823438C882343CC8823430C89234345
S315080064E04C8923438C892343CC8923431A4302804E
S315080064F0838B4FF2FF74234083830B8A038210BD7C
S31508006500024600BF108900F002000028FAD09181E7
S3150800651000BF108900F001000028FAD09089C0B2A7
S31508006520704770472DE9FF5F814692460E9D402DC4
S3150800653002D12E4C082621E0302D02D12C4C0426FF
S315080065401CE01B2D02D12B4C032617E01A2D02D175
S31508006550294C092612E0182D02D1284C03260DE0F5
S31508006560102D02D1264C052608E0162D02D1254C01
S31508006570022603E00D2D01D1234C02260AFB06F064
S3150800658000FB054400272CE0019A3A4491B21FFA11
S3150800659089F0FEF765FBFEF7C1FC4FF0000B1CE027
S315080065A04FF0000811E02078012101FA08F10840AF
S315080065B018B10398FEF75AFC03E04FF6FF70FEF792
S315080065C055FC08F1010000F0FF08B8F1080FEADBF6
S315080065D0641C0BF1010000F0FF0BB345E0DB781CEF
S315080065E0C7B2AF42D0DBBDE8FF9F000021F3000829
S315080065F0C3E90008A6E5000840DF00085CD40008E7
S31508006600C4DE000814DF000803F200082DE9F0478D
S3150800661081460F460024002520E0781981B24846B5
S31508006620FEF71EFBFEF77AFC4FF0000812E0012089
S3150800663000EB44000B490E5C4FF6FF7000EA062695
S31508006640084610F8140006433046FEF70FFC641C93
S3150800665008F10108B8F1580FE9D36D1C582DDCD3A1
S31508006660BDE8F087B02301082DE9F04107460E463C
S31508006670002440F2EB6800210846FEF7F1FAFEF71F
S315080066804DFC35E01C48005DFF280DD1002503E0D0
S315080066903846FEF7EBFB6D1C1749601C085CC0000A
S315080066A0A842F5D8A41C23E01348005D68B9002564
S315080066B003E03046FEF7DAFB6D1C0F49601C085CE8
S315080066C0C000A842F5D8A41C12E000250DE00A482F
S315080066D0005D80212941084018B93046FEF7C6FBFF
S315080066E002E03846FEF7C2FB6D1C082DEFD3641C8A
S315080066F04445C7D3BDE8F081210F01081CB5002029
S315080067000C4908804FF6FF70F0234FF4A072DC2185
S3150800671000904FF48270FEF72DF907A0102114237C
S315080067201A01CDE90010DE2140F20710FEF76AFBD8
S315080067301CBD00002C000020562030312E303200BF
S31508006740042808D14FF0E021096941F004014FF00F
S31508006750E022116107E04FF0E021096921F0040108
S315080067604FF0E0221161704770B586B001A8FEF7B8
S3150800677091FE4FF47A710298B0FBF1F42146B1F11B
S31508006780807F00D31DE021F07F40401E4FF0E022BD
S31508006790506150170F22002807DA13071E0E0B4BFD
S315080067A000F00F052D1F5E5503E013071D0E084B5D
S315080067B01D5400BF00204FF0E022906107201061B1
S315080067C000BF0420FFF7BCFF06B070BD18ED00E05F
S315080067D000E400E010B503F053FC10BD00B585B029
S315080067E00020ADF800004FF48270ADF802000020DA
S315080067F0ADF804000220ADF806000120ADF8080047
S315080068004002ADF80A001820ADF80C000020ADF8DB
S315080068100E000720ADF8100069460448FFF752FE3F
S3150800682001210248FFF742FE05B000BD00380040CE
S3150800683038B50446012C09D14FF6FF70BB23CB228D
S31508006840642100907420FEF795F81CE0022C1AD1FA
S315080068504FF6FF7099237F225A2100904020FEF7B9
S3150800686089F84FF6FF70B623EF226E210090962026
S31508006870FEF780F84FF6FF709B23FD2281210090DA
S31508006880F020FEF777F838BDF8B506460F46002E15
S315080068900ADA704284B21B203B460C22782100900B
S315080068A08420FFF73FFE08E0B4B21B203B460B22CC
S315080068B0782100908420FFF735FEFDF70FFF42F29E
S315080068C01070844241DB94FBF0F0C5B230203B46A1
S315080068D02A466E2100909620FFF724FE40F271208A
S315080068E06843A4EB001084B24FF47A7094FBF0F07E
S315080068F0C5B230203B462A466E210090B620FFF7E7
S3150800690011FE1B203B460B226E210090D620FFF776
S3150800691009FE1B203B460B2281210090D620FFF75B
S3150800692001FE05EB4500C0EBC510A4EBC00084B220
S31508006930642094FBF0F0C5B21B203B462A46812111
S315080069400090E620FFF7EEFDCCE0B4F57A7F43DB56
S315080069504FF47A7094FBF0F0C5B230203B462A46D5
S315080069606E2100909620FFF7DDFD05EB4500C0EB94
S31508006970C510A4EBC00084B2642094FBF0F0C5B245
S3150800698030203B462A466E210090B620FFF7CAFD06
S315080069901B203B460B226E210090D620FFF7C2FD36
S315080069A01B203B460A2281210090D620FFF7BAFD1C
S315080069B005EBC50000EB0510A4EB800084B20A20A5
S315080069C094FBF0F0C5B21B203B462A468121009075
S315080069D0E620FFF7A7FD85E0642C52DB1B203B462B
S315080069E00B22782100908420FFF79CFD002E10DAF8
S315080069F030203B460A226E2100909620FFF792FD32
S31508006A001B203B460C22782100909B20FFF78AFD2D
S31508006A1007E030203B460A226E2100909620FFF7B9
S31508006A2081FD642094FBF0F0C5B230203B462A462F
S31508006A306E210090B620FFF775FD1B203B460B2202
S31508006A406E210090D620FFF76DFD1B203B460A22DB
S31508006A5081210090D620FFF765FD05EBC50000EB08
S31508006A600510A4EB800084B20A2094FBF0F0C5B2AE
S31508006A701B203B462A4681210090E620FFF752FD5F
S31508006A8030E030203B4600226E2100909620FFF72A
S31508006A9049FD30203B460A226E210090B620FFF7BA
S31508006AA041FD1B203B460A2281210090B620FFF7B4
S31508006AB039FD0A2094FBF0F0C5B230203B462A4641
S31508006AC06E210090C420FFF72DFD05EB8500A4EB91
S31508006AD0400084B21B20E2B23B4681210090E620AA
S31508006AE0FFF720FDF8BD00000EB5FE48C078C0F3DC
S31508006AF0401060B14FF6FF710020FFF7B5FDFFF7B4
S31508006B00FDFDF848C07820F02000F649C870F54821
S31508006B10C07800F0010000287ED0FDF7DFFDF248BE
S31508006B200088092808DC4FF6FF70FDF70BFF0221E5
S31508006B30EE48FDF781FD4FE2EB4800880C2804DAA1
S31508006B400221EA48FDF776FD46E2E74800880F2865
S31508006B5008DA4FF47840FDF7F5FE0221E348FDF721
S31508006B606BFD39E2E0480088122804DA4FF4FC602D
S31508006B70FDF7E8FE30E2DC480088152803DA1F2016
S31508006B80FDF7E0FE28E2D8480088182803DA002036
S31508006B90FDF7D8FE20E2D44800881B2804DA4FF611
S31508006BA0FF70FDF7CFFE17E2CF4800882A2866DA7D
S31508006BB04FF40071CD48FDF73FFD4FF48071CB4887
S31508006BC0FDF73AFD18201F230122052100900846EB
S31508006BD0FFF7A8FC18201F230A220521009015207C
S31508006BE0FFF7A0FC18201F230E2205210090252060
S31508006BF0FFF798FC18201F230F22052100903D203F
S31508006C00FFF790FC18201F2310220521009055201D
S31508006C10FFF788FC182000E0E4E11F231122052174
S31508006C2000906D20FFF77EFC18201F2312220521F5
S31508006C3000908520FFF776FC18201F2313220521D4
S31508006C4000909D20FFF76EFC18201F2314220521B3
S31508006C500090B520FFF766FC18201F231522052192
S31508006C600090CD20FFF75EFC18201F231622052171
S31508006C700090E520FFF756FCFCF71EFDACE19A48AC
S31508006C800088392867DA4FF480719848FDF7D2FCF6
S31508006C9018201F230222052100900846FFF742FC10
S31508006CA018201F230A22052100901520FFF73AFC19
S31508006CB018201F230E22052100902520FFF732FCFD
S31508006CC018201F230F22052100903D20FFF72AFCDC
S31508006CD018201F231022052100905520FFF722FCBB
S31508006CE018201F231122052100906D20FFF71AFC9A
S31508006CF018201F231222052100908520FFF712FC79
S31508006D0018201F231C22052100909D20FFF70AFC4E
S31508006D1018201F231D2205210090B520FFF702FC2D
S31508006D2018201F23012205210090CD20FFF7FAFB2A
S31508006D3018201F23162205210090DD20FFF7F2FBFD
S31508006D4018201F230D2205210090F520FFF7EAFBE6
S31508006D50FCF7B2FC40E16448008848286CDA4FF436
S31508006D6080716248FDF768FC4FF400715F48FDF7D3
S31508006D7061FC18201F230322052100900846FFF70F
S31508006D80D1FB18201F230A22052100901520FFF7A2
S31508006D90C9FB18201F230E22052100902520FFF786
S31508006DA0C1FB18201F230F22052100903D20FFF765
S31508006DB0B9FB18201F231022052100905520FFF744
S31508006DC0B1FB18201F231122052100906D20FFF723
S31508006DD0A9FB18201F231222052100908520FFF702
S31508006DE0A1FB18201F231C22052100909D20FFF7D8
S31508006DF099FB18201F231D2205210090B520FFF7B7
S31508006E0091FB18201F23022205210090CD20FFF7B1
S31508006E1089FB18201F23162205210090DD20FFF785
S31508006E2081FB18201F230D2205210090F520FFF76E
S31508006E3079FBFCF741FCCFE02B480088572877DA26
S31508006E404FF400712948FDF7F7FB4FF40041284835
S31508006E50FDF7F0FB18201F230422052100900846A1
S31508006E60FFF760FB18201F230A2205210090152032
S31508006E70FFF758FB18201F230E2205210090252016
S31508006E80FFF750FB18201F230F22052100903D20F5
S31508006E90FFF748FB18201F231022052100905520D4
S31508006EA0FFF740FB18201F231122052100906D20B3
S31508006EB0FFF738FB18201F23122205210090852092
S31508006EC0FFF730FB18201F231C22052100909D2068
S31508006ED0FFF728FB18201F231D2205210090B52047
S31508006EE008E0000030000020DC000020000C014013
S31508006EF000100140FFF716FB18201F230322052167
S31508006F000090CD20FFF70EFB18201F23162205211F
S31508006F100090DD20FFF706FB18201F230D22052110
S31508006F200090F520FFF7FEFAFCF7C6FB54E0FFE7F2
S31508006F30FE4800885D283CDA4FF6FF70FDF702FD33
S31508006F4018201F230522114600901046FFF7EAFA7B
S31508006F5018201F230A22052100901520FFF7E2FAC0
S31508006F6018201F231022052100902D20FFF7DAFA9A
S31508006F7018201F231122052100904520FFF7D2FA79
S31508006F8018201F231E22052100905D20FFF7CAFA4C
S31508006F9018201F231A46052100907520FFF7C2FA0C
S31508006FA018201F232022052100908D20FFF7BAFA0A
S31508006FB012E00020DE490870DE48C07820F0200084
S31508006FC02030DC49C8700846C07820F01000103020
S31508006FD0C8700020D5490880D4480088401CD34989
S31508006FE00880D8E2102000231A4623210090C820E2
S31508006FF0FFF798FAD0480078C117019000EB917016
S315080070008010029002981E2801DD1E200290029828
S3150800701007282DDDC9480078B42814DD4FF4FC6034
S315080070202F230090029ACA322721CB20FDF7A2FC13
S315080070304FF6FF702F23E822272100900298CB30C5
S31508007040FDF798FC28E04FF6E0702F230090029A8F
S31508007050CA322721CB20FDF78DFC4FF6FF702F2370
S31508007060E822272100900298CB30FDF783FC13E035
S315080070704FF478402F230090029ACA322721CB205A
S31508007080FDF778FC4FF6FF702F23E82227210090A2
S315080070900298CB30FDF76EFCA9480078112817DB5B
S315080070A0A7480078182813DCA248807820F010003A
S315080070B01030A049887008468078C0F3800038B13F
S315080070C00846807820F0040088700120FFF7B0FB9E
S315080070D09B48007818BB97488078C0F3001020B901
S315080070E094488078C0F3C00068B19248807820F050
S315080070F00800904988700846807820F0100088704B
S315080071000220FFF795FB64217420FFF77FFA894870
S31508007110807820F00400001D864988703AE2884885
S315080071200078092839DCFDF7D9FA8248807820F0FA
S31508007130080008307F49887008468078C0F38000C8
S3150800714038B10846807820F0040088700120FFF7DF
S315080071506FFB78488078C0F3001040B17548807896
S3150800716020F01000734988700220FFF761FB402069
S3150800717000907448038807225A214020FFF7D2F965
S315080071801B2000906E48007801906E480388722193
S315080071906E20019AFFF7C6F9FCE1694800781128C4
S315080071A033D1402000906848038800225A214020A5
S315080071B0FFF7B8F96548007803280DDC1B20009016
S315080071C062480078401CC0B201905F4803887C2161
S315080071D06E20019AFFF7A6F91A2000905A480388EC
S315080071E000229E21A820FFF79DF95848007800EB59
S315080071F04000574901EB8000B0F90600019052485B
S3150800720001880198FFF740FBC4E14D480078122831
S3150800721022D1402000904F48038802225A2140205C
S31508007220FFF780F91A2000904A48038804229E2115
S31508007230A820FFF777F945480078133000EB40009F
S31508007240434901EB8000B0F90600019041480188E6
S315080072500198FFF719FB9DE13948007813281BD1DF
S31508007260402000903C48038803225A214020FFF71B
S3150800727059F91A2000903848038805229E21A8202B
S31508007280FFF750F93248B0F9DE000190324801881C
S315080072900198FFF7F9FA7DE12948007814281BD1EF
S315080072A0402000902D48038806225A214020FFF7E7
S315080072B039F91A2000902948038802229E21A8201D
S315080072C0FFF730F92248B0F9BA000190234801883F
S315080072D00198FFF7D9FA5DE119480078152860D1B9
S315080072E0402000901E48038804225A214020FFF7B8
S315080072F019F91A2000901A48038803229E21A8200B
S31508007300FFF710F91B20009010480078401CC0B207
S315080073100190134803887F216420019AFFF702F938
S315080073200A48007858BB0A481CE00000DC00002028
S31508007330C200002030000020D0000020D20000202B
S315080073408B000020640000205600002082000020E8
S31508007350EE000020580000205A0000205C000020A3
S315080073605E000020B0F9C600C000642190FBF1F071
S315080073700190894801880198FFF786FA0AE187484B
S315080073800078012887D18648B0F9D200C000642168
S3150800739090FBF1F00190804801880198FFF774FA94
S315080073A0F8E080480078162824D1402000907E48CE
S315080073B0038801225A214020FFF7B4F8774800785D
S315080073C003280DDC1B20009074480078401CC0B2CE
S315080073D00190754803887C216E20019AFFF7A2F870
S315080073E01A2000907048038800229E21A820FFF7E3
S315080073F099F8CFE06B480078172824D140200090F0
S315080074006A48038805225A214020FFF78BF81A207C
S3150800741000906648038801229E21A820FFF782F87B
S315080074205E480078093000EB40005D4901EB8000BA
S31508007430B0F906006421484301905C480188019828
S31508007440FFF722FAA6E057480078212827D14020DE
S315080074500090574803880D225A214020FFF762F80A
S315080074600D200090524803884C4802787C215B2006
S31508007470FFF758F81A2000904D48038806229E21E7
S31508007480A820FFF74FF84B484449097830F811000F
S315080074900190474801880198FFF7F6F97AE04148D4
S315080074A00078222818D140200090434803880C22EF
S315080074B05A214020FFF736F81A2000903E480388E4
S315080074C000229E21A820FFF72DF83B4801883B485B
S315080074D00088FFF7D9F95DE032480078232818D1EB
S315080074E0402000903648038809225A214020FFF799
S315080074F019F81A2000903248038805229E21A820F0
S31508007500FFF710F82E4801882E480088FFF7BCF9C7
S3150800751040E02448007824281CD1402000902A48BE
S3150800752003880A225A214020FEF7FCFF0D2000900E
S3150800753025480388254802787D215320FEF7F2FF67
S315080075401A2000902048038805229E21A820FEF7CD
S31508007550E9FF1FE01348007825281BD1402000903A
S315080075601B4803880B225A214020FEF7DBFF0D201B
S315080075700090174803881748027875215A20FEF7A5
S31508007580D1FF1A2000901248038805229E21A820C0
S31508007590FEF7C8FF00BF0EBD5E0000208200002077
S315080075A0EE0000208B00002056000020620000201C
S315080075B0680000207200002066000020700000208D
S315080075C06A0000207A0000206C0000207C00002061
S315080075D06E0000207D0000202DE9F8430446884609
S315080075E0174699463D46642D40DB642095FBF0F02E
S315080075F0C6B218204B463246414600902046FEF752
S3150800760091FF06EBC60000EB0610A5EB8000C5B29D
S315080076100A2095FBF0F0C6B218204B463246414682
S31508007620009004F11000FEF77DFF18204B460A2251
S315080076304146009004F12000FEF774FF06EB860031
S31508007640A5EB4000C5B218204B462A464146009095
S3150800765004F13000FEF766FF18204B460B22414620
S31508007660009004F14000FEF75DFF63E00A2D35DB6C
S315080076700A2095FBF0F0C6B218204B463246414622
S3150800768000902046FEF74EFF18204B460A22414638
S31508007690009004F11000FEF745FF06EB8600A5EB07
S315080076A04000C5B218204B462A464146009004F1D0
S315080076B02000FEF737FF18204B460D224146009062
S315080076C004F13000FEF72EFF18204B460B224146E8
S315080076D0009004F14000FEF725FF2BE018204B46EA
S315080076E00022414600902046FEF71CFF18204B4614
S315080076F00A224146009004F11000FEF713FF1820F5
S315080077004B462A464146009004F12000FEF70AFF40
S3150800771018204B460D224146009004F13000FEF732
S3150800772001FF18204B460B224146009004F1400009
S31508007730FEF7F8FEBDE8F88310B50446A9480088A8
S31508007740401CA8490880084600880A2808DBA6487D
S3150800775003F080FDA44803F0F4FC0020A14908804A
S31508007760A2480088401CA1490880084600880A28C3
S3150800777008DB9F4803F06EFD9D4803F0E2FC0020FD
S315080077809A4908809B48007820F0100010309949E3
S3150800779008709948C07800F0010020B19748007831
S315080077A0401C9649087093480078C0F38000C0B121
S315080077B093480088401C9249088008460088B0F51E
S315080077C0617F0ED38B48007820F00800083089497D
S315080077D008700846007820F00400087000208849E0
S315080077E0088084480078C0F3C00088B185480078CE
S315080077F0401C8449087008460078052808D37D4847
S31508007800007820F008007B49087000207D49087040
S315080078107D480078401C7C49087008460078022894
S3150800782008D3002008707448807820F04000403063
S31508007830714988706F480078C0F3400088B1734872
S315080078400078401C714908700846007805280BD353
S31508007850002008706748007820F002006549087023
S3150800786002E000206949087069480078401C6849A8
S31508007870087008460078042809D35F48407820F045
S315080078800400001D5C494870002061490870614881
S315080078900078401C5F4908705748C07800F001001E
S315080078A098B10846007880B35348C07820F008009D
S315080078B008305149C8700846007820F0080008309A
S315080078C008700020534908701FE0524800780228C3
S315080078D009D34948C07820F0080008304649C870DE
S315080078E000204C4908704C480088401C4A490880CA
S315080078F008460088142808D9002008803E480078E1
S3150800790020F0080008303C49087044480078401CBC
