S31508002400A8380020B92600088B5200086F26000855
S31508002410875200089D2B0008737D00080000000005
S315080024200000000000000000000000001B65000816
S31508002430913B000800000000F725000861680008C5
S31508002440CF260008CF260008CF260008CF2600088A
S31508002450CF260008CF260008CF260008CF2600087A
S31508002460CF260008CF260008CF260008CF2600086A
S31508002470CF260008CF260008CF260008CF2600085A
S31508002480CF260008CF260008CF260008CF2600084A
S31508002490CF260008CF260008CF260008CF2600083A
S315080024A0CF260008CF260008CF260008CF2600082A
S315080024B0CF260008CF260008CF260008CF2600081A
S315080024C0CF260008CF260008CF260008CF2600080A
S315080024D0CF260008557A0008CF260008B97A0008E2
S315080024E0CF260008CF260008CF26000800F002F8FD
S315080024F000F05AF80AA090E8000C82448344AAF136
S315080025000107DA4501D100F04FF8AFF2090EBAE833
S315080025100F0013F0010F18BFFB1A43F00103184709
S31508002520083F0100283F01000A444FF0000C10F84C
S31508002530013B13F0070408BF10F8014B1D1108BF33
S3150800254010F8015B641E05D010F8016B641E01F8D3
S31508002550016BF9D113F0080F1EBF10F8014BAD1C23
S315080025600C1B09D16D1E58BF01F801CBFAD505E041
S3150800257014F8016B01F8016B6D1EF9D59142D6D39B
S31508002580704700000023002400250026103A28BFC3
S3150800259078C1FBD8520728BF30C148BF0B607047C7
S315080025A01FB51FBD10B510BD00F043F91146FFF762
S315080025B0F7FF06F0A5FD00F061F903B4FFF7F2FF97
S315080025C003BC00F065F90000EFF3108072B670479F
S315080025D080F310887047324A1368012B04D04FF0F5
S315080025E0010313602F4A10602F4A11602F484FF0DD
S315080025F0805101607047EFF3108272B6284801686F
S3150800260091B14FF0000101602648016829B1EFF346
S31508002610098121E9F00F0068016023490968096802
S31508002620B1E8F00F81F3098882F310884EF0040EA2
S3150800263070471D4908601B494FF00000086018499B
S315080026404FF0010008601A484FF47F01D0F80020C7
S3150800265041EA0201016015484FF0805101601548B2
S315080026600068006880F3088862B6704700BF1EF0ED
S31508002670040F14BFEFF30880EFF3098020E9F00F89
S3150800268040F804ED14BF80F3088880F3098800B584
S3150800269007F00CFC5DF804EB4EF0040E70470000E2
S315080026A01C000020140000201800002004ED00E0A3
S315080026B020ED00E008ED00E008480047FEE7FEE7E9
S315080026C0FEE7FEE7FEE7FEE7FEE7FEE7FEE7FEE7D4
S315080026D003480449044A054B70470000ED240008E6
S315080026E0A8320020A8380020A8340020A8340020EA
S315080026F0032A40F2308010F0030C00F0158011F820
S31508002700013BBCF1020F624498BF11F801CB00F8F7
S31508002710013B38BF11F8013BA2F1040298BF00F84B
S3150800272001CB38BF00F8013B11F0030300F0258008
S31508002730083AC0F0088051F8043B083A51F804CB2F
S31508002740A0E80810F5E7121D5CBF51F8043B40F8F5
S31508002750043BAFF30080D20724BF11F8013B11F800
S3150800276001CB48BF11F8012B24BF00F8013B00F844
S3150800277001CB48BF00F8012B704710B5203AC0F0CE
S315080027800B80B1E81850203AA0E81850B1E8185064
S31508002790A0E81850BFF4F5AF5FEA027C24BFB1E8A1
S315080027A01850A0E8185044BF18C918C0BDE8104012
S315080027B05FEA827C24BF51F8043B40F8043B08BF1B
S315080027C07047D20728BF31F8023B48BF11F8012BE2
S315080027D028BF20F8023B48BF00F8012B70474FF08E
S315080027E0000200B5134694469646203922BFA0E853
S315080027F00C50A0E80C50B1F12001BFF4F7AF09075F
S3150800280028BFA0E80C5048BF0CC05DF804EB89004F
S3150800281028BF40F8042B08BF704748BF20F8022B92
S3150800282011F0804F18BF00F8012B704770477047AA
S315080028307047754600F028F8AE46050069465346C7
S3150800284020F00700854618B020B5FFF741FFBDE820
S3150800285020404FF000064FF000074FF000084FF0F9
S31508002860000B21F00701AC46ACE8C009ACE8C0098A
S31508002870ACE8C009ACE8C0098D4670470446AFF31A
S3150800288000802046FFF799FE004870474432002032
S3150800289001491820ABBEFEE7260002007047CA436E
S315080028A00260704721B1826842F00102826003E04B
S315080028B0826822F0010282607047000010B5044663
S315080028C01248844208D10121401502F099FD0021E1
S315080028D0601502F095FD17E00D48844208D10121E4
S315080028E0001502F08DFD0021201502F089FD0BE090
S315080028F00848844208D10121C80302F081FD00215D
S315080029004FF4004002F07CFD10BD00000024014099
S3150800291000280140003C0140014600208A6802F078
S3150800292004020AB1012000E0002070470146C86C85
S3150800293080B270470246002013680B400BB1012095
S3150800294000E000207047014600208A6802F008026D
S315080029500AB1012000E000207047000030B50246A9
S315080029600020002350680F4C20400D790C6844EA7B
S3150800297005242043506090680B4C2040D1E902544E
S315080029802C434D7944EA450420439060D06A20F4EC
S3150800299070000C7C641EE4B2234340EA0350D06204
S315080029A030BD0000FFFEF0FFFDF7F1FFF0B504466D
S315080029B00D4600200021092D11DDE068A5F10A0663
S315080029C006EB4607072606FA07F18843A5F10A0625
S315080029D006EB460603FA06F10843E0600CE02069B8
S315080029E005EB4507072606FA07F1884305EB450672
S315080029F003FA06F108432061072A0FDA606B561EB0
S31508002A0006EB86071F2606FA07F18843561E06EBCD
S31508002A10860605FA06F10843606322E00D2A0FDAF6
S31508002A20206BD61F06EB86071F2606FA07F1884392
S31508002A30D61F06EB860605FA06F10843206310E062
S31508002A40E06AA2F10D0606EB86071F2606FA07F1CD
S31508002A508843A2F10D0606EB860605FA06F1084339
S31508002A60E062F0BD816841F008018160704721B1DC
S31508002A70826842F4A002826003E0826822F4A0021F
S31508002A8082607047816841F00401816070470000E8
S31508002A9010B50446082C6DD2DFE804F004111E2B8D
S31508002AA03845525F1021354801F0D2FD20213348C0
S31508002AB001F0CEFD4021314801F0CCFD5BE010214C
S31508002AC02E4801F0C7FD20212C4801F0C3FD402106
S31508002AD02A4801F0BDFD4EE01021284801F0BAFD54
S31508002AE02021264801F0B6FD4021244801F0B2FD18
S31508002AF041E01021214801F0ABFD20211F4801F0DB
S31508002B00A9FD40211D4801F0A5FD34E010211B4810
S31508002B1001F09EFD2021194801F09CFD402117482F
S31508002B2001F096FD27E01021144801F091FD2021BF
S31508002B30124801F08DFD4021104801F089FD1AE088
S31508002B4010210E4801F086FD20210C4801F080FD79
S31508002B5040210A4801F07CFD0DE01021074801F0EC
S31508002B6079FD2021054801F073FD4021034801F055
S31508002B7071FD00E000BF00BF10BD00000008014065
S31508002B8010B502F04DFC02F081FB03F033FE01F0B4
S31508002B9083FB03F069FE01F095FD10BD00BFFEE75B
S31508002BA000B587B01F4800F05BF804A800F084FA67
S31508002BB000208DF8160001208DF817008DF81800F2
S31508002BC000208DF819008DF81A008DF81B008DF875
S31508002BD012008DF8130002208DF8140004208DF8D9
S31508002BE015000820ADF8100004A90E4800F014F9E5
S31508002BF000208DF80A008DF80B008DF80C00ADF852
S31508002C000000ADF80200ADF80400ADF80600ADF816
S31508002C10080001208DF80D00684600F03DF807B061
S31508002C2000BD00000064004000220C4B994202D10E
S31508002C300023836111E0C1F3130201F000730BB1A5
S31508002C40C2600AE001F080630BB1026105E001F0A1
S31508002C5000630BB1826000E0426070477000F0309C
S31508002C6010B504460B48844209D10121480602F0F2
S31508002C70A7FB00214FF0007002F0A2FB08E001213B
S31508002C80880602F09DFB00214FF0806002F098FB59
S31508002C9010BD00000064004010B50021837A0122AF
S31508002CA002FA03F13D4A126842F001023B4B1A60F0
S31508002CB03A4A1C3212688A43384B1C331A60027B24
S31508002CC0CAB9364A0C3212688A43344B0C331A6036
S31508002CD04288C38842EA0343304A4032847A42F83B
S31508002CE034300288838842EA03432C4A4032847A85
S31508002CF002EBC4025360027B012A19D1274A0C321F
S31508002D0012680A43254B0C331A604288038842EA44
S31508002D100343224A4032847A42F83430C288838890
S31508002D2042EA03431D4A4032847A02EBC4025360E6
S31508002D30C27A3AB9194A121D12688A43174B1B1DE3
S31508002D401A6006E0154A121D12680A43134B1B1D2A
S31508002D501A60028932B9114A143212688A430F4B33
S31508002D6014331A600289012A06D10C4A14321268F1
S31508002D700A430A4B14331A60427B012A06D1074AD2
S31508002D801C3212680A43054B1C331A60034A126840
S31508002D9022F00102014B1A6010BD000000660040D7
S31508002DA010B50246002001F4700343B19369C1F3DC
S31508002DB0130423400BB101202DE000202BE001F085
S31508002DC0807343B15368C1F3130423400BB1012048
S31508002DD021E000201FE001F0006343B19368C1F3CE
S31508002DE0130423400BB1012015E0002013E001F085
S31508002DF0007343B1D368C1F3130423400BB1012018
S31508002E0009E0002007E01369C1F3130423400BB15E
S31508002E10012000E0002010BD30B502460020002346
S31508002E20146824F002041460146844F00104146061
S31508002E3000E05B1C546804F001041CB94FF6FF74EB
S31508002E40A342F6D1546804F001040CB900206CE0E2
S31508002E508C79012C04D1146844F08004146003E0D2
S31508002E60146824F080041460CC79012C04D1146809
S31508002E7044F04004146003E0146824F0400414602D
S31508002E800C7A012C04D1146844F02004146003E081
S31508002E90146824F0200414604C7A012C04D11468B8
S31508002EA044F01004146003E0146824F0100414605D
S31508002EB08C7A012C04D1146844F00804146003E0E9
S31508002EC0146824F008041460CC7A012C04D1146820
S31508002ED044F00404146003E0146824F00404146045
S31508002EE08C78A407CD7844EA05640D7944EA05444C
S31508002EF04D7944EA05540D886D1E2C43D461146837
S31508002F0024F001041460002300E05B1C546804F0FC
S31508002F1001041CB14FF6FF74A342F6D1546804F0BD
S31508002F2001040CB1002000E0012030BD024600205B
S31508002F3019B9D36803F0030006E0012903D1136920
S31508002F4003F0030000E00020704700002DE9F0437D
S31508002F5085B00546884691461E463746BF014F440A
S31508002F6017491848FFF71CFF38B915491548FFF7E0
S31508002F705BFE202005B0BDE8F0836A4600211148B3
S31508002F8000F022F89DF80A00A84201D00420F1E7D3
S31508002F900098B8420BD1002406E00DF10B00005D45
S31508002FA008F80400601CC4B2AC42F6DB01E001205C
S31508002FB0E0E79DF8080008B10220DBE70820D9E71A
S31508002FC0080000320064004010B500F5D87303EB22
S31508002FD001131B6803F004031372137A53B900F53F
S31508002FE0D87303EB01131B6840F2FF7404EA5353CA
S31508002FF0136009E000F5D87303EB01131B686FF043
S31508003000604404EAD303536000F5D87303EB011355
S315080030101B6803F00203537200F5D87303EB011320
S315080030205B6803F00F03937200F5D87303EB011383
S315080030305B681B0AD37400F5D87303EB01139B680E
S31508003040D37200F5D87303EB01139B681C0A14733B
S3150800305000F5D87303EB01139B681C0C547300F539
S31508003060D87303EB01139B681B0E937300F5D87393
S3150800307003EB0113DB68D37300F5D87303EB011375
S31508003080DB681C0A147400F5D87303EB0113DB68BC
S315080030901C0C547400F5D87303EB0113DB681B0E84
S315080030A0937421B9C36843F02003C36003E003693E
S315080030B043F02003036110BD00218171C1710172C3
S315080030C041728172C1728170C1700321017102213E
S315080030D0417101210180704710B5024600209368AE
S315080030E003F08063B3F1806F00D110E0936803F0BA
S315080030F00063B3F1006F01D1012008E0936803F083
S315080031008053B3F1805F01D1022000E00420042837
S3150800311074D002F5C07303EB00131B6803F00104B7
S3150800312002F5C07303EB00131C600B7A7BB94B7A6C
S315080031300C8843EA445302F5C07404EB001424686F
S31508003140234302F5C07404EB0014236010E00B7AE5
S315080031504C6843EAC4034C7A234302F5C07404EB73
S3150800316000142468234302F5C07404EB001423609A
S315080031708B7A03F00F038B7202F5C07303EB00130F
S315080031805B6823F00F0402F5C07303EB00135C6061
S3150800319002F5C07303EB00135B688C7A234302F5D0
S315080031A0C07404EB001463608B7B1C064B7B44EAFB
S315080031B003440B7B44EA0323CC7A234302F5C07409
S315080031C004EB0014A3608B7C1C064B7C44EA034486
S315080031D00B7C44EA0323CC7B234302F5C07404EB3F
S315080031E00014E36002F5C07303EB00131B6843F099
S315080031F0010402F5C07303EB00131C6010BD000048
S315080032002DE9F04786B006460F46904699464FF098
S31508003210000A002548EA8910019000208DF80C0064
S315080032208DF80D008DF80E6000BF05E0795D0DF193
S315080032300F004155681CC5B2B542F7DB01A90E4817
S31508003240FFF74AFF8246002400E0641C51460A48FC
S3150800325000F014F8012801D0802CF6D1002400E0F3
S31508003260641C00210448FFF761FE012801DA802C5E
S31508003270F6D106B0BDE8F0870064004010B50246F6
S31508003280002321B1012907D002290FD109E090684E
S315080032901D4C00EA04030BE090681C4C00EA04038A
S315080032A006E090681A4C00EA040301E0002300BF18
S315080032B000BF184C181BA34216D007DC83B16FF069
S315080032C08060184470B1022818D111E0B0F5007F6B
S315080032D010D0114C204448B1B0F5003F0ED10BE098
S315080032E002230DE000230BE0002309E0002307E09A
S315080032F0012305E0012303E0012301E0002300BFC9
S3150800330000BFD8B210BD0000030000040003000887
S3150800331000000310000100080001FFF70146002223
S31508003320744B1A7000200EE000EB4002724B03EB60
S315080033308202D27A012A04D16E4A1278521C6D4B47
S315080033401A70421CD0B21828EEDB01297ED1002261
S315080033506A4B1A7001200FE0421E02EB4202664BCE
S3150800336003EB8202D27A012A04D1644A1278521CEB
S31508003370624B1A70421CD0B20628EDDD0022604B63
S315080033801A7007200FE0421E02EB42025A4B03EB6B
S315080033908202D27A012A04D1594A1278521C584B11
S315080033A01A70421CD0B20928EDDD0022554B1A705E
S315080033B00A200FE0421E02EB42024F4B03EB820249
S315080033C0D27A012A04D14F4A1278521C4D4B1A70F0
S315080033D0421CD0B20B28EDDD00224B4B1A700C2094
S315080033E00FE0421E02EB4202434B03EB8202D27A03
S315080033F0012A04D1444A1278521C434B1A70421CC3
S31508003400D0B20F28EDDD0022404B1A703A4A92F8E6
S31508003410BF20012A03D11A461278521C1A700022BC
S315080034203B4B1A7011200FE0421E02EB4202324B50
S3150800343003EB8202D27A012A04D1354A1278521C49
S31508003440334B1A70421CD0B2122800E051E0EBDD73
S315080034500022304B1A70284A92F8E320012A03D139
S315080034601A461278521C1A7000222B4B1A70142016
S315080034700FE0421E02EB42021F4B03EB8202D27A96
S31508003480012A04D1244A1278521C234B1A70421C72
S31508003490D0B21628EDDD0022204B1A7017200FE057
S315080034A0421E02EB4202144B03EB8202D27A012A35
S315080034B004D11A4A1278521C184B1A70421CD0B200
S315080034C01828EDDD0022164B1A7019200FE0421E4F
S315080034D002EB4202084B03EB8202D27A012A04D19C
S315080034E00F4A1278521C0E4B1A70421CD0B21A2878
S315080034F0EDDD70474F0200200A0100205C00002025
S3150800350062000020630000206400002060000020A4
S31508003510610000205F0000205D000020650000209B
S315080035206700002001464E4AD27802F00102002ABE
S3150800353068D04C4A1278042A03DA20224A4B1A60C9
S315080035408CE0484A1278082A04DA4FF40052464BAF
S315080035501A6083E0434A12780C2A04DA4FF4001200
S31508003560414B1A607AE03F4A1278102A04DA42F28E
S3150800357020023D4B1A6071E03A4A1278142A03DA9F
S315080035803A4A394B1A6069E0364A1278182A03DA39
S315080035900022354B1A6061E0324A12781C2A03DA97
S315080035A04022314B1A6059E02E4A1278202A04DA52
S315080035B04FF480422C4B1A6050E02A4A1278242A8B
S315080035C004DA4FF48002284B1A6047E0254A12783D
S315080035D0282A03DA264A244B1A603FE0214A127841
S315080035E02C2A03DA234A204B1A6037E01D4A127840
S315080035F0342A03DA204A1C4B1A602FE000221A4BA1
S315080036001A602BE019B90022174B1A6026E0012927
S3150800361003D11A4A144B1A6020E0194A9278120408
S31508003620174B5B7802EB0322154B1B78D018012841
S315080036300DD010280BD0B0F5807F08D0B0F5805F8C
S3150800364005D0B0F5803F02D0B0F5801F02D1064AFA
S31508003650106003E04FF48012034B1A6070470000B5
S3150800366038000020F6000020040100202020200059
S31508003670404040006060600010101000303030009C
S31508003680C900002038B5FE480078052802DA4FF44C
S31508003690FC6400E01F241820234603221E21009004
S315080036A0252002F03BFF182023460A221E210090FF
S315080036B0352002F033FF1820234603221E210090EE
S315080036C0452002F02BFF182023460B221E210090CE
S315080036D0552002F023FF182023460E221E210090B3
S315080036E0652002F01BFF182023460F221E2100909A
S315080036F07D2002F013FF1820234610221E21009079
S31508003700952002F00BFF1820234619221E2100904F
S31508003710AD2002F003FF182023461A221E2100902E
S31508003720C52002F0FBFE2346D54802781E21E32079
S3150800373003F012FFD3480078082802DA4FF4FC6435
S3150800374000E01F2418202346052237210090252053
S3150800375002F0E4FE182023460B223721009035207C
S3150800376002F0DCFE182023460E2237210090452061
S3150800377002F0D4FE182023460F22372100905D2040
S3150800378002F0CCFE1820234610223721009075201F
S3150800379002F0C4FE182023461922372100908D20F6
S315080037A002F0BCFE182023461A2237210090A520D5
S315080037B002F0B4FE2346B34802783721E32003F02B
S315080037C0CBFEB1480078142802DA4FF4FC6400E016
S315080037D01F2418202346052250210090252002F098
S315080037E09DFE182023460C2250210090352002F019
S315080037F095FE182023460B2250210090452002F002
S315080038008DFE182023460E2250210090552002F0E6
S3150800381085FE182023460F22502100906D2002F0C5
S315080038207DFE18202346102250210090852002F0A4
S3150800383075FE182023461922502100909D2002F07B
S315080038406DFE182023461A2250210090B52002F05A
S3150800385065FE23468C4802785021E32003F07CFE5F
S315080038608A4800780A2802DA4FF4FC6400E01F242C
S3150800387018202346092269210090252002F04EFED1
S31508003880182023460B2269210090352002F046FEB7
S31508003890182023460E2269210090452002F03EFE9C
S315080038A0182023460F22692100905D2002F036FE7B
S315080038B018202346102269210090752002F02EFE5A
S315080038C0182023461922692100908D2002F026FE31
S315080038D0182023461A2269210090A52002F01EFE10
S315080038E023466A4802786921E32003F035FE6848D2
S315080038F000780A2802DA4FF4FC6400E01F24182036
S315080039002346012282210090252002F007FE182076
S315080039102346022282210090352002F0FFFD18205E
S3150800392023460B2282210090452002F0F7FD18203D
S3150800393023460E2282210090552002F0EFFD182022
S3150800394023460F22822100906D2002F0E7FD182001
S315080039502346102282210090852002F0DFFD1820E0
S3150800396023461922822100909D2002F0D7FD1820B7
S3150800397023461A2282210090B52002F0CFFD234665
S31508003980434802788221E32003F0E6FD41480078A7
S315080039900A2802DA4FF4FC6400E01F2418202346A4
S315080039A00E229B210090252002F0B8FD1820234600
S315080039B01B229B2100903D2002F0B0FD18202346D3
S315080039C001229B210090552002F0A8FD18202346CD
S315080039D00E229B210090652002F0A0FD18202346A8
S315080039E00F229B2100907D2002F098FD1820234687
S315080039F010229B210090952002F090FD1820234666
S31508003A0019229B210090AD2002F088FD182023463C
S31508003A101A229B210090C52002F080FD23461D48EE
S31508003A2002789B21E32003F097FD1B4800780A28BB
S31508003A3002DA4FF4FC6400E01F24182023460E2205
S31508003A40B4210090252002F069FD182023461B2288
S31508003A50B42100903D2002F061FD18202346022281
S31508003A60B4210090552002F059FD182023460E2255
S31508003A70B4210090652002F051FD182023460DE080
S31508003A80E8000020E9000020EA000020EB00002002
S31508003A90EC000020ED000020EE0000200F22B421EB
S31508003AA000907D2002F03AFD182023461022B4210A
S31508003AB00090952002F032FD182023461922B421E1
S31508003AC00090AD2002F02AFD182023461A22B421C0
S31508003AD00090C52002F022FD23462B480278B42127
S31508003AE0E32003F039FD294800780A2802DA4FF462
S31508003AF0FC6400E01F24182023460222CD210090F2
S31508003B00252002F00BFD182023460422CD21009023
S31508003B10352002F003FD182023460B22CD21009004
S31508003B20452002F0FBFC182023460E22CD210090EA
S31508003B30552002F0F3FC182023460F22CD210090D1
S31508003B406D2002F0EBFC182023461022CD210090B0
S31508003B50852002F0E3FC182023461922CD21009087
S31508003B609D2002F0DBFC182023461A22CD21009066
S31508003B70B52002F0D3FC234604480278CD21E32081
S31508003B8003F0EAFC38BD0000EE000020EF0000203C
S31508003B907047002001E0411CC8B20E28FBDB7047C5
S31508003BA010B5FE48C07800F00100002874D0FC4823
S31508003BB00078062804DA40F6FF70FA490880A3E27E
S31508003BC0F7480078082803DA0020F64908809BE2BF
S31508003BD0F34800780A2803DA2020F249088093E29D
S31508003BE0EF4800780C2803DA1020EE4908808BE2AB
S31508003BF0EB4800780E2803DA0820EA49088083E2B1
S31508003C00E7480078102803DA0420E64908807BE2B2
S31508003C10E3480078122803DA0220E249088073E2B2
S31508003C20DF480078142803DA0120DE4908806BE2B1
S31508003C30DB480078162804DA4FF40060D949088072
S31508003C4062E2D7480078182804DA4FF48060D5492C
S31508003C50088059E2D24800781A2804DA4FF400702E
S31508003C60D049088050E2CE4800781C2804DA4FF480
S31508003C708070CC49088047E2C94800781E2803DAD4
S31508003C808020C84908803FE2C5480078202804DA21
S31508003C904020C449088037E20BE0C1480078222852
S31508003CA003DA0020BF4908802EE20020BC490870CC
S31508003CB02AE2BD48007800F0030058B9B9480088E0
S31508003CC020F01000B74908800846008820F0200038
S31508003CD008802EE0B448007800F0030001280BD1D4
S31508003CE0B048008840F01000AE49088008460088B1
S31508003CF020F0200008801CE0AB48007800F00300A4
S31508003D0002280BD1A748008820F01000A549088092
S31508003D100846008840F0200008800AE0A14800888C
S31508003D2020F010009F4908800846008880F020008F
S31508003D3008809E484078C0F34010C8BB9B488078EE
S31508003D4000F00100A0BB9848007800F00C0058B9B4
S31508003D509448008820F004009249088008460088A4
S31508003D6020F00800088041E08F48007800F00C0039
S31508003D7004280BD18B48008840F004008949088044
S31508003D800846008820F0080008802FE0864800785A
S31508003D9000F00C00082829D18248008820F0040089
S31508003DA0804908800846008840F0080008801DE021
S31508003DB0FFE77D48007800F00C0004280BD179480D
S31508003DC0008820F00800774908800846008880F0B7
S31508003DD0040008800AE07348008820F0040071494E
S31508003DE008800846008880F0080008806E48007839
S31508003DF000F0300088BB6D484078C0F3001058B119
S31508003E006848008880F002006649088008460088ED
S31508003E1020F00100088062E060484078C00958B187
S31508003E206048008820F001005E490880084600883E
S31508003E3040F00200088052E05848807800F00100FF
S31508003E4060B15848008880F0010056490880084645
S31508003E50008820F00200088041E00BE05148008805
S31508003E6040F001004F4908800846008820F002000B
S31508003E70088034E04C48007800F0300010280BD158
S31508003E804848008840F001004649088008460088EE
S31508003E9020F00200088022E04348007800F0300055
S31508003EA020280BD13F48008820F001003D490880B2
S31508003EB00846008840F00200088010E03A4800787A
S31508003EC000F0300030280AD13648008820F001007A
S31508003ED0344908800846008820F0020008803248E5
S31508003EE0007800F0C000E0B92C484078C0F38000A4
S31508003EF058B12C48008840F480602A490880084652
S31508003F00008820F40060088040E02648008820F4F5
S31508003F108060244908800846008840F400600880CC
S31508003F2034E02148007800F0C00040280BD11D4835
S31508003F30008840F480601B4908800846008820F401
S31508003F400060088022E01848007800F0C000802849
S31508003F500BD11448008820F480601249088008466E
S31508003F60008840F40060088010E00F48007800F0F0
S31508003F70C000C0280AD10B48008820F4806009498F
S31508003F8008800846008820F40060088006484078C3
S31508003F9000F0030060BB0148407809E038000020C3
S31508003FA0F6000020F4000020CD000020400000208C
S31508003FB0C0F3C00020B958488078C0F3400058B113
S31508003FC05648008840F4807054490880084600889E
S31508003FD020F40070088040E05048008820F4807083
S31508003FE04E4908800846008840F40070088034E08E
S31508003FF04B48407800F0030001280BD14748008859
S3150800400040F48070454908800846008820F400700E
S31508004010088022E04248407800F0030002280BD1CD
S315080040203E48008820F480703C490880084600888D
S3150800403040F40070088010E03948407800F003002A
S3150800404003280AD13548008820F48070334908804F
S315080040500846008820F4007008803148407800F04F
S315080040600C00E0B92F484078C0F3001058B12B482F
S31508004070008840F04000294908800846008820F05A
S315080040808000088040E02548008820F04000234949
S3150800409008800846008840F08000088034E0204800
S315080040A0407800F00C0004280BD11C48008840F02A
S315080040B040001A4908800846008820F080000880D9
S315080040C022E01748407800F00C0008280BD1134866
S315080040D0008820F04000114908800846008840F012
S315080040E08000088010E00E48407800F00C000C288C
S315080040F00AD10A48008820F0400008490880084686
S31508004100008820F08000088004490988C1F30B0064
S3150800411000F012FF10BD000040000020F40000204F
S31508004120CD0000203800002030B5002326E0174CCB
S31508004130216800221EE001F001046CB14024144DF0
S315080041402C60002001E0441CE0B20428FBDB40247C
S315080041500F4D2D1D2C600AE040240D4D2C602D1DA1
S315080041602C60002001E0441CE0B20428FBDB49086F
S31508004170541CE2B2182ADEDB5C1CE3B20C2BD6DB3D
S315080041804024034D2D1D2C6030BD00000401002085
S31508004190100C014010B5FEF717FA0149086010BD6A
S315080041A06403002010B502480068FEF711FA10BD36
S315080041B0640300200549096821F01001034A1160CB
S315080041C0114609680143116070470000002002404B
S315080041D001460020034A106800F0380008431060C2
S315080041E07047000000200240024600210BE0084804
S315080041F030F82100904204D1054800EB8100408840
S315080042007047481CC1B20529F1DB01484088F7E729
S315080042106A6001082DE9F04186B0074688461546CA
S31508004220142101A8FEF7DBFA00268DF80470102089
S315080042308DF8050000208DF80600E81CC6B200249B
S3150800424006E018F8041001AAE01C1154601CC4B258
S31508004250AC42F6DB314601A803F0DFFF01A9885519
S3150800426004210C4800F0F6F9002405E001A9085DD0
S3150800427004F050F8601CC4B2701C8442F6DB0520BA
S3150800428006F0A9FE0421034800F0E2F9012006B071
S31508004290BDE8F081000C014008B5684600F0DCF97D
S315080042A00120ADF8000000208DF80300694671482A
S315080042B000F0E8F8684600F0CFF910208DF8030002
S315080042C001208DF8020048F2F010ADF800006946AA
S315080042D0684800F0D7F8684600F0BEF94FF4006069
S315080042E0ADF8000003208DF8020048208DF8030081
S315080042F06946604800F0C6F8684600F0ADF94FF424
S315080043008050ADF8000003208DF8020018208DF8C3
S3150800431003006946574800F0B5F8684600F09CF96E
S3150800432010208DF8030001208DF8020041F2BF30FD
S31508004330ADF800006946504800F0A4F801214F483E
S3150800434000F02CF908214C4800F084F920214A484D
S3150800435000F080F98021484800F07CF90020FFF73A
S31508004360E1F8FFF7E1FE4FF48071434800F072F977
S315080043704FF40071404800F06DF902213E4800F004
S3150800438067F910208DF8030003208DF802004020FD
S31508004390ADF800006946384800F074F8684600F041
S315080043A05BF94FF46040ADF8000018208DF8030063
S315080043B003208DF8020069462F4800F063F8684626
S315080043C000F04AF914208DF8030001208DF8020048
S315080043D04FF4C040ADF800006946294800F052F88D
S315080043E04FF40051264800F035F94FF4804124482F
S315080043F000F030F9684600F02FF910208DF8030018
S3150800440001208DF80200C003ADF8000069461C487B
S3150800441000F038F84FF40041194800F01BF9042061
S315080044208DF803000002ADF800006946114800F057
S3150800443029F818208DF803004FF40070ADF8000035
S3150800444069460C4800F01EF804208DF80300400267
S31508004450ADF800006946084800F014F818208DF8F1
S3150800446003004FF48060ADF800006946024800F08A
S3150800447009F808BD00080140000C014000023000A0
S31508004480001001402DE9F0410246002500260020D3
S3150800449000230024002791F803C00CF00F0591F8BB
S315080044A003C00CF0100CBCF1000F03D091F802C049
S315080044B04CEA050591F800C0BCF1000F31D014682C
S315080044C000202BE04FF0010C0CFA00F3B1F800C005
S315080044D00CEA03069E4220D183004FF00F0C0CFA1B
S315080044E003F7BC4305FA03FC4CEA040491F803C03D
S315080044F0BCF1280F06D14FF0010C0CFA00FCC2F8EB
S3150800450014C00AE091F803C0BCF1480F05D14FF07A
S31508004510010C0CFA00FCC2F810C0401C0828D1D3C4
S315080045201460B1F800C0BCF1FF0F34DD54680020F8
S315080045302EE000F1080C4FF0010808FA0CF3B1F868
S3150800454000C00CEA03069E4221D183004FF00F0CEF
S315080045500CFA03F7BC4305FA03FC4CEA040491F889
S3150800456003C0BCF1280F05D100F1080C08FA0CF8B5
S31508004570C2F8148091F803C0BCF1480F07D100F1C6
S31508004580080C4FF0010808FA0CF8C2F81080401C15
S315080045900828CED35460BDE8F0810000F0B50A467D
S315080045A0002300240021002500F00046B6F1004F44
S315080045B002D11D4EF16901E01B4E7168C0F3034537
S315080045C083B200F44016B6F5401F08D121F0706199
S315080045D0154E766826F07066134F7E6012E000F47A
S315080045E08016B6F5801F06D1032606FA05F4A14300
S315080045F041F0706106E0460D360103FA06F6B1434E
S3150800460041F0706122B1460D360103FA06F63143D0
S3150800461000F00046B6F1004F02D1034EF16101E009
S31508004620014E7160F0BD0000000001400246002006
S3150800463093680B400BB1012000E00020704702464A
S315080046400020D3680B400BB1012000E00020704722
S3150800465041617047016170474FF6FF710180022181
S3150800466081700421C17070472DE9F0410546002488
S315080046700423012229461248FEF798F9002619E074
S3150800468001210F48FEF7F3F900BF02210C48FEF797
S3150800469051F90028F9D00A48FEF748F907460221D9
S315080046A00748FEF7FCF800210548FEF7E0F93C4408
S315080046B0701CC6B2082EE3DBE408A0B2BDE8F081A0
S315080046C00024014010B545F2555000F02DF804209D
S315080046D000F01EF840F2145000F020F800F010F830
S315080046E000F002F810BD00004CF6CC400149086005
S315080046F0704700000030004010B500F001F810BD0A
S315080047004AF6AA20014908607047000000300040B8
S315080047100149486070470000003000400149886040
S3150800472070470000003000400149086070470000EB
S315080047300030004010B500204E4908604E49086018
S31508004740002408E000204D4908554D4908554D49B3
S315080047500855601CC4B2022CF4DB002404E00020D7
S3150800476049490855601CC4B2042CF8DB002406E04D
S3150800477000204649085546490855601CC4B2082C0D
S31508004780F6DB002406E00020424908554249085550
S31508004790601CC4B20A2CF6DB002040490870404968
S315080047A008704049087040490870404908704049F7
S315080047B008704049087040490880404908701F2021
S315080047C03F4908803F4908803F4908803F4908809B
S315080047D03F4908803F4908803F49088000203F49F3
S315080047E008703F4908703F4908703F4908703F49BB
S315080047F008703F4908703F4908703F4908703F49AB
S3150800480008703F4908703F4908803F4908803F497A
S3150800481008703F4908703F4908703F4908703F498A
S315080048200870214908703E4908803E4908703E498B
S3150800483008703E4908803E4908703E4908603E496E
S3150800484008800C48C07820F0800080300949C8707C
S3150800485000203A4908700120FEF760FD012038491A
S31508004860087000203749088037490880374908709A
S3150800487010BD0000380000203C000020A5000020E4
S31508004880CD000020CF000020C9000020A70000208E
S31508004890AF000020CE1600203A170020D1000020D5
S315080048A0D8000020D3000020D4000020D600002025
S315080048B0D7000020DB000020E0000020E2000020F6
S315080048C0700000207200002074000020760000208E
S315080048D0780000207C0000207E0000209C0000203C
S315080048E0DC000020E8000020E9000020EA000020A3
S315080048F0EB000020EC000020ED000020EE00002078
S31508004900EF000020F0000020F2000020D200002076
S3150800491003010020D5000020D9000020DD0000207A
S31508004920F4000020DA000020F6000020F80000203D
S31508004930FA00002004010020DE0000204E020020BC
S315080049405E000020980000209A0000200801002040
S3150800495070B5064600240948058840884543002165
S31508004960084600F083F900F0DFFA00BF03E030469E
S3150800497000F082FA641CAC42F9D370BD8816002098
S315080049802DE9F05F05460E4617469846DDF828A03D
S315080049904FF0000B781B401C1FFA80FB344613E0CF
S315080049A02146284600F062F900F0BEFA4FF00009E9
S315080049B006E0504600F060FA09F101001FFA80F996
S315080049C0D945F6DB601C84B24445E9DDBDE8F09FB5
S315080049D070B504460D462946204600F047F900F012
S315080049E0A3FA0248008800F047FA70BD3400002098
S315080049F010B54FF400419B48FFF72AFEC82003F084
S31508004A0099FC4FF400419748FFF724FEC82003F0AD
S31508004A1091FC4FF4A07094490880F02048802C201F
S31508004A2088712A20C8712B200872CF2000F060FAFE
S31508004A30002000F041FAD92000F03EFA302000F0BC
S31508004A403BFAED2000F054FA642000F035FA032012
S31508004A5000F032FA122000F02FFA812000F02CFA2A
S31508004A60E82000F045FA852000F026FA102000F02C
S31508004A7023FA782000F020FACB2000F039FA392002
S31508004A8000F01AFA2C2000F017FA002000F014FAA9
S31508004A90342000F011FA022000F00EFAF72000F098
S31508004AA027FA202000F008FAEA2000F021FA002070
S31508004AB000F002FA002000F0FFF9C02000F018FA12
S31508004AC0212000F0F9F9C12000F012FA122000F0B6
S31508004AD0F3F9C52000F00CFA322000F0EDF93C207D
S31508004AE000F0EAF9C72000F003FAC12000F0E4F963
S31508004AF0362000F0FDF9A82000F0DEF93A2000F093
S31508004B00F7F9552000F0D8F9B12000F0F1F90020A6
S31508004B1000F0D2F9182000F0CFF9B62000F0E8F935
S31508004B200A2000F0C9F9A22000F0C6F9F22000F028
S31508004B30DFF9002000F0C0F9262000F0D9F901209D
S31508004B4000F0BAF92B2000F0D3F9002000F0B4F9F0
S31508004B50002000F0B1F9002000F0AEF9EF2000F0D7
S31508004B60ABF92A2000F0C4F9002000F0A5F90020CE
S31508004B7000F0A2F9012000F09FF93F2000F09CF90F
S31508004B80E02000F0B5F90F2000F096F93A2000F081
S31508004B9093F9362000F090F90B2000F08DF90D20DE
S31508004BA000F08AF9062000F087F94C2000F084F915
S31508004BB0912000F081F9312000F07EF9082000F0FC
S31508004BC07BF9102000F078F9042000F075F911201F
S31508004BD000F072F90C2000F06FF9002000F06CF973
S31508004BE0E12000F085F9002000F066F9062000F0C3
S31508004BF063F90A2000F060F9052000F05DF912203B
S31508004C0000F05AF9092000F057F92C2000F054F961
S31508004C10922000F051F93F2000F04EF9082000F0EC
S31508004C204BF90E2000F048F90B2000F045F92E202C
S31508004C3000F042F9332000F03FF90F2000F03CF96C
S31508004C40112000F055F9782003F074FB292000F0B4
S31508004C504FF9782003F06EFB4FF6FF71002001F044
S31508004C60FFFC10BD000801408816002070B50446F8
S31508004C700D460A49C87900F03BF9201200F01CF9E4
S31508004C80E0B200F019F90549087A00F031F928125E
S31508004C9000F012F9E8B200F00FF970BD881600208E
S31508004CA02DE9F84F81460D4617461E46009553488E
S31508004CB0B0F80080A7F12000C7B20A98002850D1A2
S31508004CC000244BE00C2E07D107EB47004C4901EBBB
S31508004CD0800010F804A004E04A4800EB071010F81A
S31508004CE004A04FF0000B33E00AF0800018B14348E7
S31508004CF0A0F8008003E04448008840490880294617
S31508004D004846FFF765FE4FEA4A604FEA106A681C94
S31508004D1085B23E484088A84204DC3848A0F800809E
S31508004D20BDE8F88F0098281AB0420DD1009D09F108
S31508004D3001001FFA80F935480088484503DC2F48EA
S31508004D40A0F80080ECE706E00BF1010000F0FF0B8D
S31508004D50BBF1080FC8DB00BF601CC4B2B442B1DBAC
S31508004D6046E0002442E00C2E07D107EB4700244911
S31508004D7001EB800010F804A004E0224800EB0710BD
S31508004D8010F804A04FF0000B2AE00AF0800018B1D2
S31508004D9029464846FFF71CFE4FEA4A604FEA106A62
S31508004DA0681C85B219484088A84203DC1348A0F855
S31508004DB00080B5E70098281AB0420DD1009D09F188
S31508004DC001001FFA80F911480088484503DC0B48A2
S31508004DD0A0F80080A4E706E00BF1010000F0FF0B45
S31508004DE0BBF1080FD1DB00BF601CC4B2B442BADB0A
S31508004DF00248A0F8008000BF92E7000034000020B7
S31508004E00FC150108701A01083600002088160020D3
S31508004E102DE9F84F04460D4690469946DDE90A679E
S31508004E2004F0FF0A08EB04001FFA80F809EB0500F6
S31508004E301FFA80F916E0444502DB5446A81985B2E4
S31508004E404D4500DB14E0012000903A7833462946A8
S31508004E502046FFF725FF304606EBD07104EB6101CB
S31508004E608CB27F1C38787E2802DC38782028E2DA73
S31508004E7000BFBDE8F88F000010B504464FF4805116
S31508004E800A48FFF7E5FB4FF480710948FFF7E2FB94
S31508004E902112084801F030FBE1B2064801F02CFB6C
S31508004EA04FF480510148FFF7D5FB10BD000C0140B7
S31508004EB0000801400038004010B504464FF4805100
S31508004EC00848FFF7C5FB4FF480710748FFF7C2FB98
S31508004ED02146064801F010FB4FF480510148FFF7C0
S31508004EE0B9FB10BD000C0140000801400038004025
S31508004EF010B504464FF480510848FFF7A9FB4FF454
S31508004F0080710748FFF7A4FBE1B2064801F0F4FAFE
S31508004F104FF480510148FFF79DFB10BD000C01407E
S31508004F20000801400038004010B502498879FFF7AB
S31508004F30DFFF10BD8816002070B504468021194889
S31508004F40FFF788FB10211748FFF782FBFEF721FEC3
S31508004F50254600261AE080211348FFF77BFBFEF75B
S31508004F6018FE05F0010020B101210E48FFF770FB7D
S31508004F7003E001210B48FFF76DFB80210A48FFF784
S31508004F8067FBFEF706FE6D10701CC6B20C2EE2DB40
S31508004F9080210448FFF75CFB10210248FFF75AFB03
S31508004FA070BD0000000C01400008014000B500F08B
S31508004FB045F90020044908700448007820F00200EA
S31508004FC00249087000BD00005A0000203800002081
S31508004FD000B500F033F903480078401C0149087011
S31508004FE000BD00005A00002002460B4683B9002186
S31508004FF00BE0114810F81100904204D10E4800EB5E
S31508005000410040787047481CC1B21329F1DB11E012
S31508005010012B0FD100210BE0084810F8110090422F
S3150800502004D1064800EB41004078EBE7481CC1B2C2
S315080050300A29F1DB0020E5E7446001083060010831
S3150800504000B576480078AA2805D10020744948702A
S315080050500220744908707348007801280FD07148F7
S31508005060007802280CD1AA206D49087001206E49E3
S31508005070087004206B49087000206C490870CBE062
S315080050806848007804281AD164480078644948704A
S315080050906648007861490978084464490870624896
S315080050A00078401C604908705C480078802802DB5C
S315080050B0FFF78EFFB0E008205A490870ACE059485F
S315080050C0007808281AD155480078554988705748F5
S315080050D000785249097808445449087052480078BB
S315080050E0401C514908704D480078802802DBFFF7BC
S315080050F06FFF91E020204B4908708DE04948007801
S31508005100202820D1454800784549474A12788854CE
S315080051104648007841490978084444490870424895
S315080051200078401C404908703C480078802802DB1B
S31508005130FFF74EFF70E0394800783D4908701020A7
S315080051403849087068E037480078102823D1334872
S3150800515000783349344A1278885433480078401C1A
S3150800516031490870314800782C49097808442F4994
S3150800517008702A480078802802DBFFF729FF4BE0F1
S31508005180294801782A480078C01C814244DD40201D
S315080051902449087040E02348007840281CD11F485D
S315080051A001781F48204A127881541F480078401C0D
S315080051B01D4908701D48007800F07F001B490870DB
S315080051C0164800780978884203D180201549087066
S315080051D022E0FFF7FDFE1FE012480078802819D16B
S315080051E00E480078BB2812D1FFF7E0FE1148407838
S315080051F020F004000F49487000200F4908700D4838
S31508005200007820F00100401C0A49087004E0FFF706
S31508005210DFFE01E0FFF7DCFE00BD000056000020BF
S31508005220BA16002058000020570000205B00002016
S315080052305500002038000020D30000200020064931
S3150800524008700120054908700020054908700549BD
S31508005250087005490870704759000020580000205A
S3150800526057000020550000205B00002003E0531E75
S31508005270DAB28B5C8354002AF9DC704710B5044611
S3150800528003F0BAFF10BD00BFFEE7704710B54FF434
S3150800529010514FF0006000F039F810BD70B50021CC
S315080052A000230F22C47804B3154C246804F4E06480
S315080052B0C4F5E064210AC1F10403CA40447804FA3B
S315080052C003F184781440214309010E4C0678A15550
S315080052D0047804F01F050124AC4005786D11AD0073
S315080052E005F1E025C5F8004109E0047804F01F053A
S315080052F00124AC40044D0678761145F8264070BD69
S315080053000CED00E000E400E080E100E0024A0A401B
S315080053100243024B1A60704780FFFF1F08ED00E04A
S3150800532010B500F099F84FF4803000F057F900F006
S31508005330B3F90446012C25D1002000F043F90020DA
S3150800534000F07EF9A00200F06FF90220FEF740FF98
S315080053501020FEF72FFF4FF4E0114FF4403000F015
S3150800536081F9012000F078F900BF392000F004F92E
S315080053700028FAD0022000F083F900BF00F01AF9DD
S315080053800828FBD110BD000001460020034A5068DA
S3150800539020F4404008435060704700000010024067
S315080053A029B1064AD2690243044BDA6104E0034A8A
S315080053B0D2698243014BDA6170470000001002404F
S315080053C029B1064A12690243044B1A6104E0034AEA
S315080053D012698243014B1A617047000000100240AF
S315080053E029B1064A92690243044B9A6104E0034ACA
S315080053F092698243014B9A6170470000001002408F
S3150800540029B1064AD2680243044BDA6004E0034A2B
S31508005410D2688243014BDA607047000000100240F0
S3150800542010B5012140F27D20FFF7DAFF0121480679
S31508005430FFF7B6FF01218803FFF7B2FF4FF40040DC
S31508005440FFF7A2FF01218803FFF7CAFF012188049D
S31508005450FFF7A6FF10BD00000F48006840F00100E6
S315080054600D490860084640680C4908400A494860E2
S31508005470084600680A49084007490860084600685F
S3150800548020F4802008600846406820F4FE00486042
S315080054904FF41F0088607047001002400000FFF8B4
S315080054A0FFFFF6FE30B500210022002400232D4D13
S315080054B06D6805F00C0121B1042905D0082923D10E
S315080054C005E0294D056022E0274D05601FE0254DC2
S315080054D06D6805F47012234D6D6805F48034022555
S315080054E005EB92421CB9214D554305600BE01D4D55
S315080054F06D6805F400351DB11C4D5543056002E085
S31508005500194D5543056002E0174D056000BF00BF01
S31508005510144D6D6805F0F0010909154D6B5C0568B9
S31508005520DD4045600F4D6D6805F4E061090A104DD0
S315080055306B5C4568DD4085600A4D6D6805F4605111
S31508005540C90A0B4D6B5C4568DD40C560054D6D6845
S3150800555005F44041890B074D6B5CC568B5FBF3F54F
S31508005560056130BD0010024000127A0000093D00B6
S31508005570640200207402002010B5014600220023B0
S3150800558000204A11012A02D1094C236806E0022AA2
S3150800559002D1074C236A01E0054C636A01F01F0239
S315080055A0012494401C400CB1012000E0002010BDED
S315080055B0001002400248406800F00C0070470000E6
S315080055C00010024001460020034A506820F0F0000F
S315080055D008435060704700000010024011490968EE
S315080055E021F480310F4A11601146096821F480219F
S315080055F01160B0F5803F03D0B0F5802F0ED106E0DC
S315080056000849096841F48031064A116007E00549EE
S31508005610096841F4A021034A116000E000BF00BFF9
S31508005620704700000010024001460020034A5068F7
S3150800563020F4E06008435060704700000010024004
S3150800564001460020034A506820F4605040EAC10031
S315080056505060704700100240014908667047000014
S315080056600000424202460020044B586820F47C1091
S3150800567042EA01031843014B586070470010024084
S3150800568001460020034A506820F003000843506092
S31508005690704700000010024038B500200090002432
S315080056A0002500BF3120FFF767FF05460098401C1C
S315080056B000900098B0F5A06F01D0002DF2D03120EF
S315080056C0FFF75AFF08B1012400E00024204638BD40
S315080056D000B53E48007850280BD13D48007840B9BF
S315080056E050203C4908700120394908703A49087029
S315080056F06AE039480078012829D135480078012818
S315080057000DD132480078102809D110213048027886
S315080057100078401C2E4B18702E48815454E02C48B3
S31508005720007802280FD12948007860B90021284856
S3150800573002780078401C264B1870264881540220AF
S315080057402549087040E00020214908703CE02248BD
S315080057500078022811D11D4801781D480278007882
S31508005760401C1B4B18701B488154184600780B28A0
S315080057702AD104201849087026E01748007804281A
S3150800578022D113480178134802F047FD0F490978DA
S31508005790884213D10D4801780E480D4A1278815473
S315080057A010200D4908700D48407820F00100401C73
S315080057B00A49487000200649087005E02020064975
S315080057C0087000200249087000BD0000440000204F
S315080057D045000020921600204800002040000020C6
S315080057E02DE9F04188B04FF000080026142103A8DF
S315080057F0FCF7F5FFD6A207CA8DE80700D74890F848
S315080058000380014648780121FFF7EEFB064600248F
S3150800581006E0201DD149085C03A90855601CC4B2DE
S315080058204445F6DB072096FBF0F0C7B2072098FB45
S31508005830F0F100FB118008B1781CC7B2002419E00A
S31508005840002513E0072000FB045003A9085C311962
S3150800585003AA515C6A1C914001F0800108430721A4
S3150800586001FB045103AA5054681CC5B2072DE9DB95
S31508005870601CC4B2BC42E3DB002462E1B74840784E
S315080058801DF80410884273D1002C4CD1022203A9BA
S31508005890B348FFF7EBFCB1488078012808DBAF482E
S315080058A08078062804DCAD488078401EAD4908702B
S315080058B09DF80D00FEF798FCAB4908809DF80D0091
S315080058C0FEF792FCA94908809DF80D00FEF78CFCAE
S315080058D0A74908809DF80D00FEF786FCA5490880B3
S315080058E09DF80D00FEF780FCA34908809DF80D0081
S315080058F0FEF77AFCA14908809DF80D00FEF774FCB6
S315080059009F4908809F480078C0F3801018B1082185
S315080059109D48FEF79DFE9B48007820F040004030E9
S31508005920984908700AE1012C23D18C48807801280F
S3150800593004D1092203A99548FFF798FC94484078B2
S31508005940C0F3001060B185488078012808D1002589
S3150800595004E000208D494855681CC5B2092DF8DBBE
S315080059608848007820F02000203086490870E5E055
S31508005970E5E0022C15D1082203A98648FFF776FC34
S315080059800020854908707F48007820F01000103004
S315080059907C4908700846807820F08000803088703E
S315080059A0CCE0032C0CD1042203A97C48FFF75EFC4B
S315080059B07448007820F08000803072490870BDE095
S315080059C0042C0CD1022203A97548FFF74FFC6D4839
S315080059D0407820F00100401C6A494870AEE0052C6A
S315080059E00CD1022203A96F48FFF740FC654880786E
S315080059F020F020002030634988709FE0062C59D19A
S31508005A009DF80C00542821D19DF80D0053281DD16E
S31508005A100020654908705B48C078C0F3801068B9F3
S31508005A200020624908706249088062490870554832
S31508005A30C07820F0400040305249C8705148C078BC
S31508005A4020F00100401C4F49C87077E09DF80C0013
S31508005A504C280FD19DF80D0056280BD14948C0781F
S31508005A6020F001004749C8700846C07820F0400079
S31508005A70C87063E09DF80C0056280BD19DF80D0000
S31508005A80452807D13F48C07820F00200801C3D49D0
S31508005A90C87053E09DF80C0049284FD19DF80D00B9
S31508005AA044284BD13748C07820F00400001D3549FA
S31508005AB0C87043E0072C16D1002505E003A8405D11
S31508005AC03D494855681CC5B2B542F7DB234880787E
S31508005AD0A0303A4908703A48007820F04000403033
S31508005AE0374908702AE0082C14D19DF80D009DF856
S31508005AF00C1000EB012081B218488078401E314A0C
S31508005B0022F810102E48407820F0400040302C49EA
S31508005B10487013E0092C11D1002506E003A8405D62
S31508005B20284921F81500681CC5B2042DF6DB24485F
S31508005B30407820F0400040302149487004E0601C5D
S31508005B40C4B20A2CFFF69AAE00BF08B0BDE8F081D1
S31508005B50504340515253714837360000BA16002058
S31508005B60A50000209C000020700000207200002084
S31508005B707400002076000020780000207C000020B9
S31508005B807E00002038000020000C01403A17002053
S31508005B903C0000209D000020DC000020C9000020F9
S31508005BA0CD000020CF000020D9000020F6000020FC
S31508005BB0F8000020FA000020A61600204600002063
S31508005BC0400000204C0000202DE9F04F85B08246A9
S31508005BD08B4615460027B946B846002404E000203F
S31508005BE00DF80400601CC4B2142CF8DBAA208DF84A
S31508005BF00000E81CC2B259460DF10100FFF736FB5A
S31508005C009DF801000021FFF7EFF907469DF803000C
S31508005C10072190FBF1F000F0FF089DF8030090FBC8
S31508005C20F1F201FB120018B108F1010000F0FF08BB
S31508005C3000241BE0002615E06019001D1DF8002051
S31508005C40C4EBC400001D30441DF8000000F08000BD
S31508005C50711C08411044C1B26019001D0DF80010EE
S31508005C60701CC6B2072EE7DB601CC4B24445E1DBF4
S31508005C709DF803004044C0B28DF8030000240EE0EE
S31508005C80601C1DF8000000F07F01601C0DF8001074
S31508005C901DF80000484400F0FF09601CC4B2F81E55
S31508005CA0A042EDDC09F07F01B81E0DF80010BB21FB
S31508005CB0781E0DF800103B466A460021504603F050
S31508005CC0CDFE05B0BDE8F08F2DE9F041CAB080469B
S31508005CD00027602132A8FCF782FD8422FC4911A81E
S31508005CE0FCF74BFDFBA2D2E900109268CDE90F0242
S31508005CF00E91FBA103C9CDE90C011422FAA107A84C
S31508005D00FCF73BFDFDA207CA04AB07C3FEA3D3E914
S31508005D100020D3E9021301AC0BC40092FE48407878
S31508005D2000F00100F8B1FC48407820F00100FA497B
S31508005D304870FA48007800F00F018DF8B110002677
S31508005D4006E0F749F01C0A5C2CA8F11C4254761CA4
S31508005D509DF8B200B042F4DC9DF8B2202CA940466A
S31508005D60FFF732FF00BF002422E0601CC0B28DF8A6
S31508005D70450004EB4400EB4901EB8000C088000AAB
S31508005D808DF8470004EB440001EB800080798DF81C
S31508005D90480004EB440001EB8000807A8DF8490046
S31508005DA09DF8462011A94046FFF70EFF601CC4B2B5
S31508005DB0DD4800788442D8DB002429E0601CC1B2A3
S31508005DC011A8417304F1130000EB4000D54901EB1B
S31508005DD08000C088010A11A8C17304F1130000EB02
S31508005DE04000D04901EB8000817911A8017404F1C3
S31508005DF0130000EB4000CB4901EB8000817A11A823
S31508005E004174827B14A94046FFF7DEFE601CC4B2CB
S31508005E10C64800788442D1DB022111A841760025C4
S31508005E2006E0C348425DE81C17A90A54681CC5B2B7
S31508005E30082DF6DBBF4801788DF8671011A8827E19
S31508005E4017A94046FFF7C0FE032111A84176002591
S31508005E5006E0B948425DE81C17A90A54681CC5B291
S31508005E60082DF6DBB54801788DF8671011A8827EF3
S31508005E7017A94046FFF7A8FE002429E0601CC1B216
S31508005E808DF86910113000EB4000A64901EB80003F
S31508005E90C088010A8DF86B1004F1120000EB40006F
S31508005EA0A04901EB800081798DF86C1004F112008D
S31508005EB000EB40009B4901EB8000817A8DF86D105C
S31508005EC09DF86A201AA94046FFF77EFE601CC4B2F8
S31508005ED09B4800788442D1DB002429E0601CC1B2CB
S31508005EE08DF875100E3000EB40008E4901EB8000EE
S31508005EF0C088010A8DF8771004F10F0000EB400006
S31508005F00884901EB800081798DF8781004F10F003B
S31508005F1000EB4000834901EB8000817A8DF8791007
S31508005F209DF876201DA94046FFF74EFE601CC4B2B8
S31508005F30844800788442D1DB002431E0601CC1B279
S31508005F408DF881107B210F3000EB4000754A02EB7B
S31508005F508000C18000BF04F1100101EB410102EB92
S31508005F608101B1F9061001EB4101480000EBD0713F
S31508005F704F10390A8DF883108DF8847004F11000DB
S31508005F8000EB4000114601EB8000817A8DF8851000
S31508005F909DF8822020A94046FFF716FE601CC4B271
S31508005FA0694800788442C9DB00243AE0601CC1B223
S31508005FB08DF88D10A01D00EB40005A4901EB8000BA
S31508005FC0C088010A8DF88F10A01D00EB40005549C6
S31508005FD001EB800081798DF89010A01D00EB400040
S31508005FE0504901EB80000089010A8DF89110A01D27
S31508005FF000EB40004B4901EB8000017A8DF89210C6
S31508006000A01D00EB4000474901EB8000817A8DF81E
S3150800601093109DF88E2023A94046FFF7D5FD601CF6
S31508006020C4B24A4800788442C0DB002429E0601CD8
S31508006030C1B28DF89910083000EB4000394901EBE0
S315080060408000C088010A8DF89B1004F1090000EB56
S315080060504000344901EB800081798DF89C1004F1E9
S31508006060090000EB40002F4901EB8000817A8DF88A
S315080060709D109DF89A2026A94046FFF7A5FD601CAD
S31508006080C4B2334800788442D1DB002489E0601C1E
S31508006090C1B28DF8A51004EB84002E4931F8300002
S315080060A0322190FBF1F0C1B28DF8A71004EB840001
S315080060B0284901EBC0004089322190FBF1F0C1B2BA
S315080060C08DF8A81004EB8400224901EBC00043E0D8
S315080060D0806001082001080200010000000000009D
S315080060E0210101010000000022010C0300550000F7
S315080060F00000000000000000000000007001080019
S3150800610000000000000000000A010900000000006D
S3150800611000000000000000004000002046000020AB
S31508006120921600200A0100205C0000205D00002075
S31508006130AF000020E3000020A7000020E4000020B4
S315080061405F0000206000002061000020620000203F
S3150800615063000020EA160020808A322190FBF1F0C5
S31508006160C1B28DF8A91004EB8400AD4901EBC0005B
S31508006170C08B322190FBF1F0C1B28DF8AA1004F160
S31508006180180000EB4000A74901EB8000817A8DF8E2
S31508006190AB109DF8A62029A94046FFF715FD601CFF
S315080061A0C4B2A14800788442FFF671AF9D4890F8C2
S315080061B02B0118B99B4890F8370118B3002406E05C
S315080061C09A48015DE01C0DF80010601CC4B2082C4A
S315080061D0F6DB944890F82A0148B1002405E000212E
S315080061E0E01C0DF80010601CC4B2082CF7DB8D48C3
S315080061F090F82A018DF80B009DF802206946404662
S31508006200FFF7E2FC8A480078C0F30010002865D042
S31508006210884800788849097800EB0110C0B28DF8E3
S315080062203B00864800788649097800EB0110C0B221
S315080062308DF83C00834800788349097800EB011003
S31508006240C0B28DF83D00814800788149097800EB95
S315080062500110C0B28DF83E007E4800787E49097864
S3150800626000EB0110C0B28DF83F007C4800780007AB
S31508006270000E8DF840006C4800780007000E8DF877
S31508006280410077484078C0F3800030B19DF840005F
S31508006290401CC0B28DF8400005E09DF8400000F0B3
S315080062A0F0008DF8400000208DF842009DF83A2055
S315080062B00EA94046FFF788FC6A480078401C6949E1
S315080062C0087008460078052808DB5948007820F049
S315080062D01000574908700020624908705448C07871
S315080062E0C0F3400058B15248C07820F00200504927
S315080062F0C8705D48827801464046FFF765FC4C4801
S31508006300C078C0F3800058B14948C07820F004002E
S315080063104749C8705548827801464046FFF754FCFD
S3150800632001208DF8330041025148FEF788F901280B
S3150800633000D100E000BF4FF480714D48FEF77FF9A9
S31508006340012800D100E000BF9DF832200CA9404684
S31508006350FFF73AFC474800788DF81F004648007852
S315080063608DF82000454800788DF8210044480078CB
S315080063708DF82200434800788DF8230042480078BB
S315080063808DF82400414800788DF8250040480078AB
S315080063908DF826003F48008800128DF827003D48F2
S315080063A000788DF828003C48008800128DF82900EE
S315080063B0394800788DF82A009DF81E2007A940461E
S315080063C0FFF702FC1A48C078C0F30010E0B1334862
S315080063D00078401C3149087008460078022807DB17
S315080063E0002008701248C07820F010001049C870C4
S315080063F04F208DF8130056208DF814009DF81220B2
S3150800640004A94046FFF7E0FB2548006808B90120C3
S3150800641000E00020224908604AB0BDE8F08100008B
S31508006420EA1600200A010020670000206800002004
S31508006430380000205D0000205C0000205F0000207E
S315080064405E0000206100002060000020630000203C
S31508006450620000206500002064000020660000201D
S3150800646040000020DC0000205002002059020020D5
S31508006470000C0140E8000020E9000020EA000020A6
S31508006480EB000020EC000020ED000020EE000020CC
S31508006490EF000020F0000020F2000020DD000020C0
S315080064A08C81214221B1028842F04002028004E038
S315080064B002884FF6BF731A400280704710B5002253
S315080064C0028802F441520B884C8823438C88234364
S315080064D0CC8823430C8923434C8923438C89234343
S315080064E0CC8923431A430280838B4FF2FF742340DF
S315080064F083830B8A038210BD024600BF108900F011
S3150800650002000028FAD0918100BF108900F001002E
S315080065100028FAD09089C0B2704770472DE9FF5F0E
S31508006520814692460E9D402D02D12E4C082621E02A
S31508006530302D02D12C4C04261CE01B2D02D12B4CED
S31508006540032617E01A2D02D1294C092612E0182D28
S3150800655002D1284C03260DE0102D02D1264C052623
S3150800656008E0162D02D1254C022603E00D2D01D197
S31508006570234C02260AFB06F000FB054400272CE004
S31508006580019A3A4491B21FFA89F0FEF76FFBFEF7BB
S31508006590CBFC4FF0000B1CE04FF0000811E0207810
S315080065A0012101FA08F1084018B10398FEF764FCC6
S315080065B003E04FF6FF70FEF75FFC08F1010000F0FC
S315080065C0FF08B8F1080FEADB641C0BF1010000F0C4
S315080065D0FF0BB345E0DB781CC7B2AF42D0DBBDE8A2
S315080065E0FF9F000011F30008B3E9000896E50008CC
S315080065F030DF00084CD40008B4DE000804DF0008C9
S31508006600F3F100082DE9F04781460F4600240025DE
S3150800661020E0781981B24846FEF728FBFEF784FC8D
S315080066204FF0000812E0012000EB44000B490E5C15
S315080066304FF6FF7000EA0626084610F814000643CF
S315080066403046FEF719FC641C08F10108B8F1580F2A
S31508006650E9D36D1C582DDCD3BDE8F087A0230108CB
S315080066602DE9F04107460E46002440F2EB6800216A
S315080066700846FEF7FBFAFEF757FC35E01C48005DB6
S31508006680FF280DD1002503E03846FEF7F5FB6D1C03
S315080066901749601C085CC000A842F5D8A41C23E072
S315080066A01348005D68B9002503E03046FEF7E4FBB1
S315080066B06D1C0F49601C085CC000A842F5D8A41CD4
S315080066C012E000250DE00A48005D802129410840B6
S315080066D018B93046FEF7D0FB02E03846FEF7CCFB89
S315080066E06D1C082DEFD3641C4445C7D3BDE8F08163
S315080066F0110F01081FB500200290039056208DF84F
S3150800670008002E208DF80B008DF80D0000202D496D
S3150800671008802D488079092809DC20208DF8090091
S31508006720294880793030C0B28DF80A0012E0264830
S3150800673080790A2190FBF1F03030C0B28DF809005B
S315080067402148807990FBF1F201FB12003030C0B28B
S315080067508DF80A001C48007A092809DC1A48007ACC
S315080067603030C0B28DF80C0030208DF80E0012E0E3
S315080067701548007A0A2190FBF1F03030C0B28DF846
S315080067800C001148007A90FBF1F201FB1200303040
S31508006790C0B28DF80E004FF6FF70F0234FF4A072CA
S315080067A0DC2100904FF48170FEF7EAF802A8102168
S315080067B014231A01CDE90010DE214FF48370FEF789
S315080067C027FB1FBD3400002050020020042808D1F2
S315080067D04FF0E021096941F004014FF0E022116110
S315080067E007E04FF0E021096921F004014FF0E022AB
S315080067F01161704770B586B001A8FEF753FE4FF4D5
S315080068007A710298B0FBF1F42146B1F1807F00D38A
S315080068101DE021F07F40401E4FF0E02250615017E6
S315080068200F22002807DA13071E0E0B4B00F00F0580
S315080068302D1F5E5503E013071D0E084B1D5400BFA0
S3150800684000204FF0E02290610720106100BF04206D
S31508006850FFF7BCFF06B070BD18ED00E000E400E0ED
S3150800686010B503F037FC10BD00B585B00020ADF8B3
S3150800687000004FF48270ADF802000020ADF8040065
S315080068800220ADF806000120ADF808004002ADF878
S315080068900A001820ADF80C000020ADF80E000720FD
S315080068A0ADF8100069460448FFF708FE01210248C2
S315080068B0FFF7F8FD05B000BD0038004038B50446BE
S315080068C0012C09D14FF6FF70BB23CB22642100901F
S315080068D07420FEF755F81CE0022C1AD14FF6FF700B
S315080068E099237F225A2100904020FEF749F84FF657
S315080068F0FF70B623EF226E2100909620FEF740F82F
S315080069004FF6FF709B23FD2281210090F020FEF7B1
S3150800691037F838BDF8B506460F46002E0ADA704233
S3150800692084B21B203B460C22782100908420FFF776
S31508006930F5FD08E0B4B21B203B460B2278210090F7
S315080069408420FFF7EBFDFDF7D7FE42F21070844274
S3150800695041DB94FBF0F0C5B230203B462A466E2157
S3150800696000909620FFF7DAFD40F271206843A4EB09
S31508006970001084B24FF47A7094FBF0F0C5B2302060
S315080069803B462A466E210090B620FFF7C7FD1B201E
S315080069903B460B226E210090D620FFF7BFFD1B2039
S315080069A03B460B2281210090D620FFF7B7FD05EB69
S315080069B04500C0EBC510A4EBC00084B2642094FB6C
S315080069C0F0F0C5B21B203B462A4681210090E620FE
S315080069D0FFF7A4FDCCE0B4F57A7F43DB4FF47A7079
S315080069E094FBF0F0C5B230203B462A466E21009053
S315080069F09620FFF793FD05EB4500C0EBC510A4EB09
S31508006A00C00084B2642094FBF0F0C5B230203B4647
S31508006A102A466E210090B620FFF780FD1B203B46D4
S31508006A200B226E210090D620FFF778FD1B203B46EF
S31508006A300A2281210090D620FFF770FD05EBC500DC
S31508006A4000EB0510A4EB800084B20A2094FBF0F05A
S31508006A50C5B21B203B462A4681210090E620FFF757
S31508006A605DFD85E0642C52DB1B203B460B2278211A
S31508006A7000908420FFF752FD002E10DA30203B46A6
S31508006A800A226E2100909620FFF748FD1B203B4600
S31508006A900C22782100909B20FFF740FD07E030206C
S31508006AA03B460A226E2100909620FFF737FD6420A8
S31508006AB094FBF0F0C5B230203B462A466E21009082
S31508006AC0B620FFF72BFD1B203B460B226E210090BC
S31508006AD0D620FFF723FD1B203B460A228121009082
S31508006AE0D620FFF71BFD05EBC50000EB0510A4EB50
S31508006AF0800084B20A2094FBF0F0C5B21B203B4606
S31508006B002A4681210090E620FFF708FD30E0302074
S31508006B103B4600226E2100909620FFF7FFFC3020AE
S31508006B203B460A226E210090B620FFF7F7FC1B2091
S31508006B303B460A2281210090B620FFF7EFFC0A2087
S31508006B4094FBF0F0C5B230203B462A466E210090F1
S31508006B50C420FFF7E3FC05EB8500A4EB400084B2F4
S31508006B601B20E2B23B4681210090E620FFF7D6FCC7
S31508006B70F8BD000038B5FE48C078C0F3401060B1D3
S31508006B804FF6FF710020FFF76BFDFFF7B3FDF848DE
S31508006B90C07820F02000F649C870F548C07800F0A3
S31508006BA0010000287ED0FDF7A7FDF24800880928D5
S31508006BB008DC4FF6FF70FDF7CBFE0221EE48FDF725
S31508006BC049FD4FE2EB4800880C2804DA0221EA481E
S31508006BD0FDF73EFD46E2E74800880F2808DA4FF43D
S31508006BE07840FDF7B5FE0221E348FDF733FD39E2AB
S31508006BF0E0480088122804DA4FF4FC60FDF7A8FE86
S31508006C0030E2DC480088152803DA1F20FDF7A0FECD
S31508006C1028E2D8480088182803DA0020FDF798FEED
S31508006C2020E2D44800881B2804DA4FF6FF70FDF7E7
S31508006C308FFE17E2CF4800882A2866DA4FF40071DB
S31508006C40CD48FDF707FD4FF48071CB48FDF702FDEF
S31508006C5018201F230122052100900846FFF75EFC35
S31508006C6018201F230A22052100901520FFF756FC3D
S31508006C7018201F230E22052100902520FFF74EFC21
S31508006C8018201F230F22052100903D20FFF746FC00
S31508006C9018201F231022052100905520FFF73EFCDF
S31508006CA0182000E0E4E11F231122052100906D2041
S31508006CB0FFF734FC18201F23122205210090852097
S31508006CC0FFF72CFC18201F231322052100909D2076
S31508006CD0FFF724FC18201F23142205210090B52055
S31508006CE0FFF71CFC18201F23152205210090CD2034
S31508006CF0FFF714FC18201F23162205210090E52013
S31508006D00FFF70CFCFCF7BEFCACE19A480088392872
S31508006D1067DA4FF480719848FDF79AFC18201F230C
S31508006D200222052100900846FFF7F8FB18201F23CA
S31508006D300A22052100901520FFF7F0FB18201F23D3
S31508006D400E22052100902520FFF7E8FB18201F23B7
S31508006D500F22052100903D20FFF7E0FB18201F2396
S31508006D601022052100905520FFF7D8FB18201F2375
S31508006D701122052100906D20FFF7D0FB18201F2354
S31508006D801222052100908520FFF7C8FB18201F2333
S31508006D901C22052100909D20FFF7C0FB18201F2309
S31508006DA01D2205210090B520FFF7B8FB18201F23E8
S31508006DB0012205210090CD20FFF7B0FB18201F23E4
S31508006DC0162205210090DD20FFF7A8FB18201F23B7
S31508006DD00D2205210090F520FFF7A0FBFCF752FCD9
S31508006DE040E16448008848286CDA4FF480716248AC
S31508006DF0FDF730FC4FF400715F48FDF729FC1820B9
S31508006E001F230322052100900846FFF787FB182059
S31508006E101F230A22052100901520FFF77FFB182063
S31508006E201F230E22052100902520FFF777FB182047
S31508006E301F230F22052100903D20FFF76FFB182026
S31508006E401F231022052100905520FFF767FB182005
S31508006E501F231122052100906D20FFF75FFB1820E4
S31508006E601F231222052100908520FFF757FB1820C3
S31508006E701F231C22052100909D20FFF74FFB182099
S31508006E801F231D2205210090B520FFF747FB182078
S31508006E901F23022205210090CD20FFF73FFB182073
S31508006EA01F23162205210090DD20FFF737FB182047
S31508006EB01F230D2205210090F520FFF72FFBFCF775
S31508006EC0E1FBCFE02B480088572877DA4FF40071AA
S31508006ED02948FDF7BFFB4FF400412848FDF7B8FBEA
S31508006EE018201F230422052100900846FFF716FBE9
S31508006EF018201F230A22052100901520FFF70EFBF4
S31508006F0018201F230E22052100902520FFF706FBD7
S31508006F1018201F230F22052100903D20FFF7FEFAB7
S31508006F2018201F231022052100905520FFF7F6FA96
S31508006F3018201F231122052100906D20FFF7EEFA75
S31508006F4018201F231222052100908520FFF7E6FA54
S31508006F5018201F231C22052100909D20FFF7DEFA2A
S31508006F6018201F231D2205210090B52008E00000E7
S31508006F7038000020F8000020000C014000100140F5
S31508006F80FFF7CCFA18201F23032205210090CD20F5
S31508006F90FFF7C4FA18201F23162205210090DD20CA
S31508006FA0FFF7BCFA18201F230D2205210090F520B3
S31508006FB0FFF7B4FAFCF766FB54E0FFE7FE480088E3
S31508006FC05D283CDA4FF6FF70FDF7C2FC18201F2338
S31508006FD00522114600901046FFF7A0FA18201F2335
S31508006FE00A22052100901520FFF798FA18201F237A
S31508006FF01022052100902D20FFF790FA18201F2354
S315080070001122052100904520FFF788FA18201F2332
S315080070101E22052100905D20FFF780FA18201F2305
S315080070201A46052100907520FFF778FA18201F23C5
S315080070302022052100908D20FFF770FA12E000202B
S31508007040DE490870DE48C07820F020002030DC4990
S31508007050C8700846C07820F010001030C8700020AC
S31508007060D5490880D4480088401CD349088065E281
S3150800707010201F23002223210090C820FFF74EFA74
S31508007080D04800781C2874DDCF480078B42809DD7C
S315080070904FF4FC602F23E82227210090CA20FDF731
S315080070A06FFC66E0C7480078782809DB4FF6E07081
S315080070B02F23E82227210090CB20FDF761FC58E01A
S315080070C0C048007873280DDDBE480078782809DAAC
S315080070D04FF6E0702F23E22227210090CB20FDF700
S315080070E04FFC46E0B74800786E280DDDB5480078B5
S315080070F0732809DA4FF6E0702F23DC222721009047
S31508007100CB20FDF73DFC34E0AE48007869280DDD5C
S31508007110AC4800786E2809DA4FF478402F23D62237
S3150800712027210090CB20FDF72BFC22E0A54800780C
S3150800713064280DDDA3480078692809DA4FF47840F9
S315080071402F23D02227210090CB20FDF719FC10E031
S315080071509C4800785F280CDD9A480078642808DA8D
S315080071604FF478402F23CD2227210090CB20FDF71E
S3150800717007FC96480078112817DB944800781828E9
S3150800718013DC8F48807820F0100010308C49887006
S3150800719008468078C0F3800038B10846807820F029
S315080071A0040088700120FFF789FB8848007818BB1F
S315080071B083488078C0F3001020B981488078C0F3EE
S315080071C0C00068B17E48807820F008007C49887045
S315080071D00846807820F0100088700220FFF76EFBC2
S315080071E064217420FFF70EFA7548807820F00400B1
S315080071F0001D73498870A1E174480078092837DCB6
S31508007200FDF77AFA6E48807820F0080008306C4955
S31508007210887008468078C0F3800038B108468078C0
S3150800722020F0040088700120FFF748FB6448807846
S31508007230C0F3001040B16248807820F01000604921
S3150800724088700220FFF73AFB4020009060480388C8
S3150800725007225A214020FFF761F91B2000905B485E
S3150800726002785B48038872216E20FFF757F965E1BB
S315080072705648007811282FD1402000905548038899
S3150800728000225A214020FFF749F95348007806287A
S315080072900BDC1B20009050480078401CC2B24D48B9
S315080072A003887C216E20FFF739F91A200090494897
S315080072B0038800229E21A820FFF730F9464909785D
S315080072C001EB4101454A02EB8101B1F9060041494A
S315080072D00988FFF71FFB31E13C480078122830D1B6
S315080072E0402000903E48038802225A214020FFF79A
S315080072F015F91A2000903A48038804229E21A820EE
S31508007300FFF70CF93448007803280BDC1B200090A3
S3150800731031480078401CC2B2314803887C216E206F
S31508007320FFF7FCF82C490978133101EB41012B4A88
S3150800733002EB8101B1F9060029490988FFF7EAFA43
S31508007340FCE022480078132819D1402000902548EF
S31508007350038803225A214020FFF7E0F81A200090FC
S315080073602048038805229E21A820FFF7D7F81B4945
S31508007370B1F9DE001B490988FFF7CCFADEE01348AD
S315080073800078142835D14020009017480388062233
S315080073905A214020FFF7C2F81A20009012480388A5
S315080073A002229E21A820FFF7B9F80C49B1F9BA00C4
S315080073B00D4909881AE00000F8000020DD000020C9
S315080073C038000020ED000020EF000020A500002076
S315080073D07E000020700000209C0000200A0100208A
S315080073E0720000207400002076000020FFF792FA51
S315080073F0A4E053480078152842D14020009051480F
S31508007400038804225A214020FFF788F81A200090A2
S315080074104C48038803229E21A820FFF77FF81B20EB
S31508007420009049480078401CC2B2464803887F212C
S315080074306420FFF773F84448007870B94348B0F9F8
S31508007440C600C0EB00104000642190FBF1F43D48F3
S3150800745001882046FFF75EFA70E03B48007801286D
S315080074606CD13A48B0F9D200C0EB00104000642154
S3150800747090FBF1F4334801882046FFF74BFA5DE0AC
S315080074802F480078162822D14020009030480388DB
S3150800749001225A214020FFF741F82B48007803289B
S315080074A00BDC1B20009028480078401CC2B22848F4
S315080074B003887C216E20FFF731F81A2000902448B3
S315080074C0038800229E21A820FFF728F836E01C48EA
S315080074D00078172832D1402000901E4803880522DC
S315080074E05A214020FFF71AF81A20009019480388F5
S315080074F001229E21A820FFF711F8134800780228D8
S315080075000BDC1B20009010480078401CC2B21148C2
S3150800751003887C216E20FFF701F80B4909780931A9
S3150800752001EB4101094A02EB8101B1F90610642217
S3150800753001FB02F007490988FFF7ECF938BD00009E
S31508007540A5000020780000209C0000200A010020E9
S31508007550700000207C0000202DE9F8430446884688
S31508007560174699463D46642D40DB642095FBF0F0AE
S31508007570C6B218204B463246414600902046FEF7D2
S31508007580CDFF06EBC60000EB0610A5EB8000C5B2E2
S315080075900A2095FBF0F0C6B218204B463246414603
S315080075A0009004F11000FEF7B9FF18204B460A2296
S315080075B04146009004F12000FEF7B0FF06EB860076
S315080075C0A5EB4000C5B218204B462A464146009016
S315080075D004F13000FEF7A2FF18204B460B22414665
S315080075E0009004F14000FEF799FF63E00A2D35DBB1
S315080075F00A2095FBF0F0C6B218204B4632464146A3
S3150800760000902046FEF78AFF18204B460A2241467C
S31508007610009004F11000FEF781FF06EB8600A5EB4B
S315080076204000C5B218204B462A464146009004F150
S315080076302000FEF773FF18204B460D2241460090A6
S3150800764004F13000FEF76AFF18204B460B2241462C
S31508007650009004F14000FEF761FF2BE018204B462E
S315080076600022414600902046FEF758FF18204B4658
S315080076700A224146009004F11000FEF74FFF182039
S315080076804B462A464146009004F12000FEF746FF85
S3150800769018204B460D224146009004F13000FEF7B3
S315080076A03DFF18204B460B224146009004F140004E
S315080076B0FEF734FFBDE8F88310B50446B3480088E2
S315080076C0401CB2490880084600880A2808DBB048EA
S315080076D003F0EAFDAE4803F05EFD0020AB490880E2
S315080076E0AC480088401CAB490880084600880A2830
S315080076F008DBA94803F0D8FDA74803F04CFD002095
S31508007700A4490880A548007820F010001030A34945
S315080077100870A348C07800F0010020B1A14800789D
S31508007720401CA04908709D480078C0F38000C0B18D
S315080077309D480088401C9C49088008460088B0F58A
S31508007740617F0ED39548007820F0080008309349E9
S3150800775008700846007820F0040008700020924956
S3150800776008808E480078C0F3C00088B18F4800783A
S31508007770401C8E49087008460078052808D38748B3
S31508007780007820F0080085490870002087490870AD
S3150800779087480078401C8649087008460078022801
S315080077A008D3002008707E48807820F040004030DA
S315080077B07B49887079480078C0F3400088B17D48D5
S315080077C00078401C7B4908700846007805280BD3CA
S315080077D0002008707148007820F002006F49087090
S315080077E002E000207349087073480078401C72490B
S315080077F0087008460078042809D36948407820F0BC
S315080078000400001D6649487000206B4908706B48E3
S315080078100078401C694908706148C07800F001008A
S3150800782098B10846007880B35D48C07820F0080013
S3150800783008305B49C8700846007820F00800083010
S31508007840087000205D4908701FE05C48007802282F
S3150800785009D35348C07820F0080008305049C8704A
S3150800786000205649087056480088401C544908802C
S3150800787008460088142808D9002008804848007857
S3150800788020F008000830464908704E480078401C29
S315080078904C4908700846007848B14148807820F07D
S315080078A00200801C3E4988700020464908704648F8
S315080078B00078401C4449087008460078042809D313
S315080078C03748407820F008000830354948700020CD
S315080078D03D4908703248C07800F00100D8B13B48ED
S315080078E00078401C3949087008460078082812D3E1
S315080078F0002008702A48C07820F001002849C8707E
S315080079000846C07820F020002030C8700846C078A5
