S31508002400404A0020B5260008C54F00086F26000878
S31508002410C14F0008992B0008AF790008000000009A
S3150800242000000000000000000000000083600008B3
S315080024305D3B000800000000F7250008BD630008A2
S31508002440CB260008CB260008CB260008CB2600089A
S31508002450CB260008CB260008CB260008CB2600088A
S31508002460CB260008CB260008CB260008CB2600087A
S31508002470CB260008CB260008CB260008CB2600086A
S31508002480CB260008CB260008CB260008CB2600085A
S31508002490CB260008CB260008CB260008CB2600084A
S315080024A0CB260008CB260008CB260008CB2600083A
S315080024B0CB260008CB260008CB260008CB2600082A
S315080024C0CB260008CB260008CB260008CB2600081A
S315080024D0CB26000891760008CB260008F57600087A
S315080024E0CB260008CB260008CB26000800F002F809
S315080024F000F05AF80AA090E8000C82448344AAF136
S315080025000107DA4501D100F04FF8AFF2090EBAE833
S315080025100F0013F0010F18BFFB1A43F00103184709
S31508002520182B0100382B01000A444FF0000C10F854
S31508002530013B13F0070408BF10F8014B1D1108BF33
S3150800254010F8015B641E05D010F8016B641E01F8D3
S31508002550016BF9D113F0080F1EBF10F8014BAD1C23
S315080025600C1B09D16D1E58BF01F801CBFAD505E041
S3150800257014F8016B01F8016B6D1EF9D59142D6D39B
S31508002580704700000023002400250026103A28BFC3
S3150800259078C1FBD8520728BF30C148BF0B607047C7
S315080025A01FB51FBD10B510BD00F041F91146FFF764
S315080025B0F7FF06F071FB00F05FF903B4FFF7F2FFCF
S315080025C003BC00F063F90000EFF3108072B67047A1
S315080025D080F310887047314A1368012B04D04FF0F6
S315080025E0010313602E4A10602E4A11602E484FF0E0
S315080025F0805101607047EFF3108272B62748016870
S3150800260091B14FF0000101602548016829B1EFF347
S31508002610098121E9F00F0068016022490968096803
S31508002620B1E8F00F81F3098882F310884EF0040EA2
S3150800263070471C4908601A494FF00000086017499E
S315080026404FF00100086019484FF47F01D0F80020C8
S3150800265041EA0201016014484FF0805101601448B4
S315080026600068006880F3088862B6704700BF1EF0ED
S31508002670040F14BFEFF30880EFF3098020E9F00F89
S3150800268040F804ED80F3088880F3098800B507F060
S31508002690DBF95DF804EB4EF0040E704718000020D5
S315080026A0100000201400002004ED00E020ED00E0FA
S315080026B008ED00E008480047FEE7FEE7FEE7FEE70C
S315080026C0FEE7FEE7FEE7FEE7FEE7FEE70348044906
S315080026D0044A054B70470000ED24000840440020DA
S315080026E0404A00204046002040460020032A40F287
S315080026F0308010F0030C00F0158011F8013BBCF196
S31508002700020F624498BF11F801CB00F8013B38BFAD
S3150800271011F8013BA2F1040298BF00F801CB38BFBB
S3150800272000F8013B11F0030300F02580083AC0F0D9
S31508002730088051F8043B083A51F804CBA0E8081081
S31508002740F5E7121D5CBF51F8043B40F8043BAFF3B4
S315080027500080D20724BF11F8013B11F801CB48BF0E
S3150800276011F8012B24BF00F8013B00F801CB48BF44
S3150800277000F8012B704710B5203AC0F00B80B1E87D
S315080027801850203AA0E81850B1E81850A0E8185098
S31508002790BFF4F5AF5FEA027C24BFB1E81850A0E8A1
S315080027A0185044BF18C918C0BDE810405FEA827CBB
S315080027B024BF51F8043B40F8043B08BF7047D207D2
S315080027C028BF31F8023B48BF11F8012B28BF20F873
S315080027D0023B48BF00F8012B70474FF0000200B5D6
S315080027E0134694469646203922BFA0E80C50A0E826
S315080027F00C50B1F12001BFF4F7AF090728BFA0E8D4
S315080028000C5048BF0CC05DF804EB890028BF40F89F
S31508002810042B08BF704748BF20F8022B11F0804FE1
S3150800282018BF00F8012B7047704770477047754608
S3150800283000F028F8AE4605006946534620F0070022
S31508002840854618B020B5FFF741FFBDE820404FF098
S3150800285000064FF000074FF000084FF0000B21F07C
S315080028600701AC46ACE8C009ACE8C009ACE8C00949
S31508002870ACE8C0098D4670470446AFF30080204691
S31508002880FFF79BFE00487047DC43002001491820EB
S31508002890ABBEFEE7260002007047CA4302607047D7
S315080028A021B1826842F00102826003E0826822F068
S315080028B0010282607047000010B50446124884423F
S315080028C008D10121401502F039FC0021601502F0FB
S315080028D035FC17E00D48844208D10121001502F0A5
S315080028E02DFC0021201502F029FC0BE00848844243
S315080028F008D10121C80302F021FC00214FF4004051
S3150800290002F01CFC10BD0000002401400028014014
S31508002910003C0140014600208A6812F0040F01D0ED
S31508002920012000E0002070470146C86C80B270475D
S315080029300246002013680B4201D0012000E0002067
S315080029407047014600208A6812F0080F01D001205E
S3150800295000E000207047000030B502460020002342
S3150800296050680F4C20400D790C6844EA0524204332
S31508002970506090680B4C2040D1E902542C434D79A5
S3150800298044EA450420439060D06A20F470000C7C29
S31508002990641EE4B2234340EA0350D06230BD00000F
S315080029A0FFFEF0FFFDF7F1FFF0B504460D460020E7
S315080029B00021092D11DDE068A5F10A0606EB460798
S315080029C0072606FA07F18843A5F10A0606EB460626
S315080029D003FA06F10843E0600CE0206905EB4507B9
S315080029E0072606FA07F1884305EB450603FA06F1BA
S315080029F008432061072A0FDA606B561E06EB860726
S31508002A001F2606FA07F18843561E06EB860605FAC0
S31508002A1006F10843606322E00D2A0FDA206BD61F01
S31508002A2006EB86071F2606FA07F18843D61F06EB2C
S31508002A30860605FA06F10843206310E0E06AA2F16B
S31508002A400D0606EB86071F2606FA07F18843A2F14C
S31508002A500D0606EB860605FA06F10843E062F0BDA8
S31508002A60816841F008018160704721B1826842F4AB
S31508002A70A002826003E0826822F4A00282607047A6
S31508002A80816841F0040181607047000010B5044672
S31508002A90082C6DD2DFE804F004111E2B3845525F6E
S31508002AA01021354801F07AFD2021334801F076FDE2
S31508002AB04021314801F074FD5BE010212E4801F0F9
S31508002AC06FFD20212C4801F06BFD40212A4801F0BA
S31508002AD065FD4EE01021284801F062FD20212648B8
S31508002AE001F05EFD4021244801F05AFD41E0102125
S31508002AF0214801F053FD20211F4801F051FD4021D6
S31508002B001D4801F04DFD34E010211B4801F046FD3B
S31508002B102021194801F044FD4021174801F03EFDE7
S31508002B2027E01021144801F039FD2021124801F050
S31508002B3035FD4021104801F031FD1AE010210E48FC
S31508002B4001F02EFD20210C4801F028FD40210A48FD
S31508002B5001F024FD0DE01021074801F021FD202198
S31508002B60054801F01BFD4021034801F019FD00E06E
S31508002B7000BF00BF10BD00000008014010B502F0FC
S31508002B80EDFA02F020FA03F0E3FB01F031FB03F063
S31508002B9019FC01F03DFD10BD00BFFEE700B587B08A
S31508002BA01F4800F05BF804A800F084FA00208DF8AE
S31508002BB0160001208DF817008DF8180000208DF8F2
S31508002BC019008DF81A008DF81B008DF812008DF883
S31508002BD0130002208DF8140004208DF8150010202B
S31508002BE0ADF8100004A90E4800F014F900208DF87D
S31508002BF00A008DF80B008DF80C00ADF80000ADF852
S31508002C000200ADF80400ADF80600ADF80800012092
S31508002C108DF80D00684600F03DF807B000BD0000CD
S31508002C200064004000220C4B994202D100238361C4
S31508002C3011E0C1F3130211F0007F01D0C2600AE06F
S31508002C4011F0806F01D0026105E011F0006F01D02C
S31508002C50826000E0426070477000F03010B50446AC
S31508002C600B48844209D10121480602F047FA00219F
S31508002C704FF0007002F042FA08E00121880602F0DF
S31508002C803DFA00214FF0806002F038FA10BD0000CE
S31508002C900064004010B50021837A012202FA03F18C
S31508002CA03D4A126842F001023B4B1A603A4A1C320E
S31508002CB012688A43384B1C331A60027BCAB9364AF3
S31508002CC00C3212688A43344B0C331A604288C38824
S31508002CD042EA0343304A4032847A42F83430028862
S31508002CE0838842EA03432C4A4032847A02EBC402C0
S31508002CF05360027B012A19D1274A0C3212680A430B
S31508002D00254B0C331A604288038842EA0343224A59
S31508002D104032847A42F83430C288838842EA0343D0
S31508002D201D4A4032847A02EBC4025360C27A3AB929
S31508002D30194A121D12688A43174B1B1D1A6006E0B2
S31508002D40154A121D12680A43134B1B1D1A60028985
S31508002D5032B9114A143212688A430F4B14331A6077
S31508002D600289012A06D10C4A143212680A430A4B10
S31508002D7014331A60427B012A06D1074A1C321268AC
S31508002D800A43054B1C331A60034A126822F00102F3
S31508002D90014B1A6010BD00000066004010B50246DF
S31508002DA0002011F4700F08D09369C1F3130423426D
S31508002DB001D001202DE000202BE011F0807F08D003
S31508002DC05368C1F31304234201D0012021E00020F7
S31508002DD01FE011F0006F08D09368C1F31304234273
S31508002DE001D0012015E0002013E011F0007F08D083
S31508002DF0D368C1F31304234201D0012009E000205F
S31508002E0007E01369C1F31304234201D0012000E04F
S31508002E10002010BD30B5024600200023146824F0B7
S31508002E2002041460146844F00104146000E05B1C9A
S31508002E30546814F0010F03D1A3F57F44FF3CF6D183
S31508002E40546814F0010F01D100206CE08C79012C34
S31508002E5004D1146844F08004146003E0146824F074
S31508002E6080041460CC79012C04D1146844F0400421
S31508002E70146003E0146824F0400414600C7A012CF2
S31508002E8004D1146844F02004146003E0146824F0A4
S31508002E90200414604C7A012C04D1146844F0100400
S31508002EA0146003E0146824F0100414608C7A012C72
S31508002EB004D1146844F00804146003E0146824F08C
S31508002EC008041460CC7A012C04D1146844F0040474
S31508002ED0146003E0146824F0040414608C78A407D2
S31508002EE0CD7844EA05640D7944EA05444D7944EA07
S31508002EF005540D886D1E2C43D461146824F0010412
S31508002F001460002300E05B1C546814F0010F03D022
S31508002F10A3F57F44FF3CF6D1546814F0010F01D0A5
S31508002F20002000E0012030BD0246002019B9D36810
S31508002F3003F0030006E0012903D1136903F0030037
S31508002F4000E00020704700002DE9F04385B00546F3
S31508002F50884691461E463746BF014F4417491848CA
S31508002F60FFF71CFF38B915491548FFF75BFE202007
S31508002F7005B0BDE8F0836A460021114800F022F842
S31508002F809DF80A00A84201D00420F1E70098B8424B
S31508002F900BD1002406E00DF10B00005D08F80400D3
S31508002FA0601CC4B2AC42F6DB01E00120E0E79DF804
S31508002FB0080008B10220DBE70820D9E7080000323C
S31508002FC00064004010B500F5D87303EB01131B68C5
S31508002FD003F004031372137A53B900F5D87303EB9D
S31508002FE001131B6840F2FF7404EA5353136009E0A7
S31508002FF000F5D87303EB01131B686FF0604404EA0D
S31508003000D303536000F5D87303EB01131B6803F071
S315080030100203537200F5D87303EB01135B6803F0E0
S315080030200F03937200F5D87303EB01135B681B0A51
S31508003030D37400F5D87303EB01139B68D37200F5BC
S31508003040D87303EB01139B681C0A147300F5D87335
S3150800305003EB01139B681C0C547300F5D87303EB40
S3150800306001139B681B0E937300F5D87303EB0113CA
S31508003070DB68D37300F5D87303EB0113DB681C0A0E
S31508003080147400F5D87303EB0113DB681C0C547435
S3150800309000F5D87303EB0113DB681B0E937421B993
S315080030A0C36843F02003C36003E0036943F02003C9
S315080030B0036110BD00218171C17101724172817273
S315080030C0C1728170C1700321017102214171012110
S315080030D00180704710B502460020936803F08063AC
S315080030E0B3F1806F00D110E0936803F00063B3F189
S315080030F0006F01D1012008E0936803F08053B3F113
S31508003100805F01D1022000E00420042874D002F573
S31508003110C07303EB00131B6803F0010402F5C073C8
S3150800312003EB00131C600B7A7BB94B7A0C8843EAD5
S31508003130445302F5C07404EB00142468234302F5D3
S31508003140C07404EB0014236010E00B7A4C6843EA61
S31508003150C4034C7A234302F5C07404EB00142468B4
S31508003160234302F5C07404EB001423608B7A03F042
S315080031700F038B7202F5C07303EB00135B6823F031
S315080031800F0402F5C07303EB00135C6002F5C0730D
S3150800319003EB00135B688C7A234302F5C07404EBD7
S315080031A0001463608B7B1C064B7B44EA03440B7B51
S315080031B044EA0323CC7A234302F5C07404EB0014D3
S315080031C0A3608B7C1C064B7C44EA03440B7C44EAD4
S315080031D00323CC7B234302F5C07404EB0014E3609D
S315080031E002F5C07303EB00131B6843F0010402F5F4
S315080031F0C07303EB00131C6010BD00002DE9F047F7
S3150800320086B006460F46904699464FF0000A0025B6
S3150800321048EA8910019000208DF80C008DF80D0001
S315080032208DF80E6000BF05E0795D0DF10F00415580
S31508003230681CC5B2B542F7DB01A90E48FFF74AFF7D
S315080032408246002400E0641C51460A4800F014F83F
S31508003250012801D0802CF6D1002400E0641C00214E
S315080032600448FFF761FE012801DA802CF6D106B082
S31508003270BDE8F0870064004010B50246002321B17E
S31508003280012907D002290FD109E090681D4C00EAF0
S3150800329004030BE090681C4C00EA040306E09068FF
S315080032A01A4C00EA040301E0002300BF00BF184CD3
S315080032B0181BA34216D007DC83B16FF0806018187C
S315080032C00ED0022818D111E0B0F5007F10D0114CAD
S315080032D0001909D0B0F5003F0ED10BE002230DE02E
S315080032E000230BE0002309E0002307E0012305E0A3
S315080032F0012303E0012301E0002300BF00BFD8B289
S3150800330010BD0000030000040003000800000310BD
S31508003310000100080001FFF701460022744B1A70ED
S3150800332000200EE000EB4002724B03EB8202D27AD9
S31508003330012A04D16E4A1278521C6D4B1A70421C2F
S31508003340D0B21828EEDB01297ED100226A4B1A700A
S3150800335001200FE0421E02EB4202664B03EB82029B
S31508003360D27A012A04D1644A1278521C624B1A7026
S31508003370421CD0B20328EDDB0022604B1A700420F1
S315080033800FE0421E02EB42025A4B03EB8202D27A4C
S31508003390012A04D1594A1278521C584B1A70421CF9
S315080033A0D0B20628EDDB0022554B1A7007200FE035
S315080033B0421E02EB42024F4B03EB8202D27A012AEB
S315080033C004D14F4A1278521C4D4B1A70421CD0B287
S315080033D00928EDDB00224B4B1A700A200FE0421E2B
S315080033E002EB4202434B03EB8202D27A012A04D152
S315080033F0444A1278521C434B1A70421CD0B20B280E
S31508003400EDDB0022404B1A700C200FE0421E02EB47
S315080034104202384B03EB8202D27A012A04D13A4A95
S315080034201278521C384B1A70421CD0B20F28EDDBAA
S315080034300022364B1A702F4A92F8BF20012A05D16E
S315080034401A461278521C00E051E01A700022304BDE
S315080034501A7011200FE0421E02EB4202254B03EBC5
S315080034608202D27A012A04D1294A1278521C284BA0
S315080034701A70421CD0B21228EDDB0022254B1A70B6
S315080034801C4A92F8E320012A03D11A461278521CE4
S315080034901A700022204B1A7014200FE0421E02EB0D
S315080034A04202144B03EB8202D27A012A04D11A4A49
S315080034B01278521C184B1A70421CD0B21628EDDB33
S315080034C00022164B1A7017200FE0421E02EB42022A
S315080034D0084B03EB8202D27A012A04D10F4A1278EA
S315080034E0521C0E4B1A70421CD0B21828EDDB7047DE
S315080034F0FA01002032000020680100207201002035
S315080035006E0100206F010020700100206C01002070
S315080035106D0100206B010020690100207101002067
S315080035204249C97811F0010F68D041490978042940
S3150800353003DA20213F4A116077E03D4909780829D6
S3150800354004DA4FF400513B4A11606EE038490978B5
S315080035500C2904DA4FF40011364A116065E0344943
S315080035600978102904DA42F22001324A11605CE037
S315080035702F490978142903DA2F492E4A116054E095
S315080035802B490978182903DA00212A4A11604CE0E8
S31508003590274909781C2903DA4021264A116044E0A4
S315080035A023490978202904DA4FF48041214A116019
S315080035B03BE01F490978242904DA4FF480011D4AA3
S315080035C0116032E01A490978282903DA1B49194A91
S315080035D011602AE0164909782C2903DA1849154A90
S315080035E0116022E012490978342903DA1549114A8B
S315080035F011601AE000210F4A116016E018B900217F
S315080036000C4A116011E0012803D10F49094A1160DB
S315080036100BE00E49897809040C4A527801EB02211D
S315080036200A4A12781144034A11607047540100206F
S31508003630E6010020F4010020202020004040400040
S31508003640606060001010100030303000BB010020B0
S3150800365038B5FE480078052802DA4FF4FC6400E025
S315080036601F241820234603221E210090252002F03D
S3150800367009FD182023460A221E210090352002F053
S3150800368001FD1820234603221E210090452002F042
S31508003690F9FC182023460B221E210090552002F023
S315080036A0F1FC182023460E221E210090652002F008
S315080036B0E9FC182023460F221E2100907D2002F0E7
S315080036C0E1FC1820234610221E210090952002F0C6
S315080036D0D9FC1820234619221E210090AD2002F09D
S315080036E0D1FC182023461A221E210090C52002F07C
S315080036F0C9FC2346D54802781E21E32003F05EFD67
S31508003700D3480078082802DA4FF4FC6400E01F2446
S3150800371018202346052237210090252002F0B2FC06
S31508003720182023460B2237210090352002F0AAFCE8
S31508003730182023460E2237210090452002F0A2FCCD
S31508003740182023460F22372100905D2002F09AFCAC
S3150800375018202346102237210090752002F092FC8B
S31508003760182023461922372100908D2002F08AFC62
S31508003770182023461A2237210090A52002F082FC41
S315080037802346B34802783721E32003F017FDB148F2
S315080037900078142802DA4FF4FC6400E01F2418208D
S315080037A02346052250210090252002F06BFC1820A4
S315080037B023460C2250210090352002F063FC182085
S315080037C023460B2250210090452002F05BFC18206E
S315080037D023460E2250210090552002F053FC182053
S315080037E023460F22502100906D2002F04BFC182032
S315080037F02346102250210090852002F043FC182011
S3150800380023461922502100909D2002F03BFC1820E7
S3150800381023461A2250210090B52002F033FC234695
S315080038208C4802785021E32003F0C8FC8A480078C7
S315080038300A2802DA4FF4FC6400E01F241820234605
S31508003840092269210090252002F01CFC1820234635
S315080038500B2269210090352002F014FC182023461B
S315080038600E2269210090452002F00CFC1820234600
S315080038700F22692100905D2002F004FC18202346DF
S31508003880102269210090752002F0FCFB18202346BF
S315080038901922692100908D2002F0F4FB1820234696
S315080038A01A2269210090A52002F0ECFB23466A48FB
S315080038B002786921E32003F081FC684800780A2829
S315080038C002DA4FF4FC6400E01F2418202346012284
S315080038D082210090252002F0D5FB182023460222DB
S315080038E082210090352002F0CDFB182023460B22BA
S315080038F082210090452002F0C5FB182023460E229F
S3150800390082210090552002F0BDFB182023460F2285
S31508003910822100906D2002F0B5FB18202346102264
S3150800392082210090852002F0ADFB1820234619223B
S31508003930822100909D2002F0A5FB182023461A221A
S3150800394082210090B52002F09DFB23464348027869
S315080039508221E32003F032FC414800780A2802DA83
S315080039604FF4FC6400E01F24182023460E229B21F6
S315080039700090252002F086FB182023461B229B2157
S3150800398000903D2002F07EFB1820234601229B2151
S315080039900090552002F076FB182023460E229B2124
S315080039A00090652002F06EFB182023460F229B210B
S315080039B000907D2002F066FB1820234610229B21EA
S315080039C00090952002F05EFB1820234619229B21C1
S315080039D00090AD2002F056FB182023461A229B21A0
S315080039E00090C52002F04EFB23461D4802789B2115
S315080039F0E32003F0E3FB1B4800780A2802DA4FF4B9
S31508003A00FC6400E01F24182023460E22B4210090EF
S31508003A10252002F037FB182023461B22B4210090EC
S31508003A203D2002F02FFB182023460222B4210090E5
S31508003A30552002F027FB182023460E22B4210090B9
S31508003A40652002F01FFB182023460DE0D701002051
S31508003A50D8010020D9010020DA010020DB0100206E
S31508003A60DC010020DD0100200F22B42100907D201A
S31508003A7002F008FB182023461022B4210090952056
S31508003A8002F000FB182023461922B4210090AD202D
S31508003A9002F0F8FA182023461A22B4210090C5200D
S31508003AA002F0F0FA23462B480278B421E32003F00B
S31508003AB085FB294800780A2802DA4FF4FC6400E0FE
S31508003AC01F24182023460222CD210090252002F02B
S31508003AD0D9FA182023460422CD210090352002F079
S31508003AE0D1FA182023460B22CD210090452002F05A
S31508003AF0C9FA182023460E22CD210090552002F03F
S31508003B00C1FA182023460F22CD2100906D2002F01D
S31508003B10B9FA182023461022CD210090852002F0FC
S31508003B20B1FA182023461922CD2100909D2002F0D3
S31508003B30A9FA182023461A22CD210090B52002F0B2
S31508003B40A1FA234604480278CD21E32003F036FB88
S31508003B5038BD0000DD010020DE010020704700208E
S31508003B6001E0411CC8B20E28FBDB704710B5FC48C3
S31508003B70C07810F0010F74D0FA480078062804DAE5
S31508003B8040F6FF70F84908806CE2F6480078082885
S31508003B9003DA0020F449088064E2F24800780A282B
S31508003BA003DA2020F04908805CE2EE4800780C2809
S31508003BB003DA1020EC49088054E2EA4800780E2817
S31508003BC003DA0820E84908804CE2E648007810281D
S31508003BD003DA0420E449088044E2E248007812281F
S31508003BE003DA0220E04908803CE2DE48007814281F
S31508003BF003DA0120DC49088034E2DA48007816281E
S31508003C0004DA4FF40060D84908802BE2D5480078DA
S31508003C10182804DA4FF48060D349088022E2D14894
S31508003C2000781A2804DA4FF40070CF49088019E2A0
S31508003C30CC4800781C2804DA4FF48070CA490880FA
S31508003C4010E2C84800781E2803DA8020C649088092
S31508003C5008E2C4480078202804DA4020C2490880CF
S31508003C6000E20BE0BF480078222803DA0020BE49AC
S31508003C700880F7E10020BB490870F3E1BB480078EB
S31508003C8010F0030F0BD1B848008820F01000B64991
S31508003C9008800846008820F0200008802EE0B348F7
S31508003CA0007800F0030001280BD1AF48008840F0E7
S31508003CB01000AD4908800846008820F020000880DA
S31508003CC01CE0AA48007800F0030002280BD1A64899
S31508003CD0008820F01000A44908800846008840F0B3
S31508003CE0200008800AE0A048008820F010009E49BD
S31508003CF008800846008880F0200008809B480078E5
S31508003D0010F00C0F0BD19848008820F00400964953
S31508003D1008800846008820F0080008802EE09348AE
S31508003D20007800F00C0004280BD18F48008840F07A
S31508003D3004008D4908800846008820F0080008809D
S31508003D401CE08A48007800F00C0008280BD1864849
S31508003D50008820F00400844908800846008840F05E
S31508003D60080008800AE08048008820F004007E49A0
S31508003D7008800846008880F0080008807B4800789C
S31508003D8010F0300F2CD176484078C0090BD0764811
S31508003D90008820F00100744908800846008840F031
S31508003DA00200088051E06E48807810F0010F0BD0B1
S31508003DB06D48008880F001006B4908800846008835
S31508003DC020F00200088040E06748008840F00100C3
S31508003DD0654908800846008820F00200088034E01B
S31508003DE06248007800F0300010280BD15E48008841
S31508003DF040F001005C4908800846008820F002006F
S31508003E00088022E05948007800F0300020280BD1BD
S31508003E105548008820F00100534908800846008864
S31508003E2040F00200088010E05048007800F03000AA
S31508003E3030280AD14C48008820F001004A490880F9
S31508003E400846008820F0020008804848007810F0EC
S31508003E50C00F1CD142484078C0F3800058B1424890
S31508003E60008840F48060404908800846008820F4AD
S31508003E700060088040E03C48008820F480603A49A9
S31508003E8008800846008840F40060088034E0374817
S31508003E90007800F0C00040280BD13348008840F471
S31508003EA08060314908800846008820F40060088050
S31508003EB022E02E48007800F0C00080280BD12A485E
S31508003EC0008820F48060284908800846008840F465
S31508003ED00060088010E02548007800F0C000C0287F
S31508003EE00AD12148008820F480601F4908800846C6
S31508003EF0008820F4006008801C48407810F0030F02
S31508003F001CD117484078C0F3C00058B1164800883D
S31508003F1040F48070144908800846008820F4007030
S31508003F20088048E01048008820F480700E49088010
S31508003F300846008840F4007008803CE00B4840784A
S31508003F4000F00300012813D10748008840F4807068
S31508003F50054908800846008820F4007008802AE091
S31508003F6054010020E6010020E4010020BF010020E2
S31508003F704048407800F0030002280BD13E480088EC
S31508003F8020F480703C4908800846008840F4007098
S31508003F90088010E03748407800F0030003280AD16B
S31508003FA03548008820F48070334908800846008820
S31508003FB020F4007008802F48407810F00C0F1CD1B0
S31508003FC02E484078C0F3001058B12B48008840F0BE
S31508003FD04000294908800846008820F080000880AB
S31508003FE040E02548008820F040002349088008461C
S31508003FF0008840F08000088034E01E48407800F0D1
S315080040000C0004280BD11C48008840F040001A49CF
S3150800401008800846008820F08000088022E01548BD
S31508004020407800F00C0008280BD11348008820F0CF
S315080040304000114908800846008840F08000088042
S3150800404010E00C48407800F00C000C280AD10A4809
S31508004050008820F04000084908800846008820F0BB
S315080040608000088004490988C1F30B0000F00AFEA5
S3150800407010BD0000BF010020E4010020540100200B
S3150800408030B5002326E0174C216800221EE011F007
S31508004090010F0DD04024144D2C60002001E0441C73
S315080040A0E0B20428FBDB40240F4D2D1D2C600AE0EE
S315080040B040240D4D2C602D1D2C60002001E0441C71
S315080040C0E0B20428FBDB4908541CE2B2182ADEDBFE
S315080040D05C1CE3B20C2BD6DB4024034D2D1D2C6053
S315080040E030BD0000F4010020100C014010B5FEF7A9
S315080040F06BFA0149086010BD1003002010B502488C
S315080041000068FEF765FA10BD100300200549096826
S3150800411021F01001034A1160114609680143116034
S31508004120704700000020024001460020034A10683C
S3150800413000F0380008431060704700000020024075
S31508004140024600210BE0084830F82100904204D1CD
S31508004150054800EB810040887047481CC1B2052914
S31508004160F1DB01484088F7E7944C01082DE9F04156
S3150800417086B0074688461546142101A8FEF72DFB8A
S3150800418000268DF8047010208DF8050000208DF8A3
S315080041900600E81CC6B2002406E018F8041001AAB6
S315080041A0E01C1154601CC4B2AC42F6DB314601A8CF
S315080041B003F054FE01A9885504210C4800F0F0F9D3
S315080041C0002405E001A9085D03F0C4FE601CC4B222
S315080041D0701C8442F6DB052006F0CBFC042103485C
S315080041E000F0DCF9012006B0BDE8F081000C0140C2
S315080041F008B5684600F0D6F90120ADF800000020A1
S315080042008DF8030069466F4800F0E4F8684600F048
S31508004210C9F910208DF8030001208DF8020048F234
S31508004220F010ADF800006946664800F0D3F8684615
S3150800423000F0B8F94FF40060ADF8000003208DF8DF
S31508004240020048208DF8030069465E4800F0C2F86F
S31508004250684600F0A7F94FF48050ADF80000032037
S315080042608DF8020018208DF803006946554800F0BD
S31508004270B1F8684600F096F910208DF80300012081
S315080042808DF8020041F2BF30ADF8000069464E488D
S3150800429000F0A0F801214D4800F026F908214A4807
S315080042A000F07EF92021484800F07AF98021464836
S315080042B000F076F94FF48071434800F071F94FF435
S315080042C00071414800F06CF902213F4800F066F998
S315080042D010208DF8030003208DF802004020ADF869
S315080042E000006946384800F075F8684600F05AF943
S315080042F04FF46040ADF8000018208DF80300032045
S315080043008DF802006946304800F064F8684600F007
S3150800431049F914208DF8030001208DF802004FF4A6
S31508004320C040ADF800006946294800F053F84FF43C
S315080043300051274800F034F94FF48041244800F032
S315080043402FF9684600F02EF910208DF80300012099
S315080043508DF80200C003ADF8000069461C4800F05D
S3150800436039F84FF400411A4800F01AF904208DF87C
S3150800437003000002ADF800006946124800F02AF86A
S3150800438018208DF803004FF40070ADF80000694658
S315080043900C4800F01FF804208DF803004002ADF821
S315080043A000006946084800F015F818208DF8030043
S315080043B04FF48060ADF800006946034800F00AF83B
S315080043C008BD000000080140000C01400002300052
S315080043D0001001402DE9F041024600250026002084
S315080043E000230024002791F803C00CF00F0591F86C
S315080043F003C01CF0100F03D091F802C04CEA050563
S3150800440091F800C0BCF1000F31D0146800202BE0F1
S315080044104FF0010C0CFA00F3B1F800C00CEA0306E1
S315080044209E4220D183004FF00F0C0CFA03F7BC43D1
S3150800443005FA03FC4CEA040491F803C0BCF1280F02
S3150800444006D14FF0010C0CFA00FCC2F814C00AE0C1
S3150800445091F803C0BCF1480F05D14FF0010C0CFAD6
S3150800446000FCC2F810C0401C0828D1D31460B1F86B
S3150800447000C0BCF1FF0F34DD546800202EE000F1C7
S31508004480080C4FF0010808FA0CF3B1F800C00CEA62
S3150800449003069E4221D183004FF00F0C0CFA03F756
S315080044A0BC4305FA03FC4CEA040491F803C0BCF1CA
S315080044B0280F05D100F1080C08FA0CF8C2F8148088
S315080044C091F803C0BCF1480F07D100F1080C4FF072
S315080044D0010808FA0CF8C2F81080401C0828CED348
S315080044E05460BDE8F0810000F0B50A4600230024B8
S315080044F00021002500F00046B6F1004F02D11D4EFE
S31508004500F16901E01B4E7168C0F3034583B200F4FC
S315080045104016B6F5401F08D121F07061154E766831
S3150800452026F07066134F7E6012E000F48016B6F52A
S31508004530801F06D1032606FA05F4A14341F07061EF
S3150800454006E0460D360103FA06F6B14341F07061FE
S3150800455022B1460D360103FA06F6314300F000464D
S31508004560B6F1004F02D1034EF16101E0014E7160D0
S31508004570F0BD0000000001400246002093680B428F
S3150800458001D0012000E00020704702460020D368D1
S315080045900B4201D0012000E00020704741617047BE
S315080045A0016170474FF6FF71018002218170042175
S315080045B0C17070472DE9F041054600240423012205
S315080045C029461248FEF7F0F9002619E001210F489E
S315080045D0FEF74BFA00BF02210C48FEF7A9F900289E
S315080045E0F9D00A48FEF7A0F9074602210748FEF760
S315080045F054F900210548FEF738FA3C44701CC6B247
S31508004600082EE3DBE408A0B2BDE8F08100240140EF
S3150800461010B545F2555000F02DF8042000F01EF8AC
S3150800462040F2145000F020F800F010F800F002F8FC
S3150800463010BD00004CF6CC400149086070470000E8
S315080046400030004010B500F001F810BD4AF6AA2067
S315080046500149086070470000003000400149486081
S31508004660704700000030004001498860704700002C
S3150800467000300040014908607047000000300040E3
S3150800468010B500204D4908604D490860002408E02F
S3150800469000204C4908554C4908554C490855601C9A
S315080046A0C4B2022CF4DB002404E000204849085573
S315080046B0601CC4B2042CF8DB002406E0002045493F
S315080046C0085545490855601CC4B2082CF6DB002479
S315080046D006E000204149085541490855601CC4B206
S315080046E00A2CF6DB00203F4908703F4908703F490D
S315080046F008703F4908703F4908703F4908703F49AC
S3150800470008803F4908701F203E4908803E490880B6
S315080047103E4908803E4908803E4908803E4908804F
S315080047203E49088000203E4908703E4908703E49C7
S3150800473008703E4908703E4908703E4908703E496F
S3150800474008703E4908703E4908703E4908703E495F
S3150800475008803E4908803E4908703E4908703E492F
S3150800476008703E4908703E490870214908703D495D
S3150800477008803D4908703D4908703D4908803D4913
S3150800478008703D4908603D4908800C48C07820F00B
S31508004790800080300949C870002039490870012016
S315080047A0FEF7BAFD0120374908700020364908800F
S315080047B0364908803649087010BD000054010020AB
S315080047C058010020A9010020BF010020C1010020D6
S315080047D0BB010020AB010020B30100207E1400209D
S315080047E096140020C3010020C9010020C50100203D
S315080047F0C6010020C8010020CC010020D2010020FB
S31508004800D4010020740100207601002078010020E0
S315080048107A0100207C01002080010020820100200E
S31508004820A0010020CD010020D7010020D8010020DA
S31508004830D9010020DA010020DB010020DC0100207C
S31508004840DD010020DE010020E0010020E201002059
S31508004850C4010020F3010020C7010020CA0100207E
S31508004860CE010020E4010020CB010020E601002053
S31508004870E8010020EA010020F4010020D001002010
S31508004880F90100206A0100209C0100209E010020F9
S31508004890F801002070B506460024094805884088B6
S315080048A045430021084600F073F900F0E3F900BF1C
S315080048B003E0304600F086F9641CAC42F9D370BDBB
S315080048C0381400202DE9F05F05460E46174698462F
S315080048D0DDF828A04FF0000B781B401C1FFA80FB60
S315080048E0344613E02146284600F052F900F0C2F992
S315080048F04FF0000906E0504600F064F909F101009E
S315080049001FFA80F9D945F6DB601C84B24445E9DD17
S31508004910BDE8F09F10B54FF400419B48FFF73EFEF7
S31508004920C82003F027FB4FF400419748FFF738FEED
S31508004930C82003F01FFB4FF4A07094490880F020AC
S3150800494048802C2088712A20C8712B200872CF2015
S3150800495000F074F9002000F055F9D92000F052F95A
S31508004960302000F04FF9ED2000F068F9642000F0DF
S3150800497049F9032000F046F9122000F043F9812096
S3150800498000F040F9E82000F059F9852000F03AF9DE
S31508004990102000F037F9782000F034F9CB2000F029
S315080049A04DF9392000F02EF92C2000F02BF90020C3
S315080049B000F028F9342000F025F9022000F022F949
S315080049C0F72000F03BF9202000F01CF9EA2000F05F
S315080049D035F9002000F016F9002000F013F9C02080
S315080049E000F02CF9212000F00DF9C12000F026F97D
S315080049F0122000F007F9C52000F020F9322000F057
S31508004A0001F93C2000F0FEF8C72000F017F9C12094
S31508004A1000F0F8F8362000F011F9A82000F0F2F8B6
S31508004A203A2000F00BF9552000F0ECF8B12000F020
S31508004A3005F9002000F0E6F8182000F0E3F8B620A3
S31508004A4000F0FCF80A2000F0DDF8A22000F0DAF801
S31508004A50F22000F0F3F8002000F0D4F8262000F049
S31508004A60EDF8012000F0CEF82B2000F0E7F8002042
S31508004A7000F0C8F8002000F0C5F8002000F0C2F8E1
S31508004A80EF2000F0BFF82A2000F0D8F8002000F048
S31508004A90B9F8002000F0B6F8012000F0B3F83F207E
S31508004AA000F0B0F8E02000F0C9F80F2000F0AAF8EE
S31508004AB03A2000F0A7F8362000F0A4F80B2000F002
S31508004AC0A1F80D2000F09EF8062000F09BF84C2077
S31508004AD000F098F8912000F095F8312000F092F84F
S31508004AE0082000F08FF8102000F08CF8042000F061
S31508004AF089F8112000F086F80C2000F083F80020D1
S31508004B0000F080F8E12000F099F8002000F07AF82B
S31508004B10062000F077F80A2000F074F8052000F067
S31508004B2071F8122000F06EF8092000F06BF82C20BE
S31508004B3000F068F8922000F065F83F2000F062F86F
S31508004B40082000F05FF80E2000F05CF80B2000F05B
S31508004B5059F82E2000F056F8332000F053F80F20AD
S31508004B6000F050F8112000F069F8782003F002FAF6
S31508004B70292000F063F8782003F0FCF94FF6FF715E
S31508004B80002001F021FB10BD000801403814002068
S31508004B9070B504460D460A49C87900F04FF8201248
S31508004BA000F030F8E0B200F02DF80549087A00F078
S31508004BB045F8281200F026F8E8B200F023F870BD90
S31508004BC03814002010B504464FF480510A48FFF700
S31508004BD0E5FC4FF480710948FFF7E2FC211208480A
S31508004BE001F040FAE1B2064801F03CFA4FF4805170
S31508004BF00148FFF7D5FC10BD000C01400008014034
S31508004C000038004010B504464FF480510848FFF7B5
S31508004C10C5FC4FF480710748FFF7C2FC21460648D9
S31508004C2001F020FA4FF480510148FFF7B9FC10BD96
S31508004C30000C0140000801400038004010B5044649
S31508004C404FF480510848FFF7A9FC4FF480710748D4
S31508004C50FFF7A4FCE1B2064801F004FA4FF48051CC
S31508004C600148FFF79DFC10BD000C014000080140FB
S31508004C700038004010B502498879FFF7DFFF10BDFC
S31508004C803814002070B5044680211948FFF788FCBF
S31508004C9010211748FFF782FCFEF761FF254600261C
S31508004CA01AE080211348FFF77BFCFEF758FF15F042
S31508004CB0010F04D001210E48FFF770FC03E0012123
S31508004CC00B48FFF76DFC80210A48FFF767FCFEF7E3
S31508004CD046FF6D10701CC6B20C2EE2DB802104481C
S31508004CE0FFF75CFC10210248FFF75AFC70BD000074
S31508004CF0000C01400008014000B500F041F9002011
S31508004D00044908700448007820F002000249087037
S31508004D1000BD0000660100205401002000B500F027
S31508004D202FF903480078401C0149087000BD0000AF
S31508004D306601002002460B4683B900210BE01148A4
S31508004D4010F81100904204D10E4800EB410040785B
S31508004D507047481CC1B21029F1DB11E0012B0FD1B5
S31508004D6000210BE0084810F81100904204D10648CB
S31508004D7000EB41004078EBE7481CC1B20829F1DB9B
S31508004D800020E5E7744C0108644C010800B5744836
S31508004D900078AA2805D10020724948700220724975
S31508004DA008707148007801280FD06F4800780228EB
S31508004DB00CD1AA206B49087001206C4908700420A0
S31508004DC06949087000206A490870C8E06648007892
S31508004DD004281AD162480078624948706448007805
S31508004DE05F49097808446249087060480078401CA1
S31508004DF05E4908705A480078802802DBFFF78EFF64
S31508004E00ADE0082058490870A9E0574800780828F6
S31508004E101AD1534800785349887055480078504944
S31508004E20097808445249087050480078401C4F4990
S31508004E3008704B480078802802DBFFF76FFF8EE08A
S31508004E402020494908708AE047480078202820D160
S31508004E50434800784349454A1278885444480078BC
S31508004E603F49097808444249087040480078401C80
S31508004E703E4908703A480078802802DBFFF74EFF63
S31508004E806DE0374800783B490870102036490870AD
S31508004E9065E035480078102823D131480078314933
S31508004EA0324A1278885431480078401C2F490870D5
S31508004EB02F4800782A49097808442D490870284857
S31508004EC00078802802DBFFF729FF48E027480178A9
S31508004ED028480078C01C814241DD402022490870DC
S31508004EE03DE02148007840281CD11D4801781D481E
S31508004EF01E4A127881541D480078401C1B490870C8
S31508004F001B48007800F07F0019490870144800789B
S31508004F100978884203D18020134908701FE0FFF7FB
S31508004F20FDFE1CE010480078802818D10C4800784F
S31508004F30BB2812D1FFF7E0FE0F48407820F00400A6
S31508004F400D49487000200D4908700B48007820F07C
S31508004F500100401C0849087001E0FFF7DFFE00BDAC
S31508004F60620100206A140020640100206301002009
S31508004F70670100206101002054010020C5010020BE
S31508004F8000200649087001200549087000200549D7
S31508004F9008700549087005490870704765010020C2
S31508004FA064010020630100206101002067010020E0
S31508004FB003E0531EDAB28B5C8354002AF9DC70478F
S31508004FC000BFFEE7704710B54FF410514FF0006070
S31508004FD000F03CF810BD000070B5002100230F2238
S31508004FE0C4780CB3164C246804F4E064C4F5E06491
S31508004FF0210AC1F10403CA40447804FA03F184780B
S315080050001440214309010F4C0678A155047804F091
S315080050101F050124AC4005786D114FF0E02606EB1C
S315080050208505C5F8004109E0047804F01F05012448
S31508005030AC40054D0678761145F8264070BD00004F
S315080050400CED00E000E400E080E100E0024A0A40DE
S315080050500243024B1A60704780FFFF1F08ED00E00D
S3150800506010B500F097F84FF4803000F055F900F0CD
S31508005070B1F90446012C24D1002000F041F90020A2
S3150800508000F07CF9A00200F06DF90220FFF74CF859
S315080050901020FFF73BF84FF4E011200400F080F9E8
S315080050A0012000F077F900BF392000F003F9002845
S315080050B0FAD0022000F082F900BF00F019F908289A
S315080050C0FBD110BD01460020034A506820F4404039
S315080050D008435060704700000010024029B1064A94
S315080050E0D2690243044BDA6104E0034AD269824377
S315080050F0014BDA61704700000010024029B1064AE8
S3150800510012690243044B1A6104E0034A1269824396
S31508005110014B1A61704700000010024029B1064A87
S3150800512092690243044B9A6104E0034A92698243F6
S31508005130014B9A61704700000010024029B1064AE7
S31508005140D2680243044BDA6004E0034AD268824319
S31508005150014BDA60704700000010024010B50121CB
S3150800516040F27D20FFF7DAFF01214806FFF7B6FF78
S3150800517001218803FFF7B2FF4FF40040FFF7A2FFB3
S3150800518001218803FFF7CAFF01218804FFF7A6FF5C
S3150800519010BD00000F48006840F001000D49086086
S315080051A0084640680C4908400A49486008460068AD
S315080051B00A490840074908600846006820F4802024
S315080051C008600846406820F4FE0048604FF41F0057
S315080051D088607047001002400000FFF8FFFFF6FEE7
S315080051E030B500210022002400232D4D6D6805F0FE
S315080051F00C0121B1042905D0082923D105E0294D40
S31508005200056022E0274D05601FE0254D6D6805F411
S315080052107012234D6D6805F48034022505EB924221
S315080052201CB9214D554305600BE01D4D6D6815F4FD
S31508005230003F03D01C4D5543056002E0194D554308
S31508005240056002E0174D056000BF00BF144D6D688C
S3150800525005F0F0010909154D6B5C0568DD404560F0
S315080052600F4D6D6805F4E061090A104D6B5C4568E1
S31508005270DD4085600A4D6D6805F46051C90A0B4D1D
S315080052806B5C4568DD40C560054D6D6805F44041B9
S31508005290890B074D6B5CC568B5FBF3F5056130BD39
S315080052A00010024000127A0000093D000F0200209B
S315080052B01F02002010B501460022002300204A11D3
S315080052C0012A02D1094C236806E0022A02D1074CBA
S315080052D0236A01E0054C636A01F01F020124944029
S315080052E01C4201D0012000E0002010BD0010024041
S315080052F00248406800F00C007047000000100240A9
S3150800530001460020034A506820F0F0000843506028
S3150800531070470000001002401149096821F48031E5
S315080053200F4A11601146096821F480211160B0F511
S31508005330803F03D0B0F5802F0ED106E008490968F2
S3150800534041F48031064A116007E00549096841F4CD
S31508005350A021034A116000E000BF00BF70470000AB
S315080053600010024001460020034A506820F4E0601D
S3150800537008435060704700000010024001460020B4
S31508005380034A506820F4605040EAC10050607047F4
S3150800539000100240014908667047000000004242BA
S315080053A002460020044B586820F47C1042EA0103A8
S315080053B01843014B58607047001002400146002010
S315080053C0034A506820F00300084350607047000005
S315080053D00010024038B5002000900024002500BFC8
S315080053E03120FFF767FF05460098401C009000989B
S315080053F0B0F5A06F01D0002DF2D03120FFF75AFF8B
S3150800540008B1012400E00024204638BD00B53E4816
S31508005410007850280BD13D48007840B950203C49C7
S3150800542008700120394908703A4908706AE0394815
S315080054300078012829D13548007801280DD132484D
S315080054400078102809D11021304802780078401CCD
S315080054502E4B18702E48815454E02C4800780228A8
S315080054600FD12948007860B90021284802780078C9
S31508005470401C264B1870264881540220254908707E
S3150800548040E00020214908703CE0224800780228C4
S3150800549011D11D4801781D4802780078401C1B4B25
S315080054A018701B488154184600780B282AD1042006
S315080054B01849087026E017480078042822D11348AE
S315080054C00178134802F0CAFC0F490978884213D1BB
S315080054D00D4801780E480D4A1278815410200D495E
S315080054E008700D48407820F00100401C0A494870B1
S315080054F000200649087005E02020064908700020AB
S315080055000249087000BD0000600100202C00002040
S31508005510421400202F0000205C0100202DE9F041F4
S3150800552090B04FF000080026342103A8FDF755F97E
S31508005530C0A103C9CDE90101C04890F8038001461E
S3150800554048780121FFF7F6FB0646002406E0201DF1
S31508005550BA49085C03A90855601CC4B24445F6DB81
S31508005560072096FBF0F0C7B2072098FBF0F100FB86
S31508005570118008B1781CC7B2002419E0002513E091
S31508005580072000FB045003A9085C311903AA515CE3
S315080055906A1C914001F080010843072101FB045170
S315080055A003AA5054681CC5B2072DE9DB601CC4B2B7
S315080055B0BC42E3DB002436E1A048407801A9095D36
S315080055C0884273D1002C4CD1022203A99C48FFF7CC
S315080055D0EFFC9A488078012808DB984880780328E9
S315080055E004DC96488078401E964908709DF80D00A0
S315080055F0FEF7A6FD944908809DF80D00FEF7A0FD6C
S31508005600924908809DF80D00FEF79AFD904908809A
S315080056109DF80D00FEF794FD8E4908809DF80D0053
S31508005620FEF78EFD8C4908809DF80D00FEF788FD73
S315080056308A4908809DF80D00FEF782FD8849088092
S3150800564088480078C0F3801018B108218648FEF70C
S31508005650A5FF8448007820F0400040308149087052
S31508005660DEE0012C23D175488078012804D109226F
S3150800567003A97E48FFF79CFC7D484078C0F30010DC
S3150800568060B16E488078012808D1002504E0002022
S3150800569076494855681CC5B2092DF8DB714800786B
S315080056A020F0200020306F490870B9E0B9E0022CDC
S315080056B015D1082203A96F48FFF77AFC00206E4926
S315080056C008706848007820F01000103065490870A6
S315080056D00846807820F0800080308870A0E0032C8F
S315080056E00CD1042203A96548FFF762FC5D480078DF
S315080056F020F0800080305B49087091E0042C0CD1C2
S31508005700022203A95E48FFF753FC5648407820F06A
S315080057100100401C5349487082E0052C0CD1022236
S3150800572003A95848FFF744FC4E48807820F020002B
S3150800573020304C49887073E0062C59D19DF80C002E
S31508005740542821D19DF80D0053281DD100204E491B
S3150800575008704448C078C0F3801068B900204B49E7
S3150800576008704B4908804B4908703E48C07820F0BD
S31508005770400040303B49C8703A48C07820F00100E4
S31508005780401C3849C8704BE09DF80C004C280FD1D6
S315080057909DF80D0056280BD13248C07820F001003C
S315080057A03049C8700846C07820F04000C87037E015
S315080057B09DF80C0056280BD19DF80D00452807D1F9
S315080057C02848C07820F00200801C2649C87027E0C7
S315080057D09DF80C00492823D19DF80D0044281FD1B7
S315080057E02048C07820F00400001D1E49C87017E044
S315080057F0072C15D1002505E003A8405D2649485524
S31508005800681CC5B2B542F7DB0C488078A03023493E
S3150800581008702348007820F040004030204908707E
S3150800582004E0601CC4B2082CFFF6C6AE00BF10B078
S31508005830BDE8F08150434051525371486A14002024
S31508005840A9010020A0010020740100207601002093
S31508005850780100207A0100207C01002080010020C8
S315080058608201002054010020000C014096140020FB
S3150800587058010020A1010020CD010020BB01002015
S31508005880BF010020C1010020CA010020E601002056
S31508005890E8010020EA010020561400202D0000200F
S315080058A05C0100202DE9F04F8BB082468B461546E9
S315080058B00027B946B846002404E0002001A9085587
S315080058C0601CC4B2282CF8DBAA208DF80400E81C5A
S315080058D0C2B259460DF10500FFF76AFB9DF80500AF
S315080058E00021FFF727FA07469DF80700072190FBD6
S315080058F0F1F000F0FF089DF8070090FBF1F201FBBC
S31508005900120018B108F1010000F0FF0800241AE09F
S31508005910002614E06019001D01A90A5CC4EBC40046
S31508005920001D3044085C00F08000711C08411044DA
S31508005930C1B26019001D01AA1154701CC6B2072E07
S31508005940E8DB601CC4B24445E2DB9DF8070040442E
S31508005950C0B28DF8070000240EE001A9601C085C9F
S3150800596000F07F0101AA601C115401A9085C484493
S3150800597000F0FF09601CC4B2F81EA042EDDC09F075
S315080059807F01B81E01AA1154BB21781E11543B464B
S315080059900021504603F030FE0BB0BDE8F08F000042
S315080059A0F0B5BDB00746542128A8FCF716FF6C22AF
S315080059B0FC490DA8FCF7DFFEFBA2D2E900109268AD
S315080059C0CDE90B020A91FBA103C9CDE9080114220E
S315080059D0FAA103A8FCF7CFFEFDA207CA8DE80700C7
S315080059E0FE48407810F0010F1FD0FC48407820F0A0
S315080059F00100FA494870FA48007800F00F018DF85E
S31508005A009510002606E0F749F01C0A5C25A8F11C4B
S31508005A104254761C9DF89600B042F4DC9DF8962018
S31508005A2025A93846FFF73EFF00BF002422E0601C88
S31508005A30C0B28DF8350004EB4400EB4901EB800059
S31508005A40C088000A8DF8370004EB440001EB80009B
S31508005A5080798DF8380004EB440001EB8000807AE9
S31508005A608DF839009DF836200DA93846FFF71AFF3C
S31508005A70601CC4B2DD4800788442D8DB002429E0E3
S31508005A80601CC1B20DA8417304F1130000EB40007D
S31508005A90D54901EB8000C088010A0DA8C17304F13D
S31508005AA0130000EB4000D04901EB800081790DA876
S31508005AB0017404F1130000EB4000CB4901EB8000B0
S31508005AC0817A0DA84174827B10A93846FFF7EAFE51
S31508005AD0601CC4B2C64800788442D1DB02210DA8F6
S31508005AE04176002506E0C348425DE81C13A90A541E
S31508005AF0681CC5B2082DF6DBBF4801788DF857102B
S31508005B000DA8827E13A93846FFF7CCFE03210DA8FF
S31508005B104176002506E0B948425DE81C13A90A54F7
S31508005B20681CC5B2082DF6DBB54801788DF8571004
S31508005B300DA8827E13A93846FFF7B4FE002429E093
S31508005B40601CC1B28DF85910113000EB4000A6490F
S31508005B5001EB8000C088010A8DF85B1004F1120081
S31508005B6000EB4000A04901EB800081798DF85C10BC
S31508005B7004F1120000EB40009B4901EB8000817A9A
S31508005B808DF85D109DF85A2016A93846FFF78AFE4B
S31508005B90601CC4B29B4800788442D1DB002429E00B
S31508005BA0601CC1B28DF865100E3000EB40008E49BE
S31508005BB001EB8000C088010A8DF8671004F10F0018
S31508005BC000EB4000884901EB800081798DF8681068
S31508005BD004F10F0000EB4000834901EB8000817A55
S31508005BE08DF869109DF8662019A93846FFF75AFE00
S31508005BF0601CC4B2844800788442D1DB002429E0C2
S31508005C00601CC1B28DF871100F3000EB4000764968
S31508005C1001EB8000C088010A8DF8731004F11000AA
S31508005C2000EB4000704901EB800081798DF8741013
S31508005C3004F1100000EB40006B4901EB8000817A0B
S31508005C408DF875109DF872201CA93846FFF72AFEB4
S31508005C50601CC4B26D4800788442D1DB00243AE067
S31508005C60601CC1B28DF87D10A01D00EB40005E4996
S31508005C7001EB8000C088010A8DF87F10A01D00EB9B
S31508005C804000594901EB800081798DF88010A01DEC
S31508005C9000EB4000544901EB80000089010A8DF8A9
S31508005CA08110A01D00EB40004F4901EB8000017AEE
S31508005CB08DF88210A01D00EB40004B4901EB8000D7
S31508005CC0817A8DF883109DF87E201FA93846FFF744
S31508005CD0E9FD601CC4B24E4800788442C0DB00244B
S31508005CE029E0601CC1B28DF88910083000EB40002D
S31508005CF03D4901EB8000C088010A8DF88B1004F13C
S31508005D00090000EB4000384901EB800081798DF8E5
S31508005D108C1004F1090000EB4000334901EB8000C8
S31508005D20817A8DF88D109DF88A2022A93846FFF7CA
S31508005D30B9FD601CC4B2374800788442D1DB3648C6
S31508005D400078C0F3001000282BD02948007827498E
S31508005D50097800EB0110C0B28DF82B0029480078AD
S31508005D602E49097800EB0110C0B28DF82C0027489F
S31508005D7000782549097800EB0110C0B28DF82D008E
S31508005D80244800782249097800EB0110C0B28DF842
S31508005D902E00234800782349097800EB0110C0B289
S31508005DA042E078E0A84C0108200108020001000042
S31508005DB000000000210102030000000022010C037C
S31508005DC00055000000000000000000000000000070
S31508005DD07001080000000000000000005C010020BF
S31508005DE02D00002042140020320000206801002007
S31508005DF069010020B3010020D5010020AB01002075
S31508005E00D60100206B0100206C0100206D010020E6
S31508005E106E0100206F010020540100206A01002055
S31508005E2071010020700100208DF82F006648007867
S31508005E300007000E8DF8300064484078C0F38000F3
S31508005E4030B19DF83000401CC0B28DF8300005E036
S31508005E509DF8300000F0F0008DF8300000208DF835
S31508005E6031008DF832009DF82A200AA93846FFF736
S31508005E7019FD57480078401C5549087008460078AF
S31508005E80052808DB5348007820F0100051490870AF
S31508005E9000204F4908704F48C078C0F3400058B1F9
S31508005EA04C48C07820F002004A49C8704A488278AF
S31508005EB001463846FFF7F6FC4648C078C0F380002E
S31508005EC058B14448C07820F004004249C870434895
S31508005ED0827801463846FFF7E5FC03208DF8230053
S31508005EE04FF400713E48FEF750FB012800D100E050
S31508005EF000BF4FF480713A48FEF747FB012800D1EE
S31508005F0000E000BF9DF8222008A93846FFF7CAFC22
S31508005F10344800788DF80F00334800788DF8100063
S31508005F20324800788DF81100314800788DF8120053
S31508005F30304800788DF813002F4800788DF8140043
S31508005F402E4800788DF815002D4800788DF8160033
S31508005F502C48008800128DF817002A4800788DF81A
S31508005F6018002948008800128DF81900264800787C
S31508005F708DF81A009DF80E2003A93846FFF792FC03
S31508005F801448C078C0F30010E0B120480078401CDF
S31508005F901E49087008460078022807DB00200870AA
S31508005FA00C48C07820F010000A49C8704F208DF8B8
S31508005FB0030056208DF804009DF8022069463846ED
S31508005FC0FFF770FC3DB0F0BD720100205C010020B7
S31508005FD0CD01002054010020FB010020040200200E
S31508005FE0000C0140D7010020D8010020D90100206B
S31508005FF0DA010020DB010020DC010020DD010020A1
S31508006000DE010020E0010020E2010020CE01002090
S3150800601021B1028842F04002028004E002884FF66D
S31508006020BF731A400280704710B50022028802F436
S3150800603041520B884C8823438C882343CC882343BE
S315080060400C8923434C8923438C892343CC892343D6
S315080060501A430280838B4FF2FF74234083830B8A93
S31508006060038210BD024600BF108910F0020FFBD054
S31508006070918100BF108910F0010FFBD09089C0B242
S31508006080704770472DE9FF5F814692460E9D402D69
S3150800609002D12E4C082621E0302D02D12C4C0426A4
S315080060A01CE01B2D02D12B4C032617E01A2D02D11A
S315080060B0294C092612E0182D02D1284C03260DE09A
S315080060C0102D02D1264C052608E0162D02D1254CA6
S315080060D0022603E00D2D01D1234C02260AFB06F009
S315080060E000FB054400272CE0019A3A4491B21FFAB6
S315080060F089F0FEF74DFDFEF7BDFD4FF0000B1CE0E5
S315080061004FF0000811E02078012101FA08F1084251
S3150800611003D00398FEF756FD03E04FF6FF70FEF72F
S3150800612051FD08F1010000F0FF08B8F1080FEADB9D
S31508006130641C0BF1010000F0FF0BB345E0DB781C93
S31508006140C7B2AF42D0DBBDE8FF9F0000E9EC00080C
S315080061508BE300086EDF000808D9000824CE000883
S315080061608CD80008DCD80008CBEB00082DE9F047EE
S3150800617081460F460024002520E0781981B248465A
S31508006180FEF706FDFEF776FD4FF0000812E0012047
S3150800619000EB44000B490E5C4FF6FF7000EA06263A
S315080061A0084610F8140006433046FEF70BFD641C3B
S315080061B008F10108B8F1580FE9D36D1C582DDCD346
S315080061C0BDE8F087D40F01082DE9F04107460E46D1
S315080061D0002440F2EB6800210846FEF7D9FCFEF7DA
S315080061E049FD35E01C48005DFF280DD1002503E078
S315080061F03846FEF7E7FC6D1C1749601C085CC000B2
S31508006200A842F5D8A41C23E01348005D68B9002508
S3150800621003E03046FEF7D6FC6D1C0F49601C085C8F
S31508006220C000A842F5D8A41C12E000250DE00A48D3
S31508006230005D80212941084203D13046FEF7C2FCA1
S3150800624002E03846FEF7BEFC6D1C082DEFD3641C31
S315080062504445C7D3BDE8F081E908010838B5314897
S31508006260C0780A2190FBF1F0C4B218204CF21863EA
S315080062702246D7210090F420FFF704FF2948C0786A
S3150800628004EB8401A0EB4100C4B218204CF2186359
S315080062902246D72100904FF48070FFF7F3FE21487D
S315080062A000790A2190FBF1F0C4B218204CF2186369
S315080062B02246D72100904FF48670FFF7E3FE19486F
S315080062C0007904EB8401A0EB4100C4B218204CF21B
S315080062D018632246D72100904FF48C70FFF7D2FE40
S315080062E0104840790A2190FBF1F0C4B218204CF20C
S315080062F018632246D72100904FF49270FFF7C2FE2A
S315080063000848407904EB8401A0EB4100C4B2182088
S315080063104CF218632246D72100904FF49870FFF785
S31508006320B1FE38BDFB010020042808D14FF0E0215A
S31508006330096941F004014FF0E022116107E04FF0CE
S31508006340E021096921F004014FF0E022116170474C
S3150800635070B586B001A8FEF743FF4FF47A7102982C
S31508006360B0FBF1F42146B1F1807F00D31DE021F0A6
S315080063707F40401E4FF0E022506150170F22002840
S3150800638007DA13071E0E0B4B00F00F052D1F5E557F
S3150800639003E013071D0E084B1D5400BF00204FF0E5
S315080063A0E02290610720106100BF0420FFF7BCFFC0
S315080063B006B070BD18ED00E000E400E010B503F08B
S315080063C057FC10BD00B585B00020ADF800004FF4AD
S315080063D08270ADF802000020ADF804000220ADF886
S315080063E006000120ADF808004002ADF80A001820A2
S315080063F0ADF80C000020ADF80E000720ADF810002F
S3150800640069460448FFF710FE01210248FFF700FE1F
S3150800641005B000BD0038004038B50446012C09D146
S315080064204FF6FF70BB23CB22642100907420FEF741
S3150800643049FA1CE0022C1AD14FF6FF7099237F22E5
S315080064405A2100904020FEF73DFA4FF6FF70B6231A
S31508006450EF226E2100909620FEF734FA4FF6FF7071
S315080064609B23FD2281210090F020FEF72BFA38BDF0
S31508006470F8B506460F46002E0ADA704284B21B208B
S315080064803B460C22782100908420FFF7FBFD08E0AC
S31508006490B4B21B203B460B22782100908420FFF7DC
S315080064A0F1FDFEF7CFF842F21070844241DB94FB0F
S315080064B0F0F0C5B230203B462A466E210090962061
S315080064C0FFF7E0FD40F271206843A4EB001084B2A8
S315080064D04FF47A7094FBF0F0C5B230203B462A465A
S315080064E06E210090B620FFF7CDFD1B203B460B2200
S315080064F06E210090D620FFF7C5FD1B203B460B22D8
S3150800650081210090D620FFF7BDFD05EB4500C0EBC5
S31508006510C510A4EBC00084B2642094FBF0F0C5B2A9
S315080065201B203B462A4681210090E620FFF7AAFD5C
S31508006530CCE0B4F57A7F43DB4FF47A7094FBF0F045
S31508006540C5B230203B462A466E2100909620FFF7BA
S3150800655099FD05EB4500C0EBC510A4EBC00084B25D
S31508006560642094FBF0F0C5B230203B462A466E21E3
S315080065700090B620FFF786FD1B203B460B226E21B6
S315080065800090D620FFF77EFD1B203B460A2281217C
S315080065900090D620FFF776FD05EBC50000EB051049
S315080065A0A4EB800084B20A2094FBF0F0C5B21B204D
S315080065B03B462A4681210090E620FFF763FD85E0E9
S315080065C0642C52DB1B203B460B227821009084204A
S315080065D0FFF758FD002E10DA30203B460A226E21BE
S315080065E000909620FFF74EFD1B203B460C22782193
S315080065F000909B20FFF746FD07E030203B460A2225
S315080066006E2100909620FFF73DFD642094FBF0F084
S31508006610C5B230203B462A466E210090B620FFF7C9
S3150800662031FD1B203B460B226E210090D620FFF73A
S3150800663029FD1B203B460A2281210090D620FFF720
S3150800664021FD05EBC50000EB0510A4EB800084B224
S315080066500A2094FBF0F0C5B21B203B462A4681214E
S315080066600090E620FFF70EFD30E030203B46002282
S315080066706E2100909620FFF705FD30203B460A2242
S315080066806E210090B620FFF7FDFC1B203B460A2230
S3150800669081210090B620FFF7F5FC0A2094FBF0F064
S315080066A0C5B230203B462A466E210090C420FFF72B
S315080066B0E9FC05EB8500A4EB400084B21B20E2B29E
S315080066C03B4681210090E620FFF7DCFCF8BD000080
S315080066D00EB5FE48C078C0F3401060B14FF6FF71A2
S315080066E00020FFF771FDFFF7B9FDF848C07820F0E4
S315080066F02000F649C870F548C07810F0010F7DD023
S31508006700FDF7A0FFF2480088092808DC4FF6FF705D
S31508006710FEF7C0F80221EF48FDF742FF4EE2EC48CB
S3150800672000880C2804DA0221EA48FDF737FF45E21B
S31508006730E74800880F2808DA4FF47840FEF7AAF8E9
S315080067400221E448FDF72CFF38E2E14800881228C8
S3150800675004DA4FF4FC60FEF79DF82FE2DC48008867
S31508006760152803DA1F20FEF795F827E2D84800888F
S31508006770182803DA0020FEF78DF81FE2D4480088AF
S315080067801B2804DA4FF6FF70FEF784F816E2D048A5
S3150800679000882A2866DA4FF40071CE48FDF700FF14
S315080067A04FF48071CB48FDF7FBFE18201F2301220A
S315080067B0052100900846FFF765FC18201F230A22CA
S315080067C0052100901520FFF75DFC18201F230E22D7
S315080067D0052100902520FFF755FC18201F230F22BE
S315080067E0052100903D20FFF74DFC18201F2310229D
S315080067F0052100905520FFF745FC00E0E4E118204C
S315080068001F231122052100906D20FFF73BFC18205D
S315080068101F231222052100908520FFF733FC18203C
S315080068201F231322052100909D20FFF72BFC18201B
S315080068301F23142205210090B520FFF723FC1820FA
S315080068401F23152205210090CD20FFF71BFC1820D9
S315080068501F23162205210090E520FFF713FCFCF7FD
S31508006860F7FEABE19A480088392867DA4FF4807159
S315080068709848FDF793FE18201F2302220521009051
S315080068800846FFF7FFFB18201F230A220521009060
S315080068901520FFF7F7FB18201F230E22052100906D
S315080068A02520FFF7EFFB18201F230F220521009054
S315080068B03D20FFF7E7FB18201F2310220521009033
S315080068C05520FFF7DFFB18201F2311220521009012
S315080068D06D20FFF7D7FB18201F23122205210090F1
S315080068E08520FFF7CFFB18201F231C2205210090C7
S315080068F09D20FFF7C7FB18201F231D2205210090A6
S31508006900B520FFF7BFFB18201F23012205210090A1
S31508006910CD20FFF7B7FB18201F231622052100906C
S31508006920DD20FFF7AFFB18201F230D22052100905D
S31508006930F520FFF7A7FBFCF78BFE3FE164480088CC
S3150800694048286CDA4FF480716248FDF729FE4FF447
S3150800695000716048FDF722FE18201F230322052137
S3150800696000900846FFF78EFB18201F230A220521F0
S3150800697000901520FFF786FB18201F230E220521FD
S3150800698000902520FFF77EFB18201F230F220521E4
S3150800699000903D20FFF776FB18201F2310220521C3
S315080069A000905520FFF76EFB18201F2311220521A2
S315080069B000906D20FFF766FB18201F231222052181
S315080069C000908520FFF75EFB18201F231C22052157
S315080069D000909D20FFF756FB18201F231D22052136
S315080069E00090B520FFF74EFB18201F230222052131
S315080069F00090CD20FFF746FB18201F2316220521FD
S31508006A000090DD20FFF73EFB18201F230D220521ED
S31508006A100090F520FFF736FBFCF71AFECEE02C486F
S31508006A200088572876DA4FF400712A48FDF7B8FD32
S31508006A304FF400412848FDF7B1FD18201F23042212
S31508006A40052100900846FFF71DFB18201F230A2280
S31508006A50052100901520FFF715FB18201F230E228D
S31508006A60052100902520FFF70DFB18201F230F2274
S31508006A70052100903D20FFF705FB18201F23102253
S31508006A80052100905520FFF7FDFA18201F23112233
S31508006A90052100906D20FFF7F5FA18201F23122212
S31508006AA0052100908520FFF7EDFA18201F231C22E8
S31508006AB0052100909D20FFF7E5FA18201F231D22C7
S31508006AC005210090B520FFF7DDFA07E05401002004
S31508006AD0E8010020000C01400010014018201F2387
S31508006AE0032205210090CD20FFF7CCFA18201F239A
S31508006AF0162205210090DD20FFF7C4FA18201F236F
S31508006B000D2205210090F520FFF7BCFAFCF7A0FD41
S31508006B1054E0FFE7FE4800885D283CDA4FF6FF7030
S31508006B20FDF7B8FE18201F230522114600901046CF
S31508006B30FFF7A8FA18201F230A220521009015201E
S31508006B40FFF7A0FA18201F231022052100902D20F8
S31508006B50FFF798FA18201F231122052100904520D7
S31508006B60FFF790FA18201F231E22052100905D20AA
S31508006B70FFF788FA18201F231A460521009075206A
S31508006B80FFF780FA18201F232022052100908D2068
S31508006B90FFF778FA12E00020DE490870DE48C07870
S31508006BA020F020002030DC49C8700846C07820F064
S31508006BB010001030C8700020D5490880D4480088D5
S31508006BC0401CD3490880D8E2102000231A46232106
S31508006BD00090C820FFF756FAD0480078C1170190F0
S31508006BE000EB91708010029002981E2801DD1E208D
S31508006BF00290029807282DDDC9480078B42814DDCC
S31508006C004FF4FC602F230090029ACA322721CB202A
S31508006C10FDF758FE4FF6FF702F23E8222721009034
S31508006C200298CB30FDF74EFE28E04FF6E0702F2392
S31508006C300090029ACA322721CB20FDF743FE4FF671
S31508006C40FF702F23E822272100900298CB30FDF70A
S31508006C5039FE13E04FF478402F230090029ACA3287
S31508006C602721CB20FDF72EFE4FF6FF702F23E822B3
S31508006C70272100900298CB30FDF724FEA94800781A
S31508006C80112817DBA7480078182813DCA248807853
S31508006C9020F010001030A049887008468078C0F3AC
S31508006CA0800038B10846807820F0040088700120FA
S31508006CB0FFF7B2FB9B48007818BB97488078C0F36B
S31508006CC0001020B994488078C0F3C00068B1924893
S31508006CD0807820F00800904988700846807820F06F
S31508006CE0100088700220FFF797FB64217420FFF7D5
S31508006CF03DFA8948807820F00400001D864988708E
S31508006D003AE288480078092839DCFDF79BFC824876
S31508006D10807820F0080008307F4988700846807817
S31508006D20C0F3800038B10846807820F004008870E7
S31508006D300120FFF771FB78488078C0F3001040B156
S31508006D407548807820F01000734988700220FFF794
S31508006D5063FB402000907448038807225A2140208C
S31508006D60FFF790F91B2000906E48007801906E4856
S31508006D70038872216E20019AFFF784F9FCE16948BD
S31508006D800078112833D140200090684803880022F3
S31508006D905A214020FFF776F96548007803280DDC6C
S31508006DA01B20009062480078401CC0B201905F48E2
S31508006DB003887C216E20019AFFF764F91A20009057
S31508006DC05A48038800229E21A820FFF75BF95848F5
S31508006DD0007800EB4000574901EB8000B0F9060047
S31508006DE00190524801880198FFF742FBC4E14D48DB
S31508006DF00078122822D1402000904F4803880222AA
S31508006E005A214020FFF73EF91A2000904A48038885
S31508006E1004229E21A820FFF735F94548007813304B
S31508006E2000EB4000434901EB8000B0F906000190F1
S31508006E30414801880198FFF71BFB9DE13948007816
S31508006E4013281BD1402000903C48038803225A216E
S31508006E504020FFF717F91A200090384803880522C2
S31508006E609E21A820FFF70EF93248B0F9DE000190FE
S31508006E70324801880198FFF7FBFA7DE12948007836
S31508006E8014281BD1402000902D48038806225A2139
S31508006E904020FFF7F7F81A200090294803880222B5
S31508006EA09E21A820FFF7EEF82248B0F9BA00019013
S31508006EB0234801880198FFF7DBFA5DE11948007855
S31508006EC0152860D1402000901E48038804225A21C4
S31508006ED04020FFF7D7F81A2000901A4803880322A3
S31508006EE09E21A820FFF7CEF81B20009010480078B6
S31508006EF0401CC0B20190134803887F216420019A80
S31508006F00FFF7C0F80A48007858BB0A481CE000009A
S31508006F10E8010020CE01002054010020DC010020F9
S31508006F20DE010020A9010020820100207401002052
S31508006F30A001002032000020760100207801002000
S31508006F407A0100207C010020B0F9C600C000642147
S31508006F5090FBF1F00190894801880198FFF788FABB
S31508006F600AE187480078012887D18648B0F9D20017
S31508006F70C000642190FBF1F00190804801880198D7
S31508006F80FFF776FAF8E080480078162824D14020E2
S31508006F9000907E48038801225A214020FFF772F8A4
S31508006FA07748007803280DDC1B2000907448007889
S31508006FB0401CC0B20190754803887C216E20019A56
S31508006FC0FFF760F81A2000907048038800229E2177
S31508006FD0A820FFF757F8CFE06B480078172824D188
S31508006FE0402000906A48038805225A214020FFF76E
S31508006FF049F81A2000906648038801229E21A82095
S31508007000FFF740F85E480078093000EB40005D491C
S3150800701001EB8000B0F906006421484301905C4802
S3150800702001880198FFF724FAA6E057480078212836
S3150800703027D140200090574803880D225A21402026
S31508007040FFF720F80D200090524803884C48027834
S315080070507C215B20FFF716F81A2000904D4803881C
S3150800706006229E21A820FFF70DF84B4844490978C7
S3150800707030F811000190474801880198FFF7F8F9A0
S315080070807AE041480078222818D1402000904348E9
S3150800709003880C225A214020FEF7F4FF1A2000909C
S315080070A03E48038800229E21A820FEF7EBFF3B48B6
S315080070B001883B480088FFF7DBF95DE03248007835
S315080070C0232818D1402000903648038809225A21DF
S315080070D04020FEF7D7FF1A20009032480388052281
S315080070E09E21A820FEF7CEFF2E4801882E4800884C
S315080070F0FFF7BEF940E02448007824281CD1402038
S3150800710000902A4803880A225A214020FEF7BAFF2F
S315080071100D20009025480388254802787D215320B4
S31508007120FEF7B0FF1A2000902048038805229E210A
S31508007130A820FEF7A7FF1FE01348007825281BD1D3
S31508007140402000901B4803880B225A214020FEF756
S3150800715099FF0D2000901748038817480278752173
S315080071605A20FEF78FFF1A2000901248038805223E
S315080071709E21A820FEF786FF00BF0EBD7C010020D9
S31508007180A001002032000020A9010020740100207F
S315080071908001002086010020900100208401002043
S315080071A08E01002088010020980100208A01002015
S315080071B09A0100208C0100209B0100202DE9F8434C
S315080071C004468846174699463D46642D40DB6420AA
S315080071D095FBF0F0C6B218204B4632464146009061
S315080071E02046FEF74FFF06EBC60000EB0610A5EBA0
S315080071F08000C5B20A2095FBF0F0C6B218204B46AF
S3150800720032464146009004F11000FEF73BFF182075
S315080072104B460A224146009004F12000FEF732FF51
S3150800722006EB8600A5EB4000C5B218204B462A4659
S315080072304146009004F13000FEF724FF18204B4623
S315080072400B224146009004F14000FEF71BFF63E065
S315080072500A2D35DB0A2095FBF0F0C6B218204B46FE
S315080072603246414600902046FEF70CFF18204B4652
S315080072700A224146009004F11000FEF703FF06EBD0
S315080072808600A5EB4000C5B218204B462A46414663
S31508007290009004F12000FEF7F5FE18204B460D225B
S315080072A04146009004F13000FEF7ECFE18204B46EC
S315080072B00B224146009004F14000FEF7E3FE2BE066
S315080072C018204B460022414600902046FEF7DAFE7B
S315080072D018204B460A224146009004F11000FEF79A
S315080072E0D1FE18204B462A464146009004F120005C
S315080072F0FEF7C8FE18204B460D224146009004F1C1
S315080073003000FEF7BFFE18204B460B224146009080
S3150800731004F14000FEF7B6FEBDE8F88310B5044652
S31508007320AA480088401CA949088008460088B0F584
S31508007330967F08DBA64803F083FDA54803F0F9FC11
S315080073400020A2490880A3480088401CA14908805B
S3150800735008460088962808DB9F4803F071FD9E487A
S3150800736003F0E7FC00209B4908809C48007820F041
S3150800737010001030994908709948C07810F0010F2C
S3150800738004D098480078401C9649087093480078BD
S31508007390C0F38000C0B194480088401C9249088018
S315080073A008460088B0F5617F0ED38C48007820F037
S315080073B008000830894908700846007820F004005B
S315080073C0087000208849088084480078C0F3C00007
S315080073D088B186480078401C8449087008460078B9
S315080073E0052808D37D48007820F008007B490870F6
S315080073F000207E4908707E480078401C7C49087049
S3150800740008460078022808D3002008707448807857
S3150800741020F0400040307249887070480078C0F308
S31508007420400088B173480078401C724908700846C5
S31508007430007805280BD3002008706848007820F0EB
S3150800744002006649087002E000206A4908706A4826
S315080074500078401C6849087008460078042809D353
S315080074605F48407820F00400001D5D494870002000
S315080074706149087061480078401C6049087058489E
S31508007480C07810F0010F13D00846007880B354482E
S31508007490C07820F0080008305149C87008460078BE
S315080074A020F00800083008700020544908701FE0D2
S315080074B052480078022809D34948C07820F00800C5
S315080074C008304749C87000204C4908704C48008865
S315080074D0401C4B49088008460088142808D9002013
S315080074E008803F48007820F0080008303C490870BA
S315080074F044480078401C434908700846007848B15B
S315080075003748807820F00200801C354988700020B2
S315080075103C4908703C480078401C3B4908700846BE
S315080075200078042809D32E48407820F0080008304F
S315080075302B4948700020344908702948C07810F053
S31508007540010F1BD031480078401C304908700846A6
S315080075500078082812D3002008702148C07820F047
S3150800756001001F49C8700846C07820F02000203066
S31508007570C8700846C07820F04000C87024480078D3
S31508007580401C2349087008460078782809DB2148FA
S31508007590407820F0100010301E49487000201C4921
S315080075A008701D480078401C1B490870084600787A
S315080075B0052809D30948007820F08000803007495B
S315080075C0087000201449087010BD00009C010020B6
S315080075D0B00F00209E010020501000205C01002002
S315080075E054010020E6010020D2010020D401002029
S315080075F0C7010020C6010020C5010020CC010020DB
S31508007600D0010020C3010020C8010020CA010020C3
S31508007610F8010020580100202E000020134909789F
S31508007620491C124A1170114609780A2909D31049CA
S31508007630097821F00401091D0D4A117000210B4A31
S3150800764011700C490978491C0A4A117011460978C3
S31508007650142909D30849497821F00201891C064AE8
S3150800766051700021034A117070470000C9010020BB
S3150800767054010020300000205C01002003494978AD
S3150800768021F020012031014A517070475401002031
S3150800769010B5154C02F0F4FA40F22551206800F0B6
S315080076A0B6F850B12068808810490870FDF76EFB5F
S315080076B040F22551206800F064F840F226612068FF
S315080076C000F0A5F820B140F22661206800F059F8CC
S315080076D00821206800F08EF8012802D1044803F03A
S315080076E0BFFE02F0E5FA10BD1C0000206201002072
S315080076F07013002010B51A4C02F0C2FA40F2255158
S31508007700206800F084F8A0B116484078C0F3C0009D
S3150800771030B12068808814490870FDF777FE03E0C9
S315080077200121124802F0A2F940F22551206800F022
S3150800773028F840F22661206800F069F820B140F286
S315080077402661206800F01DF80821206800F052F82C
S31508007750012802D1054803F083FE02F0A9FA10BDFC
S31508007760240000205C01002060010020D4130020C2
S3150800777001F40072B2F5007F00D100BFCA4302804F
S31508007780704710B500220023A1F510646A3C00D1A9
S3150800779000BF0A1201249440A3B2DC43048010BD42
S315080077A021B1828942F40052828104E082894DF631
S315080077B0FF731A40828170471FB5044600210C48A2
S315080077C0FFF7EEFF00940020ADF80400ADF80600C0
S315080077D0ADF80800ADF80C000C20ADF80A006946B3
S315080077E0034800F063F801210148FFF7D9FF1FBDE0
S315080077F00048004002460020B1F5007F00D100BFD6
S3150800780013880B4201D0012000E00020704770B5B4
S3150800781002460024002300250020A1F510666A3ED2
S3150800782000D100BFC1F3421501F01F03012606FA75
S3150800783003F3012D02D19689334006E0022D02D1C9
S31508007840168A334001E0968A33400C12012606FA5E
S3150800785004F41688344013B10CB1012000E000206E
S3150800786070BDF0B503460024002600250020A1F5CA
S3150800787010676A3F00D100BF1846C1F3421401F0F1
S315080078801F06012707FA06F5012C01D10C3004E082
S31508007890022C01D1103000E014301AB107682F43CA
S315080078A0076002E00768AF430760F0BD2DE9F047BF
S315080078B086B005460E460024A24600BFA14600270C
S315080078C0B08900B100BF2F462C8A4CF6FF700440E1
S315080078D0F08804432C82AC894EF6F3100440B08835
S315080078E031890843718908430443AC81AC8A4FF651
S315080078F0FF400440B0890443AC8201A8FDF770FC40
S315080079001F48874202D1DDF810A001E0DDF80CA07F
