S3150800240068310020B5260008FF4F00086F2600082F
S31508002410FB4F0008992B0008E3790008000000002C
S31508002420000000000000000000000000BB6000087B
S315080024305D3B000800000000F7250008F56300086A
S31508002440CB260008CB260008CB260008CB2600089A
S31508002450CB260008CB260008CB260008CB2600088A
S31508002460CB260008CB260008CB260008CB2600087A
S31508002470CB260008CB260008CB260008CB2600086A
S31508002480CB260008CB260008CB260008CB2600085A
S31508002490CB260008CB260008CB260008CB2600084A
S315080024A0CB260008CB260008CB260008CB2600083A
S315080024B0CB260008CB260008CB260008CB2600082A
S315080024C0CB260008CB260008CB260008CB2600081A
S315080024D0CB260008C5760008CB2600082977000811
S315080024E0CB260008CB260008CB26000800F002F809
S315080024F000F05AF80AA090E8000C82448344AAF136
S315080025000107DA4501D100F04FF8AFF2090EBAE833
S315080025100F0013F0010F18BFFB1A43F00103184709
S31508002520742B0100942B01000A444FF0000C10F89C
S31508002530013B13F0070408BF10F8014B1D1108BF33
S3150800254010F8015B641E05D010F8016B641E01F8D3
S31508002550016BF9D113F0080F1EBF10F8014BAD1C23
S315080025600C1B09D16D1E58BF01F801CBFAD505E041
S3150800257014F8016B01F8016B6D1EF9D59142D6D39B
S31508002580704700000023002400250026103A28BFC3
S3150800259078C1FBD8520728BF30C148BF0B607047C7
S315080025A01FB51FBD10B510BD00F041F91146FFF764
S315080025B0F7FF06F08BFB00F05FF903B4FFF7F2FFB5
S315080025C003BC00F063F90000EFF3108072B67047A1
S315080025D080F310887047314A1368012B04D04FF0F6
S315080025E0010313602E4A10602E4A11602E484FF0E0
S315080025F0805101607047EFF3108272B62748016870
S3150800260091B14FF0000101602548016829B1EFF347
S31508002610098121E9F00F0068016022490968096803
S31508002620B1E8F00F81F3098882F310884EF0040EA2
S3150800263070471C4908601A494FF00000086017499E
S315080026404FF00100086019484FF47F01D0F80020C8
S3150800265041EA0201016014484FF0805101601448B4
S315080026600068006880F3088862B6704700BF1EF0ED
S31508002670040F14BFEFF30880EFF3098020E9F00F89
S3150800268040F804ED80F3088880F3098800B507F060
S31508002690F5F95DF804EB4EF0040E704718000020BB
S315080026A0100000201400002004ED00E020ED00E0FA
S315080026B008ED00E008480047FEE7FEE7FEE7FEE70C
S315080026C0FEE7FEE7FEE7FEE7FEE7FEE70348044906
S315080026D0044A054B70470000ED240008682B0020CB
S315080026E068310020682D0020682D0020032A40F25A
S315080026F0308010F0030C00F0158011F8013BBCF196
S31508002700020F624498BF11F801CB00F8013B38BFAD
S3150800271011F8013BA2F1040298BF00F801CB38BFBB
S3150800272000F8013B11F0030300F02580083AC0F0D9
S31508002730088051F8043B083A51F804CBA0E8081081
S31508002740F5E7121D5CBF51F8043B40F8043BAFF3B4
S315080027500080D20724BF11F8013B11F801CB48BF0E
S3150800276011F8012B24BF00F8013B00F801CB48BF44
S3150800277000F8012B704710B5203AC0F00B80B1E87D
S315080027801850203AA0E81850B1E81850A0E8185098
S31508002790BFF4F5AF5FEA027C24BFB1E81850A0E8A1
S315080027A0185044BF18C918C0BDE810405FEA827CBB
S315080027B024BF51F8043B40F8043B08BF7047D207D2
S315080027C028BF31F8023B48BF11F8012B28BF20F873
S315080027D0023B48BF00F8012B70474FF0000200B5D6
S315080027E0134694469646203922BFA0E80C50A0E826
S315080027F00C50B1F12001BFF4F7AF090728BFA0E8D4
S315080028000C5048BF0CC05DF804EB890028BF40F89F
S31508002810042B08BF704748BF20F8022B11F0804FE1
S3150800282018BF00F8012B7047704770477047754608
S3150800283000F028F8AE4605006946534620F0070022
S31508002840854618B020B5FFF741FFBDE820404FF098
S3150800285000064FF000074FF000084FF0000B21F07C
S315080028600701AC46ACE8C009ACE8C009ACE8C00949
S31508002870ACE8C0098D4670470446AFF30080204691
S31508002880FFF79BFE00487047042B002001491820DB
S31508002890ABBEFEE7260002007047CA4302607047D7
S315080028A021B1826842F00102826003E0826822F068
S315080028B0010282607047000010B50446124884423F
S315080028C008D10121401502F055FC0021601502F0DF
S315080028D051FC17E00D48844208D10121001502F089
S315080028E049FC0021201502F045FC0BE0084884420B
S315080028F008D10121C80302F03DFC00214FF4004035
S3150800290002F038FC10BD00000024014000280140F8
S31508002910003C0140014600208A6812F0040F01D0ED
S31508002920012000E0002070470146C86C80B270475D
S315080029300246002013680B4201D0012000E0002067
S315080029407047014600208A6812F0080F01D001205E
S3150800295000E000207047000030B502460020002342
S3150800296050680F4C20400D790C6844EA0524204332
S31508002970506090680B4C2040D1E902542C434D79A5
S3150800298044EA450420439060D06A20F470000C7C29
S31508002990641EE4B2234340EA0350D06230BD00000F
S315080029A0FFFEF0FFFDF7F1FFF0B504460D460020E7
S315080029B00021092D11DDE068A5F10A0606EB460798
S315080029C0072606FA07F18843A5F10A0606EB460626
S315080029D003FA06F10843E0600CE0206905EB4507B9
S315080029E0072606FA07F1884305EB450603FA06F1BA
S315080029F008432061072A0FDA606B561E06EB860726
S31508002A001F2606FA07F18843561E06EB860605FAC0
S31508002A1006F10843606322E00D2A0FDA206BD61F01
S31508002A2006EB86071F2606FA07F18843D61F06EB2C
S31508002A30860605FA06F10843206310E0E06AA2F16B
S31508002A400D0606EB86071F2606FA07F18843A2F14C
S31508002A500D0606EB860605FA06F10843E062F0BDA8
S31508002A60816841F008018160704721B1826842F4AB
S31508002A70A002826003E0826822F4A00282607047A6
S31508002A80816841F0040181607047000010B5044672
S31508002A90082C6DD2DFE804F004111E2B3845525F6E
S31508002AA01021354801F08EFD2021334801F08AFDBA
S31508002AB04021314801F088FD5BE010212E4801F0E5
S31508002AC083FD20212C4801F07FFD40212A4801F092
S31508002AD079FD4EE01021284801F076FD2021264890
S31508002AE001F072FD4021244801F06EFD41E01021FD
S31508002AF0214801F067FD20211F4801F065FD4021AE
S31508002B001D4801F061FD34E010211B4801F05AFD13
S31508002B102021194801F058FD4021174801F052FDBF
S31508002B2027E01021144801F04DFD2021124801F03C
S31508002B3049FD4021104801F045FD1AE010210E48D4
S31508002B4001F042FD20210C4801F03CFD40210A48D5
S31508002B5001F038FD0DE01021074801F035FD202170
S31508002B60054801F02FFD4021034801F02DFD00E046
S31508002B7000BF00BF10BD00000008014010B502F0FC
S31508002B8009FB02F03DFA03F0FFFB01F045FB03F0F9
S31508002B9035FC01F051FD10BD00BFFEE700B587B05A
S31508002BA01F4800F05BF804A800F084FA00208DF8AE
S31508002BB0160001208DF817008DF8180000208DF8F2
S31508002BC019008DF81A008DF81B008DF812008DF883
S31508002BD0130002208DF8140004208DF8150010202B
S31508002BE0ADF8100004A90E4800F014F900208DF87D
S31508002BF00A008DF80B008DF80C00ADF80000ADF852
S31508002C000200ADF80400ADF80600ADF80800012092
S31508002C108DF80D00684600F03DF807B000BD0000CD
S31508002C200064004000220C4B994202D100238361C4
S31508002C3011E0C1F3130211F0007F01D0C2600AE06F
S31508002C4011F0806F01D0026105E011F0006F01D02C
S31508002C50826000E0426070477000F03010B50446AC
S31508002C600B48844209D10121480602F063FA002183
S31508002C704FF0007002F05EFA08E00121880602F0C3
S31508002C8059FA00214FF0806002F054FA10BD000096
S31508002C900064004010B50021837A012202FA03F18C
S31508002CA03D4A126842F001023B4B1A603A4A1C320E
S31508002CB012688A43384B1C331A60027BCAB9364AF3
S31508002CC00C3212688A43344B0C331A604288C38824
S31508002CD042EA0343304A4032847A42F83430028862
S31508002CE0838842EA03432C4A4032847A02EBC402C0
S31508002CF05360027B012A19D1274A0C3212680A430B
S31508002D00254B0C331A604288038842EA0343224A59
S31508002D104032847A42F83430C288838842EA0343D0
S31508002D201D4A4032847A02EBC4025360C27A3AB929
S31508002D30194A121D12688A43174B1B1D1A6006E0B2
S31508002D40154A121D12680A43134B1B1D1A60028985
S31508002D5032B9114A143212688A430F4B14331A6077
S31508002D600289012A06D10C4A143212680A430A4B10
S31508002D7014331A60427B012A06D1074A1C321268AC
S31508002D800A43054B1C331A60034A126822F00102F3
S31508002D90014B1A6010BD00000066004010B50246DF
S31508002DA0002011F4700F08D09369C1F3130423426D
S31508002DB001D001202DE000202BE011F0807F08D003
S31508002DC05368C1F31304234201D0012021E00020F7
S31508002DD01FE011F0006F08D09368C1F31304234273
S31508002DE001D0012015E0002013E011F0007F08D083
S31508002DF0D368C1F31304234201D0012009E000205F
S31508002E0007E01369C1F31304234201D0012000E04F
S31508002E10002010BD30B5024600200023146824F0B7
S31508002E2002041460146844F00104146000E05B1C9A
S31508002E30546814F0010F03D1A3F57F44FF3CF6D183
S31508002E40546814F0010F01D100206CE08C79012C34
S31508002E5004D1146844F08004146003E0146824F074
S31508002E6080041460CC79012C04D1146844F0400421
S31508002E70146003E0146824F0400414600C7A012CF2
S31508002E8004D1146844F02004146003E0146824F0A4
S31508002E90200414604C7A012C04D1146844F0100400
S31508002EA0146003E0146824F0100414608C7A012C72
S31508002EB004D1146844F00804146003E0146824F08C
S31508002EC008041460CC7A012C04D1146844F0040474
S31508002ED0146003E0146824F0040414608C78A407D2
S31508002EE0CD7844EA05640D7944EA05444D7944EA07
S31508002EF005540D886D1E2C43D461146824F0010412
S31508002F001460002300E05B1C546814F0010F03D022
S31508002F10A3F57F44FF3CF6D1546814F0010F01D0A5
S31508002F20002000E0012030BD0246002019B9D36810
S31508002F3003F0030006E0012903D1136903F0030037
S31508002F4000E00020704700002DE9F04385B00546F3
S31508002F50884691461E463746BF014F4417491848CA
S31508002F60FFF71CFF38B915491548FFF75BFE202007
S31508002F7005B0BDE8F0836A460021114800F022F842
S31508002F809DF80A00A84201D00420F1E70098B8424B
S31508002F900BD1002406E00DF10B00005D08F80400D3
S31508002FA0601CC4B2AC42F6DB01E00120E0E79DF804
S31508002FB0080008B10220DBE70820D9E7080000323C
S31508002FC00064004010B500F5D87303EB01131B68C5
S31508002FD003F004031372137A53B900F5D87303EB9D
S31508002FE001131B6840F2FF7404EA5353136009E0A7
S31508002FF000F5D87303EB01131B686FF0604404EA0D
S31508003000D303536000F5D87303EB01131B6803F071
S315080030100203537200F5D87303EB01135B6803F0E0
S315080030200F03937200F5D87303EB01135B681B0A51
S31508003030D37400F5D87303EB01139B68D37200F5BC
S31508003040D87303EB01139B681C0A147300F5D87335
S3150800305003EB01139B681C0C547300F5D87303EB40
S3150800306001139B681B0E937300F5D87303EB0113CA
S31508003070DB68D37300F5D87303EB0113DB681C0A0E
S31508003080147400F5D87303EB0113DB681C0C547435
S3150800309000F5D87303EB0113DB681B0E937421B993
S315080030A0C36843F02003C36003E0036943F02003C9
S315080030B0036110BD00218171C17101724172817273
S315080030C0C1728170C1700321017102214171012110
S315080030D00180704710B502460020936803F08063AC
S315080030E0B3F1806F00D110E0936803F00063B3F189
S315080030F0006F01D1012008E0936803F08053B3F113
S31508003100805F01D1022000E00420042874D002F573
S31508003110C07303EB00131B6803F0010402F5C073C8
S3150800312003EB00131C600B7A7BB94B7A0C8843EAD5
S31508003130445302F5C07404EB00142468234302F5D3
S31508003140C07404EB0014236010E00B7A4C6843EA61
S31508003150C4034C7A234302F5C07404EB00142468B4
S31508003160234302F5C07404EB001423608B7A03F042
S315080031700F038B7202F5C07303EB00135B6823F031
S315080031800F0402F5C07303EB00135C6002F5C0730D
S3150800319003EB00135B688C7A234302F5C07404EBD7
S315080031A0001463608B7B1C064B7B44EA03440B7B51
S315080031B044EA0323CC7A234302F5C07404EB0014D3
S315080031C0A3608B7C1C064B7C44EA03440B7C44EAD4
S315080031D00323CC7B234302F5C07404EB0014E3609D
S315080031E002F5C07303EB00131B6843F0010402F5F4
S315080031F0C07303EB00131C6010BD00002DE9F047F7
S3150800320086B006460F46904699464FF0000A0025B6
S3150800321048EA8910019000208DF80C008DF80D0001
S315080032208DF80E6000BF05E0795D0DF10F00415580
S31508003230681CC5B2B542F7DB01A90E48FFF74AFF7D
S315080032408246002400E0641C51460A4800F014F83F
S31508003250012801D0802CF6D1002400E0641C00214E
S315080032600448FFF761FE012801DA802CF6D106B082
S31508003270BDE8F0870064004010B50246002321B17E
S31508003280012907D002290FD109E090681D4C00EAF0
S3150800329004030BE090681C4C00EA040306E09068FF
S315080032A01A4C00EA040301E0002300BF00BF184CD3
S315080032B0181BA34216D007DC83B16FF0806018187C
S315080032C00ED0022818D111E0B0F5007F10D0114CAD
S315080032D0001909D0B0F5003F0ED10BE002230DE02E
S315080032E000230BE0002309E0002307E0012305E0A3
S315080032F0012303E0012301E0002300BF00BFD8B289
S3150800330010BD0000030000040003000800000310BD
S31508003310000100080001FFF701460022744B1A70ED
S3150800332000200EE000EB4002724B03EB8202D27AD9
S31508003330012A04D16E4A1278521C6D4B1A70421C2F
S31508003340D0B21828EEDB01297ED100226A4B1A700A
S3150800335001200FE0421E02EB4202664B03EB82029B
S31508003360D27A012A04D1644A1278521C624B1A7026
S31508003370421CD0B20328EDDB0022604B1A700420F1
S315080033800FE0421E02EB42025A4B03EB8202D27A4C
S31508003390012A04D1594A1278521C584B1A70421CF9
S315080033A0D0B20628EDDB0022554B1A7007200FE035
S315080033B0421E02EB42024F4B03EB8202D27A012AEB
S315080033C004D14F4A1278521C4D4B1A70421CD0B287
S315080033D00928EDDB00224B4B1A700A200FE0421E2B
S315080033E002EB4202434B03EB8202D27A012A04D152
S315080033F0444A1278521C434B1A70421CD0B20B280E
S31508003400EDDB0022404B1A700C200FE0421E02EB47
S315080034104202384B03EB8202D27A012A04D13A4A95
S315080034201278521C384B1A70421CD0B20F28EDDBAA
S315080034300022364B1A702F4A92F8BF20012A05D16E
S315080034401A461278521C00E051E01A700022304BDE
S315080034501A7011200FE0421E02EB4202254B03EBC5
S315080034608202D27A012A04D1294A1278521C284BA0
S315080034701A70421CD0B21228EDDB0022254B1A70B6
S315080034801C4A92F8E320012A03D11A461278521CE4
S315080034901A700022204B1A7014200FE0421E02EB0D
S315080034A04202144B03EB8202D27A012A04D11A4A49
S315080034B01278521C184B1A70421CD0B21628EDDB33
S315080034C00022164B1A7017200FE0421E02EB42022A
S315080034D0084B03EB8202D27A012A04D10F4A1278EA
S315080034E0521C0E4B1A70421CD0B21828EDDB7047DE
S315080034F0FA01002032000020680100207201002035
S315080035006E0100206F010020700100206C01002070
S315080035106D0100206B010020690100207101002067
S315080035204249C97811F0010F68D041490978042940
S3150800353003DA20213F4A116077E03D4909780829D6
S3150800354004DA4FF400513B4A11606EE038490978B5
S315080035500C2904DA4FF40011364A116065E0344943
S315080035600978102904DA42F22001324A11605CE037
S315080035702F490978142903DA2F492E4A116054E095
S315080035802B490978182903DA00212A4A11604CE0E8
S31508003590274909781C2903DA4021264A116044E0A4
S315080035A023490978202904DA4FF48041214A116019
S315080035B03BE01F490978242904DA4FF480011D4AA3
S315080035C0116032E01A490978282903DA1B49194A91
S315080035D011602AE0164909782C2903DA1849154A90
S315080035E0116022E012490978342903DA1549114A8B
S315080035F011601AE000210F4A116016E018B900217F
S315080036000C4A116011E0012803D10F49094A1160DB
S315080036100BE00E49897809040C4A527801EB02211D
S315080036200A4A12781144034A11607047540100206F
S31508003630E6010020F4010020202020004040400040
S31508003640606060001010100030303000BB010020B0
S3150800365038B5FE480078052802DA4FF4FC6400E025
S315080036601F241820234603221E210090252002F03D
S3150800367025FD182023460A221E210090352002F037
S315080036801DFD1820234603221E210090452002F026
S3150800369015FD182023460B221E210090552002F006
S315080036A00DFD182023460E221E210090652002F0EB
S315080036B005FD182023460F221E2100907D2002F0CA
S315080036C0FDFC1820234610221E210090952002F0AA
S315080036D0F5FC1820234619221E210090AD2002F081
S315080036E0EDFC182023461A221E210090C52002F060
S315080036F0E5FC2346D54802781E21E32003F07AFD2F
S31508003700D3480078082802DA4FF4FC6400E01F2446
S3150800371018202346052237210090252002F0CEFCEA
S31508003720182023460B2237210090352002F0C6FCCC
S31508003730182023460E2237210090452002F0BEFCB1
S31508003740182023460F22372100905D2002F0B6FC90
S3150800375018202346102237210090752002F0AEFC6F
S31508003760182023461922372100908D2002F0A6FC46
S31508003770182023461A2237210090A52002F09EFC25
S315080037802346B34802783721E32003F033FDB148D6
S315080037900078142802DA4FF4FC6400E01F2418208D
S315080037A02346052250210090252002F087FC182088
S315080037B023460C2250210090352002F07FFC182069
S315080037C023460B2250210090452002F077FC182052
S315080037D023460E2250210090552002F06FFC182037
S315080037E023460F22502100906D2002F067FC182016
S315080037F02346102250210090852002F05FFC1820F5
S3150800380023461922502100909D2002F057FC1820CB
S3150800381023461A2250210090B52002F04FFC234679
S315080038208C4802785021E32003F0E4FC8A480078AB
S315080038300A2802DA4FF4FC6400E01F241820234605
S31508003840092269210090252002F038FC1820234619
S315080038500B2269210090352002F030FC18202346FF
S315080038600E2269210090452002F028FC18202346E4
S315080038700F22692100905D2002F020FC18202346C3
S31508003880102269210090752002F018FC18202346A2
S315080038901922692100908D2002F010FC1820234679
S315080038A01A2269210090A52002F008FC23466A48DE
S315080038B002786921E32003F09DFC684800780A280D
S315080038C002DA4FF4FC6400E01F2418202346012284
S315080038D082210090252002F0F1FB182023460222BF
S315080038E082210090352002F0E9FB182023460B229E
S315080038F082210090452002F0E1FB182023460E2283
S3150800390082210090552002F0D9FB182023460F2269
S31508003910822100906D2002F0D1FB18202346102248
S3150800392082210090852002F0C9FB1820234619221F
S31508003930822100909D2002F0C1FB182023461A22FE
S3150800394082210090B52002F0B9FB2346434802784D
S315080039508221E32003F04EFC414800780A2802DA67
S315080039604FF4FC6400E01F24182023460E229B21F6
S315080039700090252002F0A2FB182023461B229B213B
S3150800398000903D2002F09AFB1820234601229B2135
S315080039900090552002F092FB182023460E229B2108
S315080039A00090652002F08AFB182023460F229B21EF
S315080039B000907D2002F082FB1820234610229B21CE
S315080039C00090952002F07AFB1820234619229B21A5
S315080039D00090AD2002F072FB182023461A229B2184
S315080039E00090C52002F06AFB23461D4802789B21F9
S315080039F0E32003F0FFFB1B4800780A2802DA4FF49D
S31508003A00FC6400E01F24182023460E22B4210090EF
S31508003A10252002F053FB182023461B22B4210090D0
S31508003A203D2002F04BFB182023460222B4210090C9
S31508003A30552002F043FB182023460E22B42100909D
S31508003A40652002F03BFB182023460DE0D701002035
S31508003A50D8010020D9010020DA010020DB0100206E
S31508003A60DC010020DD0100200F22B42100907D201A
S31508003A7002F024FB182023461022B421009095203A
S31508003A8002F01CFB182023461922B4210090AD2011
S31508003A9002F014FB182023461A22B4210090C520F0
S31508003AA002F00CFB23462B480278B421E32003F0EE
S31508003AB0A1FB294800780A2802DA4FF4FC6400E0E2
S31508003AC01F24182023460222CD210090252002F02B
S31508003AD0F5FA182023460422CD210090352002F05D
S31508003AE0EDFA182023460B22CD210090452002F03E
S31508003AF0E5FA182023460E22CD210090552002F023
S31508003B00DDFA182023460F22CD2100906D2002F001
S31508003B10D5FA182023461022CD210090852002F0E0
S31508003B20CDFA182023461922CD2100909D2002F0B7
S31508003B30C5FA182023461A22CD210090B52002F096
S31508003B40BDFA234604480278CD21E32003F052FB50
S31508003B5038BD0000DD010020DE010020704700208E
S31508003B6001E0411CC8B20E28FBDB704710B5FC48C3
S31508003B70C07810F0010F74D0FA480078062804DAE5
S31508003B8040F6FF70F849088080E2F6480078082871
S31508003B9003DA0020F449088078E2F24800780A2817
S31508003BA003DA2020F049088070E2EE4800780C28F5
S31508003BB003DA1020EC49088068E2EA4800780E2803
S31508003BC003DA0820E849088060E2E6480078102809
S31508003BD003DA0420E449088058E2E248007812280B
S31508003BE003DA0220E049088050E2DE48007814280B
S31508003BF003DA0120DC49088048E2DA48007816280A
S31508003C0004DA4FF40060D84908803FE2D5480078C6
S31508003C10182804DA4FF48060D349088036E2D14880
S31508003C2000781A2804DA4FF40070CF4908802DE28C
S31508003C30CC4800781C2804DA4FF48070CA490880FA
S31508003C4024E2C84800781E2803DA8020C64908807E
S31508003C501CE2C4480078202804DA4020C2490880BB
S31508003C6014E20BE0BF480078222803DA0020BE4998
S31508003C7008800BE20020BB49087007E2BB480078C1
S31508003C8010F0030F0BD1B848008820F01000B64991
S31508003C9008800846008820F0200008802EE0B348F7
S31508003CA0007800F0030001280BD1AF48008840F0E7
S31508003CB01000AD4908800846008820F020000880DA
S31508003CC01CE0AA48007800F0030002280BD1A64899
S31508003CD0008820F01000A44908800846008840F0B3
S31508003CE0200008800AE0A048008820F010009E49BD
S31508003CF008800846008880F0200008809B480078E5
S31508003D0010F00C0F0BD19848008820F00400964953
S31508003D1008800846008820F0080008802EE09348AE
S31508003D20007800F00C0004280BD18F48008840F07A
S31508003D3004008D4908800846008820F0080008809D
S31508003D401CE08A48007800F00C0008280BD1864849
S31508003D50008820F00400844908800846008840F05E
S31508003D60080008800AE08048008820F004007E49A0
S31508003D7008800846008880F0080008807B4800789C
S31508003D8010F0300F3DD17A484078C0F3001058B192
S31508003D907548008880F00200734908800846008844
S31508003DA020F00100088061E06D484078C0090BD01A
S31508003DB06D48008820F001006B4908800846008895
S31508003DC040F00200088051E06548807810F0010F45
S31508003DD00BD06548008880F00100634908800846D2
S31508003DE0008820F00200088040E05F48008840F024
S31508003DF001005D4908800846008820F00200088016
S31508003E0034E05A48007800F0300010280BD15648A4
S31508003E10008840F00100544908800846008820F0D0
S31508003E200200088022E05148007800F0300020287F
S31508003E300BD14D48008820F001004B490880084600
S31508003E40008840F00200088010E04848007800F03A
S31508003E50300030280AD14448008820F00100424941
S31508003E6008800846008820F0020008803F4800784D
S31508003E7010F0C00F1CD13A484078C0F3800058B102
S31508003E803948008840F48060374908800846008829
S31508003E9020F40060088040E03348008820F4806001
S31508003EA0314908800846008840F40060088034E0FC
S31508003EB02E48007800F0C00040280BD12A48008818
S31508003EC040F48060284908800846008820F400608D
S31508003ED0088022E02548007800F0C00080280BD131
S31508003EE02148008820F480601F4908800846008819
S31508003EF040F40060088010E01C48007800F0C0001C
S31508003F00C0280AD11848008820F48060164908801D
S31508003F100846008820F4006008801448407810F0AD
S31508003F20030F27D10E484078C0F3C00058B10E4899
S31508003F30008840F480700C4908800846008820F400
S31508003F40007008804BE00848008820F48070064915
S31508003F5008800846008840F4007008803FE00000AA
S31508003F6054010020E6010020E4010020BF010020E2
S31508003F705C0100204948407800F0030001280BD175
S31508003F804748008840F480704549088008460088FC
S31508003F9020F40070088022E04048407800F00300D2
S31508003FA002280BD13E48008820F480703C490880DE
S31508003FB00846008840F40070088010E037484078CA
S31508003FC000F0030003280AD13548008820F48070E1
S31508003FD0334908800846008820F4007008802F4876
S31508003FE0407810F00C0F1CD12E484078C0F3001012
S31508003FF058B12B48008840F04000294908800846F7
S31508004000008820F08000088040E02548008820F0DD
S315080040104000234908800846008840F08000088050
S3150800402034E01E48407800F00C0004280BD11C48E8
S31508004030008840F040001A4908800846008820F0A9
S315080040408000088022E01548407800F00C00082817
S315080040500BD11348008820F0400011490880084613
S31508004060008840F08000088010E00C48407800F096
S315080040700C000C280AD10A48008820F0400008499C
S3150800408008800846008820F08000088004490988CE
S31508004090C1F30B0000F00AFE10BD0000BF010020AE
S315080040A0E40100205401002030B5002326E0174C17
S315080040B0216800221EE011F0010F0DD04024144D96
S315080040C02C60002001E0441CE0B20428FBDB4024FD
S315080040D00F4D2D1D2C600AE040240D4D2C602D1D22
S315080040E02C60002001E0441CE0B20428FBDB4908F0
S315080040F0541CE2B2182ADEDB5C1CE3B20C2BD6DBBE
S315080041004024034D2D1D2C6030BD0000F401002015
S31508004110100C014010B5FEF757FA0149086010BDAA
S315080041201003002010B502480068FEF751FA10BDCA
S31508004130100300200549096821F01001034A11609F
S3150800414011460968014311607047000000200240CB
S3150800415001460020034A106800F038000843106042
S315080041607047000000200240024600210BE0084884
S3150800417030F82100904204D1054800EB81004088C0
S315080041807047481CC1B20529F1DB01484088F7E7AA
S31508004190F04C01082DE9F04186B0074688461546D9
S315080041A0142101A8FEF719FB00268DF804701020CB
S315080041B08DF8050000208DF80600E81CC6B200241C
S315080041C006E018F8041001AAE01C1154601CC4B2D9
S315080041D0AC42F6DB314601A803F05AFE01A9885520
S315080041E004210C4800F0F0F9002405E001A9085D57
S315080041F003F0CAFE601CC4B2701C8442F6DB0520BC
S3150800420006F0D1FC0421034800F0DCF9012006B0D1
S31508004210BDE8F081000C014008B5684600F0D6F903
S315080042200120ADF8000000208DF8030069466F48AC
S3150800423000F0E4F8684600F0C9F910208DF803008C
S3150800424001208DF8020048F2F010ADF8000069462A
S31508004250664800F0D3F8684600F0B8F94FF40060F5
S31508004260ADF8000003208DF8020048208DF8030001
S3150800427069465E4800F0C2F8684600F0A7F94FF4B0
S315080042808050ADF8000003208DF8020018208DF844
S3150800429003006946554800F0B1F8684600F096F9FB
S315080042A010208DF8030001208DF8020041F2BF307E
S315080042B0ADF8000069464E4800F0A0F801214D48C7
S315080042C000F026F908214A4800F07EF920214848DE
S315080042D000F07AF98021464800F076F94FF48071AB
S315080042E0434800F071F94FF40071414800F06CF949
S315080042F002213F4800F066F910208DF803000320DC
S315080043008DF802004020ADF800006946384800F0F4
S3150800431075F8684600F05AF94FF46040ADF80000A9
S3150800432018208DF8030003208DF8020069463048EE
S3150800433000F064F8684600F049F914208DF8030087
S3150800434001208DF802004FF4C040ADF80000694620
S31508004350294800F053F84FF40051274800F034F983
S315080043604FF48041244800F02FF9684600F02EF9F2
S3150800437010208DF8030001208DF80200C003ADF867
S31508004380000069461C4800F039F84FF400411A4805
S3150800439000F01AF904208DF803000002ADF80000B9
S315080043A06946124800F02AF818208DF803004FF4E1
S315080043B00070ADF8000069460C4800F01FF80420AC
S315080043C08DF803004002ADF800006946084800F081
S315080043D015F818208DF803004FF48060ADF800003A
S315080043E06946034800F00AF808BD000000080140C5
S315080043F0000C014000023000001001402DE9F04198
S31508004400024600250026002000230024002791F8F4
S3150800441003C00CF00F0591F803C01CF0100F03D071
S3150800442091F802C04CEA050591F800C0BCF1000FEE
S3150800443031D0146800202BE04FF0010C0CFA00F381
S31508004440B1F800C00CEA03069E4220D183004FF063
S315080044500F0C0CFA03F7BC4305FA03FC4CEA0404F8
S3150800446091F803C0BCF1280F06D14FF0010C0CFAE5
S3150800447000FCC2F814C00AE091F803C0BCF1480F6A
S3150800448005D14FF0010C0CFA00FCC2F810C0401C14
S315080044900828D1D31460B1F800C0BCF1FF0F34DD91
S315080044A0546800202EE000F1080C4FF0010808FAC5
S315080044B00CF3B1F800C00CEA03069E4221D1830032
S315080044C04FF00F0C0CFA03F7BC4305FA03FC4CEA51
S315080044D0040491F803C0BCF1280F05D100F1080CBB
S315080044E008FA0CF8C2F8148091F803C0BCF1480F1A
S315080044F007D100F1080C4FF0010808FA0CF8C2F8C9
S315080045001080401C0828CED35460BDE8F081000016
S31508004510F0B50A46002300240021002500F00046D5
S31508004520B6F1004F02D11D4EF16901E01B4E7168CC
S31508004530C0F3034583B200F44016B6F5401F08D110
S3150800454021F07061154E766826F07066134F7E600E
S3150800455012E000F48016B6F5801F06D1032606FA87
S3150800456005F4A14341F0706106E0460D360103FAF1
S3150800457006F6B14341F0706122B1460D360103FAE1
S3150800458006F6314300F00046B6F1004F02D1034E5D
S31508004590F16101E0014E7160F0BD000000000140CC
S315080045A00246002093680B4201D0012000E000205B
S315080045B0704702460020D3680B4201D0012000E074
S315080045C00020704741617047016170474FF6FF71DF
S315080045D00180022181700421C17070472DE9F041E4
S315080045E0054600240423012229461248FEF7DCF971
S315080045F0002619E001210F48FEF737FA00BF02210D
S315080046000C48FEF795F90028F9D00A48FEF78CF908
S31508004610074602210748FEF740F900210548FEF73C
S3150800462024FA3C44701CC6B2082EE3DBE408A0B2A8
S31508004630BDE8F0810024014010B545F2555000F060
S315080046402DF8042000F01EF840F2145000F020F86F
S3150800465000F010F800F002F810BD00004CF6CC404F
S3150800466001490860704700000030004010B500F0AE
S3150800467001F810BD4AF6AA200149086070470000F3
S315080046800030004001494860704700000030004093
S315080046900149886070470000003000400149086001
S315080046A0704700000030004010B500204D490860F2
S315080046B04D490860002408E000204C4908554C493B
S315080046C008554C490855601CC4B2022CF4DB00247A
S315080046D004E0002048490855601CC4B2042CF8DBE5
S315080046E0002406E000204549085545490855601C40
S315080046F0C4B2082CF6DB002406E000204149085520
S3150800470041490855601CC4B20A2CF6DB00203F4913
S3150800471008703F4908703F4908703F4908703F498B
S3150800472008703F4908703F4908803F4908701F20B4
S315080047303E4908803E4908803E4908803E4908802F
S315080047403E4908803E4908803E49088000203E4987
S3150800475008703E4908703E4908703E4908703E494F
S3150800476008703E4908703E4908703E4908703E493F
S3150800477008703E4908703E4908803E4908803E490F
S3150800478008703E4908703E4908703E4908703E491F
S315080047900870214908703D4908803D4908703D491F
S315080047A008703D4908803D4908703D4908603D4903
S315080047B008800C48C07820F0800080300949C8700D
S315080047C00020394908700120FEF7A6FD0120374967
S315080047D0087000203649088036490880364908702E
S315080047E010BD00005401002058010020A901002036
S315080047F0BF010020C1010020BB010020AB01002041
S31508004800B30100207E14002096140020C301002066
S31508004810C9010020C5010020C6010020C8010020EA
S31508004820CC010020D2010020D40100207401002010
S3150800483076010020780100207A0100207C01002002
S315080048408001002082010020A0010020CD01002067
S31508004850D7010020D8010020D9010020DA01002064
S31508004860DB010020DC010020DD010020DE01002044
S31508004870E0010020E2010020C4010020F30100202D
S31508004880C7010020CA010020CE010020E401002053
S31508004890CB010020E6010020E8010020EA01002003
S315080048A0F4010020D0010020F90100206A0100204F
S315080048B09C0100209E010020F801002070B50646E4
S315080048C0002409480588408845430021084600F029
S315080048D073F900F0E3F900BF03E0304600F086F90B
S315080048E0641CAC42F9D370BD381400202DE9F05F82
S315080048F005460E4617469846DDF828A04FF0000BE9
S31508004900781B401C1FFA80FB344613E021462846D4
S3150800491000F052F900F0C2F94FF0000906E05046DF
S3150800492000F064F909F101001FFA80F9D945F6DBB0
S31508004930601C84B24445E9DDBDE8F09F10B54FF42C
S3150800494000419B48FFF73EFEC82003F02DFB4FF4BD
S3150800495000419748FFF738FEC82003F025FB4FF4BF
S31508004960A07094490880F02048802C2088712A205D
S31508004970C8712B200872CF2000F074F9002000F0CF
S3150800498055F9D92000F052F9302000F04FF9ED2002
S3150800499000F068F9642000F049F9032000F046F9B0
S315080049A0122000F043F9812000F040F9E82000F0D9
S315080049B059F9852000F03AF9102000F037F97820E7
S315080049C000F034F9CB2000F04DF9392000F02EF92B
S315080049D02C2000F02BF9002000F028F9342000F0F4
S315080049E025F9022000F022F9F72000F03BF92020F3
S315080049F000F01CF9EA2000F035F9002000F016F95D
S31508004A00002000F013F9C02000F02CF9212000F056
S31508004A100DF9C12000F026F9122000F007F9C5208B
S31508004A2000F020F9322000F001F93C2000F0FEF8F1
S31508004A30C72000F017F9C12000F0F8F8362000F07A
S31508004A4011F9A82000F0F2F83A2000F00BF95520E9
S31508004A5000F0ECF8B12000F005F9002000F0E6F8C7
S31508004A60182000F0E3F8B62000F0FCF80A2000F061
S31508004A70DDF8A22000F0DAF8F22000F0F3F80020C2
S31508004A8000F0D4F8262000F0EDF8012000F0CEF86A
S31508004A902B2000F0E7F8002000F0C8F8002000F00E
S31508004AA0C5F8002000F0C2F8EF2000F0BFF82A2071
S31508004AB000F0D8F8002000F0B9F8002000F0B6F8A9
S31508004AC0012000F0B3F83F2000F0B0F8E02000F035
S31508004AD0C9F80F2000F0AAF83A2000F0A7F8362007
S31508004AE000F0A4F80B2000F0A1F80D2000F09EF8C5
S31508004AF0062000F09BF84C2000F098F8912000F072
S31508004B0095F8312000F092F8082000F08FF8102070
S31508004B1000F08CF8042000F089F8112000F086F8DF
S31508004B200C2000F083F8002000F080F8E12000F067
S31508004B3099F8002000F07AF8062000F077F80A20A5
S31508004B4000F074F8052000F071F8122000F06EF8F5
S31508004B50092000F06BF82C2000F068F8922000F08D
S31508004B6065F83F2000F062F8082000F05FF80E2094
S31508004B7000F05CF80B2000F059F82E2000F056F8EB
S31508004B80332000F053F80F2000F050F8112000F001
S31508004B9069F8782003F008FA292000F063F87820ED
S31508004BA003F002FA4FF6FF71002001F029FB10BD51
S31508004BB0000801403814002070B504460D460A491D
S31508004BC0C87900F04FF8201200F030F8E0B200F093
S31508004BD02DF80549087A00F045F8281200F026F85D
S31508004BE0E8B200F023F870BD3814002010B504466A
S31508004BF04FF480510A48FFF7E5FC4FF480710948E5
S31508004C00FFF7E2FC2112084801F048FAE1B206482B
S31508004C1001F044FA4FF480510148FFF7D5FC10BD66
S31508004C20000C0140000801400038004010B5044659
S31508004C304FF480510848FFF7C5FC4FF480710748C8
S31508004C40FFF7C2FC2146064801F028FA4FF48051C6
S31508004C500148FFF7B9FC10BD000C014000080140EF
S31508004C600038004010B504464FF480510848FFF755
S31508004C70A9FC4FF480710748FFF7A4FCE1B2064887
S31508004C8001F00CFA4FF480510148FFF79DFC10BD66
S31508004C90000C0140000801400038004010B50249E8
S31508004CA08879FFF7DFFF10BD3814002070B5044679
S31508004CB080211948FFF788FC10211748FFF782FC66
S31508004CC0FEF74DFF254600261AE080211348FFF718
S31508004CD07BFCFEF744FF15F0010F04D001210E48B6
S31508004CE0FFF770FC03E001210B48FFF76DFC8021FC
S31508004CF00A48FFF767FCFEF732FF6D10701CC6B254
S31508004D000C2EE2DB80210448FFF75CFC10210248E8
S31508004D10FFF75AFC70BD0000000C01400008014076
S31508004D2000B500F045F900200449087004480078E9
S31508004D3020F002000249087000BD0000660100204C
S31508004D405401002000B500F033F903480078401CF0
S31508004D500149087000BD00006601002002460B46A6
S31508004D6083B900210BE0114810F81100904204D1D4
S31508004D700E4800EB410040787047481CC1B2102924
S31508004D80F1DB11E0012B0FD100210BE0084810F8E8
S31508004D901100904204D1064800EB41004078EBE749
S31508004DA0481CC1B20829F1DB0020E5E7D04C010810
S31508004DB0C04C010800B576480078AA2805D100201D
S31508004DC074494870022074490870734800780128AD
S31508004DD00FD07148007802280CD1AA206D490870B6
S31508004DE001206E49087004206B49087000206C4940
S31508004DF00870CBE06848007804281AD1644800781F
S31508004E0064494870664800786149097808446449E5
S31508004E10087062480078401C604908705C48007851
S31508004E20802802DBFFF78EFFB0E008205A49087099
S31508004E30ACE05948007808281AD1554800785549F1
S31508004E4088705748007852490978084454490870C8
S31508004E5052480078401C514908704D48007880280F
S31508004E6002DBFFF76FFF91E020204B4908708DE0C9
S31508004E7049480078202820D1454800784549474ABE
S31508004E8012788854464800784149097808444449C4
S31508004E90087042480078401C404908703C48007831
S31508004EA0802802DBFFF74EFF70E0394800783D495D
S31508004EB0087010203849087068E0374800781028CC
S31508004EC023D1334800783349344A12788854334812
S31508004ED00078401C31490870314800782C49097817
S31508004EE008442F4908702A480078802802DBFFF713
S31508004EF029FF4BE0294801782A480078C01C8142DE
S31508004F0044DD40202449087040E0234800784028C2
S31508004F101CD11F4801781F48204A127881541F481F
S31508004F200078401C1D4908701D48007800F07F0075
S31508004F301B490870164800780978884203D18020F2
S31508004F401549087022E0FFF7FDFE1FE012480078B9
S31508004F50802819D10E480078BB2812D1FFF7E0FE49
S31508004F601148407820F004000F49487000200F4986
S31508004F7008700D48007820F00100401C0A490870A6
S31508004F8004E0FFF7DFFE01E0FFF7DCFE00BD0000EE
S31508004F90620100206A1400206401002063010020D9
S31508004FA0670100206101002054010020C50100208E
S31508004FB000200649087001200549087000200549A7
S31508004FC00870054908700549087070476501002092
S31508004FD064010020630100206101002067010020B0
S31508004FE003E0531EDAB28B5C8354002AF9DC70475F
S31508004FF010B5044603F0E6FE10BD00BFFEE7704795
S3150800500010B54FF410514FF0006000F03BF810BD9A
S3150800501070B5002100230F22C4780CB3164C2468FF
S3150800502004F4E064C4F5E064210AC1F10403CA404B
S31508005030447804FA03F184781440214309010F4C9B
S315080050400678A155047804F01F050124AC400578BC
S315080050506D114FF0E02606EB8505C5F8004109E01D
S31508005060047804F01F050124AC40054D0678761136
S3150800507045F8264070BD00000CED00E000E400E0B5
S3150800508080E100E0024A0A400243024B1A60704778
S3150800509080FFFF1F08ED00E010B500F097F84FF409
S315080050A0803000F055F900F0B1F90446012C24D1FE
S315080050B0002000F041F9002000F07CF9A00200F081
S315080050C06DF90220FFF744F81020FFF733F84FF484
S315080050D0E011200400F080F9012000F077F900BF04
S315080050E0392000F003F90028FAD0022000F082F9EE
S315080050F000BF00F019F90828FBD110BD01460020B1
S31508005100034A506820F44040084350607047000046
S315080051100010024029B1064AD2690243044BDA61FB
S3150800512004E0034AD2698243014BDA617047000002
S315080051300010024029B1064A12690243044B1A615B
S3150800514004E0034A12698243014B1A617047000062
S315080051500010024029B1064A92690243044B9A613B
S3150800516004E0034A92698243014B9A617047000042
S315080051700010024029B1064AD2680243044BDA609D
S3150800518004E0034AD2688243014BDA6070470000A4
S315080051900010024010B5012140F27D20FFF7DAFF2A
S315080051A001214806FFF7B6FF01218803FFF7B2FF82
S315080051B04FF40040FFF7A2FF01218803FFF7CAFF5B
S315080051C001218804FFF7A6FF10BD00000F480068FC
S315080051D040F001000D490860084640680C4908403F
S315080051E00A494860084600680A49084007490860AD
S315080051F00846006820F4802008600846406820F4C5
S31508005200FE0048604FF41F00886070470010024097
S315080052100000FFF8FFFFF6FE30B50021002200244B
S3150800522000232D4D6D6805F00C0121B1042905D028
S31508005230082923D105E0294D056022E0274D0560A0
S315080052401FE0254D6D6805F47012234D6D6805F451
S315080052508034022505EB92421CB9214D5543056061
S315080052600BE01D4D6D6815F4003F03D01C4D5543EA
S31508005270056002E0194D5543056002E0174D0560CB
S3150800528000BF00BF144D6D6805F0F0010909154D02
S315080052906B5C0568DD4045600F4D6D6805F4E0619F
S315080052A0090A104D6B5C4568DD4085600A4D6D68DE
S315080052B005F46051C90A0B4D6B5C4568DD40C56055
S315080052C0054D6D6805F44041890B074D6B5CC56853
S315080052D0B5FBF3F5056130BD0010024000127A00F7
S315080052E000093D000F0200201F02002010B50146EC
S315080052F00022002300204A11012A02D1094C236802
S3150800530006E0022A02D1074C236A01E0054C636ACB
S3150800531001F01F02012494401C4201D0012000E044
S31508005320002010BD001002400248406800F00C0042
S31508005330704700000010024001460020034A5068EA
S3150800534020F0F0000843506070470000001002404B
S315080053501149096821F480310F4A1160114609681C
S3150800536021F480211160B0F5803F03D0B0F5802F7D
S315080053700ED106E00849096841F48031064A1160F1
S3150800538007E00549096841F4A021034A116000E0D5
S3150800539000BF00BF70470000001002400146002011
S315080053A0034A506820F4E0600843506070470000E4
S315080053B00010024001460020034A506820F460505D
S315080053C040EAC10050607047001002400149086673
S315080053D0704700000000424202460020044B58680D
S315080053E020F47C1042EA01031843014B58607047C9
S315080053F00010024001460020034A506820F00300CE
S3150800540008435060704700000010024038B500207D
S3150800541000900024002500BF3120FFF767FF0546EE
S315080054200098401C00900098B0F5A06F01D0002DA0
S31508005430F2D03120FFF75AFF08B1012400E000241A
S31508005440204638BD00B53E48007850280BD13D4867
S31508005450007840B950203C49087001203949087045
S315080054603A4908706AE039480078012829D1354850
S31508005470007801280DD132480078102809D110216A
S31508005480304802780078401C2E4B18702E488154FC
S3150800549054E02C48007802280FD12948007860B9D2
S315080054A00021284802780078401C264B18702648A8
S315080054B0815402202549087040E0002021490870DF
S315080054C03CE022480078022811D11D4801781D4881
S315080054D002780078401C1B4B18701B4881541846EC
S315080054E000780B282AD104201849087026E01748A6
S315080054F00078042822D113480178134802F0C8FC22
S315080055000F490978884213D10D4801780E480D4A8B
S315080055101278815410200D4908700D48407820F003
S315080055200100401C0A49487000200649087005E039
S3150800553020200649087000200249087000BD0000B6
S31508005540600100202C000020421400202F000020BB
S315080055505C0100202DE9F04190B04FF000080026CC
S31508005560342103A8FDF739F9C0A103C9CDE9010122
S31508005570C04890F80380014648780121FFF7EEFB02
S315080055800646002406E0201DBA49085C03A908550A
S31508005590601CC4B24445F6DB072096FBF0F0C7B2A0
S315080055A0072098FBF0F100FB118008B1781CC7B200
S315080055B0002419E0002513E0072000FB045003A986
S315080055C0085C311903AA515C6A1C914001F08001FC
S315080055D00843072101FB045103AA5054681CC5B2AD
S315080055E0072DE9DB601CC4B2BC42E3DB002436E1CC
S315080055F0A048407801A9095D884273D1002C4CD196
S31508005600022203A99C48FFF7EBFC9A4880780128F8
S3150800561008DB98488078032804DC96488078401E82
S31508005620964908709DF80D00FEF79EFD944908807E
S315080056309DF80D00FEF798FD924908809DF80D002B
S31508005640FEF792FD904908809DF80D00FEF78CFD47
S315080056508E4908809DF80D00FEF786FD8C49088066
S315080056609DF80D00FEF780FD8A4908809DF80D001B
S31508005670FEF77AFD8849088088480078C0F38010CC
S3150800568018B108218648FEF79DFF8448007820F067
S315080056904000403081490870DEE0012C23D175486E
S315080056A08078012804D1092203A97E48FFF798FCCF
S315080056B07D484078C0F3001060B16E4880780128B4
S315080056C008D1002504E0002076494855681CC5B273
S315080056D0092DF8DB7148007820F0200020306F494A
S315080056E00870B9E0B9E0022C15D1082203A96F4861
S315080056F0FFF776FC00206E4908706848007820F0AD
S3150800570010001030654908700846807820F080003F
S3150800571080308870A0E0032C0CD1042203A96548C8
S31508005720FFF75EFC5D48007820F0800080305B491A
S31508005730087091E0042C0CD1022203A95E48FFF7F9
S315080057404FFC5648407820F00100401C53494870E9
S3150800575082E0052C0CD1022203A95848FFF740FC29
S315080057604E48807820F0200020304C49887073E03D
S31508005770062C59D19DF80C00542821D19DF80D000E
S3150800578053281DD100204E4908704448C078C0F3FC
S31508005790801068B900204B4908704B4908804B496E
S315080057A008703E48C07820F0400040303B49C87039
S315080057B03A48C07820F00100401C3849C8704BE0D0
S315080057C09DF80C004C280FD19DF80D0056280BD1DA
S315080057D03248C07820F001003049C8700846C078C1
S315080057E020F04000C87037E09DF80C0056280BD111
S315080057F09DF80D00452807D12848C07820F00200FA
S31508005800801C2649C87027E09DF80C00492823D13A
S315080058109DF80D0044281FD12048C07820F00400C8
S31508005820001D1E49C87017E0072C15D1002505E094
S3150800583003A8405D26494855681CC5B2B542F7DB42
S315080058400C488078A030234908702348007820F057
S31508005850400040302049087004E0601CC4B2082C9F
S31508005860FFF6C6AE00BF10B0BDE8F0815043405108
S31508005870525371486A140020A9010020A001002093
S315080058807401002076010020780100207A010020AA
S315080058907C010020800100208201002054010020A4
S315080058A0000C01409614002058010020A101002098
S315080058B0CD010020BB010020BF010020C10100204E
S315080058C0CA010020E6010020E8010020EA010020C4
S315080058D0561400202D0000205C0100202DE9F04F11
S315080058E08BB082468B4615460027B946B846002433
S315080058F004E0002001A90855601CC4B2282CF8DB76
S31508005900AA208DF80400E81CC2B259460DF105001C
S31508005910FFF766FB9DF805000021FFF71FFA07460B
S315080059209DF80700072190FBF1F000F0FF089DF8AD
S31508005930070090FBF1F201FB120018B108F1010013
S3150800594000F0FF0800241AE0002614E06019001D84
S3150800595001A90A5CC4EBC400001D3044085C00F0D1
S315080059608000711C08411044C1B26019001D01AACB
S315080059701154701CC6B2072EE8DB601CC4B244453D
S31508005980E2DB9DF807004044C0B28DF8070000240A
S315080059900EE001A9601C085C00F07F0101AA601CEA
S315080059A0115401A9085C484400F0FF09601CC4B200
S315080059B0F81EA042EDDC09F07F01B81E01AA1154B9
S315080059C0BB21781E11543B460021504603F02EFE9B
S315080059D00BB0BDE8F08F0000F0B5BDB00746542106
S315080059E028A8FCF7FAFE6C22FC490DA8FCF7C3FEB2
S315080059F0FBA2D2E900109268CDE90B020A91FBA13D
S31508005A0003C9CDE908011422FAA103A8FCF7B3FEDD
S31508005A10FDA207CA8DE80700FE48407810F0010F7E
S31508005A201FD0FC48407820F00100FA494870FA482F
S31508005A30007800F00F018DF89510002606E0F7496A
S31508005A40F01C0A5C25A8F11C4254761C9DF89600A9
S31508005A50B042F4DC9DF8962025A93846FFF73EFFAC
S31508005A6000BF002422E0601CC0B28DF8350004EBAC
S31508005A704400EB4901EB8000C088000A8DF8370026
S31508005A8004EB440001EB800080798DF8380004EBC4
S31508005A90440001EB8000807A8DF839009DF83620A5
S31508005AA00DA93846FFF71AFF601CC4B2DD48007816
S31508005AB08442D8DB002429E0601CC1B20DA84173DA
S31508005AC004F1130000EB4000D54901EB8000C088C3
S31508005AD0010A0DA8C17304F1130000EB4000D04978
S31508005AE001EB800081790DA8017404F1130000EB25
S31508005AF04000CB4901EB8000817A0DA84174827B76
S31508005B0010A93846FFF7EAFE601CC4B2C6480078FA
S31508005B108442D1DB02210DA84176002506E0C34860
S31508005B20425DE81C13A90A54681CC5B2082DF6DBA9
S31508005B30BF4801788DF857100DA8827E13A93846FC
S31508005B40FFF7CCFE03210DA84176002506E0B948EB
S31508005B50425DE81C13A90A54681CC5B2082DF6DB79
S31508005B60B54801788DF857100DA8827E13A93846D6
S31508005B70FFF7B4FE002429E0601CC1B28DF8591065
S31508005B80113000EB4000A64901EB8000C088010AED
S31508005B908DF85B1004F1120000EB4000A04901EB00
S31508005BA0800081798DF85C1004F1120000EB40004A
S31508005BB09B4901EB8000817A8DF85D109DF85A208B
S31508005BC016A93846FFF78AFE601CC4B29B480078BF
S31508005BD08442D1DB002429E0601CC1B28DF865102F
S31508005BE00E3000EB40008E4901EB8000C088010AA8
S31508005BF08DF8671004F10F0000EB4000884901EBAF
S31508005C00800081798DF8681004F10F0000EB4000E0
S31508005C10834901EB8000817A8DF869109DF866202A
S31508005C2019A93846FFF75AFE601CC4B284480078A2
S31508005C308442D1DB002429E0601CC1B28DF87110C2
S31508005C400F3000EB4000764901EB8000C088010A5E
S31508005C508DF8731004F1100000EB4000704901EB59
S31508005C60800081798DF8741004F1100000EB400073
S31508005C706B4901EB8000817A8DF875109DF87220CA
S31508005C801CA93846FFF72AFE601CC4B26D48007886
S31508005C908442D1DB00243AE0601CC1B28DF87D1045
S31508005CA0A01D00EB40005E4901EB8000C088010A98
S31508005CB08DF87F10A01D00EB4000594901EB8000CC
S31508005CC081798DF88010A01D00EB4000544901EB46
S31508005CD080000089010A8DF88110A01D00EB4000A4
S31508005CE04F4901EB8000017A8DF88210A01D00EB68
S31508005CF040004B4901EB8000817A8DF883109DF8AE
S31508005D007E201FA93846FFF7E9FD601CC4B24E483D
S31508005D1000788442C0DB002429E0601CC1B28DF8FB
S31508005D208910083000EB40003D4901EB8000C0882F
S31508005D30010A8DF88B1004F1090000EB4000384980
S31508005D4001EB800081798DF88C1004F1090000EBD5
S31508005D504000334901EB8000817A8DF88D109DF85B
S31508005D608A2022A93846FFF7B9FD601CC4B2374815
S31508005D7000788442D1DB36480078C0F3001000284A
S31508005D802BD0294800782749097800EB0110C0B2C2
S31508005D908DF82B00294800782E49097800EB011068
S31508005DA0C0B28DF82C00274800782549097800EB01
S31508005DB00110C0B28DF82D002448007822490978D0
S31508005DC000EB0110C0B28DF82E0023480078234955
S31508005DD0097800EB0110C0B242E078E0044D0108F2
S31508005DE02001080200010000000000002101020352
S31508005DF00000000022010C0300550000000000000E
S31508005E00000000000000000070010800000000000B
S31508005E10000000005C0100202D0000204214002034
S31508005E20320000206801002069010020B30100202B
S31508005E30D5010020AB010020D60100206B0100200F
S31508005E406C0100206D0100206E0100206F0100200A
S31508005E50540100206A010020710100207001002011
S31508005E608DF82F00664800780007000E8DF8300080
S31508005E7064484078C0F3800030B19DF83000401C7B
S31508005E80C0B28DF8300005E09DF8300000F0F00053
S31508005E908DF8300000208DF831008DF832009DF81D
S31508005EA02A200AA93846FFF719FD57480078401CEA
S31508005EB05549087008460078052808DB53480078D5
S31508005EC020F010005149087000204F4908704F48CB
S31508005ED0C078C0F3400058B14C48C07820F00200A2
S31508005EE04A49C8704A48827801463846FFF7F6FCA0
S31508005EF04648C078C0F3800058B14448C07820F0BE
S31508005F0004004249C8704348827801463846FFF77C
S31508005F10E5FC03208DF823004FF400713E48FEF798
S31508005F2048FB012800D100E000BF4FF480713A48D1
S31508005F30FEF73FFB012800D100E000BF9DF82220B4
S31508005F4008A93846FFF7CAFC344800788DF80F00D0
S31508005F50334800788DF81000324800788DF8110023
S31508005F60314800788DF81200304800788DF8130013
S31508005F702F4800788DF814002E4800788DF8150003
S31508005F802D4800788DF816002C48008800128DF8E8
S31508005F9017002A4800788DF818002948008800124A
S31508005FA08DF81900264800788DF81A009DF80E20FD
S31508005FB003A93846FFF792FC1448C078C0F30010CE
S31508005FC0E0B120480078401C1E4908700846007851
S31508005FD0022807DB002008700C48C07820F0100063
S31508005FE00A49C8704F208DF8030056208DF8040022
S31508005FF09DF8022069463846FFF770FC3DB0F0BDB3
S31508006000720100205C010020CD010020540100200F
S31508006010FB01002004020020000C0140D7010020EB
S31508006020D8010020D9010020DA010020DB01002078
S31508006030DC010020DD010020DE010020E001002057
S31508006040E2010020CE01002021B1028842F0400280
S31508006050028004E002884FF6BF731A400280704738
S3150800606010B50022028802F441520B884C8823435B
S315080060708C882343CC8823430C8923434C892343A8
S315080060808C892343CC8923431A430280838B4FF29E
S31508006090FF74234083830B8A038210BD024600BF28
S315080060A0108910F0020FFBD0918100BF108910F003
S315080060B0010FFBD09089C0B2704770472DE9FF5F8A
S315080060C0814692460E9D402D02D12E4C082621E08F
S315080060D0302D02D12C4C04261CE01B2D02D12B4C52
S315080060E0032617E01A2D02D1294C092612E0182D8D
S315080060F002D1284C03260DE0102D02D1264C052688
S3150800610008E0162D02D1254C022603E00D2D01D1FB
S31508006110234C02260AFB06F000FB054400272CE068
S31508006120019A3A4491B21FFA89F0FEF745FDFEF747
S31508006130B5FD4FF0000B1CE04FF0000811E0207889
S31508006140012101FA08F1084203D00398FEF74EFD33
S3150800615003E04FF6FF70FEF749FD08F1010000F075
S31508006160FF08B8F1080FEADB641C0BF1010000F028
S31508006170FF0BB345E0DB781CC7B2AF42D0DBBDE806
S31508006180FF9F000045ED0008E7E30008CADF0008A6
S3150800619064D9000880CE0008E8D8000838D9000875
S315080061A027EC00082DE9F04781460F460024002514
S315080061B020E0781981B24846FEF7FEFCFEF76EFD30
S315080061C04FF0000812E0012000EB44000B490E5C7A
S315080061D04FF6FF7000EA0626084610F81400064334
S315080061E03046FEF703FD641C08F10108B8F1580FA4
S315080061F0E9D36D1C582DDCD3BDE8F08730100108B3
S315080062002DE9F04107460E46002440F2EB680021CE
S315080062100846FEF7D1FCFEF741FD35E01C48005D57
S31508006220FF280DD1002503E03846FEF7DFFC6D1C7C
S315080062301749601C085CC000A842F5D8A41C23E0D6
S315080062401348005D68B9002503E03046FEF7CEFC2A
S315080062506D1C0F49601C085CC000A842F5D8A41C38
S3150800626012E000250DE00A48005D80212941084218
S3150800627003D13046FEF7BAFC02E03846FEF7B6FC14
S315080062806D1C082DEFD3641C4445C7D3BDE8F081C7
S315080062904509010838B53148C0780A2190FBF1F064
S315080062A0C4B218204CF218632246D7210090F42075
S315080062B0FFF704FF2948C07804EB8401A0EB4100EE
S315080062C0C4B218204CF218632246D72100904FF426
S315080062D08070FFF7F3FE214800790A2190FBF1F060
S315080062E0C4B218204CF218632246D72100904FF406
S315080062F08670FFF7E3FE1948007904EB8401A0EBEA
S315080063004100C4B218204CF218632246D7210090E7
S315080063104FF48C70FFF7D2FE104840790A2190FBA3
S31508006320F1F0C4B218204CF218632246D721009027
S315080063304FF49270FFF7C2FE0848407904EB8401D7
S31508006340A0EB4100C4B218204CF218632246D721AC
S3150800635000904FF49870FFF7B1FE38BDFB0100209E
S31508006360042808D14FF0E021096941F004014FF0F3
S31508006370E022116107E04FF0E021096921F00401EC
S315080063804FF0E0221161704770B586B001A8FEF79C
S3150800639043FF4FF47A710298B0FBF1F42146B1F14C
S315080063A0807F00D31DE021F07F40401E4FF0E022A1
S315080063B0506150170F22002807DA13071E0E0B4BE1
S315080063C000F00F052D1F5E5503E013071D0E084B41
S315080063D01D5400BF00204FF0E02290610720106195
S315080063E000BF0420FFF7BCFF06B070BD18ED00E043
S315080063F000E400E010B503F055FC10BD00B585B00B
S315080064000020ADF800004FF48270ADF802000020BD
S31508006410ADF804000220ADF806000120ADF808002A
S315080064204002ADF80A001820ADF80C000020ADF8BF
S315080064300E000720ADF8100069460448FFF710FE65
S3150800644001210248FFF700FE05B000BD00380040F4
S3150800645038B50446012C09D14FF6FF70BB23CB2271
S31508006460642100907420FEF741FA1CE0022C1AD130
S315080064704FF6FF7099237F225A2100904020FEF79D
S3150800648035FA4FF6FF70B623EF226E21009096205C
S31508006490FEF72CFA4FF6FF709B23FD228121009010
S315080064A0F020FEF723FA38BDF8B506460F46002E4B
S315080064B00ADA704284B21B203B460C2278210090EF
S315080064C08420FFF7FBFD08E0B4B21B203B460B22F5
S315080064D0782100908420FFF7F1FDFEF7C7F842F215
S315080064E01070844241DB94FBF0F0C5B230203B4685
S315080064F02A466E2100909620FFF7E0FD40F27120B3
S315080065006843A4EB001084B24FF47A7094FBF0F061
S31508006510C5B230203B462A466E210090B620FFF7CA
S31508006520CDFD1B203B460B226E210090D620FFF79F
S31508006530C5FD1B203B460B2281210090D620FFF784
S31508006540BDFD05EB4500C0EBC510A4EBC00084B249
S31508006550642094FBF0F0C5B21B203B462A468121F5
S315080065600090E620FFF7AAFDCCE0B4F57A7F43DB7E
S315080065704FF47A7094FBF0F0C5B230203B462A46B9
S315080065806E2100909620FFF799FD05EB4500C0EBBC
S31508006590C510A4EBC00084B2642094FBF0F0C5B229
S315080065A030203B462A466E210090B620FFF786FD2E
S315080065B01B203B460B226E210090D620FFF77EFD5E
S315080065C01B203B460A2281210090D620FFF776FD44
S315080065D005EBC50000EB0510A4EB800084B20A2089
S315080065E094FBF0F0C5B21B203B462A468121009059
S315080065F0E620FFF763FD85E0642C52DB1B203B4653
S315080066000B22782100908420FFF758FD002E10DA1F
S3150800661030203B460A226E2100909620FFF74EFD59
S315080066201B203B460C22782100909B20FFF746FD55
S3150800663007E030203B460A226E2100909620FFF79D
S315080066403DFD642094FBF0F0C5B230203B462A4657
S315080066506E210090B620FFF731FD1B203B460B222A
S315080066606E210090D620FFF729FD1B203B460A2203
S3150800667081210090D620FFF721FD05EBC50000EB30
S315080066800510A4EB800084B20A2094FBF0F0C5B292
S315080066901B203B462A4681210090E620FFF70EFD87
S315080066A030E030203B4600226E2100909620FFF70E
S315080066B005FD30203B460A226E210090B620FFF7E2
S315080066C0FDFC1B203B460A2281210090B620FFF7DD
S315080066D0F5FC0A2094FBF0F0C5B230203B462A466A
S315080066E06E210090C420FFF7E9FC05EB8500A4EBBA
S315080066F0400084B21B20E2B23B4681210090E6208E
S31508006700FFF7DCFCF8BD00000EB5FE48C078C0F304
S31508006710401060B14FF6FF710020FFF771FDFFF7DB
S31508006720B9FDF848C07820F02000F649C870F54849
S31508006730C07810F0010F7DD0FDF798FFF248008869
S31508006740092808DC4FF6FF70FEF7B8F80221EF4873
S31508006750FDF73AFF4EE2EC4800880C2804DA0221DD
S31508006760EA48FDF72FFF45E2E74800880F2808DAD0
S315080067704FF47840FEF7A2F80221E448FDF724FF1B
S3150800678038E2E1480088122804DA4FF4FC60FEF784
S3150800679095F82FE2DC480088152803DA1F20FEF753
S315080067A08DF827E2D8480088182803DA0020FEF773
S315080067B085F81FE2D44800881B2804DA4FF6FF70D4
S315080067C0FEF77CF816E2D04800882A2866DA4FF4E5
S315080067D00071CE48FDF7F8FE4FF48071CB48FDF7FF
S315080067E0F3FE18201F230122052100900846FFF713
S315080067F065FC18201F230A22052100901520FFF7A3
S315080068005DFC18201F230E22052100902520FFF786
S3150800681055FC18201F230F22052100903D20FFF765
S315080068204DFC18201F231022052100905520FFF744
S3150800683045FC00E0E4E118201F2311220521009001
S315080068406D20FFF73BFC18201F231222052100901C
S315080068508520FFF733FC18201F23132205210090FB
S315080068609D20FFF72BFC18201F23142205210090DA
S31508006870B520FFF723FC18201F23152205210090B9
S31508006880CD20FFF71BFC18201F2316220521009098
S31508006890E520FFF713FCFCF7DBFEABE19A4800881E
S315080068A0392867DA4FF480719848FDF78BFE18206F
S315080068B01F230222052100900846FFF7FFFB182038
S315080068C01F230A22052100901520FFF7F7FB182041
S315080068D01F230E22052100902520FFF7EFFB182025
S315080068E01F230F22052100903D20FFF7E7FB182004
S315080068F01F231022052100905520FFF7DFFB1820E3
S315080069001F231122052100906D20FFF7D7FB1820C1
S315080069101F231222052100908520FFF7CFFB1820A0
S315080069201F231C22052100909D20FFF7C7FB182076
S315080069301F231D2205210090B520FFF7BFFB182055
S315080069401F23012205210090CD20FFF7B7FB182051
S315080069501F23162205210090DD20FFF7AFFB182024
S315080069601F230D2205210090F520FFF7A7FBFCF752
S315080069706FFE3FE16448008848286CDA4FF480715E
S315080069806248FDF721FE4FF400716048FDF71AFED4
S3150800699018201F230322052100900846FFF78EFBC7
S315080069A018201F230A22052100901520FFF786FBD1
S315080069B018201F230E22052100902520FFF77EFBB5
S315080069C018201F230F22052100903D20FFF776FB94
S315080069D018201F231022052100905520FFF76EFB73
S315080069E018201F231122052100906D20FFF766FB52
S315080069F018201F231222052100908520FFF75EFB31
S31508006A0018201F231C22052100909D20FFF756FB06
S31508006A1018201F231D2205210090B520FFF74EFBE5
S31508006A2018201F23022205210090CD20FFF746FBE0
S31508006A3018201F23162205210090DD20FFF73EFBB4
S31508006A4018201F230D2205210090F520FFF736FB9D
S31508006A50FCF7FEFDCEE02C480088572876DA4FF47E
S31508006A6000712A48FDF7B0FD4FF400412848FDF7AC
S31508006A70A9FD18201F230422052100900846FFF7C8
S31508006A801DFB18201F230A22052100901520FFF759
S31508006A9015FB18201F230E22052100902520FFF73D
S31508006AA00DFB18201F230F22052100903D20FFF71C
S31508006AB005FB18201F231022052100905520FFF7FB
S31508006AC0FDFA18201F231122052100906D20FFF7DB
S31508006AD0F5FA18201F231222052100908520FFF7BA
S31508006AE0EDFA18201F231C22052100909D20FFF790
S31508006AF0E5FA18201F231D2205210090B520FFF76F
S31508006B00DDFA07E054010020E8010020000C0140EE
S31508006B100010014018201F23032205210090CD20D4
S31508006B20FFF7CCFA18201F23162205210090DD2036
S31508006B30FFF7C4FA18201F230D2205210090F5201F
S31508006B40FFF7BCFAFCF784FD54E0FFE7FE4800882F
S31508006B505D283CDA4FF6FF70FDF7B0FE18201F23BC
S31508006B600522114600901046FFF7A8FA18201F23A1
S31508006B700A22052100901520FFF7A0FA18201F23E6
S31508006B801022052100902D20FFF798FA18201F23C0
S31508006B901122052100904520FFF790FA18201F239F
S31508006BA01E22052100905D20FFF788FA18201F2372
S31508006BB01A46052100907520FFF780FA18201F2332
S31508006BC02022052100908D20FFF778FA12E0002098
S31508006BD0DE490870DE48C07820F020002030DC4905
S31508006BE0C8700846C07820F010001030C870002021
S31508006BF0D5490880D4480088401CD3490880D8E283
S31508006C00102000231A4623210090C820FFF756FAC1
S31508006C10D0480078C117019000EB9170801002905F
S31508006C2002981E2801DD1E200290029807282DDDF5
S31508006C30C9480078B42814DD4FF4FC602F2300906F
S31508006C40029ACA322721CB20FDF750FE4FF6FF7075
S31508006C502F23E822272100900298CB30FDF746FE25
S31508006C6028E04FF6E0702F230090029ACA322721B7
S31508006C70CB20FDF73BFE4FF6FF702F23E822272196
S31508006C8000900298CB30FDF731FE13E04FF47840C0
S31508006C902F230090029ACA322721CB20FDF726FE21
S31508006CA04FF6FF702F23E822272100900298CB3059
S31508006CB0FDF71CFEA9480078112817DBA7480078BD
S31508006CC0182813DCA248807820F010001030A0495C
S31508006CD0887008468078C0F3800038B10846807806
S31508006CE020F0040088700120FFF7B2FB9B4800786B
S31508006CF018BB97488078C0F3001020B9944880786C
S31508006D00C0F3C00068B19248807820F00800904926
S31508006D1088700846807820F0100088700220FFF7F7
S31508006D2097FB64217420FFF73DFA8948807820F0A4
S31508006D300400001D864988703AE2884800780928C8
S31508006D4039DCFDF793FC8248807820F0080008308B
S31508006D507F49887008468078C0F3800038B10846B5
S31508006D60807820F0040088700120FFF771FB7848CE
S31508006D708078C0F3001040B17548807820F0100084
S31508006D80734988700220FFF763FB4020009074481F
S31508006D90038807225A214020FFF790F91B2000900C
S31508006DA06E48007801906E48038872216E20019A19
S31508006DB0FFF784F9FCE169480078112833D14020AF
S31508006DC000906848038800225A214020FFF776F988
S31508006DD06548007803280DDC1B200090624800787F
S31508006DE0401CC0B201905F4803887C216E20019A3E
S31508006DF0FFF764F91A2000905A48038800229E215A
S31508006E00A820FFF75BF95848007800EB400057497F
S31508006E1001EB8000B0F906000190524801880198FC
S31508006E20FFF742FBC4E14D480078122822D14020E2
S31508006E3000904F48038802225A214020FFF73EF966
S31508006E401A2000904A48038804229E21A820FFF7AA
S31508006E5035F945480078133000EB4000434901EB0B
S31508006E608000B0F906000190414801880198FFF7B3
S31508006E701BFB9DE13948007813281BD14020009060
S31508006E803C48038803225A214020FFF717F91A20A5
S31508006E9000903848038805229E21A820FFF70EF99E
S31508006EA03248B0F9DE000190324801880198FFF7B0
S31508006EB0FBFA7DE12948007814281BD14020009070
S31508006EC02D48038806225A214020FFF7F7F81A2092
S31508006ED000902948038802229E21A820FFF7EEF891
S31508006EE02248B0F9BA000190234801880198FFF7B3
S31508006EF0DBFA5DE119480078152860D1402000903A
S31508006F001E48038804225A214020FFF7D7F81A2082
S31508006F1000901A48038803229E21A820FFF7CEF87E
S31508006F201B20009010480078401CC0B201901348FE
S31508006F3003887F216420019AFFF7C0F80A48007881
S31508006F4058BB0A481CE00000E8010020CE010020DA
S31508006F5054010020DC010020DE010020A9010020E8
S31508006F608201002074010020A001002032000020C8
S31508006F7076010020780100207A0100207C0100209B
S31508006F80B0F9C600C000642190FBF1F00190894871
S31508006F9001880198FFF788FA0AE1874800780128EE
S31508006FA087D18648B0F9D200C000642190FBF1F081
S31508006FB00190804801880198FFF776FAF8E0804842
S31508006FC00078162824D1402000907E4803880122A4
S31508006FD05A214020FFF772F87748007803280DDC1D
S31508006FE01B20009074480078401CC0B20190754878
S31508006FF003887C216E20019AFFF760F81A2000901A
S315080070007048038800229E21A820FFF757F8CFE092
S315080070106B480078172824D1402000906A480388D6
S3150800702005225A214020FFF749F81A2000906648A1
S31508007030038801229E21A820FFF740F85E480078C1
S31508007040093000EB40005D4901EB8000B0F906000D
S315080070506421484301905C4801880198FFF724FAA7
S31508007060A6E057480078212827D1402000905748A5
S3150800707003880D225A214020FFF720F80D200090A2
S31508007080524803884C4802787C215B20FFF716F8A3
S315080070901A2000904D48038806229E21A820FFF753
S315080070A00DF84B484449097830F8110001904748D3
S315080070B001880198FFF7F8F97AE041480078222814
S315080070C018D140200090434803880C225A214020BA
S315080070D0FEF7F4FF1A2000903E48038800229E21FE
S315080070E0A820FEF7EBFF3B4801883B480088FFF7DE
S315080070F0DBF95DE032480078232818D1402000905B
S315080071003648038809225A214020FEF7D7FF1A205D
S3150800711000903248038805229E21A820FEF7CEFF5C
S315080071202E4801882E480088FFF7BEF940E024481B
S31508007130007824281CD1402000902A4803880A2277
S315080071405A214020FEF7BAFF0D20009025480388F3
S31508007150254802787D215320FEF7B0FF1A200090BB
S315080071602048038805229E21A820FEF7A7FF1FE0D6
S315080071701348007825281BD1402000901B48038817
S315080071800B225A214020FEF799FF0D200090174840
S3150800719003881748027875215A20FEF78FFF1A20B0
S315080071A000901248038805229E21A820FEF786FF34
S315080071B000BF0EBD7C010020A00100203200002087
S315080071C0A90100207401002080010020860100200A
S315080071D090010020840100208E01002088010020F3
S315080071E0980100208A0100209A0100208C010020C5
S315080071F09B0100202DE9F843044688461746994620
S315080072003D46642D40DB642095FBF0F0C6B218209D
S315080072104B463246414600902046FEF74FFF06EBA6
S31508007220C60000EB0610A5EB8000C5B20A2095FB48
S31508007230F0F0C6B218204B4632464146009004F19B
S315080072401000FEF73BFF18204B460A2241460090E5
S3150800725004F12000FEF732FF06EB8600A5EB40009E
S31508007260C5B218204B462A464146009004F1300024
S31508007270FEF724FF18204B460B224146009004F1E6
S315080072804000FEF71BFF63E00A2D35DB0A2095FB5D
S31508007290F0F0C6B218204B463246414600902046CA
S315080072A0FEF70CFF18204B460A224146009004F1CF
S315080072B01000FEF703FF06EB8600A5EB4000C5B2FB
S315080072C018204B462A464146009004F12000FEF756
S315080072D0F5FE18204B460D224146009004F1300079
S315080072E0FEF7ECFE18204B460B224146009004F1AF
S315080072F04000FEF7E3FE2BE018204B4600224146ED
S3150800730000902046FEF7DAFE18204B460A22414630
S31508007310009004F11000FEF7D1FE18204B462A46CD
S315080073204146009004F12000FEF7C8FE18204B469F
S315080073300D224146009004F13000FEF7BFFE1820EA
S315080073404B460B224146009004F14000FEF7B6FE7C
S31508007350BDE8F88310B50446A9480088401CA8492A
S315080073600880084600880A2808DBA64803F082FD3C
S31508007370A44803F0F8FC0020A1490880A248008828
S31508007380401CA1490880084600880A2808DB9F484F
S3150800739003F070FD9D4803F0E6FC00209A4908803A
S315080073A09B48007820F010001030994908709948D9
S315080073B0C07810F0010F04D097480078401C964911
S315080073C0087093480078C0F38000C0B193480088DD
S315080073D0401C9249088008460088B0F5617F0ED3A4
S315080073E08B48007820F0080008308949087008465C
S315080073F0007820F004000870002088490880844836
S315080074000078C0F3C00088B185480078401C8449DC
S31508007410087008460078052808D37D48007820F0CB
S3150800742008007B49087000207D4908707D4800786F
S31508007430401C7C49087008460078022808D30020BA
S3150800744008707448807820F0400040307149887090
S315080074506F480078C0F3400088B173480078401C34
S31508007460714908700846007805280BD30020087073
S315080074706748007820F002006549087002E000209D
S315080074806949087069480078401C684908700846C8
S315080074900078042809D35F48407820F00400001DCE
S315080074A05C49487000206149087061480078401CB2
S315080074B05F4908705748C07810F0010F13D0084686
S315080074C0007880B35348C07820F008000830514946
S315080074D0C8700846007820F00800083008700020B8
S315080074E0534908701FE052480078022809D34948D2
S315080074F0C07820F0080008304649C87000204C497A
S3150800750008704C480088401C4A490880084600888C
S31508007510142808D9002008803E48007820F0080082
S3150800752008303C49087044480078401C42490870B5
S315080075300846007848B13748807820F00200801C59
S315080075403449887000203C4908703C480078401C43
S315080075503A49087008460078042809D32D48407827
S3150800756020F0080008302B4948700020334908707D
S315080075702848C07810F0010F1BD031480078401C0D
S315080075802F49087008460078082812D3002008708A
S315080075902048C07820F001001E49C8700846C07807
S315080075A020F020002030C8700846C07820F040003F
S315080075B0C87024480078401C22490870084600789C
S315080075C0782809DB2048407820F0100010301E4942
S315080075D0487000201B4908701C480078401C1B494D
S315080075E0087008460078052809D30948007820F06D
S315080075F0800080300649087000201449087010BDC4
S315080076009C010020B00F00209E0100205010002091
S315080076105C01002054010020E6010020D201002070
S31508007620D4010020C7010020C6010020C5010020A2
S31508007630CC010020D0010020C3010020C801002091
S31508007640CA010020F8010020580100202E00002061
S3150800765013490978491C124A1170114609780A29F2
S3150800766009D31049097821F00401091D0D4A117042
S3150800767000210B4A11700C490978491C0A4A1170F5
S3150800768011460978142909D30849497821F00201D5
S31508007690891C064A51700021034A11707047000080
S315080076A0C901002054010020300000205C010020A0
S315080076B00349497821F020012031014A5170704769
S315080076C05401002010B5154C02F0F4FA40F2255189
S315080076D0206800F0B6F850B1206880881049087014
S315080076E0FDF768FB40F22551206800F064F840F287
S315080076F02661206800F0A5F820B140F226612068CE
S3150800770000F059F80821206800F08EF8012802D107
S31508007710044803F0BFFE02F0E5FA10BD1C00002085
S31508007720620100207013002010B51A4C02F0C2FA4C
S3150800773040F22551206800F084F8A0B11648407838
S31508007740C0F3C00030B12068808814490870FDF77E
S3150800775079FE03E00121124802F0A2F940F2255110
S31508007760206800F028F840F22661206800F069F8E1
S3150800777020B140F22661206800F01DF80821206833
S3150800778000F052F8012802D1054803F083FE02F002
S31508007790A9FA10BD240000205C0100206001002029
S315080077A0D413002001F40072B2F5007F00D100BFA7
S315080077B0CA430280704710B500220023A1F5106461
S315080077C06A3C00D100BF0A1201249440A3B2DC43EC
S315080077D0048010BD21B1828942F40052828104E0FE
S315080077E082894DF6FF731A40828170471FB5044699
S315080077F000210C48FFF7EEFF00940020ADF80400C6
S31508007800ADF80600ADF80800ADF80C000C20ADF890
S315080078100A006946034800F063F801210148FFF7AA
S31508007820D9FF1FBD0048004002460020B1F5007F81
S3150800783000D100BF13880B4201D0012000E00020D0
S31508007840704770B502460024002300250020A1F5E4
S3150800785010666A3E00D100BFC1F3421501F01F034E
S31508007860012606FA03F3012D02D19689334006E074
S31508007870022D02D1168A334001E0968A33400C1253
S31508007880012606FA04F41688344013B10CB1012017
S3150800789000E0002070BDF0B5034600240026002550
S315080078A00020A1F510676A3F00D100BF1846C1F352
S315080078B0421401F01F06012707FA06F5012C01D12B
S315080078C00C3004E0022C01D1103000E014301AB15B
S315080078D007682F43076002E00768AF430760F0BDFB
S315080078E02DE9F04786B005460E460024A24600BF9D
S315080078F0A1460027B08900B100BF2F462C8A4CF656
S31508007900FF700440F08804432C82AC894EF6F310CD
