:020000040800F2
:10240000E04B0020B9260008635300086F2600083F
:102410005F5300089D2B0008BF81000800000000EA
:102420000000000000000000000000002B69000810
:10243000293C000800000000F7250008716C000826
:10244000CF260008CF260008CF260008CF26000898
:10245000CF260008CF260008CF260008CF26000888
:10246000CF260008CF260008CF260008CF26000878
:10247000CF260008CF260008CF260008CF26000868
:10248000CF260008CF260008CF260008CF26000858
:10249000CF260008CF260008CF260008CF26000848
:1024A000CF260008CF260008CF260008CF26000838
:1024B000CF260008CF260008CF260008CF26000828
:1024C000CF260008CF260008CF260008CF26000818
:1024D000CF260008A17E0008CF260008057F00084F
:1024E000CF260008CF260008CF26000800F002F80B
:1024F00000F05AF80AA090E8000C82448344AAF144
:102500000107DA4501D100F04FF8AFF2090EBAE841
:102510000F0013F0010F18BFFB1A43F00103184717
:10252000584D0100784D01000A444FF0000C10F89E
:10253000013B13F0070408BF10F8014B1D1108BF41
:1025400010F8015B641E05D010F8016B641E01F8E1
:10255000016BF9D113F0080F1EBF10F8014BAD1C31
:102560000C1B09D16D1E58BF01F801CBFAD505E04F
:1025700014F8016B01F8016B6D1EF9D59142D6D3A9
:10258000704700000023002400250026103A28BFD1
:1025900078C1FBD8520728BF30C148BF0B607047D5
:1025A0001FB51FBD10B510BD00F043F91146FFF770
:1025B000F7FF06F0CBFF00F061F903B4FFF7F2FF7D
:1025C00003BC00F065F90000EFF3108072B67047AD
:1025D00080F310887047324A1368012B04D04FF003
:1025E000010313602F4A10602F4A11602F484FF0EB
:1025F000805101607047EFF3108272B6284801687D
:1026000091B14FF0000101602648016829B1EFF354
:10261000098121E9F00F0068016023490968096810
:10262000B1E8F00F81F3098882F310884EF0040EB0
:1026300070471D4908601B494FF0000008601849A9
:102640004FF0010008601A484FF47F01D0F80020D5
:1026500041EA0201016015484FF0805101601548C0
:102660000068006880F3088862B6704700BF1EF0FB
:10267000040F14BFEFF30880EFF3098020E9F00F97
:1026800040F804ED14BF80F3088880F3098800B592
:1026900007F032FE5DF804EB4EF0040E70470000C8
:1026A0001C000020140000201800002004ED00E0B1
:1026B00020ED00E008ED00E008480047FEE7FEE7F7
:1026C000FEE7FEE7FEE7FEE7FEE7FEE7FEE7FEE7E2
:1026D00003480449044A054B70470000ED240008F4
:1026E000E0450020E04B0020E0470020E0470020CC
:1026F000032A40F2308010F0030C00F0158011F82E
:10270000013BBCF1020F624498BF11F801CB00F805
:10271000013B38BF11F8013BA2F1040298BF00F859
:1027200001CB38BF00F8013B11F0030300F0258016
:10273000083AC0F0088051F8043B083A51F804CB3D
:10274000A0E80810F5E7121D5CBF51F8043B40F803
:10275000043BAFF30080D20724BF11F8013B11F80E
:1027600001CB48BF11F8012B24BF00F8013B00F852
:1027700001CB48BF00F8012B704710B5203AC0F0DC
:102780000B80B1E81850203AA0E81850B1E8185072
:10279000A0E81850BFF4F5AF5FEA027C24BFB1E8AF
:1027A0001850A0E8185044BF18C918C0BDE8104020
:1027B0005FEA827C24BF51F8043B40F8043B08BF29
:1027C0007047D20728BF31F8023B48BF11F8012BF0
:1027D00028BF20F8023B48BF00F8012B70474FF09C
:1027E000000200B5134694469646203922BFA0E861
:1027F0000C50A0E80C50B1F12001BFF4F7AF09076D
:1028000028BFA0E80C5048BF0CC05DF804EB89005D
:1028100028BF40F8042B08BF704748BF20F8022BA0
:1028200011F0804F18BF00F8012B704770477047B8
:102830007047754600F028F8AE46050069465346D5
:1028400020F00700854618B020B5FFF741FFBDE82E
:1028500020404FF000064FF000074FF000084FF007
:10286000000B21F00701AC46ACE8C009ACE8C00998
:10287000ACE8C009ACE8C0098D4670470446AFF328
:1028800000802046FFF799FE004870477C450020F5
:1028900001491820ABBEFEE7260002007047CA437C
:1028A0000260704721B1826842F00102826003E059
:1028B000826822F0010282607047000010B5044671
:1028C0001248844208D10121401502F005FE002182
:1028D000601502F001FE17E00D48844208D1012185
:1028E000001502F0F9FD0021201502F0F5FD0BE0C6
:1028F0000848844208D10121C80302F0EDFD0021FF
:102900004FF4004002F0E8FD10BD0000002401403B
:1029100000280140003C0140014600208A6802F086
:1029200004020AB1012000E0002070470146C86C93
:1029300080B270470246002013680B400BB10120A3
:1029400000E000207047014600208A6802F008027B
:102950000AB1012000E000207047000030B50246B7
:102960000020002350680F4C20400D790C6844EA89
:1029700005242043506090680B4C2040D1E902545C
:102980002C434D7944EA450420439060D06A20F4FA
:1029900070000C7C641EE4B2234340EA0350D06212
:1029A00030BD0000FFFEF0FFFDF7F1FFF0B504467B
:1029B0000D4600200021092D11DDE068A5F10A0671
:1029C00006EB4607072606FA07F18843A5F10A0633
:1029D00006EB460603FA06F10843E0600CE02069C6
:1029E00005EB4507072606FA07F1884305EB450680
:1029F00003FA06F108432061072A0FDA606B561EBE
:102A000006EB86071F2606FA07F18843561E06EBDB
:102A1000860605FA06F10843606322E00D2A0FDA04
:102A2000206BD61F06EB86071F2606FA07F18843A0
:102A3000D61F06EB860605FA06F10843206310E070
:102A4000E06AA2F10D0606EB86071F2606FA07F1DB
:102A50008843A2F10D0606EB860605FA06F1084347
:102A6000E062F0BD816841F008018160704721B1EA
:102A7000826842F4A002826003E0826822F4A0022D
:102A800082607047816841F00401816070470000F6
:102A900010B50446082C6DD2DFE804F004111E2B9B
:102AA0003845525F1021354801F01EFE2021334881
:102AB00001F01AFE4021314801F018FE5BE01021C0
:102AC0002E4801F013FE20212C4801F00FFE40217A
:102AD0002A4801F009FE4EE01021284801F006FEC8
:102AE0002021264801F002FE4021244801F0FEFD8D
:102AF00041E01021214801F0F7FD20211F4801F09D
:102B0000F5FD40211D4801F0F1FD34E010211B4886
:102B100001F0EAFD2021194801F0E8FD40211748A5
:102B200001F0E2FD27E01021144801F0DDFD202135
:102B3000124801F0D9FD4021104801F0D5FD1AE0FE
:102B400010210E4801F0D2FD20210C4801F0CCFDEF
:102B500040210A4801F0C8FD0DE01021074801F0AE
:102B6000C5FD2021054801F0BFFD4021034801F0CB
:102B7000BDFD00E000BF00BF10BD00000008014027
:102B800010B502F0B9FC02F0EDFB04F03BF801F0E7
:102B9000CFFB04F071F801F0E1FD10BD00BFFEE7CE
:102BA00000B587B01F4800F05BF804A800F084FA75
:102BB00000208DF8160001208DF817008DF8180000
:102BC00000208DF819008DF81A008DF81B008DF883
:102BD00012008DF8130002208DF8140004208DF8E7
:102BE00015000820ADF8100004A90E4800F014F9F3
:102BF00000208DF80A008DF80B008DF80C00ADF860
:102C00000000ADF80200ADF80400ADF80600ADF824
:102C1000080001208DF80D00684600F03DF807B06F
:102C200000BD00000064004000220C4B994202D11C
:102C30000023836111E0C1F3130201F000730BB1B3
:102C4000C2600AE001F080630BB1026105E001F0AF
:102C500000630BB1826000E0426070477000F030AA
:102C600010B504460B48844209D10121480602F000
:102C700013FC00214FF0007002F00EFC08E001216F
:102C8000880602F009FC00214FF0806002F004FC8D
:102C900010BD00000064004010B50021837A0122BD
:102CA00002FA03F13D4A126842F001023B4B1A60FE
:102CB0003A4A1C3212688A43384B1C331A60027B32
:102CC000CAB9364A0C3212688A43344B0C331A6044
:102CD0004288C38842EA0343304A4032847A42F849
:102CE00034300288838842EA03432C4A4032847A93
:102CF00002EBC4025360027B012A19D1274A0C322D
:102D000012680A43254B0C331A604288038842EA52
:102D10000343224A4032847A42F83430C28883889E
:102D200042EA03431D4A4032847A02EBC4025360F4
:102D3000C27A3AB9194A121D12688A43174B1B1DF1
:102D40001A6006E0154A121D12680A43134B1B1D38
:102D50001A60028932B9114A143212688A430F4B41
:102D600014331A600289012A06D10C4A14321268FF
:102D70000A430A4B14331A60427B012A06D1074AE0
:102D80001C3212680A43054B1C331A60034A12684E
:102D900022F00102014B1A6010BD000000660040E5
:102DA00010B50246002001F4700343B19369C1F3EA
:102DB000130423400BB101202DE000202BE001F093
:102DC000807343B15368C1F3130423400BB1012056
:102DD00021E000201FE001F0006343B19368C1F3DC
:102DE000130423400BB1012015E0002013E001F093
:102DF000007343B1D368C1F3130423400BB1012026
:102E000009E0002007E01369C1F3130423400BB16C
:102E1000012000E0002010BD30B502460020002354
:102E2000146824F002041460146844F0010414606F
:102E300000E05B1C546804F001041CB94FF6FF74F9
:102E4000A342F6D1546804F001040CB900206CE0F0
:102E50008C79012C04D1146844F08004146003E0E0
:102E6000146824F080041460CC79012C04D1146817
:102E700044F04004146003E0146824F0400414603B
:102E80000C7A012C04D1146844F02004146003E08F
:102E9000146824F0200414604C7A012C04D11468C6
:102EA00044F01004146003E0146824F0100414606B
:102EB0008C7A012C04D1146844F00804146003E0F7
:102EC000146824F008041460CC7A012C04D114682E
:102ED00044F00404146003E0146824F00404146053
:102EE0008C78A407CD7844EA05640D7944EA05445A
:102EF0004D7944EA05540D886D1E2C43D461146845
:102F000024F001041460002300E05B1C546804F00A
:102F100001041CB14FF6FF74A342F6D1546804F0CB
:102F200001040CB1002000E0012030BD0246002069
:102F300019B9D36803F0030006E0012903D113692E
:102F400003F0030000E00020704700002DE9F0438B
:102F500085B00546884691461E463746BF014F4418
:102F600017491848FFF71CFF38B915491548FFF7EE
:102F70005BFE202005B0BDE8F0836A4600211148C1
:102F800000F022F89DF80A00A84201D00420F1E7E1
:102F90000098B8420BD1002406E00DF10B00005D53
:102FA00008F80400601CC4B2AC42F6DB01E001206A
:102FB000E0E79DF8080008B10220DBE70820D9E728
:102FC000080000320064004010B500F5D87303EB30
:102FD00001131B6803F004031372137A53B900F54D
:102FE000D87303EB01131B6840F2FF7404EA5353D8
:102FF000136009E000F5D87303EB01131B686FF051
:10300000604404EAD303536000F5D87303EB011363
:103010001B6803F00203537200F5D87303EB01132E
:103020005B6803F00F03937200F5D87303EB011391
:103030005B681B0AD37400F5D87303EB01139B681C
:10304000D37200F5D87303EB01139B681C0A147349
:1030500000F5D87303EB01139B681C0C547300F547
:10306000D87303EB01139B681B0E937300F5D873A1
:1030700003EB0113DB68D37300F5D87303EB011383
:10308000DB681C0A147400F5D87303EB0113DB68CA
:103090001C0C547400F5D87303EB0113DB681B0E92
:1030A000937421B9C36843F02003C36003E003694C
:1030B00043F02003036110BD00218171C1710172D1
:1030C00041728172C1728170C1700321017102214C
:1030D000417101210180704710B5024600209368BC
:1030E00003F08063B3F1806F00D110E0936803F0C8
:1030F0000063B3F1006F01D1012008E0936803F091
:103100008053B3F1805F01D1022000E00420042845
:1031100074D002F5C07303EB00131B6803F00104C5
:1031200002F5C07303EB00131C600B7A7BB94B7A7A
:103130000C8843EA445302F5C07404EB001424687D
:10314000234302F5C07404EB0014236010E00B7AF3
:103150004C6843EAC4034C7A234302F5C07404EB81
:1031600000142468234302F5C07404EB00142360A8
:103170008B7A03F00F038B7202F5C07303EB00131D
:103180005B6823F00F0402F5C07303EB00135C606F
:1031900002F5C07303EB00135B688C7A234302F5DE
:1031A000C07404EB001463608B7B1C064B7B44EA09
:1031B00003440B7B44EA0323CC7A234302F5C07417
:1031C00004EB0014A3608B7C1C064B7C44EA034494
:1031D0000B7C44EA0323CC7B234302F5C07404EB4D
:1031E0000014E36002F5C07303EB00131B6843F0A7
:1031F000010402F5C07303EB00131C6010BD000056
:103200002DE9F04786B006460F46904699464FF0A6
:10321000000A002548EA8910019000208DF80C0072
:103220008DF80D008DF80E6000BF05E0795D0DF1A1
:103230000F004155681CC5B2B542F7DB01A90E4825
:10324000FFF74AFF8246002400E0641C51460A480A
:1032500000F014F8012801D0802CF6D1002400E001
:10326000641C00210448FFF761FE012801DA802C6C
:10327000F6D106B0BDE8F0870064004010B5024604
:10328000002321B1012907D002290FD109E090685C
:103290001D4C00EA04030BE090681C4C00EA040398
:1032A00006E090681A4C00EA040301E0002300BF26
:1032B00000BF184C181BA34216D007DC83B16FF077
:1032C0008060184470B1022818D111E0B0F5007F79
:1032D00010D0114C204448B1B0F5003F0ED10BE0A6
:1032E00002230DE000230BE0002309E0002307E0A8
:1032F000012305E0012303E0012301E0002300BFD7
:1033000000BFD8B210BD0000030000040003000895
:1033100000000310000100080001FFF70146002231
:10332000974B1A7000200EE000EB4002954B03EB28
:103330008202D27A012A04D1914A1278521C904B0F
:103340001A70421CD0B22528EEDB01297ED1002262
:103350008D4B1A7001200FE0421E02EB4202894B96
:1033600003EB8202D27A012A04D1874A1278521CD6
:10337000854B1A70421CD0B20628EDDD0022834B2B
:103380001A7007200FE0421E02EB42027D4B03EB56
:103390008202D27A012A04D17C4A1278521C7B4BD9
:1033A0001A70421CD0B20928EDDD0022784B1A7049
:1033B0000A200FE0421E02EB4202724B03EB820234
:1033C000D27A012A04D1724A1278521C704B1A70B8
:1033D000421CD0B20B28EDDD00226E4B1A700C207F
:1033E0000FE0421E02EB4202664B03EB8202D27AEE
:1033F000012A04D1674A1278521C664B1A70421C8B
:10340000D0B20F28EDDD0022634B1A705D4A92F8AE
:10341000BF20012A03D11A461278521C1A700022CA
:103420005E4B1A7011200FE0421E02EB4202554B18
:1034300003EB8202D27A012A04D1584A1278521C34
:10344000564B1A70421CD0B2122800E096E0EBDD19
:103450000022534B1A704B4A92F8E320012A03D101
:103460001A461278521C1A7000224E4B1A70142001
:103470000FE0421E02EB4202424B03EB8202D27A81
:10348000012A04D1474A1278521C464B1A70421C3A
:10349000D0B21628EDDD0022434B1A7017200FE042
:1034A000421E02EB4202374B03EB8202D27A012A20
:1034B00004D13D4A1278521C3B4B1A70421CD0B2C8
:1034C0001828EDDD0022394B1A7019200FE0421E3A
:1034D00002EB42022B4B03EB8202D27A012A04D187
:1034E000324A1278521C314B1A70421CD0B21A2840
:1034F000EDDD00222E4B1A701C200FE0421E02EB65
:103500004202204B03EB8202D27A012A04D1284ADC
:103510001278521C264B1A70421CD0B21C28EDDBCC
:103520000022244B1A701D200FE0421E02EB4202C3
:10353000144B03EB8202D27A012A04D11D4A12787D
:10354000521C1C4B1A70421CD0B21D28EDDB00220D
:10355000194B1A7024200FE0421E02EB4202094B65
:1035600003EB8202D27A012A04D1134A1278521C48
:10357000114B1A70421CD0B22428EDDB70470000BA
:10358000D70200200E0100205C0000206200002015
:103590006300002064000020600000206100002023
:1035A0005F0000205D000020650000206700002013
:1035B00068000020690000206A00002001464E4A91
:1035C000D27802F00102002A68D04C4A1278042A0C
:1035D00003DA20224A4B1A608CE0484A1278082A03
:1035E00004DA4FF40052464B1A6083E0434A1278E3
:1035F0000C2A04DA4FF40012414B1A607AE03F4A79
:103600001278102A04DA42F220023D4B1A6071E06F
:103610003A4A1278142A03DA3A4A394B1A6069E0B6
:10362000364A1278182A03DA0022354B1A6061E014
:10363000324A12781C2A03DA4022314B1A6059E0D0
:103640002E4A1278202A04DA4FF480422C4B1A605A
:1036500050E02A4A1278242A04DA4FF48002284BD8
:103660001A6047E0254A1278282A03DA264A244BB2
:103670001A603FE0214A12782C2A03DA234A204BB1
:103680001A6037E01D4A1278342A03DA204A1C4BAC
:103690001A602FE000221A4B1A602BE019B90022A1
:1036A000174B1A6026E0012903D11A4A144B1A60FD
:1036B00020E0194A92781204174B5B7802EB032240
:1036C000154B1B78D01801280DD010280BD0B0F561
:1036D000807F08D0B0F5805F05D0B0F5803F02D084
:1036E000B0F5801F02D1064A106003E04FF480124B
:1036F000034B1A607047000038000020FA000020D9
:103700000801002020202000404040006060600050
:103710001010100030303000CD00002038B5FE48C9
:103720000078052802DA4FF4FC6400E01F2418201A
:10373000234603221E210090252003F0F7F81820CD
:1037400023460A221E210090352003F0EFF81820AE
:10375000234603221E210090452003F0E7F818209D
:1037600023460B221E210090552003F0DFF818207D
:1037700023460E221E210090652003F0D7F8182062
:1037800023460F221E2100907D2003F0CFF8182041
:10379000234610221E210090952003F0C7F8182020
:1037A000234619221E210090AD2003F0BFF81820F7
:1037B00023461A221E210090C52003F0B7F82346A5
:1037C000D54802781E21E32004F0C8F8D3480078D9
:1037D000082802DA4FF4FC6400E01F241820234676
:1037E000052237210090252003F0A0F81820234659
:1037F0000B2237210090352003F098F8182023463B
:103800000E2237210090452003F090F8182023461F
:103810000F22372100905D2003F088F818202346FE
:10382000102237210090752003F080F818202346DD
:103830001922372100908D2003F078F818202346B4
:103840001A2237210090A52003F070F82346B348D0
:1038500002783721E32004F081F8B1480078142879
:1038600002DA4FF4FC6400E01F24182023460522EE
:1038700050210090252003F059F8182023460C22EF
:1038800050210090352003F051F8182023460B22D8
:1038900050210090452003F049F8182023460E22BD
:1038A00050210090552003F041F8182023460F22A4
:1038B000502100906D2003F039F818202346102283
:1038C00050210090852003F031F81820234619225A
:1038D000502100909D2003F029F8182023461A2239
:1038E00050210090B52003F021F823468C4802783F
:1038F0005021E32004F032F88A4800780A2802DADE
:103900004FF4FC6400E01F2418202346092269219B
:103910000090252003F00AF8182023460B22692185
:103920000090352003F002F8182023460E2269216A
:103930000090452002F0FAFF182023460F2269214B
:1039400000905D2002F0F2FF18202346102269212A
:103950000090752002F0EAFF182023461922692101
:1039600000908D2002F0E2FF182023461A226921E0
:103970000090A52002F0DAFF23466A480278692108
:10398000E32003F0EBFF684800780A2802DA4FF4DE
:10399000FC6400E01F2418202346012282210090AD
:1039A000252002F0C3FF1820234602228221009026
:1039B000352002F0BBFF182023460B228221009005
:1039C000452002F0B3FF182023460E2282210090EA
:1039D000552002F0ABFF182023460F2282210090D1
:1039E0006D2002F0A3FF18202346102282210090B0
:1039F000852002F09BFF1820234619228221009087
:103A00009D2002F093FF182023461A228221009065
:103A1000B52002F08BFF2346434802788221E32041
:103A200003F09CFF414800780A2802DA4FF4FC6456
:103A300000E01F24182023460E229B210090252001
:103A400002F074FF182023461B229B2100903D208A
:103A500002F06CFF1820234601229B210090552084
:103A600002F064FF182023460E229B21009065205F
:103A700002F05CFF182023460F229B2100907D203E
:103A800002F054FF1820234610229B21009095201D
:103A900002F04CFF1820234619229B210090AD20F4
:103AA00002F044FF182023461A229B210090C520D3
:103AB00002F03CFF23461D4802789B21E32003F0DF
:103AC0004DFF1B4800780A2802DA4FF4FC6400E03E
:103AD0001F24182023460E22B4210090252002F036
:103AE00025FF182023461B22B42100903D2002F020
:103AF0001DFF182023460222B4210090552002F019
:103B000015FF182023460E22B4210090652002F0F4
:103B10000DFF182023460DE0EC000020ED000020F2
:103B2000EE000020EF000020F0000020F100002057
:103B3000F20000200F22B42100907D2002F0F6FE5A
:103B4000182023461022B4210090952002F0EEFEAA
:103B5000182023461922B4210090AD2002F0E6FE81
:103B6000182023461A22B4210090C52002F0DEFE60
:103B700023462B480278B421E32003F0EFFE2948C6
:103B800000780A2802DA4FF4FC6400E01F241820B1
:103B900023460222CD210090252002F0C7FE1820E6
:103BA00023460422CD210090352002F0BFFE1820CC
:103BB00023460B22CD210090452002F0B7FE1820AD
:103BC00023460E22CD210090552002F0AFFE182092
:103BD00023460F22CD2100906D2002F0A7FE182071
:103BE00023461022CD210090852002F09FFE182050
:103BF00023461922CD2100909D2002F097FE182027
:103C000023461A22CD210090B52002F08FFE2346D4
:103C100004480278CD21E32003F0A0FE38BD000067
:103C2000F2000020F30000207047002001E0411C5A
:103C3000C8B20E28FBDB704710B5FE48C07800F014
:103C40000100002874D0FC480078062804DA40F609
:103C5000FF70FA490880A3E2F7480078082803DAE1
:103C60000020F64908809BE2F34800780A2803DA2E
:103C70002020F249088093E2EF4800780C2803DA0C
:103C80001020EE4908808BE2EB4800780E2803DA1A
:103C90000820EA49088083E2E7480078102803DA20
:103CA0000420E64908807BE2E3480078122803DA22
:103CB0000220E249088073E2DF480078142803DA22
:103CC0000120DE4908806BE2DB480078162804DA20
:103CD0004FF40060D949088062E2D748007818287C
:103CE00004DA4FF48060D549088059E2D248007860
:103CF0001A2804DA4FF40070D049088050E2CE4808
:103D000000781C2804DA4FF48070CC49088047E220
:103D1000C94800781E2803DA8020C84908803FE29D
:103D2000C5480078202804DA4020C449088037E2DA
:103D30000BE0C1480078222803DA0020BF49088040
:103D40002EE20020BC4908702AE2BD48007800F04D
:103D5000030058B9B948008820F01000B74908801E
:103D60000846008820F0200008802EE0B448007843
:103D700000F0030001280BD1B048008840F010008B
:103D8000AE4908800846008820F0200008801CE02A
:103D9000AB48007800F0030002280BD1A748008848
:103DA00020F01000A54908800846008840F0200057
:103DB00008800AE0A148008820F010009F49088090
:103DC0000846008880F0200008809E484078C0F3B4
:103DD0004010C8BB9B48807800F00100A0BB984809
:103DE000007800F00C0058B99448008820F00400D6
:103DF000924908800846008820F00800088041E0C9
:103E00008F48007800F00C0004280BD18B48008804
:103E100040F00400894908800846008820F0080026
:103E200008802FE08648007800F00C00082829D18F
:103E30008248008820F004008049088008460088F5
:103E400040F0080008801DE0FFE77D48007800F0A2
:103E50000C0004280BD17948008820F0080077492D
:103E600008800846008880F0040008800AE0734853
:103E7000008820F00400714908800846008880F01E
:103E8000080008806E48007800F0300088BB6D485C
:103E90004078C0F3001058B16848008880F00200F4
:103EA000664908800846008820F00100088062E02A
:103EB00060484078C00958B16048008820F001008F
:103EC0005E4908800846008840F00200088052E001
:103ED0005848807800F0010060B15848008880F0B0
:103EE0000100564908800846008820F0020008803A
:103EF00041E00BE05148008840F001004F49088044
:103F00000846008820F00200088034E04C48007821
:103F100000F0300010280BD14848008840F0010024
:103F2000464908800846008820F00200088022E008
:103F30004348007800F0300020280BD13F4800882B
:103F400020F001003D4908800846008840F002004A
:103F5000088010E03A48007800F0300030280AD19C
:103F60003648008820F0010034490880084600885F
:103F700020F0020008803248007800F0C000E0B96C
:103F80002C484078C0F3800058B12C48008840F499
:103F900080602A4908800846008820F40060088074
:103FA00040E02648008820F48060244908800846C4
:103FB000008840F40060088034E02148007800F078
:103FC000C00040280BD11D48008840F480601B4988
:103FD00008800846008820F40060088022E0184825
:103FE000007800F0C00080280BD11448008820F42D
:103FF0008060124908800846008840F4006008800C
:1040000010E00F48007800F0C000C0280AD10B482B
:10401000008820F48060094908800846008820F460
:10402000006008800648407800F0030060BB01484B
:10403000407809E038000020FA000020F800002055
:10404000D100002040000020C0F3C00020B9584833
:104050008078C0F3400058B15648008840F4807022
:10406000544908800846008820F40070088040E029
:104070005048008820F480704E4908800846008827
:1040800040F40070088034E04B48407800F00300B2
:1040900001280BD14748008840F4807045490880CA
:1040A0000846008820F40070088022E042484078EA
:1040B00000F0030002280BD13E48008820F48070F5
:1040C0003C4908800846008840F40070088010E0F1
:1040D0003948407800F0030003280AD135480088A9
:1040E00020F48070334908800846008820F400706E
:1040F00008803148407800F00C00E0B92F48407843
:10410000C0F3001058B12B48008840F04000294906
:1041100008800846008820F08000088040E025489C
:10412000008820F04000234908800846008840F0BD
:104130008000088034E02048407800F00C0004281B
:104140000BD11C48008840F040001A4908800846FE
:10415000008820F08000088022E01748407800F0B6
:104160000C0008280BD11348008820F040001149AA
:1041700008800846008840F08000088010E00E4863
:10418000407800F00C000C280AD10A48008820F082
:104190004000084908800846008820F08000088018
:1041A00004490988C1F30B0000F026FF10BD000090
:1041B00040000020F8000020D1000020380000203E
:1041C00030B5002326E0174C216800221EE001F0E4
:1041D00001046CB14024144D2C60002001E0441C0B
:1041E000E0B20428FBDB40240F4D2D1D2C600AE0BB
:1041F00040240D4D2C602D1D2C60002001E0441C3E
:10420000E0B20428FBDB4908541CE2B2182ADEDBCA
:104210005C1CE3B20C2BD6DB4024034D2D1D2C601F
:1042200030BD000008010020100C014010B5FEF761
:10423000CBF90149086010BDF003002010B5024819
:104240000068FEF7C5F910BDF003002005490968B4
:1042500021F01001034A1160114609680143116001
:10426000704700000020024001460020034A106809
:1042700000F0380008431060704700000020024042
:10428000024600210BE0084830F82100904204D19A
:10429000054800EB810040887047481CC1B20529E1
:1042A000F1DB01484088F7E7986E01082DE9F041FD
:1042B00086B0074688461546142101A8FEF78FFAF6
:1042C00000268DF8047010208DF8050000208DF870
:1042D0000600E81CC6B2002406E018F8041001AA83
:1042E000E01C1154601CC4B2AC42F6DB314601A89C
:1042F00004F0B9F901A9885504210C4800F0F6F939
:10430000002405E001A9085D04F02AFA601CC4B28B
:10431000701C8442F6DB052007F083F80421034873
:1043200000F0E2F9012006B0BDE8F081000C014088
:1043300008B5684600F0DCF90120ADF80000002067
:104340008DF803006946714800F0E8F8684600F00F
:10435000CFF910208DF8030001208DF8020048F2FB
:10436000F010ADF800006946684800F0D7F86846DC
:1043700000F0BEF94FF40060ADF8000003208DF8A6
:10438000020048208DF803006946604800F0C6F836
:10439000684600F0ADF94FF48050ADF800000320FE
:1043A0008DF8020018208DF803006946574800F088
:1043B000B5F8684600F09CF910208DF80300012044
:1043C0008DF8020041F2BF30ADF800006946504858
:1043D00000F0A4F801214F4800F02CF908214C48C6
:1043E00000F084F920214A4800F080F980214848F3
:1043F00000F07CF90020FFF7E1F8FFF7E1FE4FF451
:104400008071434800F072F94FF40071404800F0A9
:104410006DF902213E4800F067F910208DF8030085
:1044200003208DF802004020ADF8000069463848AE
:1044300000F074F8684600F05BF94FF46040ADF8A6
:10444000000018208DF8030003208DF80200694653
:104450002F4800F063F8684600F04AF914208DF800
:10446000030001208DF802004FF4C040ADF80000B9
:104470006946294800F052F84FF40051264800F0F0
:1044800035F94FF48041244800F030F9684600F0D7
:104490002FF910208DF8030001208DF80200C003D1
:1044A000ADF8000069461C4800F038F84FF40041B0
:1044B000194800F01BF904208DF803000002ADF844
:1044C00000006946114800F029F818208DF8030013
:1044D0004FF40070ADF8000069460C4800F01EF87B
:1044E00004208DF803004002ADF80000694608483A
:1044F00000F014F818208DF803004FF48060ADF838
:1045000000006946024800F009F808BD00080140B3
:10451000000C014000023000001001402DE9F04184
:10452000024600250026002000230024002791F8E1
:1045300003C00CF00F0591F803C00CF0100CBCF197
:10454000000F03D091F802C04CEA050591F800C0B5
:10455000BCF1000F31D0146800202BE04FF0010CAB
:104560000CFA00F3B1F800C00CEA03069E4220D119
:1045700083004FF00F0C0CFA03F7BC4305FA03FC61
:104580004CEA040491F803C0BCF1280F06D14FF0A7
:10459000010C0CFA00FCC2F814C00AE091F803C048
:1045A000BCF1480F05D14FF0010C0CFA00FCC2F829
:1045B00010C0401C0828D1D31460B1F800C0BCF171
:1045C000FF0F34DD546800202EE000F1080C4FF09E
:1045D000010808FA0CF3B1F800C00CEA03069E4289
:1045E00021D183004FF00F0C0CFA03F7BC4305FAFE
:1045F00003FC4CEA040491F803C0BCF1280F05D178
:1046000000F1080C08FA0CF8C2F8148091F803C005
:10461000BCF1480F07D100F1080C4FF0010808FA6F
:104620000CF8C2F81080401C0828CED35460BDE8B6
:10463000F0810000F0B50A46002300240021002587
:1046400000F00046B6F1004F02D11D4EF16901E0C5
:104650001B4E7168C0F3034583B200F44016B6F5F3
:10466000401F08D121F07061154E766826F0706603
:10467000134F7E6012E000F48016B6F5801F06D15D
:10468000032606FA05F4A14341F0706106E0460DE9
:10469000360103FA06F6B14341F0706122B1460DCE
:1046A000360103FA06F6314300F00046B6F1004F3A
:1046B00002D1034EF16101E0014E7160F0BD0000D6
:1046C000000001400246002093680B400BB101201E
:1046D00000E00020704702460020D3680B400BB179
:1046E000012000E000207047416170470161704780
:1046F0004FF6FF710180022181700421C170704763
:104700002DE9F041054600240423012229461248E0
:10471000FEF74CF9002619E001210F48FEF7A7F932
:1047200000BF02210C48FEF705F90028F9D00A481D
:10473000FEF7FCF8074602210748FEF7B0F8002113
:104740000548FEF794F93C44701CC6B2082EE3DB22
:10475000E408A0B2BDE8F0810024014010B545F2A4
:10476000555000F02DF8042000F01EF840F21450CF
:1047700000F020F800F010F800F002F810BD000082
:104780004CF6CC4001490860704700000030004002
:1047900010B500F001F810BD4AF6AA2001490860E2
:1047A0007047000000300040014948607047000039
:1047B0000030004001498860704700000030004030
:1047C00001490860704700000030004010B500202B
:1047D0005449086054490860002408E00020534907
:1047E00008555349085553490855601CC4B2022C5A
:1047F000F4DB002404E000204F490855601CC4B2DB
:10480000042CF8DB00240AE000204C4908554C49F0
:1048100008554C4908554C490855601CC4B2082C31
:10482000F2DB002408E000204849085548490855B3
:1048300048490855601CC4B20A2CF4DB00204649E4
:10484000087046490870464908704649087046494C
:10485000087046490870464908704649088046492C
:1048600008701F204549088045490880454908804F
:1048700045490880454908804549088045490880E0
:104880000020454908704549087045490870454968
:104890000870454908704549087045490870454900
:1048A00008704549087045490870454908804549E0
:1048B00008804549087045490870454908704549D0
:1048C00008704549087027490870444908804449E0
:1048D00008704449087044490880444908704449B4
:1048E0000860444908800F48C07820F0800080307C
:1048F0000C49C8700020404908700120FEF70EFDE9
:1049000001203E49087000203D4908803D4908804B
:104910003D490870411E3D48A0F8C211042180F8AD
:10492000C61110BD380000203C000020A900002066
:10493000D1000020D3000020CD000020AB000020DB
:10494000B3000020C3000020BB0000207817002027
:10495000301800203A180020D5000020DC0000208C
:10496000D7000020D8000020DA000020DB00002063
:10497000DF000020E4000020E6000020740000209A
:1049800076000020780000207A0000207C000020C3
:104990008000002082000020A0000020E000002015
:1049A000EC000020ED000020EE000020EF000020D1
:1049B000F0000020F1000020F2000020F3000020B1
:1049C000F4000020F6000020D6000020070100209F
:1049D000D9000020DD000020E1000020F8000020C8
:1049E000DE000020FA000020FC000020FE00002075
:1049F00008010020E2000020D60200205E00002016
:104A00009C0000209E0000200C0100200E010020D0
:104A100070B50646002409480588408845430021B2
:104A2000084600F083F900F0DFFA00BF03E03046EB
:104A300000F082FA641CAC42F9D370BD1817002054
:104A40002DE9F05F05460E4617469846DDF828A08A
:104A50004FF0000B781B401C1FFA80FB344613E01C
:104A60002146284600F062F900F0BEFA4FF0000936
:104A700006E0504600F060FA09F101001FFA80F9E3
:104A8000D945F6DB601C84B24445E9DDBDE8F09F02
:104A900070B504460D462946204600F047F900F05F
:104AA000A3FA0248008800F047FA70BD34000020E5
:104AB00010B54FF400419B48FFF716FEC82003F0E5
:104AC0005FFE4FF400419748FFF710FEC82003F047
:104AD00057FE4FF4A07094490880F02048802C20A5
:104AE00088712A20C8712B200872CF2000F060FA4C
:104AF000002000F041FAD92000F03EFA302000F00A
:104B00003BFAED2000F054FA642000F035FA03205F
:104B100000F032FA122000F02FFA812000F02CFA77
:104B2000E82000F045FA852000F026FA102000F079
:104B300023FA782000F020FACB2000F039FA39204F
:104B400000F01AFA2C2000F017FA002000F014FAF6
:104B5000342000F011FA022000F00EFAF72000F0E5
:104B600027FA202000F008FAEA2000F021FA0020BD
:104B700000F002FA002000F0FFF9C02000F018FA5F
:104B8000212000F0F9F9C12000F012FA122000F003
:104B9000F3F9C52000F00CFA322000F0EDF93C20CA
:104BA00000F0EAF9C72000F003FAC12000F0E4F9B0
:104BB000362000F0FDF9A82000F0DEF93A2000F0E0
:104BC000F7F9552000F0D8F9B12000F0F1F90020F4
:104BD00000F0D2F9182000F0CFF9B62000F0E8F983
:104BE0000A2000F0C9F9A22000F0C6F9F22000F076
:104BF000DFF9002000F0C0F9262000F0D9F90120EB
:104C000000F0BAF92B2000F0D3F9002000F0B4F93D
:104C1000002000F0B1F9002000F0AEF9EF2000F024
:104C2000ABF92A2000F0C4F9002000F0A5F900201B
:104C300000F0A2F9012000F09FF93F2000F09CF95C
:104C4000E02000F0B5F90F2000F096F93A2000F0CE
:104C500093F9362000F090F90B2000F08DF90D202B
:104C600000F08AF9062000F087F94C2000F084F962
:104C7000912000F081F9312000F07EF9082000F049
:104C80007BF9102000F078F9042000F075F911206C
:104C900000F072F90C2000F06FF9002000F06CF9C0
:104CA000E12000F085F9002000F066F9062000F010
:104CB00063F90A2000F060F9052000F05DF9122088
:104CC00000F05AF9092000F057F92C2000F054F9AF
:104CD000922000F051F93F2000F04EF9082000F03A
:104CE0004BF90E2000F048F90B2000F045F92E207A
:104CF00000F042F9332000F03FF90F2000F03CF9BA
:104D0000112000F055F9782003F03AFD292000F039
:104D10004FF9782003F034FD4FF6FF71002001F0C9
:104D2000A7FE10BD000801401817002070B504460A
:104D30000D460A49C87900F03BF9201200F01CF931
:104D4000E0B200F019F90549087A00F031F92812AB
:104D500000F012F9E8B200F00FF970BD181700204A
:104D60002DE9F84F81460D4617461E4600955348DB
:104D7000B0F80080A7F12000C7B20A98002850D1EF
:104D800000244BE00C2E07D107EB47004C4901EB08
:104D9000800010F804A004E04A4800EB071010F867
:104DA00004A04FF0000B33E00AF0800018B1434834
:104DB000A0F8008003E04448008840490880294664
:104DC0004846FFF765FE4FEA4A604FEA106A681CE2
:104DD00085B23E484088A84204DC3848A0F80080EC
:104DE000BDE8F88F0098281AB0420DD1009D09F156
:104DF00001001FFA80F935480088484503DC2F4838
:104E0000A0F80080ECE706E00BF1010000F0FF0BDA
:104E1000BBF1080FC8DB00BF601CC4B2B442B1DBF9
:104E200046E0002442E00C2E07D107EB470024495E
:104E300001EB800010F804A004E0224800EB07100A
:104E400010F804A04FF0000B2AE00AF0800018B11F
:104E500029464846FFF71CFE4FEA4A604FEA106AAF
:104E6000681C85B219484088A84203DC1348A0F8A2
:104E70000080B5E70098281AB0420DD1009D09F1D5
:104E800001001FFA80F911480088484503DC0B48EF
:104E9000A0F80080A4E706E00BF1010000F0FF0B92
:104EA000BBF1080FD1DB00BF601CC4B2B442BADB57
:104EB0000248A0F8008000BF92E700003400002004
:104EC000202401089428010836000020181700202B
:104ED0002DE9F84F04460D4690469946DDE90A67EC
:104EE00004F0FF0A08EB04001FFA80F809EB050044
:104EF0001FFA80F916E0444502DB5446A81985B232
:104F00004D4500DB14E0012000903A7833462946F5
:104F10002046FFF725FF304606EBD07104EB610118
:104F20008CB27F1C38787E2802DC38782028E2DAC0
:104F300000BFBDE8F88F000010B504464FF4805163
:104F40000A48FFF7D1FB4FF480710948FFF7CEFB09
:104F50002112084801F0D8FCE1B2064801F0D4FC67
:104F60004FF480510148FFF7C1FB10BD000C014018
:104F7000000801400038004010B504464FF480514D
:104F80000848FFF7B1FB4FF480710748FFF7AEFB0D
:104F90002146064801F0B8FC4FF480510148FFF764
:104FA000A5FB10BD000C0140000801400038004086
:104FB00010B504464FF480510848FFF795FB4FF4B5
:104FC00080710748FFF790FBE1B2064801F09CFCB6
:104FD0004FF480510148FFF789FB10BD000C0140E0
:104FE000000801400038004010B502498879FFF7F9
:104FF000DFFF10BD1817002070B504468021194846
:10500000FFF774FB10211748FFF76EFBFEF70DFE4C
:10501000254600261AE080211348FFF767FBFEF7BC
:1050200004FE05F0010020B101210E48FFF75CFBF2
:1050300003E001210B48FFF759FB80210A48FFF7E5
:1050400053FBFEF7F2FD6D10701CC6B20C2EE2DBB6
:1050500080210448FFF748FB10210248FFF746FB78
:1050600070BD0000000C01400008014000B500F0D8
:1050700051F90020044908700448007820F002002B
:105080000249087000BD00005A00002038000020CE
:1050900000B500F03FF903480078401C0149087052
:1050A00000BD00005A00002002460B4683B90021D3
:1050B0000BE0114810F81100904204D10E4800EBAB
:1050C000410040787047481CC1B21829F1DB11E05B
:1050D000012B0FD100210BE0084810F8110090427D
:1050E00004D1064800EB41004078EBE7481CC1B210
:1050F0000A29F1DB0020E5E7686E0108546E01081B
:1051000000B57A480078AA2805D10020784948706F
:105110000220784908707748007801280FD0754838
:10512000007802280CD1AA20714908700120724928
:10513000087004206F490870002070490870D3E09F
:105140006C48007804281AD168480078684948708B
:105150006A480078654909780844684908706648D3
:105160000078401C6449087060480078802802DBA1
:10517000FFF78EFFB8E008205E490870B4E05D4894
:10518000007808281AD159480078594988705B4836
:1051900000785649097808445849087056480078FC
:1051A000401C5549087051480078802802DBFFF701
:1051B0006FFF99E020204F49087095E04D48007836
:1051C000202820D14948007849494B4A1278885410
:1051D0004A480078454909780844484908704648D3
:1051E0000078401C4449087040480078802802DB61
:1051F000FFF74EFF78E03D480078414908701020E5
:105200003C49087070E03B480078102823D13748AB
:1052100000783749384A1278885437480078401C5B
:1052200035490870354800783049097808443349D1
:1052300008702E480078802802DBFFF729FF53E032
:105240002D4801782E480078C01C81424CDD40205A
:105250002849087048E02748007840281CD1234896
:1052600001782348244A1278815423480078401C4E
:10527000214908702148007800F07F001F4908701C
:105280001A4800780978884203D1802019490870AB
:105290002AE0FFF7FDFE27E016480078802821D19C
:1052A00012480078BB281AD1FFF7E0FE1548407875
:1052B00020F0040013494870002013490870114879
:1052C000007820F00100401C0E4908700F4800785B
:1052D00050B9142206490E4800F034F804E0FFF7F4
:1052E000D7FE01E0FFF7D4FE00BD0000560000200D
:1052F0005017002058000020570000205B000020BD
:105300005500002038000020D7000020EC020020CB
:105310006417002000200649087001200549087024
:105320000020054908700549087005490870704754
:105330005900002058000020570000205500002090
:105340005B00002003E0531EDAB28B5C8354002A1A
:10535000F9DC704710B5044604F074F910BD00BFC5
:10536000FEE7704710B54FF410514FF0006000F0A9
:1053700039F810BD70B5002100230F22C47804B3A2
:10538000154C246804F4E064C4F5E064210AC1F11A
:105390000403CA40447804FA03F18478144021439A
:1053A00009010E4C0678A155047804F01F0501246C
:1053B000AC4005786D11AD0005F1E025C5F8004160
:1053C00009E0047804F01F050124AC40044D067880
:1053D000761145F8264070BD0CED00E000E400E0D9
:1053E00080E100E0024A0A400243024B1A60704723
:1053F00080FFFF1F08ED00E010B500F099F84FF4B2
:10540000803000F057F900F0B3F90446012C25D1A3
:10541000002000F043F9002000F07EF9A00200F027
:105420006FF90220FEF720FF1020FEF70FFF4FF468
:10543000E0114FF4403000F081F9012000F078F9DC
:1054400000BF392000F004F90028FAD0022000F053
:1054500083F900BF00F01AF90828FBD110BD000045
:1054600001460020034A506820F440400843506041
:10547000704700000010024029B1064AD269024379
:10548000044BDA6104E0034AD2698243014BDA61DA
:10549000704700000010024029B1064A1269024319
:1054A000044B1A6104E0034A12698243014B1A61FA
:1054B000704700000010024029B1064A9269024379
:1054C000044B9A6104E0034A92698243014B9A615A
:1054D000704700000010024029B1064AD26802431A
:1054E000044BDA6004E0034AD2688243014BDA607D
:1054F000704700000010024010B5012140F27D20ED
:10550000FFF7DAFF01214806FFF7B6FF0121880304
:10551000FFF7B2FF4FF40040FFF7A2FF012188031D
:10552000FFF7CAFF01218804FFF7A6FF10BD0000A6
:105530000F48006840F001000D49086008464068C7
:105540000C4908400A494860084600680A49084072
:10555000074908600846006820F480200860084673
:10556000406820F4FE0048604FF41F0088607047D8
:10557000001002400000FFF8FFFFF6FE30B50021EA
:105580000022002400232D4D6D6805F00C0121B18F
:10559000042905D0082923D105E0294D056022E022
:1055A000274D05601FE0254D6D6805F47012234DF1
:1055B0006D6805F48034022505EB92421CB9214D3B
:1055C000554305600BE01D4D6D6805F400351DB1B8
:1055D0001C4D5543056002E0194D5543056002E03E
:1055E000174D056000BF00BF144D6D6805F0F00158
:1055F0000909154D6B5C0568DD4045600F4D6D6810
:1056000005F4E061090A104D6B5C4568DD4085607A
:105610000A4D6D6805F46051C90A0B4D6B5C456815
:10562000DD40C560054D6D6805F44041890B074DAF
:105630006B5CC568B5FBF3F5056130BD0010024039
:1056400000127A0000093D00ED020020FD0200205A
:1056500010B501460022002300204A11012A02D180
:10566000094C236806E0022A02D1074C236A01E0B4
:10567000054C636A01F01F02012494401C400CB1E8
:10568000012000E0002010BD0010024002484068E8
:1056900000F00C007047000000100240014600209E
:1056A000034A506820F0F000084350607047000043
:1056B000001002401149096821F480310F4A11603D
:1056C0001146096821F480211160B0F5803F03D0B4
:1056D000B0F5802F0ED106E00849096841F4803109
:1056E000064A116007E00549096841F4A021034A10
:1056F000116000E000BF00BF7047000000100240D2
:1057000001460020034A506820F4E06008435060DE
:10571000704700000010024001460020034A506814
:1057200020F4605040EAC100506070470010024011
:10573000014908667047000000004242024600200E
:10574000044B586820F47C1042EA01031843014BD3
:10575000586070470010024001460020034A50681C
:1057600020F0030008435060704700000010024022
:1057700038B5002000900024002500BF3120FFF73D
:1057800067FF05460098401C00900098B0F5A06F98
:1057900001D0002DF2D03120FFF75AFF08B10124CB
:1057A00000E00024204638BD00B53E48007850286F
:1057B0000BD13D48007840B950203C490870012089
:1057C000394908703A4908706AE039480078012878
:1057D00029D13548007801280DD1324800781028A9
:1057E00009D11021304802780078401C2E4B1870E7
:1057F0002E48815454E02C48007802280FD12948C3
:10580000007860B90021284802780078401C264BB7
:1058100018702648815402202549087040E0002075
:10582000214908703CE022480078022811D11D4827
:1058300001781D4802780078401C1B4B18701B48EB
:105840008154184600780B282AD104201849087082
:1058500026E017480078042822D11348017813481D
:1058600002F001FF0F490978884213D10D480178F1
:105870000E480D4A1278815410200D4908700D48C9
:10588000407820F00100401C0A4948700020064979
:10589000087005E0202006490870002002490870C1
:1058A00000BD000044000020450000202817002013
:1058B00048000020400000202DE9F04188B04FF062
:1058C00000080026142103A8FCF789FFE5A207CAF7
:1058D0008DE807000120E6490870E64890F803804B
:1058E000014648780121FFF7DFFB0646002406E069
:1058F000201DE049085C03A90855601CC4B244455A
:10590000F6DB072096FBF0F0C7B2072098FBF0F11A
:1059100000FB118008B1781CC7B2002419E00025F3
:1059200013E0072000FB045003A9085C311903AA07
:10593000515C6A1C914001F080010843072101FB82
:10594000045103AA5054681CC5B2072DE9DB601C42
:10595000C4B2BC42E3DB00247AE1C64840781DF8BB
:105960000410884276D1002C4CD1022203A9C248EF
:10597000FFF7E8FCBF488078012808DBBD48807845
:10598000062804DCBB488078401EBC4908709DF89E
:105990000D00FEF775FCBA4908809DF80D00FEF772
:1059A0006FFCB84908809DF80D00FEF769FCB64908
:1059B00008809DF80D00FEF763FCB44908809DF84F
:1059C0000D00FEF75DFCB24908809DF80D00FEF762
:1059D00057FCB04908809DF80D00FEF751FCAE4918
:1059E0000880AE480078C0F3801018B10821AC4898
:1059F000FEF77AFEA948007820F040004030A74921
:105A0000087022E1012C3BD19A488078012805D109
:105A1000092203A9A348FFF795FC08E09548807880
:105A2000022804D1092203A99F48FFF78BFC9F4855
:105A30004078C0F30010D8B18E48807801280AD190
:105A4000002504E0002097494855681CC5B2092D7F
:105A5000F8DB0DE0FAE087488078022808D10025BD
:105A600004E0002090494855681CC5B2092DF8DBB8
:105A70008A48007820F02000203088490870E4E04F
:105A8000022C15D1082203A98948FFF75BFC0020EE
:105A9000884908708148007820F0100010307F4954
:105AA00008700846807820F0800080308870CCE054
:105AB000032C0CD1042203A97F48FFF743FC77484D
:105AC000007820F08000803074490870BDE0042C1C
:105AD0000CD1022203A97948FFF734FC6F484078C3
:105AE00020F00100401C6D494870AEE0052C0CD13F
:105AF000022203A97248FFF725FC6848807820F04D
:105B000020002030654988709FE0062C59D19DF80F
:105B10000C00542821D19DF80D0053281DD10020E0
:105B2000684908705D48C078C0F3801068B90020EB
:105B30006549087065490880654908705748C0780C
:105B400020F0400040305549C8705448C07820F0DB
:105B50000100401C5149C87077E09DF80C004C28AA
:105B60000FD19DF80D0056280BD14C48C07820F07D
:105B700001004A49C8700846C07820F04000C8704B
:105B800063E09DF80C0056280BD19DF80D004528C8
:105B900007D14248C07820F00200801C3F49C870FD
:105BA00053E09DF80C0049284FD19DF80D00442882
:105BB0004BD13A48C07820F00400001D3749C87026
:105BC00043E0072C16D1002505E003A8405D4149BC
:105BD0004855681CC5B2B542F7DB26488078A0302E
:105BE0003D4908703D48007820F0400040303B4976
:105BF00008702AE0082C14D19DF80D009DF80C10B7
:105C000000EB012081B21B488078401E344A22F804
:105C100010103248407820F0400040302F49487042
:105C200013E0092C11D1002506E003A8405D2C49A2
:105C300021F81500681CC5B2042DF6DB2748407812
:105C400020F0400040302549487004E0601CC4B298
:105C50000A2CFFF682AE00BF00200549087008B08C
:105C6000BDE8F0815043405152537148373600002F
:105C7000EC02002064170020A9000020A0000020F2
:105C80007400002076000020780000207A000020B8
:105C90007C000020800000208200002038000020CE
:105CA000000C0140301800203A1800203C00002071
:105CB000A1000020E0000020CD000020D100002045
:105CC000D3000020DD000020FA000020FC000020AE
:105CD000FE0000203C17002046000020400000206D
:105CE0004C0000202DE9F04F85B082468B461546CA
:105CF0000027B946B846002404E000200DF804004F
:105D0000601CC4B2142CF8DBAA208DF80000E81C3B
:105D1000C2B259460DF10100FFF714FB9DF80100D6
:105D20000021FFF7C1F907469DF80300072190FB0A
:105D3000F1F000F0FF089DF8030090FBF1F201FB89
:105D4000120018B108F1010000F0FF0800241BE068
:105D5000002615E06019001D1DF80020C4EBC400EA
:105D6000001D30441DF8000000F08000711C084147
:105D70001044C1B26019001D0DF80010701CC6B2AD
:105D8000072EE7DB601CC4B24445E1DB9DF803004D
:105D90004044C0B28DF8030000240EE0601C1DF8E2
:105DA000000000F07F01601C0DF800101DF80000DD
:105DB000484400F0FF09601CC4B2F81EA042EDDCAC
:105DC00009F07F01B81E0DF80010BB21781E0DF8F8
:105DD00000103B466A460021504604F065F805B0C5
:105DE000BDE8F08F2DE9F047E0B080460027B946C6
:105DF000BA46782142A8FCF7F2FCA822F84918A874
:105E0000FCF7BBFCF7A207CA15AB07C3F8A103C98F
:105E1000CDE913011422F8A10EA8FCF7AEFCFBA2F9
:105E200007CA0BAB07C3FCA30FCB07AC0FC4FEA282
:105E300092E80B00D26803AC0BC40692FEA103C922
:105E4000CDE90101FE48B0F8C201C0F30729FC48C2
:105E500090F8C2A1B0F8C201000A8DF80700F84816
:105E600090F8C2018DF80800B9F1640F06DDBAF1AF
:105E7000640F03DD04208DF8090004E0F04890F879
:105E8000C6018DF809009DF8062001A94046FFF7DC
:105E900029FFEC48407800F00100F8B1E94840786B
:105EA00020F00100E7494870E748007800F00F0152
:105EB0008DF8CD10002606E0E449F01C0A5C33A8FA
:105EC000F11C4254761C9DF8CE00B042F4DC9DF8E3
:105ED000CE2033A94046FFF705FF00BF002422E093
:105EE000601CC0B28DF8610004EB4400D44901EBA2
:105EF0008000C088000A8DF8630004EB440001EBC9
:105F0000800080798DF8640004EB440001EB800090
:105F1000807A8DF865009DF8622018A94046FFF749
:105F2000E1FE601CC4B2CA4800788442D8DB002479
:105F300029E0601CC1B218A8417304F1130000EB02
:105F40004000BF4901EB8000C088010A18A8C17356
:105F500004F1130000EB4000B94901EB80008179A6
:105F600018A8017404F1130000EB4000B44901EBE0
:105F70008000817A18A84174827B1BA94046FFF7F4
:105F8000B1FE601CC4B2B34800788442D1DB022168
:105F900018A84176002506E0AF48425DE81C1EA91E
:105FA0000A54681CC5B2082DF6DBAC4801788DF8A0
:105FB000831018A8827E1EA94046FFF793FE032196
:105FC00018A84176002506E0A548425DE81C1EA9F8
:105FD0000A54681CC5B2082DF6DBA24801788DF87A
:105FE000831018A8827E1EA94046FFF77BFE9E48BC
:105FF000007802282FD1042118A84176002506E058
:106000009A48425DE81C1EA90A54681CC5B2082DB6
:10601000F6DB974801788DF8831018A8827E1EA9B8
:106020004046FFF75FFE052118A84176002506E0EF
:106030009048425DE81C1EA90A54681CC5B2082D90
:10604000F6DB8D4801788DF8831018A8827E1EA992
:106050004046FFF747FE002429E0601CC1B28DF8DE
:106060008510113000EB4000754901EB8000C088BD
:10607000010A8DF8871004F1120000EB400070490E
:1060800001EB800081798DF8881004F1120000EB9B
:1060900040006B4901EB8000817A8DF889109DF8F2
:1060A000862021A94046FFF71DFE601CC4B273483C
:1060B00000788442D1DB002429E0601CC1B28DF855
:1060C00091100E3000EB40005D4901EB8000C0886C
:1060D000010A8DF8931004F10F0000EB40005849BD
:1060E00001EB800081798DF8941004F10F0000EB32
:1060F0004000534901EB8000817A8DF895109DF89E
:10610000922024A94046FFF7EDFD601CC4B25C4814
:1061100000788442D1DB002422E0601CC1B28DF8FB
:106120009D100F3000EB4000454901EB8000B0F9B5
:106130000670390A8DF89F108DF8A07004F11000D8
:1061400000EB40003E4901EB8000817A8DF8A11000
:106150009DF89E2027A94046FFF7C4FD601CC4B2ED
:10616000484800788442D8DB00248FE0601CC1B22C
:106170008DF8A910A01D00EB4000314901EB800013
:10618000C088010A8DF8AB10A01D00EB40002C491F
:1061900001EB800081798DF8AC10A01D00EB400070
:1061A000274901EB80000089010A8DF8AD10A01D80
:1061B00000EB4000224901EB8000017A8DF8AE101F
:1061C000A01D00EB40001E4901EB8000817A8DF894
:1061D000AF109DF8AA202AA94046FFF783FD53E09F
:1061E000AC6E010820010802000100000000000060
:1061F000210101010000000022010C0300550000F4
:106200000000000000000000000000007001080015
:1062100000000000000000000A010900000000006A
:1062200000000000000000000E0109000000000056
:1062300000000000000000000F010300000000004B
:106240000E010020400000204600002028170020FA
:106250005C0000205D000020B3000020E70000206B
:10626000AB000020E80000205E000020BB00002002
:10627000CB000020C3000020CC0000205F000020E5
:106280006000002061000020601CC4B2FE4800785D
:106290008442FFF66BAF002429E0601CC1B28DF888
:1062A000B510083000EB4000F84901EB8000C088D1
:1062B000010A8DF8B71004F1090000EB4000F34922
:1062C00001EB800081798DF8B81004F1090000EB32
:1062D0004000EE4901EB8000817A8DF8B9109DF8FD
:1062E000B6202DA94046FFF7FDFC601CC4B2E8486B
:1062F00000788442D1DB002444E0601CC1B28DF8F8
:10630000C11004EB8400E34931F83000322190FBE6
:10631000F1F0C1B28DF8C31004EB8400DD4901EB4C
:10632000C0004089322190FBF1F0C1B28DF8C41059
:1063300004EB8400D74901EBC000808A322190FB36
:10634000F1F0C1B28DF8C51004EB8400D14901EB26
:10635000C000C08B322190FBF1F0C1B28DF8C610A5
:1063600004F1180000EB4000C84901EB8000817A7D
:106370008DF8C7109DF8C22030A94046FFF7B2FC47
:10638000601CC4B2C44800788442B6DB002434E008
:10639000601CC1B28DF8E510C048016800790202A6
:1063A00042EA1160C1B28DF8E710BC48016800797B
:1063B000020442EA1140C1B28DF8E810B7490888DA
:1063C0000979000A40EA0160C1B28DF8E910B348CA
:1063D00001788DF8EA1004F11B0000EB4000AB4996
:1063E00001EB8000817A8DF8EB109DF8E62039A949
:1063F0004046FFF777FC601CC4B2A948007884428D
:10640000C6DB002434E0601CC1B28DF8F110A54851
:1064100001680079020242EA1160C1B28DF8F310FE
:10642000A04801680079020442EA1140C1B28DF827
:10643000F4109C4801880079020642EA1120C1B29A
:106440008DF8F510974801788DF8F61004F11C00CE
:1064500000EB40008D4901EB8000817A8DF8F71048
:106460009DF8F2203CA94046FFF73CFC601CC4B2FA
:106470008D4800788442C6DB00243BE0601CC1B23A
:106480008DF8FD10894800EBC40108680979000EF9
:1064900040EA0120C1B28DF8FF10844800EBC4012E
:1064A00008680979000C40EA0140C1B28DF800117A
:1064B0007E4800EBC40001880079020642EA112000
:1064C000C1B28DF80111794810F834108DF802111D
:1064D00004F10B0000EB40006C4901EB8000817A75
:1064E0008DF803119DF8FE203FA94046FFF7FAFB07
:1064F000601CC4B26E4800788442BFDB1E206D4928
:10650000086040F62F0048604FF47A7088601420CD
:10651000C860002432E0601CC0B28DF80D00002578
:1065200010E0644830F82500C0F307216800C01C63
:1065300003AA11545F4810F825106800001D11547B
:10654000681CC5B2042DECDB504890F8AE0138B998
:106550004E4890F8BA0118B900208DF8170002E0F3
:1065600004208DF8170000208DF817009DF80E20EC
:1065700003A94046FFF7B6FB601CC4B24E48007842
:106580008442C8DB414890F82B0118B93F4890F885
:10659000370118B3002406E04848015DE01C07AA53
:1065A0001154601CC4B2082CF6DB384890F82A015C
:1065B00048B1002405E00021E01C07AA1154601C2A
:1065C000C4B2082CF7DB314890F82A018DF8270077
:1065D0009DF81E2007A94046FFF784FB3848007845
:1065E000C0F30010F0B3374800783749097800EB62
:1065F0000110C0B28DF8570034480078344909784A
:1066000000EB0110C0B28DF85800324800783249D2
:10661000097800EB0110C0B28DF859001C480078D1
:106620001949097800EB0110C0B28DF85A002B48C7
:1066300000781F49097800EB0110C0B28DF85B00AB
:10664000274800780007000E8DF85C001448007899
:106650001149097800EB0110C0B28DF85D001648B1
:10666000007800E062E01049097800EB0110C0B248
:106670008DF85E001B484078C0F38000A0B39DF801
:106680005C00401CC0B230E0620000200E0100201F
:1066900063000020E017002067000020B0170020F2
:1066A00068000020C017002069000020D0170020DB
:1066B00064000020A01700206A0000206C00002069
:1066C000380000205D0000205C0000205F000020FA
:1066D0005E000020610000206000002065000020B6
:1066E000660000204000002002E08DF85C0005E01C
:1066F0009DF85C0000F0F0008DF85C009DF85620DD
:1067000015A94046FFF7EEFA59480078401C584951
:10671000087008460078052808DB5648007820F005
:106720001000544908700020514908705148C07841
:10673000C0F3400058B14F48C07820F002004D49E6
:10674000C8704D48827801464046FFF7CBFA494869
:10675000C078C0F3800058B14648C07820F00400EB
:106760004449C8704548827801464046FFF7BAFA66
:1067700001208DF84F0041024148FDF7ACFF012890
:1067800000D100E000BF4FF480713D48FDF7A3FF4A
:10679000012800D100E000BF9DF84E2013A940461B
:1067A000FFF7A0FA374800788DF83B0036480078AC
:1067B0008DF83C00354800788DF83D00344800786D
:1067C0008DF83E00334800788DF83F00324800785D
:1067D0008DF84000314800788DF84100304800784D
:1067E0008DF842002F48008800128DF843002D4894
:1067F00000788DF844002C48008800128DF8450080
:10680000294800788DF846009DF83A200EA94046A8
:10681000FFF768FA1748C078C0F30010E0B12348CA
:106820000078401C2149087008460078022807DBE0
:10683000002008700F48C07820F010000D49C87083
:106840004F208DF82F0056208DF830009DF82E2017
:106850000BA94046FFF746FA1548006808B9012021
:1068600000E000201249086060B0BDE8F087000039
:10687000E000002038000020D8020020E1020020C3
:10688000000C0140EC000020ED000020EE00002094
:10689000EF000020F0000020F1000020F2000020B6
:1068A000F3000020F4000020F6000020E1000020AA
:1068B0008C81214221B1028842F04002028004E032
:1068C00002884FF6BF731A400280704710B500224D
:1068D000028802F441520B884C8823438C8823435E
:1068E000CC8823430C8923434C8923438C8923433D
:1068F000CC8923431A430280838B4FF2FF742340D9
:1069000083830B8A038210BD024600BF108900F00A
:1069100002000028FAD0918100BF108900F0010028
:106920000028FAD09089C0B2704770472DE9FF5F08
:10693000814692460E9D402D02D12E4C082621E024
:10694000302D02D12C4C04261CE01B2D02D12B4CE7
:10695000032617E01A2D02D1294C092612E0182D22
:1069600002D1284C03260DE0102D02D1264C05261D
:1069700008E0162D02D1254C022603E00D2D01D191
:10698000234C02260AFB06F000FB054400272CE0FE
:10699000019A3A4491B21FFA89F0FEF7C7F9FEF75F
:1069A00023FB4FF0000B1CE04FF0000811E02078B3
:1069B000012101FA08F1084018B10398FEF7BCFA6A
:1069C00003E04FF6FF70FEF7B7FA08F1010000F0A0
:1069D000FF08B8F1080FEADB641C0BF1010000F0BE
:1069E000FF0BB345E0DB781CC7B2AF42D0DBBDE89C
:1069F000FF9F000035010108D7F70008BAF300082F
:106A000054ED000870E20008D8EC000828ED0008FA
:106A1000170001082DE9F04781460F4600240025A4
:106A200020E0781981B24846FEF780F9FEF7DCFADB
:106A30004FF0000812E0012000EB44000B490E5C0F
:106A40004FF6FF7000EA0626084610F814000643C9
:106A50003046FEF771FA641C08F10108B8F1580FCE
:106A6000E9D36D1C582DDCD3BDE8F087C431010893
:106A70002DE9F04107460E46002440F2EB68002164
:106A80000846FEF753F9FEF7AFFA35E01C48005D03
:106A9000FF280DD1002503E03846FEF74DFA6D1CA6
:106AA0001749601C085CC000A842F5D8A41C23E06C
:106AB0001348005D68B9002503E03046FEF73CFA54
:106AC0006D1C0F49601C085CC000A842F5D8A41CCE
:106AD00012E000250DE00A48005D802129410840B0
:106AE00018B93046FEF728FA02E03846FEF724FAD5
:106AF0006D1C082DEFD3641C4445C7D3BDE8F0815D
:106B0000351D01081FB500200290039056208DF816
:106B100008002E208DF80B008DF80D0000202D4967
:106B200008802D488079092809DC20208DF809008B
:106B3000294880793030C0B28DF80A0012E026482A
:106B400080790A2190FBF1F03030C0B28DF8090055
:106B50002148807990FBF1F201FB12003030C0B285
:106B60008DF80A001C48007A092809DC1A48007AC6
:106B70003030C0B28DF80C0030208DF80E0012E0DD
:106B80001548007A0A2190FBF1F03030C0B28DF840
:106B90000C001148007A90FBF1F201FB120030303A
:106BA000C0B28DF80E004FF6FF70F0234FF4A072C4
:106BB000DC2100904FF48170FDF742FF02A8102104
:106BC00014231A01CDE90010DE214FF48370FEF783
:106BD0007FF91FBD34000020D8020020042808D10E
:106BE0004FF0E021096941F004014FF0E02211610A
:106BF00007E04FF0E021096921F004014FF0E022A5
:106C00001161704770B586B001A8FEF7B7FC4FF46C
:106C10007A710298B0FBF1F42146B1F1807F00D384
:106C20001DE021F07F40401E4FF0E02250615017E0
:106C30000F22002807DA13071E0E0B4B00F00F057A
:106C40002D1F5E5503E013071D0E084B1D5400BF9A
:106C500000204FF0E02290610720106100BF042067
:106C6000FFF7BCFF06B070BD18ED00E000E400E0E7
:106C700010B503F055FC10BD00B585B00020ADF88F
:106C800000004FF48270ADF802000020ADF804005F
:106C90000220ADF806000120ADF808004002ADF872
:106CA0000A001820ADF80C000020ADF80E000720F7
:106CB000ADF8100069460448FFF708FE01210248BC
:106CC000FFF7F8FD05B000BD0038004038B50446B8
:106CD000012C09D14FF6FF70BB23CB226421009019
:106CE0007420FDF7ADFE1CE0022C1AD14FF6FF70A8
:106CF00099237F225A2100904020FDF7A1FE4FF6F4
:106D0000FF70B623EF226E2100909620FDF798FECB
:106D10004FF6FF709B23FD2281210090F020FDF7AC
:106D20008FFE38BDF8B506460F46002E0ADA7042CF
:106D300084B21B203B460C22782100908420FFF770
:106D4000F5FD08E0B4B21B203B460B2278210090F1
:106D50008420FFF7EBFDFDF71BFD42F2107084422B
:106D600041DB94FBF0F0C5B230203B462A466E2151
:106D700000909620FFF7DAFD40F271206843A4EB03
:106D8000001084B24FF47A7094FBF0F0C5B230205A
:106D90003B462A466E210090B620FFF7C7FD1B2018
:106DA0003B460B226E210090D620FFF7BFFD1B2033
:106DB0003B460B2281210090D620FFF7B7FD05EB63
:106DC0004500C0EBC510A4EBC00084B2642094FB66
:106DD000F0F0C5B21B203B462A4681210090E620F8
:106DE000FFF7A4FDCCE0B4F57A7F43DB4FF47A7073
:106DF00094FBF0F0C5B230203B462A466E2100904D
:106E00009620FFF793FD05EB4500C0EBC510A4EB02
:106E1000C00084B2642094FBF0F0C5B230203B4641
:106E20002A466E210090B620FFF780FD1B203B46CE
:106E30000B226E210090D620FFF778FD1B203B46E9
:106E40000A2281210090D620FFF770FD05EBC500D6
:106E500000EB0510A4EB800084B20A2094FBF0F054
:106E6000C5B21B203B462A4681210090E620FFF751
:106E70005DFD85E0642C52DB1B203B460B22782114
:106E800000908420FFF752FD002E10DA30203B46A0
:106E90000A226E2100909620FFF748FD1B203B46FA
:106EA0000C22782100909B20FFF740FD07E0302066
:106EB0003B460A226E2100909620FFF737FD6420A2
:106EC00094FBF0F0C5B230203B462A466E2100907C
:106ED000B620FFF72BFD1B203B460B226E210090B6
:106EE000D620FFF723FD1B203B460A22812100907C
:106EF000D620FFF71BFD05EBC50000EB0510A4EB4A
:106F0000800084B20A2094FBF0F0C5B21B203B46FF
:106F10002A4681210090E620FFF708FD30E030206E
:106F20003B4600226E2100909620FFF7FFFC3020A8
:106F30003B460A226E210090B620FFF7F7FC1B208B
:106F40003B460A2281210090B620FFF7EFFC0A2081
:106F500094FBF0F0C5B230203B462A466E210090EB
:106F6000C420FFF7E3FC05EB8500A4EB400084B2EE
:106F70001B20E2B23B4681210090E620FFF7D6FCC1
:106F8000F8BD000038B5FE48C078C0F3401060B1CD
:106F90004FF6FF710020FFF76BFDFFF7B3FDF848D8
:106FA000C07820F02000F649C870F548C07800F09D
:106FB000010000287ED0FDF7EBFBF248008809288D
:106FC00008DC4FF6FF70FDF723FD0221EE48FDF7C8
:106FD0008DFB4FE2EB4800880C2804DA0221EA48D6
:106FE000FDF782FB46E2E74800880F2808DA4FF4F5
:106FF0007840FDF70DFD0221E348FDF777FB39E20C
:10700000E0480088122804DA4FF4FC60FDF700FD28
:1070100030E2DC480088152803DA1F20FDF7F8FC71
:1070200028E2D8480088182803DA0020FDF7F0FC91
:1070300020E2D44800881B2804DA4FF6FF70FDF7E1
:10704000E7FC17E2CF4800882A2866DA4FF400717F
:10705000CD48FDF74BFB4FF48071CB48FDF746FB65
:1070600018201F230122052100900846FFF75EFC2F
:1070700018201F230A22052100901520FFF756FC37
:1070800018201F230E22052100902520FFF74EFC1B
:1070900018201F230F22052100903D20FFF746FCFA
:1070A00018201F231022052100905520FFF73EFCD9
:1070B000182000E0E4E11F231122052100906D203B
:1070C000FFF734FC18201F23122205210090852091
:1070D000FFF72CFC18201F231322052100909D2070
:1070E000FFF724FC18201F23142205210090B5204F
:1070F000FFF71CFC18201F23152205210090CD202E
:10710000FFF714FC18201F23162205210090E5200C
:10711000FFF70CFCFCF702FBACE19A480088392829
:1071200067DA4FF480719848FDF7DEFA18201F23C4
:107130000222052100900846FFF7F8FB18201F23C4
:107140000A22052100901520FFF7F0FB18201F23CD
:107150000E22052100902520FFF7E8FB18201F23B1
:107160000F22052100903D20FFF7E0FB18201F2390
:107170001022052100905520FFF7D8FB18201F236F
:107180001122052100906D20FFF7D0FB18201F234E
:107190001222052100908520FFF7C8FB18201F232D
:1071A0001C22052100909D20FFF7C0FB18201F2303
:1071B0001D2205210090B520FFF7B8FB18201F23E2
:1071C000012205210090CD20FFF7B0FB18201F23DE
:1071D000162205210090DD20FFF7A8FB18201F23B1
:1071E0000D2205210090F520FFF7A0FBFCF796FA91
:1071F00040E16448008848286CDA4FF480716248A6
:10720000FDF774FA4FF400715F48FDF76DFA18202E
:107210001F230322052100900846FFF787FB182053
:107220001F230A22052100901520FFF77FFB18205D
:107230001F230E22052100902520FFF777FB182041
:107240001F230F22052100903D20FFF76FFB182020
:107250001F231022052100905520FFF767FB1820FF
:107260001F231122052100906D20FFF75FFB1820DE
:107270001F231222052100908520FFF757FB1820BD
:107280001F231C22052100909D20FFF74FFB182093
:107290001F231D2205210090B520FFF747FB182072
:1072A0001F23022205210090CD20FFF73FFB18206D
:1072B0001F23162205210090DD20FFF737FB182041
:1072C0001F230D2205210090F520FFF72FFBFCF76F
:1072D00025FACFE02B480088572877DA4FF4007161
:1072E0002948FDF703FA4FF400412848FDF7FCF95F
:1072F00018201F230422052100900846FFF716FBE3
:1073000018201F230A22052100901520FFF70EFBED
:1073100018201F230E22052100902520FFF706FBD1
:1073200018201F230F22052100903D20FFF7FEFAB1
:1073300018201F231022052100905520FFF7F6FA90
:1073400018201F231122052100906D20FFF7EEFA6F
:1073500018201F231222052100908520FFF7E6FA4E
:1073600018201F231C22052100909D20FFF7DEFA24
:1073700018201F231D2205210090B52008E00000E1
:1073800038000020FC000020000C014000100140EB
:10739000FFF7CCFA18201F23032205210090CD20EF
:1073A000FFF7C4FA18201F23162205210090DD20C4
:1073B000FFF7BCFA18201F230D2205210090F520AD
:1073C000FFF7B4FAFCF7AAF954E0FFE7FE4800889B
:1073D0005D283CDA4FF6FF70FDF71AFB18201F23DB
:1073E0000522114600901046FFF7A0FA18201F232F
:1073F0000A22052100901520FFF798FA18201F2374
:107400001022052100902D20FFF790FA18201F234D
:107410001122052100904520FFF788FA18201F232C
:107420001E22052100905D20FFF780FA18201F23FF
:107430001A46052100907520FFF778FA18201F23BF
:107440002022052100908D20FFF770FA12E0002025
:10745000DE490870DE48C07820F020002030DC498A
:10746000C8700846C07820F010001030C8700020A6
:10747000D5490880D4480088401CD34908805FE281
:1074800010201F23002223210090C820FFF74EFA6E
:10749000D04800781C2874DDCF480078B42809DD76
:1074A0004FF4FC602F23E82227210090CA20FDF72B
:1074B000C7FA66E0C7480078782809DB4FF6E07025
:1074C0002F23E82227210090CB20FDF7B9FA58E0BE
:1074D000C048007873280DDDBE480078782809DAA6
:1074E0004FF6E0702F23E22227210090CB20FDF7FA
:1074F000A7FA46E0B74800786E280DDDB548007859
:10750000732809DA4FF6E0702F23DC222721009040
:10751000CB20FDF795FA34E0AE48007869280DDD00
:10752000AC4800786E2809DA4FF478402F23D62231
:1075300027210090CB20FDF783FA22E0A5480078B0
:1075400064280DDDA3480078692809DA4FF47840F3
:107550002F23D02227210090CB20FDF771FA10E0D5
:107560009C4800785F280CDD9A480078642808DA87
:107570004FF478402F23CD2227210090CB20FDF718
:107580005FFA96480078112817DB9448007818288D
:1075900013DC8F48807820F0100010308C49887000
:1075A00008468078C0F3800038B10846807820F023
:1075B000040088700120FFF789FB8848007818BB19
:1075C00083488078C0F3001020B981488078C0F3E8
:1075D000C00068B17E48807820F008007C4988703F
:1075E0000846807820F0100088700220FFF76EFBBC
:1075F00064217420FFF70EFA7548807820F00400AB
:10760000001D734988709BE174480078092837DCB5
:10761000FDF7BEF86E48807820F0080008306C490D
:10762000887008468078C0F3800038B108468078BA
:1076300020F0040088700120FFF748FB6448807840
:10764000C0F3001040B16248807820F0100060491B
:1076500088700220FFF73AFB4020009060480388C2
:1076600007225A214020FFF761F91B2000905B4858
:1076700002785B48038872216E20FFF757F95FE1BB
:107680005648007811282FD1402000905548038893
:1076900000225A214020FFF749F953480078062874
:1076A0000BDC1B20009050480078401CC2B24D48B3
:1076B00003887C216E20FFF739F91A200090494891
:1076C000038800229E21A820FFF730F94649097857
:1076D00001EB4101454A02EB8101B1F90600414944
:1076E0000988FFF71FFB2BE13C480078122830D1B6
:1076F000402000903E48038802225A214020FFF794
:1077000015F91A2000903A48038804229E21A820E7
:10771000FFF70CF93448007803280BDC1B2000909D
:1077200031480078401CC2B2314803887C216E2069
:10773000FFF7FCF82C490978133101EB41012B4A82
:1077400002EB8101B1F9060029490988FFF7EAFA3D
:10775000F6E022480078132819D1402000902548EF
:10776000038803225A214020FFF7E0F81A200090F6
:107770002048038805229E21A820FFF7D7F81B493F
:10778000B1F9DE001B490988FFF7CCFAD8E01348AD
:107790000078142835D1402000901748038806222D
:1077A0005A214020FFF7C2F81A200090124803889F
:1077B00002229E21A820FFF7B9F80C49B1F9BA00BE
:1077C0000D4909881AE00000FC000020E1000020BB
:1077D00038000020F1000020F3000020A900002064
:1077E0008200002074000020A00000200E01002074
:1077F00076000020780000207A000020FFF792FA3F
:107800009EE05048007815283CD1402000904E481A
:10781000038804225A214020FFF788F81A2000909C
:107820004948038803229E21A820FFF77FF81B20E8
:10783000009046480078401CC2B2434803887F212C
:107840006420FFF773F84148007858B94048B0F910
:10785000C6000A2190FBF1F43B4801882046FFF75F
:1078600061FA6DE039480078012869D13848B0F9EB
:10787000D2000A2190FBF1F4334801882046FFF73B
:1078800051FA5DE02F480078162822D14020009060
:107890003048038801225A214020FFF747F82B483F
:1078A000007803280BDC1B20009028480078401C3F
:1078B000C2B2284803887C216E20FFF737F81A20CF
:1078C00000902448038800229E21A820FFF72EF86C
:1078D00036E01C480078172832D1402000901E481E
:1078E000038805225A214020FFF720F81A20009033
:1078F0001948038801229E21A820FFF717F8134892
:10790000007802280BDC1B20009010480078401CF7
:10791000C2B2114803887C216E20FFF707F80B499B
:107920000978093101EB4101094A02EB8101B1F902
:107930000610642201FB02F007490988FFF7F2F9FB
:1079400038BD0000A90000207C000020A00000201D
:107950000E01002074000020800000202DE9F84373
:1079600004468846174699463D46642D40DB642010
:1079700095FBF0F0C6B218204B46324641460090C7
:107980002046FEF7D3FF06EBC60000EB0610A5EB82
:107990008000C5B20A2095FBF0F0C6B218204B4615
:1079A00032464146009004F11000FEF7BFFF182058
:1079B0004B460A224146009004F12000FEF7B6FF34
:1079C00006EB8600A5EB4000C5B218204B462A46C0
:1079D0004146009004F13000FEF7A8FF18204B4606
:1079E0000B224146009004F14000FEF79FFF63E048
:1079F0000A2D35DB0A2095FBF0F0C6B218204B4665
:107A00003246414600902046FEF790FF18204B4634
:107A10000A224146009004F11000FEF787FF06EBB2
:107A20008600A5EB4000C5B218204B462A464146C9
:107A3000009004F12000FEF779FF18204B460D223C
:107A40004146009004F13000FEF770FF18204B46CD
:107A50000B224146009004F14000FEF767FF2BE047
:107A600018204B460022414600902046FEF75EFF5C
:107A700018204B460A224146009004F11000FEF700
:107A800055FF18204B462A464146009004F120003D
:107A9000FEF74CFF18204B460D224146009004F1A2
:107AA0003000FEF743FF18204B460B224146009062
:107AB00004F14000FEF73AFFBDE8F88310B5044634
:107AC000C3480088401CC2490880084600880A282C
:107AD00008DBC04803F00EFEBE4803F082FD002024
:107AE000BB490880BC480088401CBB490880084648
:107AF00000880A2808DBB94803F0FCFDB74803F00A
:107B000070FD0020B4490880B548007820F01000CE
:107B10001030B3490870B348C07800F0010020B1BC
:107B2000B1480078401CB0490870AD480078C0F3F7
:107B30008000C0B1AD480088401CAC4908800846B0
:107B40000088B0F5617F0ED3A548007820F00800CA
:107B50000830A34908700846007820F00400087037
:107B60000020A24908809E480078C0F3C00088B178
:107B70009F480078401C9E490870084600780528F8
:107B800008D39748007820F0080095490870002035
:107B90009749087097480078401C96490870084635
:107BA0000078022808D3002008708E48807820F0E2
:107BB000400040308B49887089480078C0F340000D
:107BC00088B18D480078401C8B49087008460078C1
:107BD00005280BD3002008708148007820F00200AF
:107BE0007F49087002E000208349087083480078CC
:107BF000401C8249087008460078042809D3794857
:107C0000407820F00400001D7649487000207B4930
:107C100008707B480078401C794908707148C0782A
:107C200000F0010098B10846007880B36D48C07834
:107C300020F0080008306B49C8700846007820F032
:107C400008000830087000206D4908701FE06C487B
:107C50000078022809D36348C07820F00800083073
:107C60006049C87000206649087066480088401C5A
:107C70006449088008460088142808D90020088034
:107C80005848007820F008000830564908705E48CF
:107C90000078401C5C4908700846007848B151489B
:107CA000807820F00200801C4E49887000205649E0
:107CB000087056480078401C5449087008460078FF
:107CC000042809D34748407820F008000830454987
:107CD000487000204D4908704D480078022813D1A3
:107CE0004C480078401C4B4908700846007804282E
:107CF00013D33B48807820F00200801C38498870FC
:107D000000204449087008E00020424908703448C7
:107D1000807820F00200324988703248C07800F044
:107D20000100D8B13C480078401C3B490870084627
:107D30000078082812D3002008702A48C07820F064
:107D400001002849C8700846C07820F02000203083
:107D5000C8700846C07820F04000C8702F480078EE
:107D6000401C2E49087008460078782809DB2C480A
:107D7000407820F010001030294948700020274931
:107D8000087028480078401C26490870084600788A
:107D9000782809D31248007820F0800080301049FC
:107DA000087000201F4908701F480088401C1E49A9
:107DB0000880084600880F2809D30948407820F039
:107DC000800080300649487000201749088010BDA7
:107DD0009C000020901200209E0000203013002004
:107DE0004000002038000020FA000020E4000020BD
:107DF000E6000020D9000020D8000020D700002095
:107E0000DF000020E2000020D5000020DA00002082
:107E10005E000020DB000020DD0000200C010020BF
:107E20003C00002047000020EA00002013490978A8
:107E3000491C124A1170114609780A2909D31049C0
:107E4000097821F00401091D0D4A117000210B4A27
:107E500011700C490978491C0A4A117011460978B9
:107E6000142909D30849497821F00201891C064ADE
:107E700051700021034A117070470000DC0000209F
:107E800038000020490000204000002003494978C4
:107E900021F020012031014A517070473800002044
:107EA00010B5154C02F044FB40F22551206800F05B
:107EB000B6F850B12068808810490870FDF720F9A5
:107EC00040F22551206800F064F840F226612068F5
:107ED00000F0A5F820B140F22661206800F059F8C2
