:020000040800F2
:10000000104D0020E1020008191E000897020008A8
:10001000D31800083D0D000829400008000000002A
:100020000000000000000000000000002131000876
:1000300039100008000000001F020008D13100083C
:10004000F7020008F7020008F7020008F7020008AC
:10005000F7020008F7020008F7020008F70200089C
:10006000F7020008F7020008F7020008F70200088C
:10007000F7020008F7020008F7020008F70200087C
:10008000F7020008F7020008F7020008F70200086C
:10009000E13F0008F7020008F7020008F702000835
:1000A000F7020008F7020008F7020008F70200084C
:1000B000F7020008F7020008F7020008F70200083C
:1000C000F7020008F7020008F7020008F70200082C
:1000D000F7020008B93C0008253D0008893D0008EA
:1000E000F7020008F7020008F702000800F002F823
:1000F00000F06FF80AA090E8000C82448344AAF153
:100100000107DA4501D100F064F8AFF2090EBAE850
:100110000F0013F0010F18BFFB1A43F0010318473B
:10012000E4C5000004C600000A444FF0000C10F8BB
:10013000013B13F0070408BF10F8014B1D1108BF65
:1001400010F8015B641E05D010F8016B641E01F805
:10015000016BF9D113F0080F1EBF10F8014BAD1C55
:100160000C1B09D16D1E58BF01F801CBFAD505E073
:1001700014F8016B01F8016B6D1EF9D59142D6D3CD
:10018000704700000023002400250026103A28BFF5
:1001900078C1FBD8520728BF30C148BF0B607047F9
:1001A000642900F07381732900F071840020704786
:1001B0001FB59DE8030000F0ABFB00F0BFFC04009E
:1001C000002000210BF076FF401C60601FBD10B5C1
:1001D00010BD00F0E7FC1146FFF7EAFF07F07AF9DF
:1001E00000F005FD03B4FFF7F2FF03BC00F076FD5D
:1001F000EFF3108072B6704780F310887047324A70
:100200001368012B04D04FF0010313602F4A1060D4
:100210002F4A11602F484FF0805101607047EFF373
:10022000108272B62848016891B14FF00001016058
:100230002648016829B1EFF3098121E9F00F006830
:100240000160234909680968B1E8F00F81F3098862
:1002500082F310884EF0040E70471D4908601B4958
:100260004FF00000086018494FF0010008601A487C
:100270004FF47F01D0F8002041EA020101601548E7
:100280004FF08051016015480068006880F30888CD
:1002900062B6704700BF1EF0040F14BFEFF3088072
:1002A000EFF3098020E9F00F40F804ED14BF80F36C
:1002B000088880F3098800B508F090F85DF804EB31
:1002C0004EF0040E704700002C0000202400002097
:1002D0002800002004ED00E020ED00E008ED00E043
:1002E00008480047FEE7FEE7FEE7FEE7FEE7FEE719
:1002F000FEE7FEE7FEE7FEE703480449044A054B34
:1003000070470000ED00000810410020104D002053
:10031000104500201045002070B5064600F0D8FAC0
:10032000056806F10B0020F00704B4429CBF0020D2
:1003300070BD2B466A68BAB11068A04210D304F1B0
:10034000080188423CBF5068586007D351681019B3
:1003500041601168091B016058601460101D70BD78
:1003600013465268002AE7D12146284600F0BCFA1D
:100370000028DED170BD70B50446051F00F0A8FA54
:100380000068002C14BF446870BD002C18BFAC423C
:100390003CBF20466468F8D301680A18AA4218BF17
:1003A000456003D12A680546114401602868411957
:1003B000A1421CBF6C6070BD61686960216808441F
:1003C000286070BD0FB41CB5074B06AA7B44694674
:1003D0000090059800F031FB0020694600F040FBDA
:1003E0001CBC5DF814FB00009106000070B50446CB
:1003F00085690068C10601D5302600E02026C007C7
:1004000007D070BDD4E9012130469047206A401CD6
:1004100020626D1EF6D570BD70B504468569007802
:10042000C00707D170BDD4E9012120209047206A80
:10043000401C20626D1EF6D570BD70B50C46054699
:10044000012A05D02878800600D5EA69002302E059
:10045000012305E05B1C934202D2E05C0028F9D145
:10046000A869E618C01AA861286A184428622846B4
:10047000FFF7BCFF04E0D5E9012114F8010B904718
:10048000B442F8D32846FFF7C7FF70BD2DE9F0410D
:100490000646002410687529314616A510D0AFF322
:1004A0000080002802DA404213A507E031688A077D
:1004B00001D512A502E0490704D511A5012401E0E8
:1004C000AFF3008000210A2206F1240709E0B0FB07
:1004D000F2FCB0FBF2F302FB1C00303078541846FB
:1004E000491C0028F3D123462A463046BDE8F04196
:1004F00000F044BA000000002D0000002B000000B6
:10050000200000002DE9F05F894604464FF0000A04
:10051000DFF824B1FB44C0F820A02046E1688847FA
:1005200000287DD0252806D0D4E901219047206AF3
:10053000401C2062F1E700255F462046E1688847BD
:100540002028064607DB312E05D2B81910F8200CFA
:1005500008B10543F1E7A80701D525F00405C4F863
:100560001CA00027C4F818A02A2E09D0304603F09A
:1005700083FD38B304EB8708303EC8F8186019E0F3
:1005800059F8041B204604EB87029161E168884713
:10059000012F064618D1E069002820DA25F0200551
:1005A0001DE0D8F8180000EB800006EB4000303862
:1005B000C8F818002046E1688847064603F05CFD4D
:1005C0000028EED1012F0AD02E2E08D12046E16856
:1005D00088477F1C0646022F45F02005C4DBA06932
:1005E000002803DA404245F00105A061E80701D088
:1005F00025F01005A6B1A6F14100192802D8203631
:1006000045F400654A463146204625604D46FFF7D1
:10061000C7FD60B1012807D0ED1D25F0070000E0FF
:1006200007E000F1080978E705F1040975E73046AD
:100630007AE7206ABDE8F09FDAC1000070B506468F
:1006400000F04AF90468054630460A22002100F00D
:1006500002F82C6070BD2DE9F04791460F468046A8
:100660000446002614F8015B2DB100F029F900685A
:10067000405DC007F6D12B2D02D02D2D18D0641E61
:100680004A463946204600F006FA27B13968A142A9
:1006900001D1C7F800804FF0020471050BD540422C
:1006A000002803DD00F018F90460A007BDE8F0871A
:1006B00046F48066E4E70028F8DA00F00DF90460FB
:1006C0006FF00040F2E730B505460B462A4613F8B6
:1006D000014B12F8010B08B1A042F8D01CB1002860
:1006E00002D06D1CF1E7284630BD10B5431C02E076
:1006F00010F8011B71B18107FAD14FF0013202C825
:100700008C1A8C4314EAC211F9D0C01A0A0603D01D
:10071000C01E10BDC01A10BD0A0401D0801E10BD3D
:100720000902FCD0401E10BD032A40F2308010F0B8
:10073000030C00F0158011F8013BBCF1020F62447C
:1007400098BF11F801CB00F8013B38BF11F8013B0D
:10075000A2F1040298BF00F801CB38BF00F8013BBA
:1007600011F0030300F02580083AC0F0088051F82A
:10077000043B083A51F804CBA0E80810F5E7121D35
:100780005CBF51F8043B40F8043BAFF30080D20754
:1007900024BF11F8013B11F801CB48BF11F8012B20
:1007A00024BF00F8013B00F801CB48BF00F8012B43
:1007B000704710B5203AC0F00B80B1E81850203ACD
:1007C000A0E81850B1E81850A0E81850BFF4F5AFF1
:1007D0005FEA027C24BFB1E81850A0E8185044BF7B
:1007E00018C918C0BDE810405FEA827C24BF51F8E8
:1007F000043B40F8043B08BF7047D20728BF31F8DC
:10080000023B48BF11F8012B28BF20F8023B48BF2C
:1008100000F8012B704702F0FF0343EA032242EA8B
:10082000024200F002B84FF000020429C0F012802A
:1008300010F0030C00F01B80CCF1040CBCF1020F93
:1008400018BF00F8012BA8BF20F8022BA1EB0C0168
:1008500000F00DB85FEAC17C24BF00F8012B00F85E
:10086000012B48BF00F8012B70474FF0000200B584
:10087000134694469646203922BFA0E80C50A0E8C3
:100880000C50B1F12001BFF4F7AF090728BFA0E871
:100890000C5048BF0CC05DF804EB890028BF40F83D
:1008A000042B08BF704748BF20F8022B11F0804F7F
:1008B00018BF00F8012B7047704770477047000061
:1008C00010B500F03BF9001D10BD00BFE9B70000F6
:1008D00000487047B840002000487047B0400020F2
:1008E000704770477047704738B504460A46002085
:1008F0006946AFF30080002808BF38BD0246009962
:10090000204600F01FF9012038BD012000F042B957
:10091000F8B5AFF30080054600200C46102000BF5C
:100920000646A819A0420DD9324669460020AFF309
:100930000080070008BF00F02DF90098A04218BF02
:100940000546C419FFF7C4FF05600746F01D20F0F7
:1009500007004619284600F00AF8B44208BFF8BD5F
:10096000A21B31463868BDE8F84000F0EBB8002122
:100970000160C0E901107047102070472DE9F04771
:100980000D4699469246044600F1240801688806FF
:1009900004D5E06921F01001216000E00120A842A7
:1009A00001DD471B00E00027A1697A1902EB09006D
:1009B000081AA0612078C00602D42046FFF716FD71
:1009C000002608E0D4E901211AF806009047206AC1
:1009D000401C761C20624E45F4DB2078C0060AD508
:1009E0002046FFF703FD06E0D4E9012130209047BF
:1009F000206A401C2062381EA7F10107F4DC07E0E2
:100A0000D4E9012118F805009047206A401C2062B3
:100A1000281EA5F10105F3DC2046FFF7FDFC207838
:100A2000000602D50220BDE8F0870120FBE70000A8
:100A300001694A1C02610878704700B58FB0CDE9A2
:100A400001310021059105497944CDE90310114692
:100A50006846FFF757FD0FB000BD0000E5FFFFFF40
:100A60000A6802F8010B0A60704710B5436913B1B8
:100A7000AFF3008001E0FFF7E0FC012010BD127829
:100A800000F124010A7000224A700122EDE711688A
:100A90004FF0FF32E9E72DE9F05F824615468B46BD
:100AA00000270AF10104B9460078302801D09DB131
:100AB00013E014F8010B0127782803D0582801D03F
:100AC00045B10AE00DB1102D07D1002714F8010B34
:100AD000102502E0082500E00A250026B0460EE0B9
:100AE00005FB080005FB06F101271FFA80F801EB62
:100AF0001046B6F5803F00D3B94614F8010B2946DD
:100B000000F03AF80028EBDABBF1000F05D00FB186
:100B1000641E00E05446CBF80040B9F1000F06D047
:100B2000FFF7DAFE02210160C81EBDE8F09F48EA27
:100B30000640FAE700487047B04000200048704780
:100B4000D0400020034640688C46002818BF8842E9
:100B50003CBF03464068F8D318681844884207D061
:100B60000CF1030020F00700001D411A521A014643
:100B7000081D0A60FFF7FFBB3A2800D2303820F08A
:100B80002002412A01D3A2F13700884201D34FF05D
:100B9000FF30704710B500F039F8BDE8104000F0A4
:100BA0002FB870477546FFF7C5FFAE46050069468A
:100BB000534620F00700854618B020B5FFF79CFB90
:100BC000BDE820404FF000064FF000074FF000084E
:100BD0004FF0000B21F00701AC46ACE8C009ACE8CF
:100BE000C009ACE8C009ACE8C0098D46704710B533
:100BF0000446AFF300802046BDE81040FFF7F2BA8C
:100C0000002801D000F06AB87047000010B5012834
:100C100005D0002103A000F067F8012010BD09A154
:100C2000F8E7000053494752544D454D3A204F755F
:100C300074206F662068656170206D656D6F7279D4
:100C4000000000003A2048656170206D656D6F728C
:100C50007920636F72727570746564004FF0013CA7
:100C600050F8042B51F8043B9A4221D1A2EB0C031B
:100C7000934313EACC1317D150F8042B51F8043BDB
:100C80009A4215D1A2EB0C03934313EACC130BD178
:100C900050F8042B51F8043B9A4209D1A2EB0C0303
:100CA000934313EACC13DBD04FF00000704700BF32
:100CB000D01A01BAB1FA81F101F0180122FA01F05B
:100CC000CB40C1F12001DBB2C0B2C01A2CFA01F353
:100CD000D11A914311EAC311E6D170470149182096
:100CE000ABBEFEE72600020070B505460C460A20A2
:100CF00000E06D1C00F011F835B128780028F8D11B
:100D000002E0641C00F009F814B120780028F8D142
:100D1000BDE870400A20AFF3008008B569468DF841
:100D200000000320ABBE08BD10B501F039FA01F098
:100D300074F802F017FA00F0ADFA10BD00BFFEE73C
:100D400010B500F5D87303EB01131B6803F004031F
:100D50001372137A53B900F5D87303EB01131B68B0
:100D600040F2FF7404EA5353136009E000F5D873AE
:100D700003EB01131B686FF0604404EAD303536074
:100D800000F5D87303EB01131B6803F002035372E1
:100D900000F5D87303EB01135B6803F00F03937244
:100DA00000F5D87303EB01135B681B0AD37400F5DD
:100DB000D87303EB01139B68D37200F5D87303EB70
:100DC00001139B681C0A147300F5D87303EB01131D
:100DD0009B681C0C547300F5D87303EB01139B68DC
:100DE0001B0E937300F5D87303EB0113DB68D37309
:100DF00000F5D87303EB0113DB681C0A147400F5CB
:100E0000D87303EB0113DB681C0C547400F5D87322
:100E100003EB0113DB681B0E937421B9C36843F025
:100E20002003C36003E0036943F02003036110BDA6
:100E300001460022744B1A7000200EE000EB4002C5
:100E4000724B03EB8202D27A012A04D16E4A1278E5
:100E5000521C6D4B1A70421CD0B21B28EEDB0129CC
:100E60007ED100226A4B1A7001200FE0421E02EB75
:100E70004202664B03EB8202D27A012A04D1644A11
:100E80001278521C624B1A70421CD0B20628EDDD5B
:100E90000022604B1A7007200FE0421E02EB420254
:100EA0005A4B03EB8202D27A012A04D1594A1278B2
:100EB000521C584B1A70421CD0B20928EDDD00229A
:100EC000554B1A700A200FE0421E02EB42024F4BB4
:100ED00003EB8202D27A012A04D14F4A1278521CC3
:100EE0004D4B1A70421CD0B20B28EDDD00224B4B4B
:100EF0001A700C200FE0421E02EB4202434B03EB40
:100F00008202D27A012A04D1444A1278521C434BFD
:100F10001A70421CD0B20F28EDDD0022404B1A702F
:100F20003A4A92F8BF20012A03D11A461278521C7D
:100F30001A7000223B4B1A7011200FE0421E02EB88
:100F40004202324B03EB8202D27A012A04D1354AA3
:100F50001278521C334B1A70421CD0B2122800E097
:100F600051E0EBDD0022304B1A70284A92F8E32062
:100F7000012A03D11A461278521C1A7000222B4BF8
:100F80001A7014200FE0421E02EB42021F4B03EBCB
:100F90008202D27A012A04D1244A1278521C234BAD
:100FA0001A70421CD0B21628EDDD0022204B1A70B8
:100FB00017200FE0421E02EB4202144B03EB8202A9
:100FC000D27A012A04D11A4A1278521C184B1A708C
:100FD000421CD0B21828EDDD0022164B1A701920E1
:100FE0000FE0421E02EB4202084B03EB8202D27A70
:100FF000012A04D10F4A1278521C0E4B1A70421C5F
:10100000D0B21A28EDDD704735020020E400002040
:10101000760000207C0000207D0000207E00002063
:101020007A0000207B00002079000020770000205B
:101030007F000020810000207047000010B54FF4B1
:10104000FA710348FFF7EFFB00200249088010BD4A
:10105000E82C0020D000002010B5FFF7C9F80149A6
:10106000086010BD6403002010B502480068FFF757
:10107000C3F810BD640300200149C8607047000038
:101080000020024030B5044604254FF4302000F023
:1010900089F80546042D17D10C48006940F002007C
:1010A0000A49086108464461006940F0400008614F
:1010B0004FF4302000F076F805460448006941F608
:1010C000FD71084001490861284630BD00200240FA
:1010D00004200B49C96801F0010109B101200EE0AB
:1010E0000749C96801F0040109B1022007E0044979
:1010F000C96801F0100109B1032000E00420704725
:10110000002002400348006940F080000149086166
:1011100070470000002002400549096821F01001D5
:10112000034A1160114609680143116070470000CD
:101130000020024070B504460D460426F00200F07F
:1011400031F80646042E11D10948006940F001002B
:10115000074908612580F00200F024F8064604489B
:10116000006941F6FE71084001490861304670BDD2
:101170000020024001460020034A106800F03800B9
:1011800008431060704700000020024002480349F5
:1011900048600348486070472301674500200240CB
:1011A000AB89EFCD00B502460423FFF791FF03465C
:1011B00003E0FFF78DFF0346521E012B01D1002AE9
:1011C000F7D102B90523184600BD10B5034600202B
:1011D00003E013F8014B0C54401C9042F9DB10BDA6
:1011E0002DE9F84F0646884617463C4604200090F5
:1011F000FFF7CCFF3520FFF73FFF4FEA96294FEA74
:101200008929C6F3090ACAF58065AC4200D8A5B29F
:1012100021E04846FFF736FF00909DF800000428C3
:1012200003D04FF0FF30BDE8F88F2A4641463046E4
:1012300000F017F8AC4200D10EE009F580694FF0DC
:10124000000AA8442E44641BB4F5806F02D94FF401
:10125000806500E0A5B2DCE700BFFFF753FF38462A
:10126000E1E7F8B506460C46154604200090002735
:1012700008E021883046FFF75DFF0090B81C87B278
:10128000B61CA41CAF4203DA9DF800000428F0D07D
:101290002846F8BD08B5684600F0E5F910208DF83D
:1012A000030001208DF80200F320ADF8000069462C
:1012B000774800F0F7F8F321754800F0D2F9684656
:1012C00000F0D1F928208DF8030001208DF80200EC
:1012D0004FF40140ADF8000069466D4800F0E2F8B7
:1012E000684600F0C0F94FF40060ADF8000003203C
:1012F0008DF8020048208DF803006946644800F02C
:10130000D1F8684600F0AFF94FF48050ADF8000016
:1013100003208DF8020018208DF8030069465C4810
:1013200000F0C0F8684600F09EF910208DF8030028
:1013300001208DF8020040F2F930ADF80000694656
:10134000544800F0AFF840F2E931524800F089F912
:10135000684600F088F928208DF8030001208DF8F8
:1013600002004FF20200ADF800006946494800F063
:1013700099F80121484800F021F90821474800F078
:1013800070F9684600F06FF910208DF80300012015
:101390008DF802003820ADF8000069463F4800F0A3
:1013A00081F838213D4800F05CF9684600F05BF9AF
:1013B00028208DF8030001208DF802004FF4FE5024
:1013C000ADF800006946354800F06CF84FF4005164
:1013D000324800F046F94FF48041304800F041F9BE
:1013E000684600F040F910208DF8030001208DF8C8
:1013F00002000420ADF800006946294800F052F8C8
:101400000421274800F02DF94FF40041234800F053
:1014100028F904208DF803000002ADF800006946A9
:101420001B4800F03FF818208DF803004FF40070BF
:10143000ADF800006946164800F034F804208DF835
:1014400003000820ADF800006946114800F02AF8B2
:1014500018208DF803000420ADF8000069460C4800
:1014600000F020F804208DF803004002ADF80000E1
:101470006946084800F016F818208DF803004FF46C
:101480008060ADF800006946024800F00BF808BD26
:1014900000080140000C0140000230000010014033
:1014A000001401402DE9F0410246002500260020ED
:1014B00000230024002791F803C00CF00F0591F8D9
:1014C00003C00CF0100CBCF1000F03D091F802C067
:1014D0004CEA050591F800C0BCF1000F31D014684A
:1014E00000202BE04FF0010C0CFA00F3B1F800C023
:1014F0000CEA03069E4220D183004FF00F0C0CFA39
:1015000003F7BC4305FA03FC4CEA040491F803C05A
:10151000BCF1280F06D14FF0010C0CFA00FCC2F808
:1015200014C00AE091F803C0BCF1480F05D14FF098
:10153000010C0CFA00FCC2F810C0401C0828D1D3E2
:101540001460B1F800C0BCF1FF0F34DD5468002016
:101550002EE000F1080C4FF0010808FA0CF3B1F886
:1015600000C00CEA03069E4221D183004FF00F0C0D
:101570000CFA03F7BC4305FA03FC4CEA040491F8A7
:1015800003C0BCF1280F05D100F1080C08FA0CF8D3
:10159000C2F8148091F803C0BCF1480F07D100F1E4
:1015A000080C4FF0010808FA0CF8C2F81080401C33
:1015B0000828CED35460BDE8F0810000F0B50A469B
:1015C000002300240021002500F00046B6F1004F62
:1015D00002D11D4EF16901E01B4E7168C0F3034555
:1015E00083B200F44016B6F5401F08D121F07061B7
:1015F000154E766826F07066134F7E6012E000F498
:101600008016B6F5801F06D1032606FA05F4A1431D
:1016100041F0706106E0460D360103FA06F6B1436B
:1016200041F0706122B1460D360103FA06F63143EE
:1016300000F00046B6F1004F02D1034EF16101E027
:10164000014E7160F0BD0000000001400246002024
:1016500093680B400BB1012000E00020704741610E
:101660007047016170474FF6FF7101800221817060
:101670000421C170704710B500F002F810BD0000E1
:101680004AF6AA2001490860704700000030004077
:1016900010B500203349086033490860002401E098
:1016A000601CC4B2022CFBDB002401E0601CC4B24D
:1016B000042CFBDB002401E0601CC4B2082CFBDB23
:1016C000002404E0002029490855601CC4B20A2CFB
:1016D000F8DB002026490870264908702649087062
:1016E0002048C07820F0800080301E49C87000205B
:1016F000224908700120FFF79BFB01202049087058
:1017000000202049088020490880411E1F48A0F879
:101710004A11042180F84E1100240EE0002004EB51
:1017200044011A4A02EB8101C880042004EB440101
:1017300002EB81018872601CC4B21C2CEEDB1448E1
:10174000007820F0100010301149087004F0B4FC4B
:1017500004F00AFD04F066FE04F020FC04F026FD0F
:1017600010BD00005400002058000020142100206B
:1017700089000020880000208C0000203402002016
:10178000780000208400002086000020E400002073
:101790006000002000B537480078A52805D100205A
:1017A00035494870022035490870344800780128CE
:1017B0005FD032480078022809D1A5202E49087050
:1017C00001202F49087004202C49087051E02B4853
:1017D000007804280FD1274800785A2808D12649D4
:1017E000487002202649087008202449087040E00B
:1017F00000F04EF83DE021480078082815D11D483A
:1018000000780A280EDC1B4800781B4988701948AC
:1018100000781C49087003201949087020201749D6
:10182000087026E000F034F823E0144800782028FF
:101830001FD1104800781049114A12788854104876
:101840000078401C0E490870084601780D48007861
:10185000C01C81420DDB00F01BF80B48007820F023
:101860000100401C0849087014220349074800F091
:1018700023F800BD71000020EC2000207300002040
:101880007200002070000020540000200021002081
:10189000002005490870012004490870002004490F
:1018A000087004490870704774000020730000201D
:1018B000720000207000002003E0531EDAB28B5C3F
:1018C0008354002AF9DC704710B5044605F0D4FEB5
:1018D00010BD00BFFEE7000070B586B000240025F3
:1018E0001422174901A8FEF764FF25E0FFF7A6FBC5
:1018F000601CC4B201A8FEF7F8FE86B2314601A80A
:1019000001F00FFC04F028FBC82007F0FCFD04F0F8
:1019100023FB0C4802880CA10E4805F0A5FD0546E6
:1019200055B1084802880CA10A4805F09DFD0546FE
:1019300015B1012006B070BD642CD7DB0020F9E79B
:1019400094C30008D00000202B43474154543A2050
:1019500031000000E82C00204F4B0000FEB50025B0
:1019600000240026224A07CA8DE80700FFF766FB1D
:101970006846FEF7BAFE87B23946684601F0D1FBE9
:1019800032E004F0E9FA4FF47A7007F0BCFD681C0D
:10199000C5B21848028818A1184805F065FD06462A
:1019A0000EB10120FEBD1348028815A1134805F0B1
:1019B0005BFD0646C6B1601CC4B2012C10D14FF4C9
:1019C000FA7007F0A0FD04F0C7FAFFF737FB68468E
:1019D000FEF78BFE87B23946684601F0A2FB03E0B2
:1019E000022C01DB0020DDE7052DCADB0020D9E752
:1019F00060C30008D00000204F4B0000E82C0020FE
:101A00004552524F520000002DE9F04186B0074682
:101A10000026002500241422284901A8FEF7C9FE4B
:101A200000BFFFF70BFB01A8FEF75FFE1FFA80F86F
:101A3000414601A801F075FB3BE0642003F0F4FA95
:101A400004F08AFA701CC6B21D4802881DA11E4807
:101A500005F00AFD04464CB1133C0F2221463846DE
:101A6000FEF762FE012006B0BDE8F081144802884E
:101A700016A1154805F0F8FC0446D4B1681CC5B29F
:101A8000012D13D14FF4FA7003F0CEFA04F064FA8A
:101A900004F062FAFFF7D2FA01A8FEF726FE1FFA59
:101AA00080F8414601A801F03CFB02E0022D00DB7A
:101AB00002E03C2EC1DB00BF0020D4E7ECC20008EE
:101AC000D00000204F4B0000E82C00204552524F20
:101AD000520000002DE9F04188B00746002600259D
:101AE0000024202228496846FEF763FEFFF7A6FA85
:101AF0006846FEF7FAFD1FFA80F84146684601F095
:101B000010FB3BE004F028FA642003F08DFA701C0F
:101B1000C6B21E4802881EA11E4805F0A5FC044658
:101B20004CB1133C0F2221463846FEF7FDFD012043
:101B300008B0BDE8F0811548028817A1154805F0E6
:101B400093FC0446D4B1681CC5B2012D13D14FF4E7
:101B50007A7003F069FA04F0FFF904F0FDF9FFF779
:101B60006DFA6846FEF7C1FD1FFA80F841466846E7
:101B700001F0D7FA02E0022D00DB02E00A2EC1DB01
:101B800000BF0020D4E70000CCC20008D000002035
:101B90004F4B0000E82C00204552524F52000000ED
:101BA0002DE9F04F89B081464FF0000A002700244C
:101BB0000025A0461422484902A8FEF7FAFDFFF7C7
:101BC0003DFA02A8FEF791FD80B20146019002A8FD
:101BD00001F0A7FA79E004F0BFF9642003F024FAD9
:101BE0000AF1010000F0FF0A3C4802883CA13D4890
:101BF00005F03AFC0446002C3AD0002007900890EB
:101C000080463648028838A1364805F02DFC044647
:101C1000641E11E02078302808DB2078392805DCA4
:101C2000641E08F1010000F0FF0801E0641C04E0FC
:101C3000B8F1030F00DD4CE0ECE700BF002605E043
:101C400014F8010B07A98855701CC6B24645F7DB8E
:101C500007A8FEF7F3FC45B2632D01DC002D00DA86
:101C600037E0AB4689F800B0012009B0BDE8F08F3D
:101C70001A4802881DA11B4805F0F6FB044604B370
:101C8000781CC7B2012F1DD14FF47A7003F0CCF944
:101C900004F062F94FF47A7003F0C6F904F05CF9CD
:101CA0004FF4FA7003F0C0F904F056F9FFF7C6F9E3
:101CB00002A8FEF71AFD80B20146019002A801F0C9
:101CC00030FA02E0022F00DB03E0BAF13C0F82DBC6
:101CD00000BF0020C9E70000B8C20008D000002003
:101CE0004F4B0000E82C00202C0000004552524FC2
:101CF0005200000070B588B000240025202214494D
:101D00006846FEF756FD1EE0FFF798F96846FEF7B5
:101D1000ECFC86B23146684601F003FA04F01CF987
:101D20004FF4FA7007F0EFFB04F016F9601CC4B230
:101D30000848028808A1094805F096FB054615B138
:101D4000012008B070BD142CDEDB0020F9E7000094
:101D500058C20008D00000204F4B0000E82C0020A3
:101D6000F0B585B0002500240026142224496846D9
:101D7000FEF71FFDFFF762F96846FEF7B6FC87B273
:101D80003946684601F0CDF935E004F0E5F84FF446
:101D9000FA7003F049F904F0DFF8681CC5B219487D
:101DA000028819A1194805F05FFB064616B101200B
:101DB00005B0F0BD1348028815A1144805F054FB86
:101DC0000646C6B1601CC4B2012C10D14FF4FA70A3
:101DD00007F099FB04F0C0F8FFF730F96846FEF70A
:101DE00084FC87B23946684601F09BF903E0022C77
:101DF00001DB0020DCE70A2DC7DB0020D8E700006C
:101E00006CC30008D00000204F4B0000E82C0020DD
:101E10004552524F52000000704710B500214FF05C
:101E2000006000F039F810BD70B5002100230F22CA
:101E3000C47804B3154C246804F4E064C4F5E06489
:101E4000210AC1F10403CA40447804FA03F18478FA
:101E50001440214309010E4C0678A155047804F082
:101E60001F050124AC4005786D11AD0005F1E0259A
:101E7000C5F8004109E0047804F01F050124AC40D6
:101E8000044D0678761145F8264070BD0CED00E053
:101E900000E400E080E100E0024A0A400243024B15
:101EA0001A60704780FFFF1F08ED00E02DE9F04148
:101EB0008EB0002500240026002734222C4901A8DA
:101EC000FEF777FCFFF7BAF801A8FEF70EFC1FFA41
:101ED00080F8414601A801F024F945E0FFF7AEF88B
:101EE00004F03AF84FF4FA7007F00DFB04F034F800
:101EF000681CC5B21F4802881FA1204805F0B4FA2B
:101F000006461C4802881EA11C4805F0ADFA07468B
:101F100026B11FB101200EB0BDE8F081154802883E
:101F20001AA1164805F0A0FA0646EEB1601CC4B22C
:101F3000012C15D104F010F84FF4FA7007F0E3FA11
:101F400004F00AF804F008F8FFF778F801A8FEF7A3
:101F5000CCFB1FFA80F8414601A801F0E2F803E04B
:101F6000022C01DB0020D6E7142DB7DB0020D2E7DE
:101F700050C10008D00000204F4B0000E82C00208A
:101F80002B4D495043414C4C3A2031004552524F61
:101F90005200000010B500F00FF80446012C04D1E7
:101FA000FFF784FF28B1012010BD022C01D10120D0
:101FB000FAE70020F8E700002DE9F04188B000269C
:101FC000002400250027202232496846FEF7F1FB55
:101FD000FFF734F86846FEF788FB1FFA80F84146A1
:101FE000684601F09EF851E003F0B6FF4FF4FA7036
:101FF00007F089FA701CC6B22748028827A1284832
:1020000005F032FA05462448028826A1244805F046
:102010002BFA074625B11FB1022008B0BDE8F081B8
:102020001D4802881DA11E4805F01EFA05461A48E3
:10203000028820A11A4805F017FA074615B10FB11A
:102040000120EAE71448028823A1154805F00CFA9C
:102050000546DDB1601CC4B2012C13D103F07CFF36
:102060004FF4FA7007F04FFA03F076FFFEF7E6FF41
:102070006846FEF73AFB1FFA80F84146684601F0D1
:1020800050F803E0022C01DB0020C6E7142EABDB86
:102090000020C2E784C10008D00000204F4B0000A0
:1020A000E82C00202B4D495043414C4C3A20312C18
:1020B000000000002B4D495043414C4C3A20302C3D
:1020C000302E302E302E302C302E302E302E302C24
:1020D000302E302E302E30004552524F520000002C
:1020E00010B500F07DF84FF4803000F03BF900F0BF
:1020F00097F90446012C25D1002000F027F9002093
:1021000000F062F9A00200F053F90220FFF732F864
:102110001020FFF701F84FF4E0114FF4403000F0C9
:1021200065F9012000F05CF900BF392000F0E8F803
:102130000028FAD0022000F067F900BF00F0FEF896
:102140000828FBD110BD000001460020034A50685A
:1021500020F44040084350607047000000100240E7
:1021600029B1064AD2690243044BDA6104E0034A0A
:10217000D2698243014BDA617047000000100240CF
:1021800029B1064A92690243044B9A6104E0034A6A
:1021900092698243014B9A6170470000001002402F
:1021A00010B5012140F27D20FFF7EAFF012148062A
:1021B000FFF7D6FF01218803FFF7D2FF4FF400405D
:1021C000FFF7C2FF01218803FFF7DAFF012148046E
:1021D000FFF7C6FF01218804FFF7C2FF10BD000012
:1021E0000F48006840F001000D490860084640684B
:1021F0000C4908400A494860084600680A490840F6
:10220000074908600846006820F4802008600846F6
:10221000406820F4FE0048604FF41F00886070475B
:10222000001002400000FFF8FFFFF6FE30B500216D
:102230000022002400232D4D6D6805F00C0121B112
:10224000042905D0082923D105E0294D056022E0A5
:10225000274D05601FE0254D6D6805F47012234D74
:102260006D6805F48034022505EB92421CB9214DBE
:10227000554305600BE01D4D6D6805F400351DB13B
:102280001C4D5543056002E0194D5543056002E0C1
:10229000174D056000BF00BF144D6D6805F0F001DB
:1022A0000909154D6B5C0568DD4045600F4D6D6893
:1022B00005F4E061090A104D6B5C4568DD408560FE
:1022C0000A4D6D6805F46051C90A0B4D6B5C456899
:1022D000DD40C560054D6D6805F44041890B074D33
:1022E0006B5CC568B5FBF3F5056130BD00100240BD
:1022F00000127A0000093D006202002072020020F4
:1023000010B501460022002300204A11012A02D103
:10231000094C236806E0022A02D1074C236A01E037
:10232000054C636A01F01F02012494401C400CB16B
:10233000012000E0002010BD00100240024840686B
:1023400000F00C0070470000001002400146002021
:10235000034A506820F0F0000843506070470000C6
:10236000001002401149096821F480310F4A1160C0
:102370001146096821F480211160B0F5803F03D037
:10238000B0F5802F0ED106E00849096841F480318C
:10239000064A116007E00549096841F4A021034A93
:1023A000116000E000BF00BF704700000010024055
:1023B00001460020034A506820F4E0600843506062
:1023C000704700000010024001460020034A506898
:1023D00020F4605040EAC100506070470010024095
:1023E0000149086670470000000042420246002092
:1023F000044B586820F47C1042EA01031843014B57
:10240000586070470010024001460020034A50689F
:1024100020F00300084350607047000000100240A5
:1024200038B5002000900024002500BF3120FFF7C0
:1024300067FF05460098401C00900098B0F5A06F1B
:1024400001D0002DF2D03120FFF75AFF08B101244E
:1024500000E00024204638BD2DE9F0474FF0000889
:102460000025A94600240026A246F54890F80380DE
:1024700090F80690F348A0F80080B8F1810F37D1AA
:10248000EF480579032D0BD1C079ED49897900EB2F
:102490000120ED49087008460078EC49088025E0E5
:1024A000202D23D10020E9490880E5488079E849BA
:1024B0000870E348C0794870E148007A8870E048C5
:1024C000807AC870DE48C07A0871DD48007B4871A8
:1024D000084607F0B5FB8246BAF1000F06DBDD487F
:1024E000C07820F00100401CDA49C870BDE8F087D0
:1024F000B8F1830F19D1D2484079D149097900EB5D
:10250000012085B2CE4890F80690002706E024020C
:10251000F81DCB49085C0444781CC7B2B7EB490FDF
:10252000F5DBC8480580C9490C80CA48C07820F04E
:102530001000C849C8700020C7490880F02D1CDB76
:10254000B5F5E46F19DCC348007820F080008030D6
:10255000C0490870B5F5E46F09D1C0490C70BD4899
:10256000407820F040004030BA494870BEE700BFD4
:10257000A1B2284605F098F8B8E7B5F5E66F0BDB91
:1025800040F23670854207DCB248407820F0010006
:10259000401CB049487029E0B5F5E86F0ADBB5F595
:1025A000F46F07DCAB48407820F00200801CA9499A
:1025B00048701BE0B5F5F66F0ADBB5F5F76F07DC81
:1025C000A448407820F008000830A24948700DE087
:1025D000B5F5F86F0ADB40F61C00854206DC9D4825
:1025E000407820F0100010309A494870F02D1CDB24
:1025F000B5F5E46F19DC9748007820F08000803052
:1026000094490870B5F5E46F09D194490C7091486C
:10261000407820F0400040308E49487066E700BFA7
:10262000A1B2284605F040F860E7B5F5E66F15DB86
:1026300040F23670854211DC8648407820F0010077
:10264000401C844948708648807820F00100401C76
:102650008349887002208349087032E0B5F5E86F3D
:102660000DDBB5F5F46F0ADC7A48407820F0020003
:10267000801C7849487003207A49087021E0B5F53C
:10268000F66F0DDBB5F5F76F0ADC7248407820F085
:10269000080008306F49487005207249087010E042
:1026A000B5F5F86F0DDB40F61C00854209DC694882
:1026B000407820F0100010306649487006206949C3
:1026C000087040F23671681A8D426ED06EDCA82D0B
:1026D0006DD03CDC842D6BD01CDC722D69D00CDC01
:1026E000562D67D004DC202D6FD0542D6ED139E1EA
:1026F000602D6CD0702DF9D1A9E1782D68D004DC63
:10270000742D7DD0762DF1D1F4E1802D79D0822DFC
:10271000ECD1B5E1962D75D00CDC902D73D004DC96
:10272000862D71D0882DE1D1F7E1922D6DD0942DB9
:10273000DCD1C9E1A22D69D004DC982D67D0A02D91
:10274000D4D187E1A42D73D0A62DCFD1D5E1D22D40
:102750006FD01ADCC02D6DD00ADCA5F1B0000928BD
:1027600034D2DFE800F0F233F133F033EF33EE0030
:10277000C62D79D004DCC22D77D0C42DB6D1A6E108
:10278000C82D73D0D02DB1D167E1E82D6FD012DC08
:10279000D82D6DD004DCD42D6BD0D62DA6D1AFE1D1
:1027A000E02D67D0E62DA1D1EDE0E8E118E0B6E13B
:1027B00089E164E1DAE0B5F5E66F74D009DCEA2D71
:1027C00072D0B5F5E46F91D1B8E1C0E0B3E31CE19C
:1027D000A2E1A5F23270002867D0022886D1CBE1B1
:1027E0006A2876D067DC3A2874D044DC222872D07C
:1027F00016DC0A2870D00EDC02286ED0042807E010
:1028000060E125E178E124E175E13AE13AE185E131
:102810007FF47EAFA6E10C2872D00E2888D1C8E1E3
:102820002E286ED007DC2A286CD02C2888D1CBE14A
:102830004BE12AE110E1322870D0342885D1D2E171
:1028400000210020A6000020AA000020A8000020EF
:102850004B020020600000209C000020C8000020E7
:1028600064000020AB00002049E10DE159E1A9E03E
:1028700058E12DE115E14C2868D00CDC44286ED0DD
:1028800004DC3E286CD0402888D1BEE1462868D0C0
:102890004A2888D1D4E1562872D007DC502870D05D
:1028A000522890D1B4E153E1A2E060E1582869D008
:1028B0005C2888D1C7E1BA286FD024DC82286DD08B
:1028C00011DC7C286BD009DC6C2869D07A2885D192
:1028D000D1E1C8E198E17DE15BE13EE17E286ED087
:1028E000802895D1E9E18E286AD004DC8A2868D056
:1028F0008C288DD18CE2902876D0B42888D1A0E2A3
:102900004FE164E15DE1D2286FD00DDCC6286DD0C7
:1029100005DCBE286BD0C22888D1D4E25FE1CA288A
:1029200070D0CE288AD1D1E2DE286CD004DCD62843
:102930006AD0DA28A8D1E1E2E2287DD0E628A3D146
:102940008DE2EDE0DAE0C1E09DE084E05FE1FE4889
:10295000C07820F008000830FB49C870ECE26EE156
:102960006CE153E120B2F9490880E5E2012C06D17F
:10297000F548C07820F00400001DF349C870DBE280
:1029800060E15EE145E1002C0BDB072C09DCF0493E
:102990000C700720EF49087009E092E2ABE16BE1AF
:1029A0005EE10020EA4908700120EA490870EA481F
:1029B000807820F00100401CE7498870BCE25CE1AF
:1029C00039E2F8E1012C04DB062C02DCE1490C7051
:1029D00002E00020DF490870DF48807820F0010025
:1029E000401CDD498870A7E228E270E26CE269E2EF
:1029F000012C06D1D848407820F040004030D6491C
:102A0000487099E261E280E271E2022C1EDCD34858
:102A100090F82400A04206D0CB48807820F0200017
:102A20002030C9498870CD4981F82440084690F883
:102A3000240040F2551200E072E25043C84A02EB13
:102A4000400140F2AA22C748FDF76EFE74E200BFC3
:102A500000BF00BF00BF00BF00BFA5F17000C117DD
:102A600000EB1171C1F30716BF4820F8364006EBA2
:102A7000460101EBC601BB4A22F831405CE200BFCF
:102A800000BF00BF00BF00BF00BFA5F17200C117AB
:102A900000EB1171C1F30716B34800EBC600448088
:102AA0004AE20020B1490870A748407820F0200091
:102AB0002030A54948700846407820F0400040305A
:102AC000487039E200BF00BF00BF00BF00BF00BFB9
:102AD000A5F17400C11700EB1171C1F3071620B204
:102AE00006EB460101EBC6019E4A02EBC101A1F8CB
:102AF000560021E200BF00BF00BF00BF00BF00BF03
:102B0000A5F17600C11700EB1171C1F307169648C5
:102B100000EBC60084800FE200BF00BF00BF00BF13
:102B200000BF00BFA5F17800C11700EB1171C1F320
:102B300007168D4800EBC600C480FDE1824840784E
:102B400020F0400040308049487088490C70F3E123
:102B500020B28449A1F8A802EEE120B28149A1F88F
:102B6000A202E9E121B27F48A0F8A412E4E121B277
:102B70007C48A0F8A612DFE17D480486DCE17248BB
:102B8000407820F0800080306F49487079490C709F
:102B9000D2E16D48C078C0F3400008B16F498C8223
:102BA000CAE16948C078C0F3400008B16B49CC82E3
:102BB000C2E16548C078C0F3400008B167490C83A2
:102BC000BAE166498C76B7E16449CC76B4E16349F1
:102BD000CC83B1E1032C01DC60494C77ACE15F4967
:102BE00081F82040A8E15D49CC855748807820F0E5
:102BF0008000803054498870584826305E490A6801
:102C000002604968416097E100BF00BF00BF00BF9C
:102C100000BFA5F5EE60062190FBF1F0C6B206EB11
:102C20008600534911F8100008B9012000E0002087
:102C300006EB86014E4A02F811007DE100BF00BF9D
:102C400000BF00BF00BFA5F27470062190FBF1F039
:102C5000C6B206EB8601464A02EB4101CC806BE12D
:102C60004348048668E13848807820F00100401C21
:102C70003549887060E100BF00BF3348C07820F05C
:102C800020003149C870A5F5F66000EBD071C1F3A2
:102C9000470606EB4600394901EB8000B0F9060013
:102CA0000A2190FBF1F0201A00B2354921F81600F4
:102CB00020B2344921F816003EE12348C07820F0C4
:102CC00020002149C870A5F2B67000EBD071C1F3A5
:102CD00047062A48B0F9EA000A2190FBF1F0201AD1
:102CE00001B22748801D20F8161021B22548801D0A
:102CF00020F8161020E100270BE0214830F81700DB
:102D000028B11F4830F817001F4921F81700781C18
:102D1000C7B21D48407AB842EFDC00270EE01848E1
:102D2000801D30F8170038B11548801D30F8171095
:102D30001548801D20F81710781CC7B21248807AF9
:102D4000B842ECDC004821E0600000205202002084
:102D5000AC000020AB00002064000020B22900205D
:102D600030210020F02900205A2C0020C80000202B
:102D70002E290020C90000209E000020E400002031
:102D80005402002094000020A6290020807820F022
:102D90000200801C6A4988706A4800210160416015
:102DA0006948016041606648C07820F0200020300A
:102DB0006349C870C0E0032C01DD032401E004B9BD
:102DC000012462494C720846407A012806D16049C4
:102DD000C87200215E48C17580F823105B48407AB4
:102DE000022808D101205A49C87201215848C175EA
:102DF000002180F823105548407A032807D101208C
:102E00005349C87201215248C17580F8231093E0DC
:102E1000012C00DD01244D498C720846407A0128BE
:102E200004D101214A4880F8EF1003E0002148480E
:102E300080F8EF1080E045490C727DE045490C7741
:102E40007AE03F48807820F00400001D3C498870FB
:102E50000846807820F00200801C88706CE03848BA
:102E60008078C0F3C00050B9052004F0CBFA344894
:102E7000807820F008000830314988700DE0304833
:102E80008078C0F3C00040B12D48807820F0080061
:102E90002B498870062004F0B5FA29488078C0F3E1
:102EA000C00068B9002704E000212B48C155781CF8
:102EB000C7B20A2FF8DB00202749491EC8720873E1
:102EC0003AE000BF00BF00BF00BF00BF00BFA5F5D4
:102ED000FE60C11700EB9171C1F387061E48805D4B
:102EE00008B9012100E000211B48815524E0642C31
:102EF00000DB64241848401E44721DE0642C00DB93
:102F000064241548401E847216E01348401EC07A9F
:102F100008B9012000E000200F49491EC8720BE0EB
:102F20000D48401E007B08B9012000E000200A493E
:102F3000491E087300E000BF00BF00BFFFF7D6BA0C
:102F4000600000209400002054020020A6290020E8
:102F5000E4000020B2290020E329002010B5044637
:102F60006648C078C0F3001080B14FF0FF3064496C
:102F700008806248007820F00100604908706148CC
:102F80000078022802DD012003F026FD5B48C078AE
:102F9000C0F38000002855D059480088C0B3584875
:102FA000B0F9000042F2B821884214D05648808A15
:102FB0005349B1F9001088420DD05348C08A504996
:102FC000B1F90010884206D04F48008B4C49B1F946
:102FD0000010884227D14948007820F00100401CA9
:102FE000464908704648B0F9000042F2B8218842CC
:102FF00006D04548808A4249B1F90010884208D17C
:103000003E48C07820F00200801C3C49C87006E0B1
:1030100009E03A48C07820F002003849C87006201C
:1030200003F0DAFC08E03548007820F0010033496D
:103030000870032004F0E6F93048C07820F004005E
:103040002E49C87031484078C00938B103F0D8FE25
:103050002E48407820F080002C4948702B4880781A
:1030600000F0010058B12948807820F0010027497C
:103070008870274801782748007803F01BFC1F4818
:103080008078C0F34010E8B103F000FD03F098FE33
:1030900003F0DAFF03F0C6FC03F060FF1748807806
:1030A00020F02000154988701B4890F90010491C39
:1030B000222004F043F9194890F90010491C2420FB
:1030C00004F03CF90D480078C0F3800038B103F0FB
:1030D0005BFC0A48007820F00400084908700748A3
:1030E0000078C0F3001038B103F062FC03480078A8
:1030F00020F010000149087010BD000060000020A1
:1031000052020020AA000020B22900206400002002
:10311000AC000020AB000020AD000020AE0000207D
:10312000704770B505460E46002403E0285D01F0A7
:103130006BFF641CB442F9DB012070BD042808D188
:103140004FF0E021096941F004014FF0E0221161E4
:1031500007E04FF0E021096921F004014FF0E0227F
:103160001161704770B586B001A8FFF75FF84FF4A2
:103170007A710298B0FBF1F42146B1F1807F00D35F
:103180001DE021F07F40401E4FF0E02250615017BB
:103190000F22002807DA13071E0E0B4B00F00F0555
:1031A0002D1F5E5503E013071D0E084B1D5400BF75
:1031B00000204FF0E02290610720106100BF042042
:1031C000FFF7BCFF06B070BD18ED00E000E400E0C2
:1031D00010B505F017FA10BD2DE9F04F99B08346F0
:1031E00090461D460026002464216846FDF73DFBFD
:1031F0000027A146B5F5AF6F03DD002019B0BDE88B
:10320000F08F42462EA16846FDF7DCF8FDF716FF69
:103210006846FDF76AFA1FFA80FA51466846FFF7DA
:1032200080FF49E002F098FEC82006F06CF902F039
:1032300093FEC82006F067F902F08EFE701C86B27D
:103240002548028825A1264804F00EF907465FB1FB
:103250002148028823A1224804F006F98146B9F1E9
:10326000000F01D00120C9E71B48028820A11C489B
:1032700004F0FAF80746FFB1601CC4B2012C17D164
:103280004FF4FA7006F03FF902F066FE4FF4FA7060
:1032900006F039F902F060FEFDF7D0FE6846FDF752
:1032A00024FA1FFA80FA51466846FFF73AFF03E016
:1032B000052C01DB0020A1E70A2EB3DB00209DE7EF
:1032C00041542B4D4950535452533D312C302C22F4
:1032D0002573220D0A000000D00000204F4B000093
:1032E000E82C00202B4D4950444154413A00000045
:1032F0004552524F520000002DE9F04F91B0044664
:103300008A46934600270026B046142234490CA86A
:10331000FDF74FFA302233A16846FDF74AFA0CB99F
:1033200001250BE0012C01D1022507E0022C01D17F
:10333000032503E0002011B0BDE8F08FFDF77EFE0D
:103340006846FDF7D2F91FFA80F949466846FFF74B
:10335000E8FE2A462FA10CA8FDF734F83BE002F066
:10336000FBFD4FF4FA7006F0CEF802F0F5FD781C84
:10337000C7B22C4802880CA92B4804F075F8804687
:10338000B8F1000F01D00120D5E72648028827A117
:10339000254804F069F88046B8F1000F1BD0701C76
:1033A000C6B2012E13D102F0D7FD4FF4FA7006F029
:1033B000AAF802F0D1FDFDF741FE6846FDF795F948
:1033C0001FFA80F949466846FFF7ABFE03E0322E4C
:1033D00001DB0020AFE70A2FC1DB0020ABE70000D4
:1033E000E4C1000841542B4D49504F50454E3D31EA
:1033F0002C22544350222C223132322E3131322EA3
:103400003231392E3837222C333732342C373030A2
:10341000300D0A002B4D49504F50454E3A2025643F
:103420002C310000D0000020E82C00204552524FE3
:10343000520000002DE9F043A3B0064600276421A6
:103440000AA8FDF712FA002006900790089009904C
:10345000002400258046142101A8FDF706FAA146A4
:103460007C4802887CA17F4803F0FEFF8146B9F1C9
:10347000000F03D1002023B0BDE8F083632249464A
:103480000AA8FDF751F93346774878A1026801A8E8
:10349000FCF798FF002701A90AA8FDF714F90746D1
:1034A0000FB90120E7E7002773A10AA8FDF70BF980
:1034B00007460FB90120DEE7002413E0621C70A16B
:1034C0000AA804F04EF88046002E01DC0120D2E765
:1034D000B8F1070F01DA0120CDE706A901F8048051
:1034E000601CC4B20F2CE9DB9DF818000AA9085C27
:1034F0003138C1B2634801719DF81800401C0AA917
:10350000085C3138C1B25F4881709DF81800801C9A
:103510000AA9085C3138C1B25A48C1709DF81B0035
:103520000AA9085C3138C1B2564881739DF81B0066
:10353000401C0AA9085C3138C1B2524801739DF899
:103540001B00801C0AA9085C3138C1B24D48417388
:103550009DF81C000AA9085C3138C1B249480176BF
:103560009DF81C00401C0AA9085C3138C1B24548CE
:1035700081759DF81C00801C0AA9085C3138C1B215
:103580004048C1759DF81A000AA9085C3138C1B2DB
:103590003C4880F836109DF81A00401C0AA9085CC7
:1035A0003138C1B2374880F834109DF81A00801CB9
:1035B0000AA9085C3138C1B2324880F835100024BD
:1035C00019E0002513E004EB84002E4901EB4000D4
:1035D000401C405D48B104EB840001EB4000401CFE
:1035E000405D012801D0012045E7681CC5B2052DCA
:1035F000E9DB601CC4B2062CE3DB002425E00025D7
:103600001FE00DB1042D00D119E004EB84001D4929
:1036100001EB4000401C415D04EB84001A4A02EBC0
:103620004000401C405D814208D01848407820F09E
:10363000080008301549487001201CE700BF681CCD
:10364000C5B2052DDDDB601CC4B2062CD7DB012022
:1036500011E70000D00000202B4D49504441544157
:103660003A000000E82C0020D4000020686D2B25D3
:10367000642B2564000000002B656E6400000000D0
:10368000280000006A2900202E2900206400002064
:1036900030B589B004460025202101A8FDF7E5F8E2
:1036A000224608A101A8FCF78DFE0848028801A95E
:1036B000074803F0D9FE054615B1012009B030BD19
:1036C0000020FBE7686D2B25642B3000D000002024
:1036D000E82C00202DE9F04F8BB004460D4616462D
:1036E0004FF0000B002700200A90202102A8FDF7D0
:1036F000BCF80CB9B84607E0012C01D1A04603E0A4
:1037000000200BB0BDE8F08F15B94FF0000905E0BF
:10371000012D01D1A94601E00020F2E716B94FF0D2
:10372000000A05E0012E01D1B24601E00020E8E7E1
:10373000FDF784FC4B46424627A102A8CDF800A025
:10374000FCF740FE02A8FCF7D0FF80B201460190D2
:1037500002A8FFF7E6FC3AE002F0FEFB642005F069
:10376000D2FE02F0F9FB0BF1010000F0FF0B204844
:10377000028820A1204803F077FE0A900A9808B139
:103780000120BEE71A4802881CA11B4803F06CFE0A
:103790000A900A98D8B1781CC7B2012F13D102F051
:1037A000DBFB4FF4FA7005F0AEFE02F0D5FBFDF73F
:1037B00045FC02A8FCF799FF80B20146019002A8DF
:1037C000FFF7AFFC03E00A2F01DB002099E7BBF114
:1037D000140FC1DB002094E741542B4D49504D4F4D
:1037E00044453D25642C25642C25640D0000000013
:1037F000D00000204F4B0000E82C00204552524FD3
:103800005200000010B50446DF4801780078401CE3
:10381000DD4A1070022909D3002011460870DB48E8
:10382000407820F080008030D8494870D84800881F
:10383000401CD7490880084600880A2808DBD5487C
:1038400005F0CAFFD34805F03EFF0020D0490880AC
:10385000D1480088401CD0490880084600880A28C2
:1038600008DBCE4805F0B8FFCC4805F02CFF00205F
:10387000C9490880CA48007820F010001030C849B3
:103880000870C8480078401CC6490870084600788F
:103890001E280FD3C448407820F00400001DC24900
:1038A0004870C24805F098FFC04805F00CFF0020A2
:1038B000BC490870BE480078401CBD490870BD482E
:1038C00001780078401CBB4A1070052909D3BA481A
:1038D000007820F010001030B74908700020114621
:1038E0000870B548C07800F0010030B9B2480078DF
:1038F00020F010001030B0490870B048017800780E
:10390000401CAE4A1070052909D3AB48007820F05E
:103910000400001DA8490870002011460870A8483E
:1039200001880088401CA64A10800A290ED3002076
:1039300011460880A048807820F0400040309E4921
:1039400088700846007820F0040008709D480078D0
:1039500028B19D480078401C9B49087002E0002077
:10396000994908709948007828B1994805F0ABFE4C
:1039700000209649087094480078B42815D3012097
:103980009049087093490870914805F025FF01207F
:103990008E49087000208C4908708F48007E401CBA
:1039A00040B28D49087606F07BFA8C480078401CBE
:1039B0008A490870084600783C2804DB002008701B
:1039C00001208749087087480068401C85490860C5
:1039D0008548C089401C8449C8810846C0890A2896
:1039E00006D30020C88101208049C8700871087280
:1039F0007D48008A401C7C4908820846008A782855
:103A000005D301207949487100207749088276481A
:103A1000408A401C744948820846408A1E2806D3C2
:103A200000204882012071494870887008706E48F3
:103A3000808A401C6C4988820846808A3C2804D3CE
:103A40000020888201206949C8716948007898B1CE
:103A50006849C88868490A780978491C664B197012
:103A600000EBD071B2EB610F0BDB00201946087040
:103A700001206249087004E000205F4908705F4936
:103A800008705B48407898B15A49088A5A494A7880
:103A90004978491C584B597000EBD071B2EB610F5B
:103AA0000BDB00201946487001205449887104E05E
:103AB000002051494870514988714D48807898B12B
:103AC0004C49488B4C498A788978491C4A4B9970F3
:103AD00000EBD071B2EB610F0BDB00201946887050
:103AE00001204649087304E0002043498870434997
:103AF00008733F48007998B13E49C88D3E490A791C
:103B00000979491C3C4B197100EBD071B2EB610F84
:103B10000BDB00201946087101203849087604E0C3
:103B2000002035490871354908763148407998B107
:103B30003049088F30494A794979491C2E4B5971CF
:103B400000EBD071B2EB610F0BDB0020194648711E
:103B500001202A49887704E0002027494871274935
:103B60008877274801880088401C254A1080B4299E
:103B700009D90020114608800F48C07820F01000B5
:103B800010300D49C87010BD1C00002064000020DA
:103B900084000020A01C002086000020401D002082
:103BA0005C0000208800002054000020E01D002060
:103BB0008C00002017000020600000201A00002068
:103BC00018000020E0000020000000201B00002062
:103BD000201F0020E3000020CC2C0020E10000206A
:103BE000E2000020DC000020800400209604002079
:103BF000CA0000202E2900201D0000209A2C002041
:103C00009C00002021490978491C204A1170114666
:103C100009780A2910D31E49097821F00401091DE9
:103C20001B4A11701B49097821F040014031194AA3
:103C300011700021154A117017490A780978491C3A
:103C4000154B1970642A09D31249897821F0200193
:103C50002031104A917000211A4611700F490A78DC
:103C60000978491C0D4B19700A2A0ED300211A46F7
:103C700011700B49C96801F0080119B10821084AFF
:103C8000516102E00821064A116170478900002055
:103C900054000020600000201600002015000020C5
:103CA000001001400349497821F020012031014AE8
:103CB000517070475400002010B5174C04F0AAFC56
:103CC00040F22551206800F0CCF850B1206880887F
:103CD00012490870FDF75EFD40F22551206800F0A2
:103CE00098F840F22661206800F0BBF820B140F25D
:103CF0002661206800F08DF80821206800F0A4F803
:103D0000012806D1064806F00FFA0821206800F0C5
:103D100077F804F097FC10BD3400002071000020FB
:103D2000C01F002010B5164C04F074FC40F2255161
:103D3000206800F096F840B10121124804F060FBC1
:103D400040F22551206800F064F840F226612068B6
:103D500000F087F820B140F22661206800F059F8A1
:103D60000821206800F070F8012806D1054806F007
:103D7000DBF90821206800F043F804F063FC10BD73
:103D80003C0000202420002010B5194C04F042FC17
:103D900040F22551206800F064F868B120688088FE
:103DA0001449087014480188144802F097F840F24A
:103DB0002551206800F02DF840F22661206800F0BF
:103DC00050F820B140F22661206800F022F8082166
:103DD000206800F039F8012807D12068808805495B
:103DE00008700821206800F00BF804F02BFC10BDCF
:103DF00044000020D2000020D0000020E82C002049
:103E000001F40072B2F5007F00D100BFCA43028006
:103E1000704710B50022002340F66A14A14200D179
:103E200000BF0A1201249440A3B2DC43048010BDF9
:103E300021B1828942F40052828104E082894DF6E8
:103E4000FF731A408281704702460020B1F5007F5F
:103E500000D100BF13880B400BB1012000E000200F
:103E6000704770B50246002400230025002040F66C
:103E70006A16B14200D100BFC1F3421501F01F0321
:103E8000012606FA03F3012D02D19689334006E09C
:103E9000022D02D1168A334001E0968A33400C127B
:103EA000012606FA04F41688344013B10CB101203F
:103EB00000E0002070BDF0B5034600240026002578
:103EC000002040F66A17B94200D100BF1846C1F37E
:103ED000421401F01F06012707FA06F5012C01D153
:103EE0000C3004E0022C01D1103000E014301AB183
:103EF00007682F43076002E00768AF430760F0BD23
:103F00002DE9F04786B005460E460024A24600BFC4
:103F1000A1460027B08900B100BF2F462C8A4CF67D
:103F2000FF700440F08804432C82AC894EF6F310F5
:103F30000440B08831890843718908430443AC8147
:103F4000AC8A4FF6FF400440B0890443AC8201A81C
:103F5000FEF76CF91F48874202D1DDF810A001E09E
:103F6000DDF80CA0A88900F4004040B10AEBCA00BB
:103F700000EB0A1031684900B0FBF1F807E00AEBEA
:103F8000CA0000EB0A1031688900B0FBF1F8642028
:103F9000B8FBF0F004012009642101FB1089A88915
:103FA00000F4004040B1322000EBC900B0FBF1F05A
:103FB00000F00700044308E0322000EB0910642100
:103FC000B0FBF1F000F00F0004432C8106B0BDE817
:103FD000F087000000380140C1F30802828070477A
:103FE00010B586B0002401AA00210548FCF7A8FE00
:103FF00000BF01E0601CC4B2082CFBDB06B010BDA2
:1040000000640040F8B506460C46154630798DF838
:1040100000008DF801408DF8025001208DF803005A
:104020006846FDF701FFF8BD00BFFEE7014609B98C
:1040300000207047C8B220B1C8B20E4A105C401CC4
:10404000F7E701F47F4028B10A48C1F30722805CFA
:104050000930EEE701F47F0028B10648C1F30742BA
:10406000805C1130E5E7034800EB116000781930FF
:10407000DFE70000D0C3000830380A2801D2012051
:104080007047002070472DE9F843054688461646DC
:104090002F463FB90020009000BF9DF80000002887
:1040A000FBD000BF34461CB94FF0FF30BDE8F883A9
:1040B00062882188386D0368284698470020F5E714
:1040C0002DE9F8430546894616461F46A846B8F12D
:1040D000000F07D10020009000BF9DF800000028CD
:1040E000FBD000BF34460CB1042F02D00020BDE845
:1040F000F8832188D8F8500082682846904760806D
:104100003846F4E72DE9F8430546894616461F462A
:10411000A846B8F1000F07D10020009000BF9DF81D
:1041200000000028FBD000BF34460CB1042F02D0A1
:104130000020BDE8F88362882188D8F850004368E1
:10414000284698473846F4E738B504463CB900207D
:10415000009000BF9DF800000028FBD000BFA16BBD
:10416000E06A884205D9A18FA06B0844E16A8842C1
:1041700006D2FCF73DF8054600BF002DFDD100E05A
:1041800000BF38BD2DE9FC5F04468B4616461F462E
:10419000DDE90C9ADDE90E5804F12400406000606E
:1041A00000BF26636763C4F83890A4F83CA0A28FD0
:1041B0002321A06B04F020FCB4F83CC0A36B634443
:1041C0001A1F144BD4E90C0104F0F6F9E062202D1B
:1041D00007DB0020019000BF9DF804000028FBD001
:1041E00000BF4034A5716571C4F81480C4F818800C
:1041F000002020602071A065E065403C00902346CF
:10420000054A2146019004F15C0005F029FC0020DC
:10421000BDE8FC9F15950008299800082DE9F04796
:1042200004460E4617469846DDF8209084F819900B
:10423000607E20F001006076E66227630020A063C4
:10424000C4F83480002506E004F1240101EBC50028
:1042500004F057FA6D1C012DF6DBBDE8F08710B5B0
:104260000246002001460EE002F1240303EBC100E8
:10427000D0E900436360D0E900342360406000600F
:1042800000BF481C01460129EEDB10BD2DE9F843B3
:1042900004460E4617464FF0000904B13EB900200F
:1042A000009000BF9DF800000028FBD000BFE56D26
:1042B0003DB90020009000BF9DF800000028FBD011
:1042C00000BFFBF795FF8046286801280AD001202F
:1042D0002860206D01233A463146D0F810C02046B0
:1042E000E04701E06FF006094046FBF785FFB9F1B2
:1042F000000F02D13846BDE8F883484605F002F8C1
:104300000020F8E72DE9F047044688461646256E5A
:104310004FF0FF3332464146281D03F0FCFC0746B0
:10432000CFB9FBF765FF8146286801280DD0012031
:1043300028604846FBF760FF206D02233246414665
:10434000D0F810C02046E04702E04846FBF754FF93
:104350003046BDE8F087384604F0D4FF0020F8E787
:104360002DE9F84F06460F4615463EB9002000904D
:1043700000BF9DF800000028FBD000BFA846F46DE8
:104380003CB90020009000BF9DF800000028FBD041
:1043900000BF22E0FBF72CFF8246E088A18888421C
:1043A0000FD0E188206810F80190E088401CE08080
:1043B000E188B06DC0F38F20814206DB0020E080F1
:1043C00003E05046FBF718FF09E05046FBF714FFE7
:1043D00087F800907F1C6D1E00BF002DDAD100BF52
:1043E000A8EB0500BDE8F88F2DE9F84305460E4619
:1043F00014463DB90020009000BF9DF80000002841
:10440000FBD000BFA0462F6E3FB90020009000BF38
:104410009DF800000028FBD000BF0FE03178286D28
:10442000826828469047401C28B94FF0FF31384633
:1044300003F0FBFA02E0761C641E00BF002CEDD1F5
:10444000A8EB0400BDE8F8832DE9F84306460F46C3
:1044500014463EB90020009000BF9DF800000028DF
:10446000FBD000BFA0460AE0306DC16830468847E7
:1044700005463D707F1C641E0A2D00D101E0002C12
:10448000F2D100BFA8EB0400BDE8F883F8B50446FC
:104490000E4615463CB90020009000BF9DF8000074
:1044A0000028FBD000BF2F4613E030780A2809D13E
:1044B00094F8260000F0400020B1206D0D218268A4
:1044C000204690473178206D826820469047761CC0
:1044D0006D1E002DE9D1781BF8BD00002DE9F047D5
:1044E00090B081460C46342103A8FCF7BEF90025A4
:1044F00000260027A846484600F0BEF90746234894
:1045000000680A21B0FBF1F201FB1200801D97FB4D
:10451000F1F201FB127108440A2194FBF1F201FB54
:1045200012410844C6B20A2096FBF0F100FB11606C
:10453000C6B2174806703B461448CDE9004615A19F
:10454000026803A8FBF73EFF00BF19E003A8FCF7D1
:10455000CCF81FFA80FA534603AA01210020FEF787
:104560003BFE054645B11020FFF792F805461DB108
:10457000012010B0BDE8F08708F1010000F0FF084D
:10458000B8F1030FE2DB2846F3E70000D400002077
:10459000D3000020686D2B25642B31362B25642B2E
:1045A000302B25642B25642B656E64002DE9F043C8
:1045B0008FB08046342102A8FCF757F9002400256B
:1045C00000260027404600F057F906461D480068BF
:1045D0000A21B0FBF1F201FB1200C01D96FBF1F2C3
:1045E00001FB12610844C5B20A2095FBF0F100FB03
:1045F0001150C5B21448057033461248009513A1F6
:10460000026802A8FBF7DEFE00BF17E002A8FCF775
:104610006CF81FFA80F94B4602AA01210020FEF730
:10462000DBFD044644B11120FFF732F804461CB10B
:1046300001200FB0BDE8F083781CC7B2032FE5DB83
:104640002046F6E7D4000020D3000020686D2B251B
:10465000642B31372B25642B302B25642B656E643E
:10466000000000002DE9F04790B081460C4634214F
:1046700003A8FCF7FAF8002500260027A8464846BC
:1046800000F0FAF80746234800680A21B0FBF1F26F
:1046900001FB1200401D97FBF1F201FB127108446F
:1046A0000A2194FBF1F201FB12410844C6B20A2030
:1046B00096FBF0F100FB1160C6B2174806703B464E
:1046C0001448CDE9004615A1026803A8FBF77AFE5D
:1046D00000BF19E003A8FCF708F81FFA80FA534658
:1046E00003AA01210020FEF777FD054645B10F2002
:1046F000FEF7CEFF05461DB1012010B0BDE8F087E2
:1047000008F1010000F0FF08B8F1030FE2DB2846D2
:10471000F3E70000D4000020D3000020686D2B25B3
:10472000642B31352B25642B302B25642B25642BF2
:10473000656E64002DE9F04796B081460D46342140
:1047400009A8FCF792F800260027B046002414219F
:1047500004A8FCF78AF8484600F08EF880463748EF
:10476000807936494979354A1279344BDB78CDE97D
:104770000032CDE9021031488378028830A104A8C4
:10478000FBF720FE00BF08E004A8005D202802D14E
:10479000302004A90855601CC4B20E2CF4DB2D484F
:1047A00000680A21B0FBF1F201FB1200093098FB0E
:1047B000F1F201FB128108440A2195FBF1F201FBA1
:1047C000125101449DF81D0030380A2290FBF2F38B
:1047D00002FB13000844C7B20A2097FBF0F100FB6C
:1047E0001170C7B21C48077004A84346CDE9010701
:1047F0000095184819A1026809A8FBF7E3FD0024F9
:1048000017E009A8FBF771FF1FFA80FA534609AABF
:1048100001210020FEF7E0FC064646B11320FEF71A
:1048200037FF06461EB1012016B0BDE8F087601CB8
:10483000C4B2032CE5DB3046F6E700009E00002002
:10484000253464253264253264253264253264259A
:1048500032640000D4000020D3000020686D2B25B6
:10486000642B31392B25642B302B25642B25732B9E
:1048700025642B656E64000001460020062910D2D5
:10488000DFE801F0030507090B0D01200AE0032012
:1048900008E0092006E00A2004E00B2002E00420E2
:1048A00000E000BF00BF70472DE9F0410024A1489F
:1048B000B0F900000A2190FBF1F005B29E48B0F972
:1048C000000090FBF1F007B20026002D01DCBDE8EE
:1048D000F08102219948FCF7B9FE002801DC012093
:1048E00000E0002020B104219548FCF7B8FE03E069
:1048F00004219348FCF7B5FE9248007868B1022184
:104900008E48FCF7A3FE002801DC012000E0002017
:1049100018B101208C49087004E000208A49087011
:104920008A4908708748807AC0B38948894991F9D3
:10493000001000EBC1008088002830DD864890F828
:10494000240040F255114843844901EB400000F235
:104950006A20804991F9001000EBC1008088401D59
:10496000A84203DA0120784948701DE07A4890F89F
:10497000240040F255114843784901EB400000F211
:104980006A20744991F9001000EBC1008088401F33
:10499000A84209DD00206C49487005E0FFE70020CF
:1049A00069494870694988716648007DF0B36A4872
:1049B00090F8240040F255114843684901EB40004B
:1049C00000F26A20634991F9001000EBC100C08831
:1049D000002830DD604890F8240040F2551148432B
:1049E0005E4901EB400000F26A205A4991F900103B
:1049F00000EBC100C088401DA84202DA00205249E5
:104A00008870554890F8240040F2551148435349A6
:104A100001EB400000F26A204E4991F9001000EBD2
:104A2000C100C088401FA8420ADD00E003E0012069
:104A30004549887004E00020434948704349887123
:104A4000404890F8280098B13E48008E00280FDDBD
:104A50003C48008EB84202DA01203B4908713948CF
:104A6000008E401FB84208DD00203749087104E07D
:104A700000203549087135490876324890F83200EF
:104A800088B300240DE004EB4400354901EB8000BD
:104A9000807A08B1012600E0002606B105E0601C1E
:104AA000C4B23048407AA042EDDC00BFB6B9002461
:104AB0000FE004F1130000EB4000294901EB8000F6
:104AC000807A08B1012600E0002606B105E0601CEE
:104AD000C4B22448807AA042EBDC00BF26B101209A
:104AE000194948710BE005E0002017494871174942
:104AF000887704E00020144948711449887700241D
:104B000013E004EB4400114911F81000012804D10E
:104B100008210A48FCF7A3FD09E0052C03D1082170
:104B20000648FCF79EFD601CC4B2062CE9DB00BF02
:104B300000BFCCE69000002092000020000C014055
:104B4000001401402E290020CA0000209A2C0020C9
:104B50005A2C0020AD000020B22900203021002076
:104B6000E4000020A62900203CB500200090019020
:104B70004648B0F86C0208B900203CBD00211FE097
:104B800043484C1C00EBC4004488414800EBC10082
:104B90004088844212DC3E484C1C00EBC400408834
:104BA00000280BDD3A4800EBC1008578384800EB5F
:104BB000C4008078281AC0B20DF80100481CC1B2A8
:104BC0000629DDDB3148408808B90020D5E70021FF
:104BD00057E0002251E001EB410000EBC1002B4CFB
:104BE00004EBC000801C02EB420430F824001DF8E6
:104BF0000140A0421CDB01EB410000EBC100234C53
:104C000004EBC000801C02EB420430F824001DF8C5
:104C10000140001B84B2481C00EB400505EBC000BE
:104C20001A4D05EBC000801C02EB420520F8254020
:104C300000231EE001EB410000EBC100134C04EB2C
:104C4000C000801C02EB420400EB8400801CC45CAA
:104C5000481C00EB400505EBC0000C4D05EBC00007
:104C6000801C02EB420500EB8500801CC454581CDC
:104C7000C3B20C2BDEDB501CC2B2072AABDB481CD4
:104C8000C1B20629A5DB002077E70000F02900204B
:104C90005A2C002010B5804890F8240040F255119D
:104CA00048437E4901EB4000B0F8A202002875D0CD
:104CB0007B48807A002873D1774890F8240040F22E
:104CC00055114843754901EB4000B0F9A602002890
:104CD0003BDD7448B0F900000A2190FBF1F16E4809
:104CE00090F8240040F2551250436C4A02EB400009
:104CF000B0F9A602814227DA6B48B0F900000A2118
:104D000090FBF1F1644890F8240040F255125043B2
:104D1000624A02EB400000F26A20644A92F90020E5
:104D200000EBC20042885C4890F8240040F2551322
:104D300058435A4B03EB4000B0F9A402104481429F
:104D400002DB0120564988729FE05748B0F9000005
:104D50000A2190FBF1F1504890F8240040F25512DE
:104D600050434E4A02EB400000F26A204F4A92F94B
:104D7000002000EBC2004288474890F8240040F22F
:104D800055135843454B03EB4000B0F9A2021044C1
:104D900081427ADB01204249887276E072E0FFE7C7
:104DA0003D4890F8240040F2551148433B4901EB3F
:104DB0004000B0F9A60200283BDD3A48B0F90000F7
:104DC0000A2190FBF1F1344890F8240040F255128A
:104DD0005043324A02EB4000B0F9A602814224DA85
:104DE0003148B0F900000A2190FBF1F12A4890F80F
:104DF000240040F255125043284A02EB400000F2D2
:104E00006A202A4A92F9002000EBC2004288224818
:104E100090F8240040F255135843204B03EB400018
:104E2000B0F9A402101A81422FDC00201C498872BC
:104E30002BE01D48B0F900000A2190FBF1F1164863
:104E400090F8240040F255125043144A02EB4000FF
:104E500000F26A20154A92F9002000EBC200428855
:104E60000D4890F8240040F2551358430B4B03EBC8
:104E70004000B0F9A402101A814206DC0020084963
:104E8000887202E00020064988720548817A0A206B
:104E900000F0D0F810BD0000B22900203021002021
:104EA000BE2C00209200002090000020AD000020C9
:104EB00038B52D480068D0B903F090F804F00AFD29
:104EC00005460DE028480068401C2749086000207E
:104ED000009002E00098401C009000986428F9D3EC
:104EE00004F0F8FC401B0A28ECD303F0C5F90024B9
:104EF00004F0F0FC054609E0641C0020009002E08C
:104F00000098401C009000986428F9D304F0E2FC5B
:104F1000401B0A28F0D31448006884421BD2124870
:104F20000068041B642060430F490968B0FBF1F07E
:104F30000E490870642060430B490968B0FBF1F228
:104F400001FB12006421484307490968B0FBF1F0F6
:104F50000749087006E0044804600020034908700F
:104F60000349087038BD0000800200207C02002048
:104F70007D02002010B5024804F074FB10BD000053
:104F8000B14E000803B59DF8041031BB19490978EA
:104F900001F0010101BB002008E00021164A22F8BF
:104FA0001010164A22F81010411CC8B20328F4DB76
:104FB000002008E00021124A22F81010114A22F8BD
:104FC0001010411CC8B20128F4DB0A49097821F00D
:104FD0000101491C074A11700AE00649097801F0ED
:104FE000010129B10349097821F00101014A117039
:104FF0000CBD000060000020B8000020BE000020B2
:10500000C4000020C600002010B504462146054813
:10501000FEF7E2FF00BF80210248FEF715FF0028DF
:10502000F9D010BD0048004010B50446204604F0F9
:105030006AFA10BD70B505460C460C2D76D2DFE835
:1050400005F00C17222D38434E5906095A67394886
:1050500004806CE03748448069E024B90121364877
:10506000FCF7FFFA03E001213348FCF7F8FA5EE0B1
:1050700024B910213048FCF7F4FA03E010212E483F
:10508000FCF7EDFA53E024B920212B48FCF7E9FAAC
:1050900003E020212848FCF7E2FA48E024B9402147
:1050A0002548FCF7DEFA03E040212348FCF7D7FA55
:1050B0003DE024B980212048FCF7D3FA03E08021A9
:1050C0001D48FCF7CCFA32E024B910211B48FCF74C
:1050D000C8FA03E010211948FCF7C1FA27E024B907
:1050E00020211648FCF7BDFA03E020211348FCF705
:1050F000B6FA1CE01BE02CB94FF400711048FCF725
:10510000B0FA04E04FF400710D48FCF7A8FA0EE085
:1051100034B94FF480710A48FCF7A3FA05E005E0C2
:105120004FF480710648FCF79AFA00E000BF00BF18
:1051300070BD000068000020000801400010014020
:10514000000C014070B505460C4606480288064929
:10515000681CFBF7E9FA03480088401C2080002007
:1051600070BD0000600300200432002010B5002450
:1051700006480078012806D10548006880470020CD
:105180000249087000E00624204610BD6B03002091
:10519000700300202DE9F84F054689464FF0000ABC
:1051A00006F02EFF00B13EE0B9F80000022838DB1F
:1051B000684606F049FC009840780602009880781E
:1051C0000643701C86B20098C078040200980079EB
:1051D000044304F0070038B12046E11704EB517195
:1051E000C910491CCFB205E02046E11704EB51710C
:1051F000C1F3C707012C11DB6878B8420ED1002338
:1052000022463146A81C00F019FC8046B8F1000F78
:1052100009D0404602F01EFA824604E04FF0030A2D
:1052200001E04FF0030A5046BDE8F88F2DE9F84F32
:10523000054689464FF0000A06F0E2FE00B13DE067
:10524000B9F80000022837DB684606F0FDFB00983D
:1052500040780602009880780643701C86B2009859
:10526000C078040200980079044304F0070038B1C4
:105270002046E11704EB5171C910491CCFB205E07B
:105280002046E11704EB5171C1F3C707012C10DB75
:105290006878B8420DD122463146A81C00F070FC57
:1052A0008046B8F1000F09D0404602F0D3F982469B
:1052B00004E04FF0030A01E04FF0030A5046BDE856
:1052C000F88F2DE9F843054688464FF0000906F0AF
:1052D00097FE00B12CE0B8F80000022826DB6846F3
:1052E00006F0B2FB009840780602009880780643EA
:1052F000701C86B20098C0780402009800790443BC
:10530000012C10DB6000697888420CD10023224612
:105310003146A81C00F09EFC07464FB1384602F00B
:1053200099F9814604E04FF0030901E04FF00309C9
:105330004846BDE8F8832DE9F843054688464FF016
:10534000000906F05DFE00B12BE0B8F8000002286D
:1053500025DB684606F078FB009840780602009846
:1053600080780643701C86B20098C07804020098CA
:1053700000790443012C0FDB6000697888420BD16F
:1053800022463146A81C00F0BFFC07464FB1384604
:1053900002F060F9814604E04FF0030901E04FF0AC
:1053A00003094846BDE8F8832DE9F84F05468946CC
:1053B0004FF0000B06F024FE00B144E0B9F8000005
:1053C000022840DB684606F03FFB00984078060262
:1053D000009880780643701C86B20098C078070257
:1053E000009800790743009840794FEA0028009818
:1053F000807940EA080808F101001FFA80F8009857
:10540000C0794FEA002A0098007A40EA0A0A780038
:105410006978884215D101235246414600980A30E6
:1054200000F018FC044634B900233A463146A81C63
:1054300000F010FC044634B1204602F00BF983461C
:1054400001E04FF0030B5846BDE8F88F2DE9F84313
:1054500004460F464FF000083888052829D16078A7
:105460000502A0780543681C85B22079F0B9E07880
:10547000FF2801D0E078C8B900208DF80100E0785D
:10548000FF2803D101208DF8000002E000208DF8F4
:10549000000001231A462946684600F0CFFA064666
:1054A0004EB1304602F0D6F8804604E04FF00308D3
:1054B00001E04FF003084046BDE8F8832DE9F041D4
:1054C00004460F464FF000083888052812D160784E
:1054D0000502A0780543681C85B201231A462946B7
:1054E000E01C00F0B7FB064636B1304602F0B2F8D9
:1054F000804601E04FF003084046BDE8F0812DE909
:10550000F84F054689464FF0000BB9F80000052812
:1055100003D006F075FD002837D0684606F094FAEF
:1055200068780602A8780643701C86B2E878040200
:1055300028790443009890F805A004F0070038B1DA
:105540002046E11704EB5171C910491CCFB205E0A8
:105550002046E11704EB5171C1F3C707012C11DBA1
:1055600057450FD10123224631460098801D00F097
:1055700065FA8046B8F1000F09D0404602F06AF89B
:10558000834604E04FF0030B01E04FF0030B584655
:10559000BDE8F88F2DE9F84F82460F464FF000091D
:1055A0003888052802D006F02BFD38B3684606F08F
:1055B0004BFA009840780402009880780443601CFD
:1055C00084B20098C07805020098007905430098DD
:1055D00090F80580680040450DD101232A462146F8
:1055E0000098801D00F036FB06464EB1304602F0B2
:1055F00031F8814604E04FF0030901E04FF0030960
:105600004846BDE8F88F0000014800787047000068
:105610006A0300202DE9F04104460D4616461F4658
:105620004FF00008F4B91A481A4908601A481B4993
:1056300008601B481B4908601B481C490860002083
:105640001B4908601B481C4908601C481C4908602D
:105650001C481D4908603A463146284600F030F99A
:10566000804602E04FF0020800BF00BFB8F1000F13
:105670000AD106F0CFFA10B94FF0030802E001207A
:105680001249087006F0E6F94046BDE8F0810000D6
:10569000015A000870030020255A000874030020F6
:1056A000695900086C03002019590008780300208C
:1056B0007C0300204DBE00088003002075BF000859
:1056C00084030020E1BE0008880300206B03002053
:1056D0002DE9F84300277148007810B10620BDE895
:1056E000F883684606F066FA012872D1BDF800001A
:1056F000042824D004DC012807D002286AD105E060
:1057000008287CD01028F9D18BE0C3E0644A6549B1
:105710006548664B1B68984707464FB905F06CFF14
:1057200061490978884203D1042006F085FA05E032
:10573000012006F033FA102006F07EFAAAE059485C
:10574000006800785A49087001205A490870584882
:105750000078C01120B153480068407808703FE0DD
:1057600000243AE0544810F8340000B937E05248B9
:1057700010F834004E49097888422DD1012006F0F6
:10578000FBF906F03DFCB0B106F02CF94449088065
:1057900001250DE0E8B206F0FBF9474800EBC40034
:1057A0003F4942683F4800689047424908706D1C75
:1057B0001E2DEFDD09E0404800EBC4003849426887
:1057C0003848006890473B490870002006F0D4F93B
:1057D00005E060E05DE012E0641C182CC2DB00BF55
:1057E0003448007830B1022006F0D8F9102006F0D5
:1057F00023FA03E006F0FCF806F0B6F94AE029487F
:1058000006F022F906F0EEF8804605F0F5FE814636
:105810004246244801684846284B1B68984707467B
:1058200038E0FFF7F1FE06461E4806F00DF926B1F6
:10583000012E0FD0022E27D119E006F0D3F88046B2
:1058400005F0DAFE8146424616480168484606F0F1
:10585000EFF81AE006F0C6F8804605F0CDFE814666
:10586000424610480168484606F0D6F80DE006F0BA
:10587000B9F8804605F0C0FE8146424609480168F5
:10588000484606F0BDF800E000BF00BF06F06CF926
:1058900000E000BF00BF002021E700006B030020F4
:1058A0005A040020540400205804002078030020EB
:1058B000590400205C040020940300206C030020A5
:1058C0002DE9F04107460C4616464FF00008FBF75D
:1058D000C3FB334608222146384606F0C7F90128A3
:1058E00002D04FF003080FE0B4F5964F01D92325FD
:1058F00003E060000749B1FBF0F5A8B206F082FAB8
:10590000012801D04FF00308FBF7AEFB4046BDE88D
:10591000F0810000A07F17002DE9F04104460D46FC
:1059200016460027FBF798FB0D480088042810DB7B
:105930000B4801880B4806F039F850B9094800783F
:10594000207007480088C01E30800648401C286030
:1059500000E00527FBF788FB3846BDE8F081000032
:105960006A040020213300202DE9F04104460E4650
:1059700017464FF000081E2C02DD0220BDE8F08122
:10598000FBF76AFB19480078012829D1701E1849D5
:10599000086001201749088015480068047008460F
:1059A000008838440880084601881148006805F0DE
:1059B000FDFF05460F490888411C0E4B19800E4912
:1059C0000D542A1219460888411C19800A490A54A4
:1059D00001200A4908700121002006F04BF801E07F
:1059E0004FF00508FBF740FB4046C7E76104002085
:1059F0006404002068040020243200206004002099
:105A000010B5FBF729FB0020054908700021012093
:105A100006F030F806F08EF8FBF726FB10BD00000C
:105A20006104002010B5FBF717FB0021084606F0C3
:105A300021F806F065F8FBF717FB10BD2DE9FF5FB5
:105A400005460E4614469A46002003902046E1176C
:105A500004EB5171C910491C1FFA81F805F0CCFD07
:105A6000401E454900EB01090020029008200190EA
:105A70004248008800904FF0010A701E86B20298DA
:105A8000864272DB3219DDE90110084482426CDC87
:105A90000099711A88B2C11700EB5171CF100099AB
:105AA000711A88B2C11700EB5171C910A0EBC10186
:105AB0001FFA81FBBAF1000F03D0BAF1010F52D1E6
:105AC00026E00EE039467A1C97B201EB0900082265
:105AD000594606F0A9FA05F8010BA8F101001FFAD2
