:020000040800F2
:100000006065002021030008AB3E0008D70200080D
:10001000A73E0008F70E0008F1530008000000009A
:10002000000000000000000000000000D9470008A8
:10003000912F0008000000005F020008F949000845
:10004000370300083703000837030008F1460008AB
:100050003703000837030008370300083703000898
:100060003703000837030008370300083703000888
:100070003703000837030008370300083703000878
:100080003703000837030008370300083703000868
:10009000A953000837030008370300083703000896
:1000A0003703000837030008370300083703000848
:1000B0003703000837030008370300083703000838
:1000C0003703000837030008370300083703000828
:1000D0003703000871500008CD5000085151000846
:1000E0003703000837030008370300083703000808
:1000F00037030008370300083703000837030008F8
:1001000037030008370300083703000837030008E7
:100110003D4E000809500008370300083703000867
:1001200037030008370300083703000837030008C7
:1001300000F002F800F06CF80AA090E8000C82448D
:100140008344AAF10107DA4501D100F061F8AFF26A
:10015000090EBAE80F0013F0010F18BFFB1A43F0A5
:100160000103184790BA0000B0BA00000A444FF0EB
:10017000000C10F8013B13F0070408BF10F8014B06
:100180001D1108BF10F8015B641E05D010F8016B4B
:10019000641E01F8016BF9D113F0080F1EBF10F8AF
:1001A000014BAD1C0C1B09D16D1E58BF01F801CBD2
:1001B000FAD505E014F8016B01F8016B6D1EF9D555
:1001C0009142D6D37047000000230024002500266A
:1001D000103A28BF78C1FBD8520728BF30C148BFAA
:1001E0000B607047642900F05581002070471FB5EF
:1001F0009DE8030000F008FB00F08EFC04000020E6
:1002000000210AF05FFC401C60601FBD10B510BDEE
:1002100000F05DFC1146FFF7EAFF06F0B9FB00F0C5
:100220008DFC03B4FFF7F2FF03BC00F0BDFC00003F
:10023000EFF3108072B6704780F310887047324A2F
:100240001368012B04D04FF0010313602F4A106094
:100250002F4A11602F484FF0805101607047EFF333
:10026000108272B62848016891B14FF00001016018
:100270002648016829B1EFF3098121E9F00F0068F0
:100280000160234909680968B1E8F00F81F3098822
:1002900082F310884EF0040E70471D4908601B4918
:1002A0004FF00000086018494FF0010008601A483C
:1002B0004FF47F01D0F8002041EA020101601548A7
:1002C0004FF08051016015480068006880F308888D
:1002D00062B6704700BF1EF0040F14BFEFF3088032
:1002E000EFF3098020E9F00F40F804ED14BF80F32C
:1002F000088880F3098800B507F0F4F95DF804EB8D
:100300004EF0040E70470000340000202C00002046
:100310003000002004ED00E020ED00E008ED00E0FA
:1003200008480047FEE7FEE7FEE7FEE7FEE7FEE7D8
:10033000FEE7FEE7FEE7FEE703480449044A054BF3
:100340007047000031010008604D0020606500200A
:10035000605900206059002070B5064600F034FA5C
:10036000056806F10B0020F00704B4429CBF002092
:1003700070BD2B466A68BAB11068A04210D304F170
:10038000080188423CBF5068586007D35168101973
:1003900041601168091B016058601460101D70BD38
:1003A00013465268002AE7D12146284600F018FA81
:1003B0000028DED170BD70B50446051F00F004FAB8
:1003C0000068002C14BF446870BD002C18BFAC42FC
:1003D0003CBF20466468F8D301680A18AA4218BFD7
:1003E000456003D12A680546114401602868411917
:1003F000A1421CBF6C6070BD6168696021680844DF
:10040000286070BD0FB41CB5074B06AA7B44694633
:100410000090059800F08DFA0020694600F09CFAE3
:100420001CBC5DF814FB0000490500002DE9F041FB
:100430000E460446002020622046E168884730B31B
:10044000252805D0D4E901219047206A401CF2E715
:10045000E168204600278847050018D0A5F1410033
:10046000192802D820354FF4006732462946204625
:100470002760FFF7B7FE40B1012804D0F61D26F033
:1004800007060836D8E7361DD6E72846DAE7206A99
:10049000BDE8F0812DE9F041064600241068752979
:1004A000314616A510D0AFF30080002802DA404292
:1004B00013A507E031688A0701D512A502E04907B4
:1004C00004D511A5012401E0AFF3008000210A2228
:1004D00006F1240709E0B0FBF2FCB0FBF2F302FBEB
:1004E0001C00303078541846491C0028F3D12346AC
:1004F0002A463046BDE8F04100F0BCB900000000DB
:100500002D0000002B0000002000000070B5064602
:1005100000F05EF90468054630460A22002100F02A
:1005200020FA2C6070BD401ECAB210F8011F8A422A
:1005300002D00029F9D10020704730B505460B469E
:100540002A4613F8014B12F8010B08B1A042F8D06B
:100550001CB1002802D06D1CF1E7284630BD10B553
:10056000431C02E010F8011B71B18107FAD14FF072
:10057000013202C88C1A8C4314EAC211F9D0C01A95
:100580000A0603D0C01E10BDC01A10BD0A0401D057
:10059000801E10BD0902FCD0401E10BD40EA0103C0
:1005A00070B59B072ED14FF00136042A2AD308C814
:1005B00010C99D1B9D43121F15EAC61517D0D8B24E
:1005C000E1B2401A50EA056110D198B2A1B2401AC6
:1005D00050EA05410AD123F07F4024F07F41401AC0
:1005E00050EA052102D1180EA0EB146070BDA342A1
:1005F000DBD018BA21BA884201D9012070BD4FF072
:10060000FF3070BD0AB9002070BD10F8013B11F831
:10061000014B63B1A3420AD1521E08D010F8013B2E
:1006200011F8014B1BB1A34201D1521EEDD1181B91
:1006300070BD032A40F2308010F0030C00F01580EA
:1006400011F8013BBCF1020F624498BF11F801CBD5
:1006500000F8013B38BF11F8013BA2F1040298BF3A
:1006600000F801CB38BF00F8013B11F0030300F0A4
:100670002580083AC0F0088051F8043B083A51F848
:1006800004CBA0E80810F5E7121D5CBF51F8043B4D
:1006900040F8043BAFF30080D20724BF11F8013BC0
:1006A00011F801CB48BF11F8012B24BF00F8013B22
:1006B00000F801CB48BF00F8012B704710B5203A75
:1006C000C0F00B80B1E81850203AA0E81850B1E80B
:1006D0001850A0E81850BFF4F5AF5FEA027C24BFC1
:1006E000B1E81850A0E8185044BF18C918C0BDE8B8
:1006F00010405FEA827C24BF51F8043B40F8043B81
:1007000008BF7047D20728BF31F8023B48BF11F835
:10071000012B28BF20F8023B48BF00F8012B70478F
:1007200002F0FF0343EA032242EA024200F002B869
:100730004FF000020429C0F0128010F0030C00F00A
:100740001B80CCF1040CBCF1020F18BF00F8012B88
:10075000A8BF20F8022BA1EB0C0100F00DB85FEA56
:10076000C17C24BF00F8012B00F8012B48BF00F822
:10077000012B70474FF0000200B513469446964691
:10078000203922BFA0E80C50A0E80C50B1F12001A4
:10079000BFF4F7AF090728BFA0E80C5048BF0CC052
:1007A0005DF804EB890028BF40F8042B08BF7047B0
:1007B00048BF20F8022B11F0804F18BF00F8012B22
:1007C000704770477047704700487047084D0020D9
:1007D00000487047004D00207047704770477047D1
:1007E00038B504460A4600206946AFF30080002869
:1007F00008BF38BD02460099204600F0F7F80120F6
:1008000038BD012000F05BB9F8B5AFF300800546B4
:1008100000200C46102000BF0646A819A0420DD9A2
:10082000324669460020AFF30080070008BF00F0A1
:1008300046F90098A04218BF0546C419FFF7C4FF47
:1008400005600746F01D20F007004619284600F015
:100850000AF8B44208BFF8BDA21B31463868BDE8AB
:10086000F84000F0C3B800210160C0E901107047F2
:10087000102070472DE9F0470D46994692460446F0
:1008800000F124080168880604D5E06921F0100110
:10089000216000E00120A84201DD471B00E00027A5
:1008A000A1697A1902EB0900081AA0612078C00634
:1008B00002D42046AFF30080002608E0D4E90121ED
:1008C0001AF806009047206A401C761C20624E45AC
:1008D000F4DB2078C0060AD52046AFF3008006E09E
:1008E000D4E9012130209047206A401C2062381E44
:1008F000A7F10107F4DC07E0D4E9012118F80500AD
:100900009047206A401C2062281EA5F10105F3DCF7
:100910002046AFF300802078000602D50220BDE813
:10092000F0870120FBE7000001694A1C026108789A
:10093000704700B58FB0CDE901310021059105491F
:100940007944CDE9031011466846FFF76FFD0FB0FB
:1009500000BD0000E5FFFFFF0A6802F8010B0A6016
:1009600070472DE9F04791460F4680460446002621
:1009700014F8015B2DB100F031F80068405DC0074C
:10098000F6D12B2D02D02D2D18D0641E4A463946A3
:10099000204600F045F827B13968A14201D1C7F8D7
:1009A00000804FF0020471050BD54042002803DDA2
:1009B000FFF70EFF0460A007BDE8F08746F48066ED
:1009C000E4E70028F8DAFFF703FF04606FF0004067
:1009D000F2E7000000487047004D002010B500F01D
:1009E0009BF8001D10BD00BFDDA00000034640685D
:1009F0008C46002818BF88423CBF03464068F8D3A5
:100A000018681844884207D00CF1030020F0070052
:100A1000001D411A521A0146081D0A60FFF7CBBC9F
:100A20002DE9F05F824615468B4600270AF1010446
:100A3000B9460078302801D09DB113E014F8010BBD
:100A40000127782803D0582801D045B10AE00DB11C
:100A5000102D07D1002714F8010B102502E00825FE
:100A600000E00A250026B0460EE005FB080005FB65
:100A700006F101271FFA80F801EB1046B6F5803F1A
:100A800000D3B94614F8010B294600F049F80028B4
:100A9000EBDABBF1000F05D00FB1641E00E0544645
:100AA000CBF80040B9F1000F06D0FFF791FE02210C
:100AB0000160C81EBDE8F09F48EA0640FAE710B59D
:100AC00000F04AF8BDE8104000F041B870477546A4
:100AD000FFF780FFAE4605006946534620F0070049
:100AE000854618B020B5FFF727FCBDE820404FF041
:100AF00000064FF000074FF000084FF0000B21F008
:100B00000701AC46ACE8C009ACE8C009ACE8C009D4
:100B1000ACE8C0098D46704700487047204D002062
:100B20003A2800D2303820F02002412A01D3A2F125
:100B30003700884201D34FF0FF30704710B50446AC
:100B4000AFF300802046BDE81040FFF76ABB0028E5
:100B500001D000F029B8704710B5012805D0002158
:100B600003A000F027F8012010BD09A1F8E700005C
:100B700053494752544D454D3A204F7574206F6686
:100B80002068656170206D656D6F727900000000EE
:100B90003A2048656170206D656D6F727920636FD2
:100BA000727275707465640001491820ABBEFEE76F
:100BB0002600020070B505460C460A2000E06D1CB8
:100BC00000F052F835B128780028F8D102E0641C12
:100BD00000F04AF814B120780028F8D1BDE8704040
:100BE0000A2000F041B800004FF0013C50F8042BFF
:100BF00051F8043B9A4221D1A2EB0C03934313EA30
:100C0000CC1317D150F8042B51F8043B9A4215D15C
:100C1000A2EB0C03934313EACC130BD150F8042B33
:100C200051F8043B9A4209D1A2EB0C03934313EA17
:100C3000CC13DBD04FF00000704700BFD01A01BAD0
:100C4000B1FA81F101F0180122FA01F0CB40C1F1B3
:100C50002001DBB2C0B2C01A2CFA01F3D11A9143C1
:100C600011EAC311E6D1704708B569468DF8000056
:100C70000320ABBE08BDCA430260704721B1826841
:100C800042F00102826003E0826822F00102826089
:100C90007047000010B504461248844208D1012173
:100CA000401503F0ADF90021601503F0A9F917E034
:100CB0000D48844208D10121001503F0A1F900215B
:100CC000201503F09DF90BE00848844208D101216A
:100CD000C80303F095F900214FF4004003F090F9A8
:100CE00010BD00000024014000280140003C0140EC
:100CF000014600208A6802F004020AB1012000E0E7
:100D0000002070470146C86C80B270470246002040
:100D100013680B400BB1012000E000207047014632
:100D200000208A6802F008020AB1012000E00020D9
:100D30007047000030B502460020002350680F4C79
:100D400020400D790C6844EA0524204350609068E7
:100D50000B4C2040D1E902542C434D7944EA450420
:100D600020439060D06A20F470000C7C641EE4B2D2
:100D7000234340EA0350D06230BD0000FFFEF0FF85
:100D8000FDF7F1FFF0B504460D4600200021092DC6
:100D900011DDE068A5F10A0606EB4607072606FA0C
:100DA00007F18843A5F10A0606EB460603FA06F1A9
:100DB0000843E0600CE0206905EB4507072606FACA
:100DC00007F1884305EB450603FA06F10843206165
:100DD000072A0FDA606B561E06EB86071F2606FAF7
:100DE00007F18843561E06EB860605FA06F108430E
:100DF000606322E00D2A0FDA206BD61F06EB860710
:100E00001F2606FA07F18843D61F06EB860605FA69
:100E100006F10843206310E0E06AA2F10D0606EB3C
:100E200086071F2606FA07F18843A2F10D0606EB96
:100E3000860605FA06F10843E062F0BD816841F0DC
:100E400008018160704721B1826842F4A00282608B
:100E500003E0826822F4A00282607047816841F05A
:100E6000040181607047000000B585B01648FFF7A7
:100E700011FF002000908DF804008DF805004FF45C
:100E8000602002900020039001208DF81000694638
:100E90000D48FFF74FFF01210B48FFF7EFFE0A480F
:100EA000FFF7CCFF00BF0848FFF739FF0028FAD151
:100EB0000548FFF7D3FF00BF0348FFF719FF0028DD
:100EC000FAD105B000BD00000024014010B503F0C8
:100ED000A7F802F0EBFF03F059FD02F06BFA10BD2A
:100EE0000146002001F00F020B0903EB830302EB24
:100EF0004302D0B2704700BFFEE710B500F5D873CB
:100F000003EB01131B6803F004031372137A53B944
:100F100000F5D87303EB01131B6840F2FF7404EA79
:100F20005353136009E000F5D87303EB01131B68FA
:100F30006FF0604404EAD303536000F5D87303EB09
:100F400001131B6803F00203537200F5D87303EB1F
:100F500001135B6803F00F03937200F5D87303EB82
:100F600001135B681B0AD37400F5D87303EB0113FC
:100F70009B68D37200F5D87303EB01139B681C0ABE
:100F8000147300F5D87303EB01139B681C0C5473A6
:100F900000F5D87303EB01139B681B0E937300F5E8
:100FA000D87303EB0113DB68D37300F5D87303EB3D
:100FB0000113DB681C0A147400F5D87303EB0113EA
:100FC000DB681C0C547400F5D87303EB0113DB6869
:100FD0001B0E937421B9C36843F02003C36003E080
:100FE000036943F02003036110BD000001460022A5
:100FF000444B1A7000200EE000EB8002424B03EBE2
:101000004202527A012A04D13E4A1278521C3D4BC8
:101010001A70421CD0B21828EEDB00223B4B1A702B
:101020000B200FE0421E02EB8202374B03EB420221
:10103000527A012A04D1354A1278521C334B1A7065
:10104000421CD0B20C28EDDD0022314B1A700D206D
:101050000FE0421E02EB82022B4B03EB4202527A5C
:10106000012A04D12A4A1278521C294B1A70421CB8
:10107000D0B21028EDDD0022264B1A70224A92F8D9
:10108000E520012A03D11A461278521C1A70002258
:10109000214B1A7011200FE0421E02EB82021A4B04
:1010A00003EB4202527A012A04D11B4A1278521CE5
:1010B000194B1A70421CD0B21228EDDD0022174BDA
:1010C0001A70114A92F8BD20012A03D11A461278EB
:1010D000521C1A700022124B1A7007200FE0421E99
:1010E00002EB8202084B03EB4202527A012A04D13E
:1010F0000B4A1278521C0A4B1A70421CD0B20928B3
:10110000EDDD7047370200203C010020DF000020A9
:10111000E0000020DC000020DD000020DB000020DB
:10112000D900002030B5ADF51D7D4FF4967152A861
:10113000FFF720FB4FF4A07102A8FFF71BFB002074
:101140000190002400254348407898B101A952A895
:1011500000F092FABDF8042052A9032000F02CFD03
:1011600004461CB100203B49487003E000200DF507
:101170001D7D30BD3748407990B101AA52A90520A4
:1011800000F0EAF8BDF8042052A9052000F014FD93
:1011900004461CB100202F49487101E00020E6E719
:1011A0002C48807990B101AA52A9062000F0D4F809
:1011B000BDF8042052A9062000F0FEFC04461CB134
:1011C00000202449887101E00020D0E72148C0793F
:1011D00090B101AA52A9072000F0BEF8BDF8042082
:1011E00052A9072000F0E8FC04461CB10020194970
:1011F000C87101E00020BAE71648007A90B101AA50
:1012000052A9082000F0A8F8BDF8042052A908202F
:1012100000F0D2FC04461CB100200E49087201E027
:101220000020A4E70B48407A90B101AA52A90920F6
:1012300000F092F8BDF8042052A9092000F0BCFC8F
:1012400004461CB100200349487201E000208EE7EB
:1012500001208CE7002A002070B586B0002600240B
:10126000002500200490059001900290039000BF9B
:1012700069E004EB4400364911F81000002860D002
:10128000344810F8340001282DD1324800EBC40056
:101290004078002855D18DF804408DF805008DF870
:1012A00006002C4810F83400012800D100E002208C
:1012B0008DF80700274800EBC400D0F80210029117
:1012C000C088ADF80C000A2201A9022000F074FCCD
:1012D00005462DB101201F4901EBC401487030E0E3
:1012E000002006B070BD1B4800EBC4004078012808
:1012F00027D18DF8044000208DF805008DF80600F8
:10130000144810F83400012800D100E002208DF8C4
:101310000700104800EBC400D0F802100291C0880A
:10132000ADF80C000A2201A9022000F045FC054698
:101330002DB10020074901EBC401487001E00020F5
:10134000CFE7601CC4B2052C93DB0120C9E7000085
:101350006A3A0020F03A00202DE9F047C8B006466E
:10136000884617464FF0000900240025A246052EA6
:1013700045D13222BC493BA8FFF75BF900BF2AE008
:1013800004EB44003BA901EB4000B0F80100000A67
:1013900004EB44013BAA02EB4101497840EA0120F9
:1013A00004EB440102EB4101A1F8010004EB44000D
:1013B0003BA901EB40008088000A04EB440102EBEA
:1013C0004101097940EA012004EB440102EB4101AB
:1013D0008880601CC4B2072CD2DBBDF81601000A5D
:1013E000BDF81611C9B240EA0120ADF8160132224B
:1013F0003BA94046FFF71DF93220388030E1062E28
:101400007ED140F21B129849323101A8FFF711F941
:1014100000245AE0002528E0C4EBC40000EB44108F
:1014200001A90844801C05EB450100EB41008088C0
:10143000010AC4EBC40000EB441001AA1044801C54
:1014400005EB450200EB4200007941EA0021C4EBC4
:10145000C40000EB441001AA1044801C05EB4502B7
:1014600000EB42008180681CC5B2022DD4DB002550
:1014700027E0C4EBC40000EB441001A908440E307F
:1014800005EB85010844B0F80300010AC4EBC40071
:1014900000EB441001AA10440E3005EB8502104405
:1014A000C07841EA0021C4EBC40000EB441001AA5B
:1014B00010440E3005EB85021044A0F80310681CA0
:1014C000C5B2052DD5DB601CC4B2072CA2DBBDF86C
:1014D0001501000A9DF8151140EA0120ADF815012B
:1014E000BDF81701000A9DF8171140EA0120ADF878
:1014F000170140F21B1201A94046FFF79AF800E0DD
:1015000003E040F21B103880AAE0072E14D15748A0
:101510000168459141684691007A8DF81C01459813
:10152000C8F800004698C8F804009DF81C0188F827
:1015300008000920388093E0082E1FD110224B4963
:10154000103944A8FFF775F8BDF81101000A9DF89D
:10155000111140EA0120ADF81101BDF81301000A94
:101560009DF8131140EA0120ADF81301102244A99F
:101570004046FFF75EF81020388071E0082E28D131
:101580000D223A49093144A8FFF753F8BDF811017B
:10159000000A9DF8111140EA0120ADF81101BDF8D3
:1015A0001301000A9DF8131140EA0120ADF8130160
:1015B000BDF81501000A9DF8151140EA0120ADF8AB
:1015C00015010D2244A94046FFF733F80D2038805D
:1015D00046E0092E28D10D222449093144A8FFF7FD
:1015E00028F8BDF81101000A9DF8111140EA012008
:1015F000ADF81101BDF81301000A9DF8131140EA7E
:101600000120ADF81301BDF81501000A9DF8151170
:1016100040EA0120ADF815010D2244A94046FFF72C
:1016200008F80D2038801BE00A2E0BD128213EA897
:10163000FFF7A0F828220E493EA8FEF7FAFF28205F
:1016400038800DE00B2E0BD1502134A8FFF792F813
:101650004D22084934A8FEF7ECFF4D20388000BF2A
:1016600048B0BDE8F0870000F7380020543A002069
:101670006A3A0020AA3800202DE9FF4106460F46AD
:101680004FF000080024002500200090019000BFCA
:1016900069E004EB8400374901EB4000407A002800
:1016A0005FD002AA03A9204603F0E2F89DF80C00DF
:1016B0008DF800009DF808008DF8010004EB84000F
:1016C0002C4911F81000182805D004EB840011F8FB
:1016D000100019281CD104EB8400264901EB4000BE
:1016E000B0F9060004EB8401224A02EB410189882B
:1016F00000EB0145280E05F47F0140EA112005F4B6
:101700007F4140EA012040EA0560CDF8020013E085
:1017100004EB8400174901EB4000B0F90450280E97
:1017200005F47F0140EA112005F47F4140EA0120E1
:1017300040EA0560CDF8020004EB84000D4901EB9E
:101740004000007A8DF8060000983060BDF8040073
:10175000B0809DF80600B071F61D08F107001FFA71
:1017600080F8601CC4B2192C93DBA7F80080BDE898
:10177000FF8100003C0100202DE9F04FADF5157D03
:1017800005464FF000090027BA46B8460024002657
:1017900000209390949092904FF4967147A8FEF792
:1017A000E9FFA34600BF10E0FD48005DA52800D179
:1017B0000FE0FC480088401EA04204D100200DF537
:1017C000157DBDE8F08F601C84B2F6480088844225
:1017D000EADB00BFF24904F10B00095CF04A401E4D
:1017E000105C01EB002087B2EE480088874201DDE3
:1017F0000020E4E7EA4801193A4647A8FEF719FF36
:10180000002406E0601C47A9085C93A90855601CE9
:1018100084B2082CF6DB0822E34993A8FEF7BEFE4B
:1018200000F0FF0BBBF1000F01D00020C7E79DF8CF
:101830002591A94501D00020C1E7B81E81B247A873
:1018400008F0B6FD8246781E47A911F800804FF6D1
:10185000FF7000EA0828B81E085C40441FFA80F8B0
:10186000C24501D00020AAE7012D01D10120A6E741
:10187000022D01D10120A2E7042D01D101209EE714
:10188000032D01D101209AE7052D56D134213AA824
:10189000FEF770FF9DF8280108B901208FE79DF839
:1018A0002801012848D1C149087032220DF22911BE
:1018B0003AA8FEF7BEFE00242AE004EB44003AA951
:1018C00001EB4000B0F80100000A04EB44013AAA21
:1018D00002EB4101497840EA012004EB440102EBAC
:1018E0004101A1F8010004EB44003AA901EB4000DA
:1018F0008088000A04EB440102EB4101097940EAC7
:10190000012004EB440102EB41018880601C84B299
:10191000072CD2DBBDF81201000ABDF81211C9B2C2
:1019200040EA0120ADF8120132223AA9A048FEF7A0
:1019300080FE012000F0A8F92FE1062D7DD14FF4A3
:101940008E716846FEF716FF9DF8280108B9012040
:1019500035E79DF82801012870D19449087040F2BC
:101960001B120DF229116846FEF763FE00245AE0AF
:10197000002628E0C4EBC40000EB4410694608448C
:10198000801C06EB460100EB41008088010AC4EB95
:10199000C40000EB44106A461044801C06EB46026B
:1019A00000EB4200007941EA0021C4EBC40000EBE7
:1019B00044106A461044801C06EB460200EB4200CD
:1019C0008180701C86B2022ED4DB002627E0C4EB97
:1019D000C40000EB4410694608440E3006EB860153
:1019E0000844B0F80300010AC4EBC40000EB441043
:1019F0006A4610440E3006EB86021044C07841EA75
:101A00000021C4EBC40000EB44106A4610440E30C1
:101A100006EB86021044A0F80310701C86B2052E57
:101A2000D5DB601C84B2072CA2DBBDF81101000AD3
:101A30009DF8111140EA012001E016E014E0ADF834
:101A40001101BDF81301000A9DF8131140EA0120AD
:101A5000ADF8130140F21B12694655483230FEF7CB
:101A6000E8FD012000F010F997E0072D24D10020B7
:101A70004490459046909DF8280108B901209EE6C3
:101A80009DF82801012816D148490870DDF8290180
:101A90004490DDF82D0145909DF831018DF8180135
:101AA000444844990160459941609DF818110172BC
:101AB000012000F0E9F870E0082D31D100204390BA
:101AC0004490459046909DF8280108B9012076E69B
:101AD0009DF82801012822D13449087010220DF206
:101AE000291143A8FEF7A5FDBDF80D01000A9DF8D8
:101AF0000D1140EA0120ADF80D01BDF80F01000AFB
:101B00009DF80F1140EA0120ADF80F01102243A902
:101B100028481038FEF78DFD012000F0B5F83CE0B4
:101B2000092D3AD1002043904490459046909DF86D
:101B3000280108B9012042E69DF8280101282BD18F
:101B40001A4908700D220DF2291143A8FEF771FD04
:101B5000BDF80D01000A9DF80D1140EA0120ADF815
:101B60000D01BDF80F01000A9DF80F1140EA012098
:101B7000ADF80F01BDF81101000A9DF8111140EAFE
:101B80000120ADF811010D2243A90A480930FEF7E2
:101B900050FD012000F078F800BF01200FE60000A2
:101BA000D32A00206800002058000020AE0000204A
:101BB000F7380020543A00202DE9F047CCB0064613
:101BC0008A4615464FF4967101A8FEF7D3FD00240E
:101BD000A046A14600271DB958464CB0BDE8F08785
:101BE00001ACA5202070641C264801682160406873
:101BF000606008342670641C05F10E00000A207035
:101C0000641C05F10E002070641C2A4651462046D3
:101C1000FEF70FFD2C4405F10C0081B201A808F07D
:101C2000C7FB804684F80080641C4FEA282020709F
:101C30004FF0000920E005F10E0081B201A802F08A
:101C40009FF8074697B1032E01D10120C5E71E2159
:101C5000A52004F057FD074637B13046FFF78CFD4D
:101C600007462FB10120B8E70020B6E70020B4E70F
:101C700009F1010000F0FF09B9F1030FDBDB0020DF
:101C8000ABE700005800002070B504460025002690
:101C900054B94D252A461949194801F031FB86B23D
:101CA000AE4229D0002070BD012C0BD140F273153B
:101CB0002A461449144801F023FB86B2AE421BD0D9
:101CC0000020F0E7022C0AD124252A460F491048AB
:101CD00001F016FB86B2AE420ED00020E3E7032CE3
:101CE0000AD10E252A460B490B4801F009FB86B2A2
:101CF000AE4201D00020D6E70120D4E7AA38002068
:101D000000E00308F738002000E803086A3A0020E2
:101D100000F003088E3A002000F803081CB50024E8
:101D2000002000900190A3480078F8B14FF40051D2
:101D3000A14801F01FFD08B9012000E00020B0B16A
:101D400001209E490870084640789A49497988429E
:101D50001FDB01209A49087008469A490A68C0F8B2
:101D600002208988C18000209449487011E0002039
:101D700092494870087092480078012806D190482E
:101D800090490A68C0F802208988C18000208C49E7
:101D900008708848007B002853D08B48B0F90000B9
:101DA00000284EDD8648007C50BB8248C07B8749B6
:101DB0000988084400EB80008349B1F90010B1EBB9
:101DC000400F16DB01207D490871084641797948AA
:101DD000407C814235DB0120794908740846794905
:101DE0000A68C0F812208988C182002173484171B5
:101DF00027E000217148417100207049087120E0FE
:101E00006C48007C71490988084400EB80006E49E9
:101E1000B1F90010B1EB400F13DA002068490874E3
:101E20000021664841716648007C012806D164485B
:101E300064490A68C0F812208988C18200205F497D
:101E400008715C48807C002853D05F48B0F90000DE
:101E500000284EDD5A48007E50BB5648407D5B4905
:101E60000988081A00EB80005749B1F90010B1EB5E
:101E7000400F16DA0120514988710846C1794D4852
:101E8000C07D814235DB01204D49087608464D4929
:101E90000A68C0F81A208988C18300214748C171A7
:101EA00027E000214548C17100204449887120E0A5
:101EB0004048807D45490988081A00EB8000424966
:101EC000B1F90010B1EB400F13DB00203C4908765C
:101ED00000213A48C1713A48007E012806D13848AD
:101EE00038490A68C0F81A208988C183002033491C
:101EF00088713048807900285AD03148007A00280B
:101F000056D100244BE0022C23DA610001208840E6
:101F10002F4909680840E8B32E4800EB44000088C8
:101F200000283ADD610002208840294909680840FC
:101F300080BB0120214988700846C1781D48C07ABD
:101F400081422ADB01201E49087200211B48C17012
:101F500027E06100012088401D490968884201D0BE
:101F6000012000E000201A490968084062000221AF
:101F70009140084070B10120104988700846C1782E
:101F80000C48C07A814208DB01200D49087200210B
:101F90000A4800E001E0C17003E0601CC4B2142CE8
:101FA000B1DB00BF00200649087200210348C17060
:101FB0001CBD00006A3A002000100140183B0020C0
:101FC000F03A0020440200208C000020A4000020F1
:101FD00074000020D83A00202DE9FE4F0546002469
:101FE000A0460026002002908146002701908346EB
:101FF000062411E004EB4400354911F8100000B943
:1020000008E004EB4400324911F81000A84200DC5B
:1020100004E000BF601EC4B2002CEBDC00BF062C45
:1020200008D104EB44002A4901EB4000B0F801005C
:10203000BDE8FE8F04EB4400254901EB4000B0F8F9
:102040000180601C00EB400001EB4000B0F8016033
:10205000A8EB060080B2029004EB440011F8109047
:10206000601C00EB400011F81070A7EB0900C0B233
:1020700001904D4501D14046DAE7BD4201D13046DD
:10208000D6E7642102984843019990FBF1F0009053
:1020900009F01AF98246781B09F016F951460090AA
:1020A00009F05EF98246642106FB01F009F00CF9A3
:1020B0005146009008F0B8FF8246504609F0E4F817
:1020C00080B2642190FBF1F01FFA80FB5846AFE725
:1020D000F738002070B58AB024252422214901A8B0
:1020E000FEF7ECFA2846FEF737F9044614B900204B
:1020F0000AB070BD2A4621461B4801F0F6F886B2A8
:10210000AE4205D014B12046FEF755F90020EFE7A6
:102110002A4621461548FEF78CFA14481E3003F073
:1021200069F9C8B9242201A91048FEF782FA0F48BC
:102130000F490A68C0F81E20898841842A46014652
:10214000094801F0DDF886B2AE4205D014B1204650
:10215000FEF731F90020CBE714B12046FEF72BF94A
:102160000120C5E7A0B8000800F003086A3A002083
:102170003A02002010B50020002100BF0EE000222E
:1021800000EB8003884C04EB43035A72042200EBFB
:10219000800304EB43031A72421CD0B21928EEDB11
:1021A000824A1278EAB9002008E0002200EB80039E
:1021B0007D4C04EB43035A72421CD0B20628F4DB78
:1021C0007A4A517800290CDD002008E0012200EB5A
:1021D0008003754C04EB43035A72421CD0B2884210
:1021E000F4DB724A9278012A1FD1002009E0002313
:1021F000821D02EB82026C4C04EB42025372421CC1
:10220000D0B20328F3DB694AD17800290DDD002024
:1022100009E00123821D02EB8202634C04EB4202BF
:102220005372421CD0B28842F3DB604A9279032A8F
:1022300021D100200AE0002300F10A0202EB820211
:10224000594C04EB42025372421CD0B20228F2DB1A
:10225000564AD17900290EDD00200AE0012300F161
:102260000A0202EB8202504C04EB42025372421CFF
:10227000D0B28842F2DB4D4A927C092A21D100205B
:102280000AE0002300F1120202EB8202464C04EB4A
:1022900042025372421CD0B20128F2DB434AD17C85
:1022A00000290EDD00200AE0012300F1120202EBFA
:1022B00082023D4C04EB42025372421CD0B288426F
:1022C000F2DB3A4A127D0A2A21D100200AE00023DB
:1022D00000F1100202EB8202334C04EB4202537213
:1022E000421CD0B20128F2DB304A517D00290EDDBC
:1022F00000200AE0012300F1100202EB82022A4CC6
:1023000004EB42025372421CD0B28842F2DB274AED
:10231000927B072A21D100200AE0002300F1170256
:1023200002EB8202204C04EB42025372421CD0B2F8
:102330000128F2DB1D4AD17B00290EDD00200AE0D6
:10234000012300F1170202EB8202174C04EB420258
:102350005372421CD0B28842F2DB144A127D0A2A20
:1023600021D100200AE0002300F1180202EB8202D2
:102370000D4C04EB42025372421CD0B20128F2DB36
:102380000A4A517D00290EDD00200AE0012300F1F8
:10239000180202EB8202044C04EB42025372421C0C
:1023A000D0B28842F2DB10BD3C010020AA380020E8
:1023B00070B5E0B040F273153422434953A8FEF7DC
:1023C0007DF94FF48E72404934310CA8FEF776F94E
:1023D0003E4AD2E90030D2E90212CDE90830CDE917
:1023E0000A123A4A103207CA05AB07C3374B1C33EF
:1023F0000FCB01AC0FC42846FDF7AEFF044614B95D
:10240000002060B070BD2A462146314800F06DFFC3
:1024100086B2AE4205D014B12046FDF7CCFF0020B5
:10242000EFE72A4621462B48FEF703F929482C30CE
:1024300002F0E0FF20B9322253A92648FEF7F9F84E
:10244000254802F0D7FF30B940F21B120CA92148F1
:102450003230FEF7EEF82048193002F0CBFF40B9D9
:102460001D48163005990160069941609DF81C10C1
:1024700001721948103002F0BDFF28B9102208A9D6
:102480001548801DFEF7D5F81348263002F0B2FF3C
:1024900028B90D2201A910481F30FEF7CAF82A46B4
:1024A0000C490B4800F02CFF86B2AE4205D014B1A7
:1024B0002046FDF780FF0020A3E714B12046FDF77A
:1024C0007AFF01209DE7000024B7000874B80008D7
:1024D00000E80308F73800203E3A002070B594B0B9
:1024E0004D25502221496846FEF7E8F82846FDF7B9
:1024F00033FF044614B9002014B070BD2A462146AB
:102500001B4800F0F2FE86B2AE4205D014B1204660
:10251000FDF751FF0020EFE72A4621461548FEF758
:1025200088F81448473002F065FFC8B94D22694663
:102530001048FEF77EF80F4847300F490A680260DE
:10254000898881802A460B49094800F0D9FE86B265
:10255000AE4205D014B12046FDF72DFF0020CBE799
:1025600014B12046FDF727FF0120C5E7D4B60008C7
:1025700000E00308AA3800203A020020F0B5064621
:102580000A46002500230A2092FBF0F084B20021C5
:1025900013480088844201DCFF20F0BD06211AE0C8
:1025A000C1EBC10000EB41170E483844407800B938
:1025B0000FE0C1EBC10000EB41170A4838444078F6
:1025C000074F3F88384483B29C4201DB0846E4E76A
:1025D00000BF481EC1B20029E2DC2846DDE700004A
:1025E000A4000020293900202DE9F04101465F4870
:1025F000B0F84E41B0F850515D480079DFF8708175
:1026000098F8038000EB082082B2584890F85401F3
:10261000C0EB00108600554890F85501C0EB001043
:1026200087005448B0F900004FF00A0890FBF8F01A
:1026300083B25148B0F9000090FBF8F01FFA80FC1B
:102640004A4890F84D0100283FD0484890F856017C
:1026500090B1464890F8560160450DDC0020DFF847
:102660001C8188F82A0080464448A0F82B80A0F8F6
:102670002D800120BDE8F081A24270DBAA426EDC11
:102680003A4890F85201002862DD384890F8540129
:1026900000285DDD394890F82A00012827D1334809
:1026A00090F853010844984210DD0020DFF8CC80F8
:1026B00088F82A0080463148A0F82B80A0F82D80A9
:1026C0000020DFF8BC8088F800004DE02B48B0F80F
:1026D0002B00B04248DB0020DFF8A08088F82A00F9
:1026E00080462648A0F82B80A0F82D803CE02348A7
:1026F00090F82A0058BB1D4890F8520108449842AF
:1027000011DC0120DFF8748088F82A004FF00008FF
:102710001A48A0F82B80A0F82D800120DFF86080F7
:1027200088F8000020E01648007880B11348B0F81F
:102730002D00B84218DB0120DFF8408088F82A001D
:102740004FF000080D48A0F82B80A0F82D800BE07A
:102750000020DFF8288088F82A0005E0FFE7002045
:10276000DFF8188088F82A00012083E7F738002076
:10277000440200208C000020920000209C3A00209F
:10278000400200207FB500BF00BF00BF2A48007A8A
:102790008DF808002848407A8DF809002648807A8C
:1027A0008DF80A002448C07A8DF80B002248007B7F
:1027B0008DF80C002048407B8DF80D00DDE902010A
:1027C00001F0FEFE05461D48016800918188ADF8C4
:1027D000041080798DF80600DDE9000101F0F0FEBB
:1027E0000446641B1648B4FBF0F4E6B200BF12487E
:1027F000B0F801000012C0EB00108000C0EB001028
:1028000080000D494978C1EB011100EB81050B48AF
:10281000C078C0EB00108000C0EB001080000749BA
:102820000979C1EB011100EB8104601B01D0701C20
:10283000C6B2304604B070BD8E3A0020440200207B
:102840008051010002460021062112E001EB410007
:102850000A4B13F8100000B909E001EB4100074BE7
:1028600013F81000904201DC0846704700BF481E74
:10287000C1B20029EADC0020F7E70000F7380020A9
:102880002DE9F0410025002700260024FFF746FA35
:10289000322005F0BCFFFFF775FFFD4908700846C0
:1028A0000078FFF7CFFFFB490870F9480078FFF781
:1028B00093FBF9490880F948008881B2F54800780F
:1028C000FFF75CFEF6490870F6480078F049097891
:1028D000884205D1F4480078F149097888420AD045
:1028E0000120F2490870EA480078EE490870EC4887
:1028F0000078ED490870EA480078FF2846D1EC4896
:1029000090F9000000EB4000EA4901EB4000C67876
:10291000E74890F9000000EB400001EB400085889B
:102920000846478DE148007878B1002E09DD002D7A
:1029300007DD0120E0494870002048808880084673
:1029400006700020D949087092E1DB4840780128E0
:102950000AD1D9484088A842F6DB0020D649487001
:1029600048808880087083E1D34840780028EBD104
:10297000D1488088791B8842E6DB0120CE49487027
:102980000020488088800846067071E10024BEE07F
:10299000C3480078C0EBC00101EB4011C54832309C
:1029A0000844801C04EB440110F8110000287BD07F
:1029B000BB480078C0EBC00101EB4011BD4832308C
:1029C0000844801C04EB440100EB4100C678B44885
:1029D0000078C0EBC00101EB4011B648323008442A
:1029E000801C04EB440100EB41008588B148B0F83D
:1029F0004371AE48007888B3002D19DD002E17DD35
:102A000004EB4400AC4901F81060002004EB4401E1
:102A1000A94A02EB4101488004EB440102EB410169
:102A20008880012004EB440102EB410148706CE016
:102A3000002004EB4401A04A02F8110004EB440119
:102A400002EB4101488004EB440102EB4101888024
:102A500004EB440102EB4101487056E0FFE704EB50
:102A60004400954901EB4000407801281DD104EB5A
:102A7000440001EB40004088A84246DB002004EB04
:102A800044018D4A02F8110004EB440102EB4101BC
:102A9000488004EB440102EB4101888004EB4401CF
:102AA00002EB4101487030E024E004EB440082492D
:102AB00001EB4000407840BB04EB440001EB4000D8
:102AC0004088A84221DB04EB440001F8106000209C
:102AD00004EB4401784A02EB4101488004EB4401D5
:102AE00002EB41018880012004EB440102EB41012B
:102AF00048700AE0002004EB44016F4A02EB4101F8
:102B0000487004EB440102F81100601CC4B2022CAE
:102B1000FFF63EAF0024A5E061480078C0EBC0019D
:102B200001EB40116348323008440E3004EB84015D
:102B3000405C00287DD05A480078C0EBC00101EB12
:102B400040115C48323008440E3004EB84010844E4
:102B5000B0F803505748B0F845715448007860B356
:102B6000002D15DD002104EB840253480C30104485
:102B7000A0F8011004EB84024F480C301044A0F878
:102B80000310012104EB84024B480C30815467E0B0
:102B9000002104EB840248480C301044A0F80110D6
:102BA00004EB840244480C301044A0F8031004EBFA
:102BB000840241480C30815452E004EB84013E48C9
:102BC0000C30405C01281DD104EB84013A480C30E4
:102BD0000844B0F80100A84242DB002104EB840263
:102BE00035480C301044A0F8011004EB8402324840
:102BF0000C301044A0F8031004EB84022E480C3073
:102C000081542DE004EB84012B480C30405C00BB68
:102C100004EB840128480C300844B0F80100791B0B
:102C200088421DDB002104EB840223480C30104451
:102C300000E00FE0A0F8011004EB84021E480C3005
:102C40001044A0F80310012104EB84021A480C3050
:102C5000815405E0002104EB840217480C308154B4
:102C6000601CC4B2052CFFF657AF00200F49087056
:102C70000948008800F0DAF807480088FFF7B4FC3C
:102C80000E48007808B900F011F9002438E000007F
:102C9000A0000020A1000020A40000208C00002043
:102CA000A200002042020020430200204102002036
:102CB0000C010020F73800209C3A0020AC000020D6
:102CC00004EB44004C4901EB4000407888B104EB30
:102CD000440011F8100000280BDD04EB4401464AC3
:102CE00012F8110000F08CF8444901EB440108800F
:102CF00004E00021414800EB44000180601CC4B2A4
:102D0000022CDDDB002423E004EB84013A480C3084
:102D1000405C68B139480838016842680120A04029
:102D2000014342EAE07235480838016042600DE034
:102D300032480838016840680122A240D24311405D
:102D400000EAE2702D4A083A11605060601CC4B27B
:102D5000052CD9DB284890F8250050B127490839BF
:102D60000868496820231843244A083A10605160D3
:102D70000AE022480838016840686FF020021140DC
:102D80001E4A083A116050601B4890F82A0050B162
:102D90001A4808380168406840231943174A083A1E
:102DA000116050600AE015490839086849686FF0F9
:102DB00040031840114A083A106051600E4890F8DC
:102DC0002F0050B10D48083801684068802319432E
:102DD0000A4A083A116050600AE008490839086850
:102DE00049686FF080031840044A083A1060516047
:102DF0000120BDE8F08100009C3A0020D83A002074
:102E000030B5014600200022002300290CDDC82433
:102E10004C430A2594FBF5F404F59674A0B240F6F1
:102E20003404A04200DD204630BD000001461C48AD
:102E3000B0F900000A2390FBF3F082B2194890F831
:102E40005D0150B3174890F85E01002825DD164853
:102E500090F8250001280ED1124890F85F01081A59
:102E600090421ADA00231048C384038500200E4BD9
:102E700083F8250011E00C4890F8250068B909484E
:102E800090F85E01081A904207DB00230648C384CD
:102E900003850120044B83F82500012070470000C2
:102EA0008C000020F73800209C3A00200F48007961
:102EB0000E4AD27800EB022081B20D4890F86601EC
:102EC00090B10B48B0F86701884209DC0848B0F8B7
:102ED0006901884204DB0120064A82F82F0003E0E2
:102EE0000020044A82F82F0001207047440200208D
:102EF000F73800209C3A002010B5012400F0C4F8F7
:102F000011480078114908700F48407848700E4801
:102F1000807888700C48C078C8700B4800790871B8
:102F2000094840794871FFF7D9FA0446FFF740FA9B
:102F30000446FFF7CFF8044601F0FAFB0446FFF71A
:102F400019F9204610BD0000440200203A0200207A
:102F500008B548208DF803000220ADF8000069464E
:102F6000014800F033FB08BD000C014008B51020FB
:102F70008DF803000220ADF8000003208DF8020058
:102F80006946024800F022FB08BD0000000C014029
:102F90007047000008B50121082001F021F8042045
:102FA000ADF8000003208DF8020010208DF803001A
:102FB00069460F4800F00AFB0120ADF8000003202D
:102FC0008DF8020010208DF803006946084800F0D3
:102FD000FDFA0220ADF8000003208DF80200102059
:102FE0008DF803006946024800F0F0FA08BD0000C1
:102FF000000C014070B50446002500200B49086014
:103000000B49C1F8800101200849086044F0010023
:1030100000F076F800F00EF8054601200349083963
:103020000860002001490860284670BD888121425F
:103030000080214270B500250024FFF789FF05209C
:1030400002F0C6FC00BF16E064100D4800680128BD
:1030500001D144F08004012009497C31086002203C
:1030600002F0B6FC00200749C1F88001022002F0FE
:10307000AFFC681CC5B2082DE6DB204670BD000021
:10308000048121420080214210B58020FFF7B2FF69
:103090000446FDF725FF194948718220FFF7AAFF72
:1030A0000446FDF71DFF154908718420FFF7A2FFB4
:1030B0000446FDF715FF1149C8708620FFF79AFFF7
:1030C0000446FDF70DFF0D4988708820FFF792FF39
:1030D0000446FDF705FF094948708A20FFF78AFF7B
:1030E0000446FDF7FDFE054988718C20FFF782FF3D
:1030F0000446FDF7F5FE0149087010BD44020020AA
:1031000070B5044600262546FFF730FF00200F4922
:103110000860022002F05CFC00BF14E005F0010032
:103120000A49091D0860022002F052FC01200849EA
:10313000C1F88001022002F04BFC00200349086026
:103140006D10701CC6B2082EE8DB70BD8081214274
:1031500000802142102005490870002004490870B1
:103160000448002101604160018170475A0200203B
:1031700059020020223B002010B5FDF759F8014903
:10318000086010BD6003002010B502480068FDF71C
:1031900053F810BD600300200149C860704700006B
:1031A0000020024030B5044604254FF4302000F0E2
:1031B00089F80546042D17D10C48006940F002003B
:1031C0000A49086108464461006940F0400008610E
:1031D0004FF4302000F076F805460448006941F6C7
:1031E000FD71084001490861284630BD00200240B9
:1031F00004200B49C96801F0010109B101200EE06A
:103200000749C96801F0040109B1022007E0044937
:10321000C96801F0100109B1032000E004207047E3
:10322000002002400348006940F080000149086125
:1032300070470000002002400549096821F0100194
:10324000034A11601146096801431160704700008C
:103250000020024070B504460D460426F00200F03E
:1032600031F80646042E11D10948006940F00100EA
:10327000074908612580F00200F024F8064604485A
:10328000006941F6FE71084001490861304670BD91
:103290000020024001460020034A106800F0380078
:1032A00008431060704700000020024002480349B4
:1032B000486003484860704723016745002002408A
:1032C000AB89EFCD00B502460423FFF791FF03461B
:1032D00003E0FFF78DFF0346521E012B01D1002AA8
:1032E000F7D102B90523184600BD10B503460020EA
:1032F00003E013F8014B0C54401C9042F9DB10BD65
:103300002DE9F84F0646884617463C4604200090B3
:10331000FFF7CCFF3520FFF73FFF4FEAD6294FEAF2
:10332000C929C6F30A0ACAF50065AC4200D8A5B29D
:1033300021E04846FFF736FF00909DF80000042882
:1033400003D04FF0FF30BDE8F88F2A4641463046A3
:1033500000F017F8AC4200D10EE009F500694FF01B
:10336000000AA8442E44641BB4F5006F02D94FF440
:10337000006500E0A5B2DCE700BFFFF753FF384669
:10338000E1E7F8B506460C461546042000900027F4
:1033900008E021883046FFF75DFF0090B81C87B237
:1033A000B61CA41CAF4203DA9DF800000428F0D03C
:1033B0002846F8BD08B5684600F0E9F910208DF8F8
:1033C000030001208DF8020048F20210ADF8000061
:1033D0006946794800F0FAF848F20211764800F0A0
:1033E000D4F9684600F0D3F910208DF803000120CD
:1033F0008DF8020043F20830ADF8000069466F48CE
:1034000000F0E4F843F208316C4800F0BEF94FF4E4
:103410008071694800F0B7F9684600F0B8F92820D3
:103420008DF8030001208DF80200E020ADF80000C7
:103430006946624800F0CAF8684600F0A8F904201E
:103440008DF8030001208DF802004FF44040ADF8E4
:1034500000006946594800F0B9F8684600F097F94D
:1034600004208DF8030001208DF802004003ADF820
:1034700000006946524800F0A9F80121514800F0C7
:1034800031F9684600F083F900208DF8030001202F
:103490008DF802001020ADF800006946464800F0A3
:1034A00095F8684600F073F94FF40060ADF800003D
:1034B00003208DF8020048208DF8030069463E483D
:1034C00000F084F8684600F062F94FF48050ADF8DF
:1034D000000003208DF8020018208DF803006946D3
:1034E000354800F073F804208DF803000002ADF8B1
:1034F00000006946304800F069F818208DF8030094
:103500004FF40070ADF8000069462B4800F05EF8FB
:1035100004208DF803000820ADF800006946264815
:1035200000F054F818208DF803000420ADF80000D6
:103530006946214800F04AF804208DF80300400253
:10354000ADF8000069461D4800F040F818208DF8DD
:1035500003004FF48060ADF800006946174800F0A2
:1035600035F804208DF803004002ADF800006946EC
:10357000134800F02BF818208DF803004FF48060FA
:10358000ADF8000069460E4800F020F804208DF8E0
:103590000300ADF8000069460B4800F017F818204A
:1035A0008DF803004FF48050ADF8000069460448E0
:1035B00000F00CF808BD000000080140000C0140BC
:1035C0000010014000023000001401402DE9F041DC
:1035D000024600250026002000230024002791F841
:1035E00003C00CF00F0591F803C00CF0100CBCF1F7
:1035F000000F03D091F802C04CEA050591F800C015
:10360000BCF1000F31D0146800202BE04FF0010C0A
:103610000CFA00F3B1F800C00CEA03069E4220D178
:1036200083004FF00F0C0CFA03F7BC4305FA03FCC0
:103630004CEA040491F803C0BCF1280F06D14FF006
:10364000010C0CFA00FCC2F814C00AE091F803C0A7
:10365000BCF1480F05D14FF0010C0CFA00FCC2F888
:1036600010C0401C0828D1D31460B1F800C0BCF1D0
:10367000FF0F34DD546800202EE000F1080C4FF0FD
:10368000010808FA0CF3B1F800C00CEA03069E42E8
:1036900021D183004FF00F0C0CFA03F7BC4305FA5D
:1036A00003FC4CEA040491F803C0BCF1280F05D1D7
:1036B00000F1080C08FA0CF8C2F8148091F803C065
:1036C000BCF1480F07D100F1080C4FF0010808FACF
:1036D0000CF8C2F81080401C0828CED35460BDE816
:1036E000F0810000F0B50A460023002400210025E7
:1036F00000F00046B6F1004F02D11D4EF16901E025
:103700001B4E7168C0F3034583B200F44016B6F552
:10371000401F08D121F07061154E766826F0706662
:10372000134F7E6012E000F48016B6F5801F06D1BC
:10373000032606FA05F4A14341F0706106E0460D48
:10374000360103FA06F6B14341F0706122B1460D2D
:10375000360103FA06F6314300F00046B6F1004F99
:1037600002D1034EF16101E0014E7160F0BD000035
:10377000000001400246002093680B400BB101207D
:1037800000E00020704741617047016170474FF6CB
:10379000FF710180022181700421C1707047000017
:1037A0002DE9F04105460024042301222946124850
:1037B000FDF7E8FA002619E001210F48FDF743FB69
:1037C00000BF02210C48FDF7A1FA0028F9D00A48F1
:1037D000FDF798FA074602210748FDF74CFA002149
:1037E0000548FDF730FB3C44701CC6B2082EE3DBF5
:1037F000E408A0B2BDE8F0810024014010B500F05B
:1038000001F810BD4AF6AA2001490860704700007F
:10381000003000401CB5234903C9CDE90001002058
:103820002149086021490860002401E0601CC4B2FD
:10383000042CFBDB002401E0601CC4B2082CFBDB81
:10384000002404E000201A490855601CC4B20A2C68
:10385000F8DB0020174908701749087017490870ED
:10386000174908700120FDF7C1FB002015490880A9
:103870001549088000240EE0002004EB8401134A5F
:1038800002EB41018880042004EB840102EB41013A
:103890000872601CC4B2192CEEDBFFF77BFBFFF74C
:1038A0002BFB1CBD90B60008B6000020BA0000201B
:1038B000EF2C0020EB000020EA000020EE000020AA
:1038C00036020020E6000020E80000203C01002035
:1038D0000146CA1701EB92729210A1EB820292B9D3
:1038E000642091FBF0F200FB121050B94FF4C87045
:1038F00091FBF0F200FB121008B901207047002084
:10390000FCE70120FAE70020F8E7000000B539489D
:1039100000785A2805D100203749487002203749DD
:10392000087036480078012863D0344800780228AF
:1039300009D15A203049087001203149087004200B
:103940002E49087055E02D48007804280FD12948E9
:103950000078A52808D12849487002202849087015
:1039600008202649087044E000F052F841E023485E
:103970000078082815D11F4800780A280EDC1D4859
:1039800000781D4988701B4800781E490870032084
:103990001B4908702020194908702AE000F038F807
:1039A00027E016480078202823D1124800781249D1
:1039B000134A1278885412480078401C1049087045
:1039C000084601780F480078C01C814211DB00F0E6
:1039D0001FF80948C07883280BD10B48807820F065
:1039E0000200801C0849887014220349074800F02F
:1039F0004DFA00BDD3000020C72C0020D5000020C8
:103A0000D4000020D2000020B6000020DB2C0020D3
:103A1000002005490870012004490870002004496D
:103A20000870044908707047D6000020D5000020B7
:103A3000D4000020D200002010B500241E2206A1D0
:103A400008A000F0EDF904461E220AA10BA000F028
:103A5000E7F90446204610BD434C4F5345204F4BD9
:103A60000000000041542B434950434C4F53453D07
:103A7000310D000053485554204F4B0041542B4307
:103A80004950534855540D0010B50120064908709F
:103A90004FF4FA710548FCF74BFE002004490880FA
:103AA0000149087010BD00006B000020D32A0020DF
:103AB0006800002010B51E2204A109A000F0B0F992
:103AC00008B9002010BD0120FCE700005354415408
:103AD000453A20434F4E4E454354204F4B00000083
:103AE00041542B4349505354415455530D00000049
:103AF000FEB50546002400260020009001900290AB
:103B00001E2211A111A000F08BF908B90020FEBD02
:103B100010A11248FCF711FD044684B12C21204667
:103B2000FCF701FD064666B1301B421F611D684669
:103B3000FCF77FFD6846FCF7E9FC287001E00020F7
:103B4000E5E70120E3E700004F4B000041542B4321
:103B500053510D002B4353513A000000D32A00204B
:103B600010B501241E2228A128A000F059F908B997
:103B7000002010BD1E2224A125A000F051F908B993
:103B80000020F6E7322220A123A000F049F908B96D
:103B90000020EEE7642222A124A000F01FFE08B955
:103BA0000020E6E7322218A123A000F039F908B975
:103BB0000020DEE7322214A123A000F031F908B979
:103BC0000020D6E7322210A123A000F029F908B97D
:103BD0000020CEE71E220CA124A000F021F908B994
:103BE0000020C6E71E2224A124A000F019F908B97C
:103BF0000020BEE7322224A126A000F011F908B966
:103C00000020B6E70120B4E74F4B000041540D00FF
:103C1000415445300D00000041542B4353510D00D9
:103C20002B43474154543A203100000041542B4368
:103C3000474154543F0D000041542B4349504D55CA
:103C4000583D300D0000000041542B434950515362
:103C5000454E443D310D000041542B435354543DD7
:103C600022434D4E4554220D0000000041542B4389
:103C7000494943520D0000002E00000041542B43DF
:103C8000494653520D000000434F4E4E45435420C9
:103C90004F4B000041542B43495053544152543D23
:103CA00022544350222C2234372E3131342E3136D7
:103CB000392E3931222C313131330D0010B51E220D
:103CC0000AA10BA000F0ACF808210C48FFF75BFD3F
:103CD0004FF47A7001F076FE08210848FFF755FD91
:103CE00040F6B83001F06EFE10BD00004F4B0000F2
:103CF00041542B43504F57443D310D00000C0140BF
:103D000010B50F4A1278012A00D110BD0D4A128851
:103D1000B2F5FA7F0ADA0C4A12780C4B094C248867
:103D20001A55084A1288521C064B1A80054A1288F6
:103D3000B2F5F97F02DD0022024B1A8000BFE4E7F2
:103D40006B000020680000206A000020D32A0020B9
:103D500070B505460E4600240BE0295D074801F0CA
:103D60001FFB00BF8021054801F052FA0028F9D05E
:103D7000641CB442F1DB012070BD0000004800402B
:103D8000F0B58BB005460C4600271AA000680A90D3
:103D9000142105A8FCF7EEFC14216846FCF7EAFCA8
:103DA0003226224614A105A8FCF72CFB224616A1B8
:103DB0006846FCF727FB1E2217A1684600F030F882
:103DC000B0B1FFF761FE21462846FFF7C1FF0AE0C8
:103DD000642001F0F7FD05A91048FCF7AEFB10B117
:103DE00001200BB0F0BD301EA6F10101CEB2EFD123
:103DF0000020F6E71A0000004441544120414343AB
:103E00004550543A2564000041542B4349505345D2
:103E10004E443D25640D00003E000000D32A0020E2
:103E20002DE9F04105460E461446FFF72DFE2846C3
:103E3000FCF795FB87B239462846FFF789FF19E062
:103E4000642001F0BFFD31460D48FCF776FB10B150
:103E50000120BDE8F0810BA10948FCF76EFB48B1D9
:103E6000FFF712FE2846FCF77AFB87B23946284650
:103E7000FFF76EFF601E80B2041EE1D100BFE8E7CD
:103E8000D32A00204552524F5200000003E0531E37
:103E9000DAB28B5C8354002AF9DC704710B5044613
:103EA00002F0F0FD10BD00BFFEE7704710B5002125
:103EB0004FF0006000F03AF810BD000070B500212E
:103EC00000230F22C47804B3154C246804F4E06482
:103ED000C4F5E064210AC1F10403CA40447804FA3D
:103EE00003F184781440214309010E4C0678A15552
:103EF000047804F01F050124AC4005786D11AD0075
:103F000005F1E025C5F8004109E0047804F01F053B
:103F10000124AC40044D0678761145F8264070BD6A
:103F20000CED00E000E400E080E100E0024A0A401D
:103F30000243024B1A60704780FFFF1F08ED00E04C
:103F400010B500F091F84FF4803000F04FF900F018
:103F5000ABF90446012C25D1002000F03BF90020EC
:103F600000F076F9A00200F067F90220FFF792F95D
:103F70001020FFF761F94FF4E0114FF4403000F0EA
:103F800079F9012000F070F900BF392000F0FCF849
:103F90000028FAD0022000F07BF900BF00F012F9EF
:103FA0000828FBD110BD000001460020034A5068DC
:103FB00020F4404008435060704700000010024069
:103FC00029B1064AD2690243044BDA6104E0034A8C
:103FD000D2698243014BDA61704700000010024051
:103FE00029B1064A92690243044B9A6104E0034AEC
:103FF00092698243014B9A617047000000100240B1
:1040000029B1064AD2680243044BDA6004E0034A4D
:10401000D2688243014BDA60704700000010024012
:1040200010B5012140F27D20FFF7DAFF012148069B
:10403000FFF7C6FF4FF40040FFF7B6FF01218803EA
:10404000FFF7CEFF01214804FFF7BAFF01218804E2
:10405000FFF7B6FF0121C804FFF7B2FF01210805F1
:10406000FFF7AEFF10BD00000F48006840F00100F0
:104070000D490860084640680C4908400A494860F4
:10408000084600680A490840074908600846006871
:1040900020F4802008600846406820F4FE00486054
:1040A0004FF41F0088607047001002400000FFF8C6
:1040B000FFFFF6FE30B500210022002400232D4D25
:1040C0006D6805F00C0121B1042905D0082923D120
:1040D00005E0294D056022E0274D05601FE0254DD4
:1040E0006D6805F47012234D6D6805F48034022567
:1040F00005EB92421CB9214D554305600BE01D4D67
:104100006D6805F400351DB11C4D5543056002E096
:10411000194D5543056002E0174D056000BF00BF13
:10412000144D6D6805F0F0010909154D6B5C0568CB
:10413000DD4045600F4D6D6805F4E061090A104DE2
:104140006B5C4568DD4085600A4D6D6805F4605123
:10415000C90A0B4D6B5C4568DD40C560054D6D6857
:1041600005F44041890B074D6B5CC568B5FBF3F561
:10417000056130BD0010024000127A0000093D00C8
:104180005F0200206F02002010B5014600220023CC
:1041900000204A11012A02D1094C236806E0022AB4
:1041A00002D1074C236A01E0054C636A01F01F024B
:1041B000012494401C400CB1012000E0002010BDFF
:1041C000001002400248406800F00C0070470000F8
:1041D0000010024001460020034A506820F0F00021
:1041E0000843506070470000001002401149096800
:1041F00021F480310F4A11601146096821F48021B1
:104200001160B0F5803F03D0B0F5802F0ED106E0ED
:104210000849096841F48031064A116007E0054900
:10422000096841F4A021034A116000E000BF00BF0B
:10423000704700000010024001460020034A506809
:1042400020F4E06008435060704700000010024016
:1042500001460020034A506820F4605040EAC10043
:104260005060704700100240014908667047000026
:104270000000424202460020044B586820F47C10A3
:1042800042EA01031843014B586070470010024096
:1042900001460020034A506820F0030008435060A4
:1042A000704700000010024038B500200090002444
:1042B000002500BF3120FFF767FF05460098401C2E
:1042C00000900098B0F5A06F01D0002DF2D0312001
:1042D000FFF75AFF08B1012400E00024204638BD52
:1042E0007CB505460024002611A103C9CDE90001D3
:1042F0008DF800500621684606F05AF80646F0B2DE
:104300008DF8060030128DF8070002210A48FFF7E9
:104310003CFA00BF05E01DF8040000F09DF8601CA9
:10432000C4B2082CF7DB02210348FFF72CFA7CBD4E
:104330001C040100000273BA000801402DE9F0419D
:104340000025002600243C48007818280BD13B4863
:10435000007840B918203A490870012037490870A0
:104360003849087066E037480078012815D133488D
:10437000007801280ED13048007804280AD10220A4
:104380002E49087004202F4908702B4800782C49CA
:1043900048704FE0FEF7DEFE4CE02A480078042823
:1043A00048D125480178254802780078401C234BE5
:1043B0001870234881541846007809283ADB0721F1
:1043C0001F4805F0F5FF05461D48C0791C49097ACC
:1043D00000EB012086B2AE422AD11B48007820F0C3
:1043E00040004030184908700021184880F8EE104D
:1043F0001348C0781649C870114800798870104871
:10440000407948700E48807908700868114906F0B4
:10441000A7FF074606F038FF0446200C01B20B4800
:10442000A0F8EA1021B2A0F8EC10FEF793FE01E02C
:10443000FEF790FEBDE8F0816200002059020020E6
:10444000223B00205A020020B60000203C01002040
:104450005B0200200000C84210B504462146054812
:1044600000F09EFF00BF4021024800F0D1FE00286E
:10447000F9D010BD00440040024909888143014A37
:10448000118070470428004070B5002600240025E4
:1044900000F07AF806463848B6FBF0F43748008852
:1044A000A0423CD035490C8040F2B27510E028465D
:1044B000FFF70EFA40B1B4F5B77F02D3A4F5B77495
:1044C00004E0681C85B206E0A4F26D14681C85B295
:1044D000B4F5B67FEBD800BF29488580002516E0EB
:1044E00027498888FFF7F4F930B1012D04D11D2C3C
:1044F00001D31D3C09E00CE02248405DA04203D8F6
:104500002048405D241A00E003E0681C85B21C2CA2
:10451000E6D200BF681C1A498871601CC871164831
:10452000B6FBF0F100FB11644FF46160B4FBF0F0F6
:10453000134908704FF46160B4FBF0F100FB1140C7
:104540003C21B0FBF1F00E4948704FF46160B4FBC0
:10455000F0F100FB11403C21B0FBF1F201FB120035
:10456000074988700B46DA799979988800F084F8C1
:1045700003490872002070BD8051010038020020FC
:10458000A0380020C8B60008002103480188001F99
:10459000008841EA004070471C2800400146002086
:1045A000064A12880A40D0B2044A121F12880A40F2
:1045B00012B108B1012000E000207047042800403B
:1045C000D3B5002600249DF8000000F5FA6740F2FC
:1045D000B270874201DA0020DCBD40F2B2760BE017
:1045E0003846FFF775F910B11F48241801E01F483D
:1045F000241806F1010086B2BE42F1DB9DF80100ED
:10460000401EC0B28DF8010000260FE01848805D02
:104610001849484304193846FFF75AF918B1012ED2
:1046200001D11448241806F1010086B29DF801005A
:10463000B042EBDC9DF80200401E0E4948430419CD
:104640009DF803004FF4616100FB01F004199DF82F
:104650000400C0EB00104FEA800004199DF805002B
:1046600004192046B8E700000085E2018033E1012B
:10467000C8B6000880510100F0B503460C46154647
:10468000642093FBF0F0C6B2642093FBF0F700FBCC
:104690001730C1B2132E02DD01F16400C1B2084629
:1046A000CF1701EB977701EBA707BAB2072092FB70
:1046B000F0F700FB172082B25719601EDFF82CC0FC
:1046C0001CF80000384482B2CF1701EB9777BF1077
:1046D000A1EB87071FB9032C01DA501E82B2072015
:1046E00092FBF0F700FB1720C0B2F0BDBCB600088B
:1046F00010B50120FFF752FF08B1FFF7C5FE0220F9
:10470000FFF74CFF20B10220FFF7B6FEFFF7BCFE1B
:104710000520FFF7B1FE00F001F810BD00BF03480F
:10472000008800F020000028F9D0704704280040DD
:1047300070B586B023A003C8CDE904010E25234B34
:104740000FCB8DE80F002846FBF706FE044614B990
:10475000002006B070BD2A4621461D48FEF7C5FD63
:1047600086B2AE4205D014B12046FBF724FE0020ED
:10477000EFE72A4621461748FBF75BFF154808304C
:1047800000F038FEC0B90E2269461248FBF751FF0F
:10479000104804998160BDF8141081812A460146B1
:1047A0000B48FEF7ADFD86B2AE4205D014B12046EF
:1047B000FBF701FE0020CCE714B12046FBF7FBFD20
:1047C0000120C6E71407140800000000C4B8000860
:1047D00000F803088E3A0020704700002DE9F041F0
:1047E00005460E4614460027FFF74EF92846FBF70C
:1047F000B6FE1FFA80F841462846FFF7A9FA2BE0DB
:10480000C82001F0DFF831461648FBF796FE10B1DC
:104810000120BDE8F08114A11248FBF78EFE50B1D3
:10482000FFF732F92846FBF79AFE1FFA80F8414657
:104830002846FFF78DFA3846791CCFB205280BDBE6
:104840000027FFF721F92846FBF789FE1FFA80F8B9
:1048500041462846FFF77CFA601E80B2041ECFD185
:1048600000BFD6E7D32A00204552524F5200000025
:1048700010B503460024192B71D2DFE803F00D0EAA
:104880000F101112161B1F24292E33383D42474C9E
:1048900051565B6070656A0000BF00BF00BF00BF7B
:1048A00000BF0020087013705AE00120087000203B
:1048B000107055E001200870107051E00120087060
:1048C000022010704CE0022008700020107047E0B9
:1048D000032008700020107042E0032008700120BF
:1048E00010703DE00B2008700020107038E00B20A5
:1048F00008700120107033E00B2008700220107047
:104900002EE00B2008700320107029E00A200870A8
:104910000020107024E00A200870012010701FE0B1
:1049200009200870002010701AE004200870002090
:10493000107015E0062008700020107010E00520AF
:104940000870002010700BE0072008700020107025
:1049500006E0082008700020107001E0FFE700BFAB
:1049600000BF10BD042808D14FF0E021096941F0D3
:1049700004014FF0E022116107E04FF0E0210969E6
:1049800021F004014FF0E0221161704770B586B04C
:1049900001A8FFF78FFB4FF47A710298B0FBF1F496
:1049A0002146B1F1807F00D31DE021F07F40401E01
:1049B0004FF0E022506150170F22002807DA13074A
:1049C0001E0E0B4B00F00F052D1F5E5503E0130765
:1049D0001D0E084B1D5400BF00204FF0E0229061D7
:1049E0000720106100BF0420FFF7BCFF06B070BDB8
:1049F00018ED00E000E400E010B502F087FF10BD04
:104A000070B50546002401F09FFEFEF73DFB00BF98
:104A10001AE004EB4400BE4901EB40004088401C12
:104A200004EB4401BA4A02EB4101488004EB440024
:104A3000114601EB40008088401C04EB440102EB6E
:104A400041018880601CC4B2022CE2DB002421E01A
:104A500004EB8401AE480C300844B0F80100401C5F
:104A600081B204EB8402AA480C301044A0F8011073
:104A700004EB8401A6480C300844B0F80300401C45
:104A800081B204EB8402A2480C301044A0F8031059
:104A9000601CC4B2052CDBDB9D48C08C401C81B27D
:104AA0009B48C184008D401C81B299480185B0F8B3
:104AB0002B00401C81B29648A0F82B10B0F82D00B6
:104AC000401C81B29248A0F82D1000240AE09148C1
:104AD00000EB44004078401C8E4901EB44014870D3
:104AE000601CC4B2052CF2DB8B48007820F001007A
:104AF000401C894908700846007820F00200801C9C
:104B00000870864801780078401C844A1070022999
:104B100009DD0020114608707F48407820F0100021
:104B200010307D4948707E4801780078401C7C4AEE
:104B300010700A2909DD0020114608707648407877
:104B400020F0400040307449487076480178007881
:104B5000401C744A10700A2909DB002011460870B5
:104B60006D48007820F0200020306B4908706E48B6
:104B700001780078401C6C4A10700A2909DB00207B
:104B8000114608706448407820F00100401C6249DA
:104B90004870664801780078401C644A10700A2901
:104BA00005DB00201146087001206149487061480A
:104BB00001780078401C5F4A10701E2909DB002034
:104BC0001146087001205A4948718871C8710872ED
:104BD0004872594801780078401C574A10700A29D9
:104BE00009DB0020114608704B48407820F0800017
:104BF000803049494870514801780078401C4F4A3C
:104C000010700A2909DB002011460870424880789C
:104C100020F00100401C4049887049480178007824
:104C2000401C474A1070022902D300201146087028
:104C300044480088401C43490880084600880A28E8
:104C400008DB414803F04CFF3F4803F0C0FE002062
:104C50003C4908803D480088401C3C490880084683
:104C600000880A2808DB3A4803F03AFF384803F086
:104C7000AEFE00203549088036480078401C354992
:104C80000870084600781E2808D3334803F028FF30
:104C9000314803F09CFE00202E4908702F48007810
:104CA000401C2E4908702E48007828B12D48007805
:104CB000401C2C49087002E000202A4908702A484C
:104CC000007828B1294803F082FE002026490870A8
:104CD00024480078B4280BD30120214908702348C8
:104CE00003F0FEFE01202049087000201D490870D5
:104CF0001F480078401C1E490870084600783C2870
:104D000004DB0020087001201A49087070BD000003
:104D10009C3A0020183B0020B60000202400002010
:104D2000230000201E0000201F0000202000002083
:104D3000002A00202100002025000020260000205D
:104D400016000020E600002040240020E80000209B
:104D5000E0240020EA00002080250020EE00002052
:104D6000380100200000002015000020C02600208F
:104D7000390100203A0100202449C96801F400717A
:104D800021B14FF40071214A516103E04FF40071E9
:104D90001E4A11611E490978491C1D4A11701146AD
:104DA00009780A2901D3002111701A490A78097873
:104DB000491C184B1970642A02D300211A4611703D
:104DC00015490A780978491C134B19700A2A10D31F
:104DD00000211A4611700D49C96801F4006121B122
:104DE0004FF40061094A516103E04FF40061074A42
:104DF00011610A490A780978491C084B1970142A6C
:104E000002DB00211A4611707047000000100140BB
:104E1000EB0000200F0000200E00002010000020FA
:104E200010B5C8210348FBF783FC00200249087035
:104E300010BD00000B2A00206100002070B5174C47
:104E400002F06CFD206840F2255100F0EEF950B1FF
:104E5000206880881249087000F024F8206840F229
:104E6000255100F0BAF9206840F2266100F0DDF922
:104E700020B1206840F2266100F0AFF920680821D7
:104E800000F0C6F9012806D120688088C5B22068E4
:104E9000082100F099F902F059FD70BD4B00002087
:104EA0006000002007480078C8280ADA0648007821
:104EB0000649044A1278885402480078401C014987
:104EC0000870704761000020600000200B2A00205D
:104ED0002DE9F04100260027B0460024002500BF40
:104EE00006E03948005DAA2800D105E0601CC4B284
:104EF000364800788442F4DB00BF344800788442AE
:104F000000D15DE031480078082858DD2E48005D6A
:104F1000AA2854D12C49601C085C01284FD1A01C40
:104F2000085C00284BD1201D095C274AE01C105C5E
:104F300001EB002087B2132F41D11146081911212E
:104F400005F036FA8046204904F11100095C1E4A3A
:104F5000401E105C01EB002086B2B0452FD11146F7
:104F6000601D085C0106A01D105C01EB0041E01D06
:104F7000105C01EB002104F10800105C08441449A6
:104F80000860002514E004F10A00022101FB05007D
:104F90000D49095C04F10900022202FB05000A4ADE
:104FA000105C01EB00200B4921F81500681CC5B20C
:104FB000042DE8DBFFF734FF0120BDE8F08100BFDE
:104FC000FFF72EFF0020F8E70B2A002061000020E9
:104FD000740000208400002070B505460E460024B1
:104FE00000BF0CE0295D074800F0DAF900BF40215E
:104FF000044800F00DF90028F9D0601C84B2B442D6
:10500000F0DB70BD004C004070B5174C02F086FC20
:10501000206840F2255100F008F950B120688088DE
:1050200012490870FEF772FC206840F2255100F02A
:10503000D4F8206840F2266100F0F7F820B120682B
:1050400040F2266100F0C9F82068082100F0E0F87D
:10505000012806D120688088C5B22068082100F0A8
:10506000B3F802F073FC70BD50000020D3000020A4
:1050700010B5144C02F052FC206840F2255100F0AB
:10508000D4F820B1206840F2255100F0A6F820683D
:1050900040F2266100F0C9F820B1206840F2266194
:1050A00000F09BF82068082100F0B2F8012806D132
:1050B000054804F027F82068082100F085F802F080
:1050C00045FC10BD3C0000200C28002010B51C4CF5
:1050D00002F024FC206840F2255100F0A6F898B1B7
:1050E00018480078C00930B12068808816490870D7
:1050F000FFF724F903E00121144802F005FB2068C2
:1051000040F2255100F069F8206840F2266100F075
:105110008CF820B1206840F2266100F05EF820682B
:10512000082100F075F8012806D1084803F0EAFFCD
:105130002068082100F048F802F008FC10BD0000CB
:1051400041000020B60000206200002070280020EE
:1051500010B5194C02F0E2FB206840F2255100F036
:1051600064F868B120688088144908701448018880
:105170001448FEF7C5FD206840F2255100F02DF8D7
:10518000206840F2266100F050F820B1206840F21B
:10519000266100F022F82068082100F039F8012883
:1051A00007D120688088054908702068082100F030
:1051B0000BF802F0CBFB10BD460000206A00002077
:1051C00068000020D32A002001F40072B2F5007FAD
:1051D00000D100BFCA430280704710B500220023EF
:1051E00040F66A14A14200D100BF0A120124944083
:1051F000A3B2DC43048010BD21B1828942F4005285
:10520000828104E082894DF6FF731A4082817047E3
:1052100002460020B1F5007F00D100BF13880B408B
:105220000BB1012000E00020704770B50246002459
:1052300000230025002040F66A16B14200D100BFCD
:10524000C1F3421501F01F03012606FA03F3012DF5
:1052500002D19689334006E0022D02D1168A3340EE
:1052600001E0968A33400C12012606FA04F41688EF
:10527000344013B10CB1012000E0002070BDF0B546
:105280000346002400260025002040F66A17B94294
:1052900000D100BF1846C1F3421401F01F060127D8
:1052A00007FA06F5012C01D10C3004E0022C01D1E3
:1052B000103000E014301AB107682F43076002E095
:1052C0000768AF430760F0BD2DE9F04786B005469B
:1052D0000E460024A24600BFA1460027B08900B1B7
:1052E00000BF2F462C8A4CF6FF700440F088044320
:1052F0002C82AC894EF6F3100440B0883189084303
:10530000718908430443AC81AC8A4FF6FF400440E6
:10531000B0890443AC8201A8FEF7CCFE1F48874247
:1053200002D1DDF810A001E0DDF80CA0A88900F49E
:10533000004040B10AEBCA0000EB0A103168490096
:10534000B0FBF1F807E00AEBCA0000EB0A10316885
:105350008900B0FBF1F86420B8FBF0F004012009EB
:10536000642101FB1089A88900F4004040B132207B
:1053700000EBC900B0FBF1F000F00700044308E0C7
:10538000322000EB09106421B0FBF1F000F00F00B7
:1053900004432C8106B0BDE8F087000000380140CE
:1053A000C1F308028280704710B586B0002401AABC
:1053B00000210548FBF7A1FD00BF01E0601CC4B25D
:1053C000082CFBDB06B010BD00640040F8B50646B3
:1053D0000C46154630798DF800008DF801408DF8A7
:1053E000025001208DF803006846FEF767FDF8BD06
:1053F00000BFFEE701464878012802DB48780C2808
:1054000001DD002070478878012802DB88781E289B
:1054100001DD0020F6E7C878012802DBC8783B28C8
:1054200001DD0020EEE70879012802DB08793B283E
:1054300001DD0020E6E74879012802DB48793B28B6
:1054400001DD0020DEE70120DCE70000014609B9AC
:1054500000207047C8B220B1C8B20E4A105C401C90
:10546000F7E701F47F4028B10A48C1F30722805CC6
:105470000930EEE701F47F0028B10648C1F3074286
:10548000805C1130E5E7034800EB116000781930CB
:10549000DFE70000D2B800082DE9F843054688464A
:1054A00016462F463FB90020009000BF9DF800002F
:1054B0000028FBD000BF34461CB94FF0FF30BDE8D8
:1054C000F88362882188386D036828469847002051
:1054D000F5E72DE9F8430546894616461F46A846D6
:1054E000B8F1000F07D10020009000BF9DF8000028
:1054F0000028FBD000BF34460CB1042F02D000209E
:10550000BDE8F8832188D8F8500082682846904783
:1055100060803846F4E72DE9F8430546894616468B
:105520001F46A846B8F1000F07D10020009000BF29
:105530009DF800000028FBD000BF34460CB1042FBA
:1055400002D00020BDE8F88362882188D8F8500096
:105550004368284698473846F4E738B504463CB9CE
:105560000020009000BF9DF800000028FBD000BF85
:10557000A16BE06A884205D9A18FA06B0844E16A5B
:10558000884206D2FAF754FE054600BF002DFDD131
:1055900000E000BF38BD00002DE9FC5F04468B46EB
:1055A00016461F46DDE90C9ADDE90E5804F1240089
:1055B0004060006000BF26636763C4F83890A4F8B9
:1055C0003CA0A28F2321A06B02F09AFBB4F83CC050
:1055D000A36B63441A1F144BD4E90C0102F070F959
:1055E000E062202D07DB0020019000BF9DF8040041
:1055F0000028FBD000BF4034A5716571C4F8148049
:10560000C4F81880002020602071A065E065403C4F
:1056100000902346054A2146019004F15C0003F006
:10562000A3FB0020BDE8FC9F1D880008318B00080B
:105630002DE9F04704460E4617469846DDF82090BF
:1056400084F81990607E20F001006076E66227639E
:105650000020A063C4F83480002506E004F1240192
:1056600001EBC50002F0D1F96D1C012DF6DBBDE8A0
:10567000F08710B50246002001460EE002F1240337
:1056800003EBC100D0E900436360D0E9003423603C
:105690004060006000BF481C01460129EEDB10BDE0
:1056A0002DE9F84304460E4617464FF0000904B1B1
:1056B0003EB90020009000BF9DF800000028FBD0FC
:1056C00000BFE56D3DB90020009000BF9DF80000CF
:1056D0000028FBD000BFFAF7ABFD80462868012800
:1056E0000AD001202860206D01233A463146D0F8C7
:1056F00010C02046E04701E06FF006094046FAF787
:105700009BFDB9F1000F02D13846BDE8F883484649
:1057100002F07CFF0020F8E72DE9F04704468846B8
:105720001646256E4FF0FF3332464146281D01F0E4
:1057300076FC0746CFB9FAF77BFD81462868012839
:105740000DD0012028604846FAF776FD206D02232F
:1057500032464146D0F810C02046E04702E04846B5
:10576000FAF76AFD3046BDE8F087384602F04EFF92
:105770000020F8E72DE9F84F06460F4615463EB9DA
:105780000020009000BF9DF800000028FBD000BF63
:10579000A846F46D3CB90020009000BF9DF80000C1
:1057A0000028FBD000BF22E0FAF742FD8246E088E5
:1057B000A18888420FD0E188206810F80190E08825
:1057C000401CE080E188B06DC0F38F20814206DB91
:1057D0000020E08003E05046FAF72EFD09E0504635
:1057E000FAF72AFD87F800907F1C6D1E00BF002D80
:1057F000DAD100BFA8EB0500BDE8F88F2DE9F8432A
:1058000005460E4614463DB90020009000BF9DF8A5
:1058100000000028FBD000BFA0462F6E3FB900203B
:10582000009000BF9DF800000028FBD000BF0FE0F3
:105830003178286D826828469047401C28B94FF07F
:10584000FF31384601F075FA02E0761C641E00BF95
:10585000002CEDD1A8EB0400BDE8F8832DE9F84356
:1058600006460F4614463EB90020009000BF9DF842
:1058700000000028FBD000BFA0460AE0306DC168E0
:105880003046884705463D707F1C641E0A2D00D1B6
:1058900001E0002CF2D100BFA8EB0400BDE8F883C2
:1058A000F8B504460E4615463CB90020009000BFEE
:1058B0009DF800000028FBD000BF2F4613E0307891
:1058C0000A2809D194F8260000F0400020B1206D8C
:1058D0000D218268204690473178206D82682046ED
:1058E0009047761C6D1E002DE9D1781BF8BD000095
:1058F00038B52D480068D0B901F0F4FC03F06EF91A
:1059000005460DE028480068401C27490860002033
:10591000009002E00098401C009000986428F9D3A1
:1059200003F05CF9401B0A28ECD301F029FE0024A7
:1059300003F054F9054609E0641C0020009002E0E1
:105940000098401C009000986428F9D303F046F9B1
:10595000401B0A28F0D31448006884421BD2124826
:105960000068041B642060430F490968B0FBF1F034
:105970000E490870642060430B490968B0FBF1F2DE
:1059800001FB12006421484307490968B0FBF1F0AC
:105990000749087006E004480460002003490870C5
:1059A0000349087038BD00007C0200207802002006
:1059B0007902002010B5024802F0D8FF10BD0000A7
:1059C000F158000810B50446204602F020FF10BD33
:1059D00010B54FF0E0235B694FF47A74B3FBF4F336
:1059E00058434FF0E023996900BF4FF0E0239B69D3
:1059F0008B4204D24FF0E0239B69CA1A07E04FF0B4
:105A0000E0235B690B444FF0E024A4691A1B824237
:105A1000EBD310BD70B505460C4606480288064912
:105A2000681CFAF706FE03480088401C208000200E
:105A300070BD00005C030020543E002010B500241F
:105A400006480078012806D10548006880470020F4
:105A50000249087000E00624204610BD67030020BC
:105A60006C0300202DE9F84F054689464FF0000AE7
:105A700004F0CEFF00B13EE0B9F80000022838DBA8
:105A8000684604F0E3FC00984078060200988078AD
:105A90000643701C86B20098C07804020098007912
:105AA000044304F0070038B12046E11704EB5171BC
:105AB000C910491CCFB205E02046E11704EB517133
:105AC000C1F3C707012C11DB6878B8420ED100235F
:105AD00022463146A81C00F019FC8046B8F1000FA0
